{
  "_format": "hh-sol-artifact-1",
  "contractName": "FarmerIcsContract",
  "sourceName": "contracts/FarmerIcsContract.sol",
  "abi": [
    {
      "inputs": [
        {
          "internalType": "address",
          "name": "_tokenAddress",
          "type": "address"
        },
        {
          "internalType": "string",
          "name": "_productName",
          "type": "string"
        },
        {
          "internalType": "string",
          "name": "_icsName",
          "type": "string"
        },
        {
          "internalType": "string",
          "name": "_farmerName",
          "type": "string"
        },
        {
          "internalType": "address",
          "name": "_ics",
          "type": "address"
        },
        {
          "internalType": "address",
          "name": "_farmer",
          "type": "address"
        },
        {
          "internalType": "uint256",
          "name": "_estimatedYieldMin",
          "type": "uint256"
        },
        {
          "internalType": "uint256",
          "name": "_estimatedYieldMax",
          "type": "uint256"
        },
        {
          "internalType": "uint256",
          "name": "_estimatedPriceMin",
          "type": "uint256"
        },
        {
          "internalType": "uint256",
          "name": "_estimatedPriceMax",
          "type": "uint256"
        },
        {
          "internalType": "uint256",
          "name": "_downPaymentBps",
          "type": "uint256"
        }
      ],
      "stateMutability": "nonpayable",
      "type": "constructor"
    },
    {
      "anonymous": false,
      "inputs": [
        {
          "indexed": false,
          "internalType": "address",
          "name": "admin",
          "type": "address"
        },
        {
          "indexed": false,
          "internalType": "address",
          "name": "buyer",
          "type": "address"
        },
        {
          "indexed": false,
          "internalType": "address",
          "name": "seller",
          "type": "address"
        },
        {
          "indexed": false,
          "internalType": "uint256",
          "name": "contractValueMin",
          "type": "uint256"
        },
        {
          "indexed": false,
          "internalType": "uint256",
          "name": "contractValueMax",
          "type": "uint256"
        }
      ],
      "name": "AdminSigned",
      "type": "event"
    },
    {
      "anonymous": false,
      "inputs": [
        {
          "indexed": false,
          "internalType": "address",
          "name": "buyer",
          "type": "address"
        },
        {
          "indexed": false,
          "internalType": "address",
          "name": "seller",
          "type": "address"
        },
        {
          "indexed": false,
          "internalType": "uint256",
          "name": "contractValueMin",
          "type": "uint256"
        },
        {
          "indexed": false,
          "internalType": "uint256",
          "name": "contractValueMax",
          "type": "uint256"
        }
      ],
      "name": "BuyerSigned",
      "type": "event"
    },
    {
      "anonymous": false,
      "inputs": [
        {
          "indexed": false,
          "internalType": "address",
          "name": "buyer",
          "type": "address"
        },
        {
          "indexed": false,
          "internalType": "address",
          "name": "seller",
          "type": "address"
        }
      ],
      "name": "Cancel",
      "type": "event"
    },
    {
      "anonymous": false,
      "inputs": [
        {
          "indexed": false,
          "internalType": "address",
          "name": "buyer",
          "type": "address"
        },
        {
          "indexed": false,
          "internalType": "address",
          "name": "seller",
          "type": "address"
        },
        {
          "indexed": false,
          "internalType": "uint256",
          "name": "qty",
          "type": "uint256"
        }
      ],
      "name": "Deposit",
      "type": "event"
    },
    {
      "anonymous": false,
      "inputs": [
        {
          "indexed": false,
          "internalType": "address",
          "name": "buyer",
          "type": "address"
        },
        {
          "indexed": false,
          "internalType": "address",
          "name": "seller",
          "type": "address"
        },
        {
          "indexed": false,
          "internalType": "uint256",
          "name": "qty",
          "type": "uint256"
        }
      ],
      "name": "Release",
      "type": "event"
    },
    {
      "anonymous": false,
      "inputs": [
        {
          "indexed": false,
          "internalType": "address",
          "name": "buyer",
          "type": "address"
        },
        {
          "indexed": false,
          "internalType": "address",
          "name": "seller",
          "type": "address"
        },
        {
          "indexed": false,
          "internalType": "uint256",
          "name": "contractValueMin",
          "type": "uint256"
        },
        {
          "indexed": false,
          "internalType": "uint256",
          "name": "contractValueMax",
          "type": "uint256"
        }
      ],
      "name": "SellerSigned",
      "type": "event"
    },
    {
      "anonymous": false,
      "inputs": [
        {
          "indexed": false,
          "internalType": "address",
          "name": "buyer",
          "type": "address"
        },
        {
          "indexed": false,
          "internalType": "address",
          "name": "seller",
          "type": "address"
        },
        {
          "indexed": false,
          "internalType": "uint256",
          "name": "qty",
          "type": "uint256"
        }
      ],
      "name": "Unlock",
      "type": "event"
    },
    {
      "anonymous": false,
      "inputs": [
        {
          "indexed": false,
          "internalType": "address",
          "name": "buyer",
          "type": "address"
        },
        {
          "indexed": false,
          "internalType": "address",
          "name": "seller",
          "type": "address"
        },
        {
          "indexed": false,
          "internalType": "uint256",
          "name": "qty",
          "type": "uint256"
        }
      ],
      "name": "Withdraw",
      "type": "event"
    },
    {
      "inputs": [
        {
          "internalType": "string",
          "name": "_uri",
          "type": "string"
        },
        {
          "internalType": "uint256",
          "name": "_eventId",
          "type": "uint256"
        }
      ],
      "name": "addEvent",
      "outputs": [],
      "stateMutability": "nonpayable",
      "type": "function"
    },
    {
      "inputs": [],
      "name": "adminSign",
      "outputs": [],
      "stateMutability": "nonpayable",
      "type": "function"
    },
    {
      "inputs": [
        {
          "internalType": "address",
          "name": "_unlocker",
          "type": "address"
        }
      ],
      "name": "assignUnlocker",
      "outputs": [],
      "stateMutability": "nonpayable",
      "type": "function"
    },
    {
      "inputs": [],
      "name": "buyerSign",
      "outputs": [],
      "stateMutability": "nonpayable",
      "type": "function"
    },
    {
      "inputs": [],
      "name": "cancel",
      "outputs": [],
      "stateMutability": "nonpayable",
      "type": "function"
    },
    {
      "inputs": [],
      "name": "details",
      "outputs": [
        {
          "internalType": "address",
          "name": "",
          "type": "address"
        },
        {
          "internalType": "address",
          "name": "",
          "type": "address"
        },
        {
          "internalType": "uint256",
          "name": "",
          "type": "uint256"
        },
        {
          "internalType": "uint256",
          "name": "",
          "type": "uint256"
        },
        {
          "internalType": "uint256",
          "name": "",
          "type": "uint256"
        },
        {
          "internalType": "uint256",
          "name": "",
          "type": "uint256"
        },
        {
          "internalType": "uint256",
          "name": "",
          "type": "uint256"
        }
      ],
      "stateMutability": "view",
      "type": "function"
    },
    {
      "inputs": [],
      "name": "finalPayment",
      "outputs": [
        {
          "internalType": "bool",
          "name": "",
          "type": "bool"
        }
      ],
      "stateMutability": "nonpayable",
      "type": "function"
    },
    {
      "inputs": [],
      "name": "getBuyer",
      "outputs": [
        {
          "internalType": "string",
          "name": "",
          "type": "string"
        },
        {
          "internalType": "address",
          "name": "",
          "type": "address"
        }
      ],
      "stateMutability": "view",
      "type": "function"
    },
    {
      "inputs": [],
      "name": "getContractValue",
      "outputs": [
        {
          "internalType": "uint256",
          "name": "",
          "type": "uint256"
        },
        {
          "internalType": "uint256",
          "name": "",
          "type": "uint256"
        }
      ],
      "stateMutability": "view",
      "type": "function"
    },
    {
      "inputs": [],
      "name": "getDetails2",
      "outputs": [
        {
          "components": [
            {
              "internalType": "string",
              "name": "productName",
              "type": "string"
            },
            {
              "internalType": "address",
              "name": "buyer",
              "type": "address"
            },
            {
              "internalType": "string",
              "name": "buyerName",
              "type": "string"
            },
            {
              "internalType": "address",
              "name": "seller",
              "type": "address"
            },
            {
              "internalType": "string",
              "name": "sellerName",
              "type": "string"
            },
            {
              "internalType": "uint256",
              "name": "estimatedYieldMin",
              "type": "uint256"
            },
            {
              "internalType": "uint256",
              "name": "estimatedYieldMax",
              "type": "uint256"
            },
            {
              "internalType": "uint256",
              "name": "tentativeYield",
              "type": "uint256"
            },
            {
              "internalType": "uint256",
              "name": "estimatedPriceMin",
              "type": "uint256"
            },
            {
              "internalType": "uint256",
              "name": "estimatedPriceMax",
              "type": "uint256"
            },
            {
              "internalType": "uint256",
              "name": "tentativePrice",
              "type": "uint256"
            },
            {
              "internalType": "uint256",
              "name": "releasedAmount",
              "type": "uint256"
            },
            {
              "internalType": "uint256",
              "name": "lockedAmount",
              "type": "uint256"
            },
            {
              "internalType": "address",
              "name": "contractNFT",
              "type": "address"
            },
            {
              "internalType": "uint256",
              "name": "contractValueMin",
              "type": "uint256"
            },
            {
              "internalType": "uint256",
              "name": "contractValueMax",
              "type": "uint256"
            },
            {
              "internalType": "bool",
              "name": "adminSigned",
              "type": "bool"
            },
            {
              "internalType": "bool",
              "name": "buyerSigned",
              "type": "bool"
            },
            {
              "internalType": "bool",
              "name": "sellerSigned",
              "type": "bool"
            }
          ],
          "internalType": "struct ContractDetails",
          "name": "",
          "type": "tuple"
        }
      ],
      "stateMutability": "view",
      "type": "function"
    },
    {
      "inputs": [],
      "name": "getParentContract",
      "outputs": [
        {
          "internalType": "address",
          "name": "",
          "type": "address"
        }
      ],
      "stateMutability": "view",
      "type": "function"
    },
    {
      "inputs": [],
      "name": "getProduct",
      "outputs": [
        {
          "internalType": "string",
          "name": "",
          "type": "string"
        },
        {
          "internalType": "uint256",
          "name": "",
          "type": "uint256"
        },
        {
          "internalType": "uint256",
          "name": "",
          "type": "uint256"
        },
        {
          "internalType": "uint256",
          "name": "",
          "type": "uint256"
        },
        {
          "internalType": "uint256",
          "name": "",
          "type": "uint256"
        }
      ],
      "stateMutability": "view",
      "type": "function"
    },
    {
      "inputs": [],
      "name": "getSeller",
      "outputs": [
        {
          "internalType": "string",
          "name": "",
          "type": "string"
        },
        {
          "internalType": "address",
          "name": "",
          "type": "address"
        }
      ],
      "stateMutability": "view",
      "type": "function"
    },
    {
      "inputs": [],
      "name": "makeDownpayment",
      "outputs": [
        {
          "internalType": "bool",
          "name": "",
          "type": "bool"
        }
      ],
      "stateMutability": "nonpayable",
      "type": "function"
    },
    {
      "inputs": [
        {
          "internalType": "uint256",
          "name": "_amount",
          "type": "uint256"
        }
      ],
      "name": "releaseAmount",
      "outputs": [
        {
          "internalType": "bool",
          "name": "",
          "type": "bool"
        }
      ],
      "stateMutability": "nonpayable",
      "type": "function"
    },
    {
      "inputs": [],
      "name": "sellerSign",
      "outputs": [],
      "stateMutability": "nonpayable",
      "type": "function"
    },
    {
      "inputs": [
        {
          "internalType": "address",
          "name": "_incentiveContract",
          "type": "address"
        }
      ],
      "name": "setIncentiveContract",
      "outputs": [],
      "stateMutability": "nonpayable",
      "type": "function"
    },
    {
      "inputs": [
        {
          "internalType": "address",
          "name": "_nftAddress",
          "type": "address"
        }
      ],
      "name": "setNFT",
      "outputs": [],
      "stateMutability": "nonpayable",
      "type": "function"
    },
    {
      "inputs": [
        {
          "internalType": "address",
          "name": "_parentContract",
          "type": "address"
        }
      ],
      "name": "setParentContract",
      "outputs": [],
      "stateMutability": "nonpayable",
      "type": "function"
    },
    {
      "inputs": [
        {
          "internalType": "uint256",
          "name": "_amount",
          "type": "uint256"
        }
      ],
      "name": "unlockAmount",
      "outputs": [
        {
          "internalType": "bool",
          "name": "",
          "type": "bool"
        }
      ],
      "stateMutability": "nonpayable",
      "type": "function"
    },
    {
      "inputs": [],
      "name": "withdraw",
      "outputs": [
        {
          "internalType": "bool",
          "name": "",
          "type": "bool"
        }
      ],
      "stateMutability": "nonpayable",
      "type": "function"
    }
  ],
  "bytecode": "0x60806040523480156200001157600080fd5b50604051620044af380380620044af83398181016040528101906200003791906200060c565b8a8a8a8a8a8a8a8a8a8a8a6000811015801562000055575061271081105b62000097576040517f08c379a00000000000000000000000000000000000000000000000000000000081526004016200008e90620007fd565b60405180910390fd5b8960049080519060200190620000af9291906200031f565b5033600160006101000a81548173ffffffffffffffffffffffffffffffffffffffff021916908373ffffffffffffffffffffffffffffffffffffffff160217905550600560009054906101000a900473ffffffffffffffffffffffffffffffffffffffff16600360006101000a81548173ffffffffffffffffffffffffffffffffffffffff021916908373ffffffffffffffffffffffffffffffffffffffff1602179055508a6000806101000a81548173ffffffffffffffffffffffffffffffffffffffff021916908373ffffffffffffffffffffffffffffffffffffffff16021790555086600560006101000a81548173ffffffffffffffffffffffffffffffffffffffff021916908373ffffffffffffffffffffffffffffffffffffffff1602179055508860069080519060200190620001ed9291906200031f565b508760089080519060200190620002069291906200031f565b5085600760006101000a81548173ffffffffffffffffffffffffffffffffffffffff021916908373ffffffffffffffffffffffffffffffffffffffff16021790555060006012819055506000601381905550806014819055508460098190555083600a8190555082600c8190555081600d81905550670de0b6b3a764000083866200029291906200084e565b6200029e91906200084e565b601081905550670de0b6b3a76400008285620002bb91906200084e565b620002c791906200084e565b6011819055506000600f60016101000a81548160ff0219169083151502179055506000600f60026101000a81548160ff0219169083151502179055505050505050505050505050505050505050505050505062000914565b8280546200032d90620008de565b90600052602060002090601f0160209004810192826200035157600085556200039d565b82601f106200036c57805160ff19168380011785556200039d565b828001600101855582156200039d579182015b828111156200039c5782518255916020019190600101906200037f565b5b509050620003ac9190620003b0565b5090565b5b80821115620003cb576000816000905550600101620003b1565b5090565b6000604051905090565b600080fd5b600080fd5b600073ffffffffffffffffffffffffffffffffffffffff82169050919050565b60006200041082620003e3565b9050919050565b620004228162000403565b81146200042e57600080fd5b50565b600081519050620004428162000417565b92915050565b600080fd5b600080fd5b6000601f19601f8301169050919050565b7f4e487b7100000000000000000000000000000000000000000000000000000000600052604160045260246000fd5b6200049d8262000452565b810181811067ffffffffffffffff82111715620004bf57620004be62000463565b5b80604052505050565b6000620004d4620003cf565b9050620004e2828262000492565b919050565b600067ffffffffffffffff82111562000505576200050462000463565b5b620005108262000452565b9050602081019050919050565b60005b838110156200053d57808201518184015260208101905062000520565b838111156200054d576000848401525b50505050565b60006200056a6200056484620004e7565b620004c8565b9050828152602081018484840111156200058957620005886200044d565b5b620005968482856200051d565b509392505050565b600082601f830112620005b657620005b562000448565b5b8151620005c884826020860162000553565b91505092915050565b6000819050919050565b620005e681620005d1565b8114620005f257600080fd5b50565b6000815190506200060681620005db565b92915050565b60008060008060008060008060008060006101608c8e031215620006355762000634620003d9565b5b6000620006458e828f0162000431565b9b505060208c015167ffffffffffffffff811115620006695762000668620003de565b5b620006778e828f016200059e565b9a505060408c015167ffffffffffffffff8111156200069b576200069a620003de565b5b620006a98e828f016200059e565b99505060608c015167ffffffffffffffff811115620006cd57620006cc620003de565b5b620006db8e828f016200059e565b9850506080620006ee8e828f0162000431565b97505060a0620007018e828f0162000431565b96505060c0620007148e828f01620005f5565b95505060e0620007278e828f01620005f5565b9450506101006200073b8e828f01620005f5565b9350506101206200074f8e828f01620005f5565b925050610140620007638e828f01620005f5565b9150509295989b509295989b9093969950565b600082825260208201905092915050565b7f496e76616c696420646f776e5061796d656e744270732c20706c65617365207060008201527f6173732070657263656e7461676520626173697320706f696e74730000000000602082015250565b6000620007e5603b8362000776565b9150620007f28262000787565b604082019050919050565b600060208201905081810360008301526200081881620007d6565b9050919050565b7f4e487b7100000000000000000000000000000000000000000000000000000000600052601160045260246000fd5b60006200085b82620005d1565b91506200086883620005d1565b9250817fffffffffffffffffffffffffffffffffffffffffffffffffffffffffffffffff0483118215151615620008a457620008a36200081f565b5b828202905092915050565b7f4e487b7100000000000000000000000000000000000000000000000000000000600052602260045260246000fd5b60006002820490506001821680620008f757607f821691505b602082108114156200090e576200090d620008af565b5b50919050565b613b8b80620009246000396000f3fe608060405234801561001057600080fd5b50600436106101375760003560e01c8063807b5d29116100b8578063dbd0e1b61161007c578063dbd0e1b6146102eb578063dc82697c1461030a578063ea8a1af014610329578063f0e1691a14610333578063f11777121461034f578063f56e9c661461036d57610137565b8063807b5d291461027f57806396a69f4314610289578063a513de69146102a7578063c011bf16146102b1578063da385756146102cd57610137565b80634cd2c09a116100ff5780634cd2c09a146101d2578063565974d3146102025780635ebe251414610226578063603daf9a14610244578063765ccb6b1461026357610137565b8063046a2fdd1461013c57806307818200146101465780632278f36b146101625780633ccfd60b146101925780634ba20050146101b0575b600080fd5b610144610389565b005b610160600480360381019061015b9190612925565b610704565b005b61017c60048036038101906101779190612988565b6107d8565b60405161018991906129d0565b60405180910390f35b61019a6108f9565b6040516101a791906129d0565b60405180910390f35b6101b8610c2d565b6040516101c9959493929190612a93565b60405180910390f35b6101ec60048036038101906101e79190612988565b610ce0565b6040516101f991906129d0565b60405180910390f35b61020a610ee6565b60405161021d9796959493929190612afc565b60405180910390f35b61022e61100e565b60405161023b91906129d0565b60405180910390f35b61024c61112c565b60405161025a929190612b6b565b60405180910390f35b61027d60048036038101906102789190612925565b6111e9565b005b61028761122d565b005b610291611383565b60405161029e9190612db7565b60405180910390f35b6102af611398565b005b6102cb60048036038101906102c69190612925565b6114ca565b005b6102d561150e565b6040516102e291906129d0565b60405180910390f35b6102f3611761565b604051610301929190612b6b565b60405180910390f35b61031261181e565b604051610320929190612dd9565b60405180910390f35b61033161182f565b005b61034d60048036038101906103489190612f37565b611acf565b005b610357611c28565b6040516103649190612f93565b60405180910390f35b61038760048036038101906103829190612925565b611c52565b005b600560009054906101000a900473ffffffffffffffffffffffffffffffffffffffff1673ffffffffffffffffffffffffffffffffffffffff163373ffffffffffffffffffffffffffffffffffffffff1614610419576040517f08c379a000000000000000000000000000000000000000000000000000000000815260040161041090612ffa565b60405180910390fd5b60008060009054906101000a900473ffffffffffffffffffffffffffffffffffffffff16905060008173ffffffffffffffffffffffffffffffffffffffff166370a08231600560009054906101000a900473ffffffffffffffffffffffffffffffffffffffff166040518263ffffffff1660e01b815260040161049c9190612f93565b60206040518083038186803b1580156104b457600080fd5b505afa1580156104c8573d6000803e3d6000fd5b505050506040513d601f19601f820116820180604052508101906104ec919061302f565b9050601154811015610533576040517f08c379a000000000000000000000000000000000000000000000000000000000815260040161052a906130ce565b60405180910390fd5b6001600f60016101000a81548160ff021916908315150217905550806012819055507fca509163edfc238d34e4ef84d235590fe07508a67a58fa10a2a30ba245252f6a600560009054906101000a900473ffffffffffffffffffffffffffffffffffffffff16600760009054906101000a900473ffffffffffffffffffffffffffffffffffffffff166010546011546040516105d294939291906130ee565b60405180910390a160008273ffffffffffffffffffffffffffffffffffffffff1663dd62ed3e33306040518363ffffffff1660e01b8152600401610617929190613133565b60206040518083038186803b15801561062f57600080fd5b505afa158015610643573d6000803e3d6000fd5b505050506040513d601f19601f82011682018060405250810190610667919061302f565b90506011548110156106ae576040517f08c379a00000000000000000000000000000000000000000000000000000000081526004016106a5906131f4565b60405180910390fd5b6106ff600560009054906101000a900473ffffffffffffffffffffffffffffffffffffffff16306011548673ffffffffffffffffffffffffffffffffffffffff16611d26909392919063ffffffff16565b505050565b600560009054906101000a900473ffffffffffffffffffffffffffffffffffffffff1673ffffffffffffffffffffffffffffffffffffffff163373ffffffffffffffffffffffffffffffffffffffff1614610794576040517f08c379a000000000000000000000000000000000000000000000000000000000815260040161078b90612ffa565b60405180910390fd5b80601560006101000a81548173ffffffffffffffffffffffffffffffffffffffff021916908373ffffffffffffffffffffffffffffffffffffffff16021790555050565b6000600560009054906101000a900473ffffffffffffffffffffffffffffffffffffffff1673ffffffffffffffffffffffffffffffffffffffff163373ffffffffffffffffffffffffffffffffffffffff161461086a576040517f08c379a000000000000000000000000000000000000000000000000000000000815260040161086190612ffa565b60405180910390fd5b600f60009054906101000a900460ff1680156108925750600f60019054906101000a900460ff165b80156108aa5750600f60029054906101000a900460ff165b6108e9576040517f08c379a00000000000000000000000000000000000000000000000000000000081526004016108e090613260565b60405180910390fd5b6108f282611daf565b9050919050565b6000600760009054906101000a900473ffffffffffffffffffffffffffffffffffffffff1673ffffffffffffffffffffffffffffffffffffffff163373ffffffffffffffffffffffffffffffffffffffff161461098b576040517f08c379a0000000000000000000000000000000000000000000000000000000008152600401610982906132cc565b60405180910390fd5b600f60009054906101000a900460ff1680156109b35750600f60019054906101000a900460ff165b80156109cb5750600f60029054906101000a900460ff165b610a0a576040517f08c379a0000000000000000000000000000000000000000000000000000000008152600401610a0190613260565b60405180910390fd5b60008060009054906101000a900473ffffffffffffffffffffffffffffffffffffffff16905060008173ffffffffffffffffffffffffffffffffffffffff166370a08231306040518263ffffffff1660e01b8152600401610a6b9190612f93565b60206040518083038186803b158015610a8357600080fd5b505afa158015610a97573d6000803e3d6000fd5b505050506040513d601f19601f82011682018060405250810190610abb919061302f565b9050806012541115610b02576040517f08c379a0000000000000000000000000000000000000000000000000000000008152600401610af99061335e565b60405180910390fd5b600060125482610b1291906133ad565b905060008111610b57576040517f08c379a0000000000000000000000000000000000000000000000000000000008152600401610b4e9061342d565b60405180910390fd5b610ba4600760009054906101000a900473ffffffffffffffffffffffffffffffffffffffff16828573ffffffffffffffffffffffffffffffffffffffff16611ff59092919063ffffffff16565b7f9b1bfa7fa9ee420a16e124f794c35ac9f90472acc99140eb2f6447c714cad8eb600560009054906101000a900473ffffffffffffffffffffffffffffffffffffffff16600760009054906101000a900473ffffffffffffffffffffffffffffffffffffffff1683604051610c1b9392919061344d565b60405180910390a16001935050505090565b60606000806000806004600954600a54600c54600d54848054610c4f906134b3565b80601f0160208091040260200160405190810160405280929190818152602001828054610c7b906134b3565b8015610cc85780601f10610c9d57610100808354040283529160200191610cc8565b820191906000526020600020905b815481529060010190602001808311610cab57829003601f168201915b50505050509450945094509450945094509091929394565b6000600360009054906101000a900473ffffffffffffffffffffffffffffffffffffffff1673ffffffffffffffffffffffffffffffffffffffff163373ffffffffffffffffffffffffffffffffffffffff1614610d72576040517f08c379a0000000000000000000000000000000000000000000000000000000008152600401610d6990613531565b60405180910390fd5b600f60009054906101000a900460ff168015610d9a5750600f60019054906101000a900460ff165b8015610db25750600f60029054906101000a900460ff165b610df1576040517f08c379a0000000000000000000000000000000000000000000000000000000008152600401610de890613260565b60405180910390fd5b601354821115610e36576040517f08c379a0000000000000000000000000000000000000000000000000000000008152600401610e2d906135c3565b60405180910390fd5b81601254610e4491906133ad565b60128190555081601354610e5891906133ad565b6013819055507fc1c90b8e0705b212262c0dbd7580efe1862c2f185bf96899226f7596beb2db09600560009054906101000a900473ffffffffffffffffffffffffffffffffffffffff16600760009054906101000a900473ffffffffffffffffffffffffffffffffffffffff1684604051610ed59392919061344d565b60405180910390a160019050919050565b60008060008060008060008060008054906101000a900473ffffffffffffffffffffffffffffffffffffffff16905060008173ffffffffffffffffffffffffffffffffffffffff166370a08231306040518263ffffffff1660e01b8152600401610f509190612f93565b60206040518083038186803b158015610f6857600080fd5b505afa158015610f7c573d6000803e3d6000fd5b505050506040513d601f19601f82011682018060405250810190610fa0919061302f565b9050600560009054906101000a900473ffffffffffffffffffffffffffffffffffffffff16600760009054906101000a900473ffffffffffffffffffffffffffffffffffffffff16601054601154846013546012549850985098509850985098509850505090919293949596565b6000600560009054906101000a900473ffffffffffffffffffffffffffffffffffffffff1673ffffffffffffffffffffffffffffffffffffffff163373ffffffffffffffffffffffffffffffffffffffff16146110a0576040517f08c379a000000000000000000000000000000000000000000000000000000000815260040161109790612ffa565b60405180910390fd5b600f60009054906101000a900460ff1680156110c85750600f60019054906101000a900460ff165b80156110e05750600f60029054906101000a900460ff165b61111f576040517f08c379a000000000000000000000000000000000000000000000000000000000815260040161111690613260565b60405180910390fd5b61112761207b565b905090565b606060006006600560009054906101000a900473ffffffffffffffffffffffffffffffffffffffff16818054611161906134b3565b80601f016020809104026020016040519081016040528092919081815260200182805461118d906134b3565b80156111da5780601f106111af576101008083540402835291602001916111da565b820191906000526020600020905b8154815290600101906020018083116111bd57829003601f168201915b50505050509150915091509091565b80601660006101000a81548173ffffffffffffffffffffffffffffffffffffffff021916908373ffffffffffffffffffffffffffffffffffffffff16021790555050565b600160009054906101000a900473ffffffffffffffffffffffffffffffffffffffff1673ffffffffffffffffffffffffffffffffffffffff163373ffffffffffffffffffffffffffffffffffffffff16146112bd576040517f08c379a00000000000000000000000000000000000000000000000000000000081526004016112b490613655565b60405180910390fd5b6001600f60006101000a81548160ff0219169083151502179055507f2d02a8006c04b9bb35fcf84fbe0c3a2eebc574698ed7716c9f67b0f67244b6f5600160009054906101000a900473ffffffffffffffffffffffffffffffffffffffff16600560009054906101000a900473ffffffffffffffffffffffffffffffffffffffff16600760009054906101000a900473ffffffffffffffffffffffffffffffffffffffff16601054601154604051611379959493929190613675565b60405180910390a1565b61138b6127d9565b61139361222e565b905090565b600760009054906101000a900473ffffffffffffffffffffffffffffffffffffffff1673ffffffffffffffffffffffffffffffffffffffff163373ffffffffffffffffffffffffffffffffffffffff1614611428576040517f08c379a000000000000000000000000000000000000000000000000000000000815260040161141f906132cc565b60405180910390fd5b6001600f60026101000a81548160ff0219169083151502179055507f2e4ddfb651f821a25a38775d9a40cd48df71699988424942de2b58a490463f0f600560009054906101000a900473ffffffffffffffffffffffffffffffffffffffff16600760009054906101000a900473ffffffffffffffffffffffffffffffffffffffff166010546011546040516114c094939291906130ee565b60405180910390a1565b80600360006101000a81548173ffffffffffffffffffffffffffffffffffffffff021916908373ffffffffffffffffffffffffffffffffffffffff16021790555050565b6000600560009054906101000a900473ffffffffffffffffffffffffffffffffffffffff1673ffffffffffffffffffffffffffffffffffffffff163373ffffffffffffffffffffffffffffffffffffffff16146115a0576040517f08c379a000000000000000000000000000000000000000000000000000000000815260040161159790612ffa565b60405180910390fd5b600f60009054906101000a900460ff1680156115c85750600f60019054906101000a900460ff165b80156115e05750600f60029054906101000a900460ff165b61161f576040517f08c379a000000000000000000000000000000000000000000000000000000000815260040161161690613260565b60405180910390fd5b60008060009054906101000a900473ffffffffffffffffffffffffffffffffffffffff16905060008173ffffffffffffffffffffffffffffffffffffffff166370a08231306040518263ffffffff1660e01b81526004016116809190612f93565b60206040518083038186803b15801561169857600080fd5b505afa1580156116ac573d6000803e3d6000fd5b505050506040513d601f19601f820116820180604052508101906116d0919061302f565b9050806013819055507fcb54aad3bd772fcfe1bc124e01bd1a91a91c9d80126d8b3014c4d9e687d5ca48600560009054906101000a900473ffffffffffffffffffffffffffffffffffffffff16600760009054906101000a900473ffffffffffffffffffffffffffffffffffffffff16836040516117509392919061344d565b60405180910390a160019250505090565b606060006008600760009054906101000a900473ffffffffffffffffffffffffffffffffffffffff16818054611796906134b3565b80601f01602080910402602001604051908101604052809291908181526020018280546117c2906134b3565b801561180f5780601f106117e45761010080835404028352916020019161180f565b820191906000526020600020905b8154815290600101906020018083116117f257829003601f168201915b50505050509150915091509091565b600080601054601154915091509091565b600160009054906101000a900473ffffffffffffffffffffffffffffffffffffffff1673ffffffffffffffffffffffffffffffffffffffff163373ffffffffffffffffffffffffffffffffffffffff16146118bf576040517f08c379a00000000000000000000000000000000000000000000000000000000081526004016118b690613655565b60405180910390fd5b600f60009054906101000a900460ff1680156118e75750600f60019054906101000a900460ff165b80156118ff5750600f60029054906101000a900460ff165b61193e576040517f08c379a000000000000000000000000000000000000000000000000000000000815260040161193590613260565b60405180910390fd5b60008060009054906101000a900473ffffffffffffffffffffffffffffffffffffffff16905060008173ffffffffffffffffffffffffffffffffffffffff166370a08231306040518263ffffffff1660e01b815260040161199f9190612f93565b60206040518083038186803b1580156119b757600080fd5b505afa1580156119cb573d6000803e3d6000fd5b505050506040513d601f19601f820116820180604052508101906119ef919061302f565b9050611a3e600560009054906101000a900473ffffffffffffffffffffffffffffffffffffffff16828473ffffffffffffffffffffffffffffffffffffffff16611ff59092919063ffffffff16565b600060128190555060006013819055507f50d9aca76814f78d884b23d6acf60b8e4a0404b5bfd5fe15fae3cc9d874eb949600560009054906101000a900473ffffffffffffffffffffffffffffffffffffffff16600760009054906101000a900473ffffffffffffffffffffffffffffffffffffffff16604051611ac3929190613133565b60405180910390a15050565b6000600760009054906101000a900473ffffffffffffffffffffffffffffffffffffffff1690508073ffffffffffffffffffffffffffffffffffffffff163373ffffffffffffffffffffffffffffffffffffffff1614611b64576040517f08c379a0000000000000000000000000000000000000000000000000000000008152600401611b5b9061373a565b60405180910390fd5b6000600760009054906101000a900473ffffffffffffffffffffffffffffffffffffffff1690506000601560009054906101000a900473ffffffffffffffffffffffffffffffffffffffff1690508073ffffffffffffffffffffffffffffffffffffffff166329a19edb8684876040518463ffffffff1660e01b8152600401611bef9392919061375a565b600060405180830381600087803b158015611c0957600080fd5b505af1158015611c1d573d6000803e3d6000fd5b505050505050505050565b6000601660009054906101000a900473ffffffffffffffffffffffffffffffffffffffff16905090565b600160009054906101000a900473ffffffffffffffffffffffffffffffffffffffff1673ffffffffffffffffffffffffffffffffffffffff163373ffffffffffffffffffffffffffffffffffffffff1614611ce2576040517f08c379a0000000000000000000000000000000000000000000000000000000008152600401611cd990613655565b60405180910390fd5b80600260006101000a81548173ffffffffffffffffffffffffffffffffffffffff021916908373ffffffffffffffffffffffffffffffffffffffff16021790555050565b611da9846323b872dd60e01b858585604051602401611d479392919061344d565b604051602081830303815290604052907bffffffffffffffffffffffffffffffffffffffffffffffffffffffff19166020820180517bffffffffffffffffffffffffffffffffffffffffffffffffffffffff8381831617835250505050612544565b50505050565b60008060008054906101000a900473ffffffffffffffffffffffffffffffffffffffff16905060008173ffffffffffffffffffffffffffffffffffffffff166370a08231306040518263ffffffff1660e01b8152600401611e109190612f93565b60206040518083038186803b158015611e2857600080fd5b505afa158015611e3c573d6000803e3d6000fd5b505050506040513d601f19601f82011682018060405250810190611e60919061302f565b905083601354611e709190613798565b601381905550600060125482611e8691906133ad565b9050808510611eca576040517f08c379a0000000000000000000000000000000000000000000000000000000008152600401611ec19061342d565b60405180910390fd5b84601254611ed891906133ad565b6012819055507fcb54aad3bd772fcfe1bc124e01bd1a91a91c9d80126d8b3014c4d9e687d5ca48600560009054906101000a900473ffffffffffffffffffffffffffffffffffffffff16600760009054906101000a900473ffffffffffffffffffffffffffffffffffffffff1687604051611f559392919061344d565b60405180910390a13073ffffffffffffffffffffffffffffffffffffffff16634cd2c09a866040518263ffffffff1660e01b8152600401611f9691906137ee565b602060405180830381600087803b158015611fb057600080fd5b505af1158015611fc4573d6000803e3d6000fd5b505050506040513d601f19601f82011682018060405250810190611fe89190613835565b5060019350505050919050565b6120768363a9059cbb60e01b8484604051602401612014929190613862565b604051602081830303815290604052907bffffffffffffffffffffffffffffffffffffffffffffffffffffffff19166020820180517bffffffffffffffffffffffffffffffffffffffffffffffffffffffff8381831617835250505050612544565b505050565b60008060008054906101000a900473ffffffffffffffffffffffffffffffffffffffff16905060008173ffffffffffffffffffffffffffffffffffffffff166370a08231306040518263ffffffff1660e01b81526004016120dc9190612f93565b60206040518083038186803b1580156120f457600080fd5b505afa158015612108573d6000803e3d6000fd5b505050506040513d601f19601f8201168201806040525081019061212c919061302f565b90506000612710601054601454612143919061388b565b61214d9190613914565b9050818110612191576040517f08c379a00000000000000000000000000000000000000000000000000000000081526004016121889061342d565b60405180910390fd5b8060135461219f9190613798565b6013819055507fcb54aad3bd772fcfe1bc124e01bd1a91a91c9d80126d8b3014c4d9e687d5ca48600560009054906101000a900473ffffffffffffffffffffffffffffffffffffffff16600760009054906101000a900473ffffffffffffffffffffffffffffffffffffffff168360405161221c9392919061344d565b60405180910390a16001935050505090565b6122366127d9565b6040518061026001604052806004805461224f906134b3565b80601f016020809104026020016040519081016040528092919081815260200182805461227b906134b3565b80156122c85780601f1061229d576101008083540402835291602001916122c8565b820191906000526020600020905b8154815290600101906020018083116122ab57829003601f168201915b50505050508152602001600560009054906101000a900473ffffffffffffffffffffffffffffffffffffffff1673ffffffffffffffffffffffffffffffffffffffff1681526020016006805461231d906134b3565b80601f0160208091040260200160405190810160405280929190818152602001828054612349906134b3565b80156123965780601f1061236b57610100808354040283529160200191612396565b820191906000526020600020905b81548152906001019060200180831161237957829003601f168201915b50505050508152602001600760009054906101000a900473ffffffffffffffffffffffffffffffffffffffff1673ffffffffffffffffffffffffffffffffffffffff168152602001600880546123eb906134b3565b80601f0160208091040260200160405190810160405280929190818152602001828054612417906134b3565b80156124645780601f1061243957610100808354040283529160200191612464565b820191906000526020600020905b81548152906001019060200180831161244757829003601f168201915b505050505081526020016009548152602001600a548152602001600b548152602001600c548152602001600d548152602001600e54815260200160135481526020016012548152602001600260009054906101000a900473ffffffffffffffffffffffffffffffffffffffff1673ffffffffffffffffffffffffffffffffffffffff16815260200160105481526020016011548152602001600f60009054906101000a900460ff1615158152602001600f60019054906101000a900460ff1615158152602001600f60029054906101000a900460ff161515815250905090565b60006125a6826040518060400160405280602081526020017f5361666545524332303a206c6f772d6c6576656c2063616c6c206661696c65648152508573ffffffffffffffffffffffffffffffffffffffff1661260b9092919063ffffffff16565b905060008151111561260657808060200190518101906125c69190613835565b612605576040517f08c379a00000000000000000000000000000000000000000000000000000000081526004016125fc906139b7565b60405180910390fd5b5b505050565b606061261a8484600085612623565b90509392505050565b606082471015612668576040517f08c379a000000000000000000000000000000000000000000000000000000000815260040161265f90613a49565b60405180910390fd5b6000808673ffffffffffffffffffffffffffffffffffffffff1685876040516126919190613ab0565b60006040518083038185875af1925050503d80600081146126ce576040519150601f19603f3d011682016040523d82523d6000602084013e6126d3565b606091505b50915091506126e4878383876126f0565b92505050949350505050565b606083156127535760008351141561274b5761270b85612766565b61274a576040517f08c379a000000000000000000000000000000000000000000000000000000000815260040161274190613b13565b60405180910390fd5b5b82905061275e565b61275d8383612789565b5b949350505050565b6000808273ffffffffffffffffffffffffffffffffffffffff163b119050919050565b60008251111561279c5781518083602001fd5b806040517f08c379a00000000000000000000000000000000000000000000000000000000081526004016127d09190613b33565b60405180910390fd5b60405180610260016040528060608152602001600073ffffffffffffffffffffffffffffffffffffffff16815260200160608152602001600073ffffffffffffffffffffffffffffffffffffffff168152602001606081526020016000815260200160008152602001600081526020016000815260200160008152602001600081526020016000815260200160008152602001600073ffffffffffffffffffffffffffffffffffffffff16815260200160008152602001600081526020016000151581526020016000151581526020016000151581525090565b6000604051905090565b600080fd5b600080fd5b600073ffffffffffffffffffffffffffffffffffffffff82169050919050565b60006128f2826128c7565b9050919050565b612902816128e7565b811461290d57600080fd5b50565b60008135905061291f816128f9565b92915050565b60006020828403121561293b5761293a6128bd565b5b600061294984828501612910565b91505092915050565b6000819050919050565b61296581612952565b811461297057600080fd5b50565b6000813590506129828161295c565b92915050565b60006020828403121561299e5761299d6128bd565b5b60006129ac84828501612973565b91505092915050565b60008115159050919050565b6129ca816129b5565b82525050565b60006020820190506129e560008301846129c1565b92915050565b600081519050919050565b600082825260208201905092915050565b60005b83811015612a25578082015181840152602081019050612a0a565b83811115612a34576000848401525b50505050565b6000601f19601f8301169050919050565b6000612a56826129eb565b612a6081856129f6565b9350612a70818560208601612a07565b612a7981612a3a565b840191505092915050565b612a8d81612952565b82525050565b600060a0820190508181036000830152612aad8188612a4b565b9050612abc6020830187612a84565b612ac96040830186612a84565b612ad66060830185612a84565b612ae36080830184612a84565b9695505050505050565b612af6816128e7565b82525050565b600060e082019050612b11600083018a612aed565b612b1e6020830189612aed565b612b2b6040830188612a84565b612b386060830187612a84565b612b456080830186612a84565b612b5260a0830185612a84565b612b5f60c0830184612a84565b98975050505050505050565b60006040820190508181036000830152612b858185612a4b565b9050612b946020830184612aed565b9392505050565b600082825260208201905092915050565b6000612bb7826129eb565b612bc18185612b9b565b9350612bd1818560208601612a07565b612bda81612a3a565b840191505092915050565b612bee816128e7565b82525050565b612bfd81612952565b82525050565b612c0c816129b5565b82525050565b6000610260830160008301518482036000860152612c308282612bac565b9150506020830151612c456020860182612be5565b5060408301518482036040860152612c5d8282612bac565b9150506060830151612c726060860182612be5565b5060808301518482036080860152612c8a8282612bac565b91505060a0830151612c9f60a0860182612bf4565b5060c0830151612cb260c0860182612bf4565b5060e0830151612cc560e0860182612bf4565b50610100830151612cda610100860182612bf4565b50610120830151612cef610120860182612bf4565b50610140830151612d04610140860182612bf4565b50610160830151612d19610160860182612bf4565b50610180830151612d2e610180860182612bf4565b506101a0830151612d436101a0860182612be5565b506101c0830151612d586101c0860182612bf4565b506101e0830151612d6d6101e0860182612bf4565b50610200830151612d82610200860182612c03565b50610220830151612d97610220860182612c03565b50610240830151612dac610240860182612c03565b508091505092915050565b60006020820190508181036000830152612dd18184612c12565b905092915050565b6000604082019050612dee6000830185612a84565b612dfb6020830184612a84565b9392505050565b600080fd5b600080fd5b7f4e487b7100000000000000000000000000000000000000000000000000000000600052604160045260246000fd5b612e4482612a3a565b810181811067ffffffffffffffff82111715612e6357612e62612e0c565b5b80604052505050565b6000612e766128b3565b9050612e828282612e3b565b919050565b600067ffffffffffffffff821115612ea257612ea1612e0c565b5b612eab82612a3a565b9050602081019050919050565b82818337600083830152505050565b6000612eda612ed584612e87565b612e6c565b905082815260208101848484011115612ef657612ef5612e07565b5b612f01848285612eb8565b509392505050565b600082601f830112612f1e57612f1d612e02565b5b8135612f2e848260208601612ec7565b91505092915050565b60008060408385031215612f4e57612f4d6128bd565b5b600083013567ffffffffffffffff811115612f6c57612f6b6128c2565b5b612f7885828601612f09565b9250506020612f8985828601612973565b9150509250929050565b6000602082019050612fa86000830184612aed565b92915050565b7f4f6e6c792062757965722063616e2072656c656173652066756e64732e000000600082015250565b6000612fe4601d836129f6565b9150612fef82612fae565b602082019050919050565b6000602082019050818103600083015261301381612fd7565b9050919050565b6000815190506130298161295c565b92915050565b600060208284031215613045576130446128bd565b5b60006130538482850161301a565b91505092915050565b7f496e73756666696369656e7420746f6b656e7320666f72207369676e696e672060008201527f636f6e7472616374000000000000000000000000000000000000000000000000602082015250565b60006130b86028836129f6565b91506130c38261305c565b604082019050919050565b600060208201905081810360008301526130e7816130ab565b9050919050565b60006080820190506131036000830187612aed565b6131106020830186612aed565b61311d6040830185612a84565b61312a6060830184612a84565b95945050505050565b60006040820190506131486000830185612aed565b6131556020830184612aed565b9392505050565b7f43616e206e6f74207472616e7366657220746f6b656e7320696e746f20636f6e60008201527f74726163742e20496e73756666696369656e7420746f6b656e20616c6c6f776160208201527f6e63650000000000000000000000000000000000000000000000000000000000604082015250565b60006131de6043836129f6565b91506131e98261315c565b606082019050919050565b6000602082019050818103600083015261320d816131d1565b9050919050565b7f436f6e7472616374206e6f74207965742066696e616c00000000000000000000600082015250565b600061324a6016836129f6565b915061325582613214565b602082019050919050565b600060208201905081810360008301526132798161323d565b9050919050565b7f4f6e6c792073656c6c65722063616e2077697468647261772e00000000000000600082015250565b60006132b66019836129f6565b91506132c182613280565b602082019050919050565b600060208201905081810360008301526132e5816132a9565b9050919050565b7f496e76616c69642073746174652e204c6f636b6564203e2042616c616e63652160008201527f2100000000000000000000000000000000000000000000000000000000000000602082015250565b60006133486021836129f6565b9150613353826132ec565b604082019050919050565b600060208201905081810360008301526133778161333b565b9050919050565b7f4e487b7100000000000000000000000000000000000000000000000000000000600052601160045260246000fd5b60006133b882612952565b91506133c383612952565b9250828210156133d6576133d561337e565b5b828203905092915050565b7f496e73756666696369656e742066756e64730000000000000000000000000000600082015250565b60006134176012836129f6565b9150613422826133e1565b602082019050919050565b600060208201905081810360008301526134468161340a565b9050919050565b60006060820190506134626000830186612aed565b61346f6020830185612aed565b61347c6040830184612a84565b949350505050565b7f4e487b7100000000000000000000000000000000000000000000000000000000600052602260045260246000fd5b600060028204905060018216806134cb57607f821691505b602082108114156134df576134de613484565b5b50919050565b7f4f6e6c7920756e6c6f636b65722063616e20756e6c6f636b2066756e64732e00600082015250565b600061351b601f836129f6565b9150613526826134e5565b602082019050919050565b6000602082019050818103600083015261354a8161350e565b9050919050565b7f43616e6e6f7420756e6c6f636b206d6f7265207468616e2066756e647320726560008201527f6c65617365642062792062757965722e00000000000000000000000000000000602082015250565b60006135ad6030836129f6565b91506135b882613551565b604082019050919050565b600060208201905081810360008301526135dc816135a0565b9050919050565b7f4f6e6c792061646d696e2063616e20706572666f726d2074686973206f70657260008201527f6174696f6e2e0000000000000000000000000000000000000000000000000000602082015250565b600061363f6026836129f6565b915061364a826135e3565b604082019050919050565b6000602082019050818103600083015261366e81613632565b9050919050565b600060a08201905061368a6000830188612aed565b6136976020830187612aed565b6136a46040830186612aed565b6136b16060830185612a84565b6136be6080830184612a84565b9695505050505050565b7f4f6e6c79206661726d65722063616e20646f2074686973206f7065726174696f60008201527f6e2e000000000000000000000000000000000000000000000000000000000000602082015250565b60006137246022836129f6565b915061372f826136c8565b604082019050919050565b6000602082019050818103600083015261375381613717565b9050919050565b600060608201905081810360008301526137748186612a4b565b90506137836020830185612aed565b6137906040830184612a84565b949350505050565b60006137a382612952565b91506137ae83612952565b9250827fffffffffffffffffffffffffffffffffffffffffffffffffffffffffffffffff038211156137e3576137e261337e565b5b828201905092915050565b60006020820190506138036000830184612a84565b92915050565b613812816129b5565b811461381d57600080fd5b50565b60008151905061382f81613809565b92915050565b60006020828403121561384b5761384a6128bd565b5b600061385984828501613820565b91505092915050565b60006040820190506138776000830185612aed565b6138846020830184612a84565b9392505050565b600061389682612952565b91506138a183612952565b9250817fffffffffffffffffffffffffffffffffffffffffffffffffffffffffffffffff04831182151516156138da576138d961337e565b5b828202905092915050565b7f4e487b7100000000000000000000000000000000000000000000000000000000600052601260045260246000fd5b600061391f82612952565b915061392a83612952565b92508261393a576139396138e5565b5b828204905092915050565b7f5361666545524332303a204552433230206f7065726174696f6e20646964206e60008201527f6f74207375636365656400000000000000000000000000000000000000000000602082015250565b60006139a1602a836129f6565b91506139ac82613945565b604082019050919050565b600060208201905081810360008301526139d081613994565b9050919050565b7f416464726573733a20696e73756666696369656e742062616c616e636520666f60008201527f722063616c6c0000000000000000000000000000000000000000000000000000602082015250565b6000613a336026836129f6565b9150613a3e826139d7565b604082019050919050565b60006020820190508181036000830152613a6281613a26565b9050919050565b600081519050919050565b600081905092915050565b6000613a8a82613a69565b613a948185613a74565b9350613aa4818560208601612a07565b80840191505092915050565b6000613abc8284613a7f565b915081905092915050565b7f416464726573733a2063616c6c20746f206e6f6e2d636f6e7472616374000000600082015250565b6000613afd601d836129f6565b9150613b0882613ac7565b602082019050919050565b60006020820190508181036000830152613b2c81613af0565b9050919050565b60006020820190508181036000830152613b4d8184612a4b565b90509291505056fea26469706673582212207823b90625fecbc99b50141a3e5eb80ad097b5e510a07f2ec10967e69ffcbde564736f6c63430008090033",
  "linkReferences": {},
  "deployedLinkReferences": {}
}