{
  "_format": "hh-sol-artifact-1",
  "contractName": "EscrowPurchase",
  "sourceName": "contracts/EscrowPurchase.sol",
  "abi": [
    {
      "inputs": [
        {
          "internalType": "address",
          "name": "_tokenAddress",
          "type": "address"
        },
        {
          "internalType": "string",
          "name": "_productName",
          "type": "string"
        },
        {
          "internalType": "string",
          "name": "_buyerName",
          "type": "string"
        },
        {
          "internalType": "string",
          "name": "_sellerName",
          "type": "string"
        },
        {
          "internalType": "address",
          "name": "_buyer",
          "type": "address"
        },
        {
          "internalType": "address",
          "name": "_seller",
          "type": "address"
        },
        {
          "internalType": "uint256",
          "name": "_estimatedYieldMin",
          "type": "uint256"
        },
        {
          "internalType": "uint256",
          "name": "_estimatedYieldMax",
          "type": "uint256"
        },
        {
          "internalType": "uint256",
          "name": "_estimatedPriceMin",
          "type": "uint256"
        },
        {
          "internalType": "uint256",
          "name": "_estimatedPriceMax",
          "type": "uint256"
        },
        {
          "internalType": "uint256",
          "name": "_downPaymentBps",
          "type": "uint256"
        }
      ],
      "stateMutability": "nonpayable",
      "type": "constructor"
    },
    {
      "anonymous": false,
      "inputs": [
        {
          "indexed": false,
          "internalType": "address",
          "name": "admin",
          "type": "address"
        },
        {
          "indexed": false,
          "internalType": "address",
          "name": "buyer",
          "type": "address"
        },
        {
          "indexed": false,
          "internalType": "address",
          "name": "seller",
          "type": "address"
        },
        {
          "indexed": false,
          "internalType": "uint256",
          "name": "contractValueMin",
          "type": "uint256"
        },
        {
          "indexed": false,
          "internalType": "uint256",
          "name": "contractValueMax",
          "type": "uint256"
        }
      ],
      "name": "AdminSigned",
      "type": "event"
    },
    {
      "anonymous": false,
      "inputs": [
        {
          "indexed": false,
          "internalType": "address",
          "name": "buyer",
          "type": "address"
        },
        {
          "indexed": false,
          "internalType": "address",
          "name": "seller",
          "type": "address"
        },
        {
          "indexed": false,
          "internalType": "uint256",
          "name": "contractValueMin",
          "type": "uint256"
        },
        {
          "indexed": false,
          "internalType": "uint256",
          "name": "contractValueMax",
          "type": "uint256"
        }
      ],
      "name": "BuyerSigned",
      "type": "event"
    },
    {
      "anonymous": false,
      "inputs": [
        {
          "indexed": false,
          "internalType": "address",
          "name": "buyer",
          "type": "address"
        },
        {
          "indexed": false,
          "internalType": "address",
          "name": "seller",
          "type": "address"
        }
      ],
      "name": "Cancel",
      "type": "event"
    },
    {
      "anonymous": false,
      "inputs": [
        {
          "indexed": false,
          "internalType": "address",
          "name": "buyer",
          "type": "address"
        },
        {
          "indexed": false,
          "internalType": "address",
          "name": "seller",
          "type": "address"
        },
        {
          "indexed": false,
          "internalType": "uint256",
          "name": "qty",
          "type": "uint256"
        }
      ],
      "name": "Deposit",
      "type": "event"
    },
    {
      "anonymous": false,
      "inputs": [
        {
          "indexed": false,
          "internalType": "address",
          "name": "buyer",
          "type": "address"
        },
        {
          "indexed": false,
          "internalType": "address",
          "name": "seller",
          "type": "address"
        },
        {
          "indexed": false,
          "internalType": "uint256",
          "name": "qty",
          "type": "uint256"
        }
      ],
      "name": "Release",
      "type": "event"
    },
    {
      "anonymous": false,
      "inputs": [
        {
          "indexed": false,
          "internalType": "address",
          "name": "buyer",
          "type": "address"
        },
        {
          "indexed": false,
          "internalType": "address",
          "name": "seller",
          "type": "address"
        },
        {
          "indexed": false,
          "internalType": "uint256",
          "name": "contractValueMin",
          "type": "uint256"
        },
        {
          "indexed": false,
          "internalType": "uint256",
          "name": "contractValueMax",
          "type": "uint256"
        }
      ],
      "name": "SellerSigned",
      "type": "event"
    },
    {
      "anonymous": false,
      "inputs": [
        {
          "indexed": false,
          "internalType": "address",
          "name": "buyer",
          "type": "address"
        },
        {
          "indexed": false,
          "internalType": "address",
          "name": "seller",
          "type": "address"
        },
        {
          "indexed": false,
          "internalType": "uint256",
          "name": "qty",
          "type": "uint256"
        }
      ],
      "name": "Unlock",
      "type": "event"
    },
    {
      "anonymous": false,
      "inputs": [
        {
          "indexed": false,
          "internalType": "address",
          "name": "buyer",
          "type": "address"
        },
        {
          "indexed": false,
          "internalType": "address",
          "name": "seller",
          "type": "address"
        },
        {
          "indexed": false,
          "internalType": "uint256",
          "name": "qty",
          "type": "uint256"
        }
      ],
      "name": "Withdraw",
      "type": "event"
    },
    {
      "inputs": [],
      "name": "adminSign",
      "outputs": [],
      "stateMutability": "nonpayable",
      "type": "function"
    },
    {
      "inputs": [
        {
          "internalType": "address",
          "name": "_unlocker",
          "type": "address"
        }
      ],
      "name": "assignUnlocker",
      "outputs": [],
      "stateMutability": "nonpayable",
      "type": "function"
    },
    {
      "inputs": [],
      "name": "buyerSign",
      "outputs": [],
      "stateMutability": "nonpayable",
      "type": "function"
    },
    {
      "inputs": [],
      "name": "cancel",
      "outputs": [],
      "stateMutability": "nonpayable",
      "type": "function"
    },
    {
      "inputs": [],
      "name": "details",
      "outputs": [
        {
          "internalType": "address",
          "name": "",
          "type": "address"
        },
        {
          "internalType": "address",
          "name": "",
          "type": "address"
        },
        {
          "internalType": "uint256",
          "name": "",
          "type": "uint256"
        },
        {
          "internalType": "uint256",
          "name": "",
          "type": "uint256"
        },
        {
          "internalType": "uint256",
          "name": "",
          "type": "uint256"
        },
        {
          "internalType": "uint256",
          "name": "",
          "type": "uint256"
        },
        {
          "internalType": "uint256",
          "name": "",
          "type": "uint256"
        }
      ],
      "stateMutability": "view",
      "type": "function"
    },
    {
      "inputs": [],
      "name": "finalPayment",
      "outputs": [
        {
          "internalType": "bool",
          "name": "",
          "type": "bool"
        }
      ],
      "stateMutability": "nonpayable",
      "type": "function"
    },
    {
      "inputs": [],
      "name": "getBuyer",
      "outputs": [
        {
          "internalType": "string",
          "name": "",
          "type": "string"
        },
        {
          "internalType": "address",
          "name": "",
          "type": "address"
        }
      ],
      "stateMutability": "view",
      "type": "function"
    },
    {
      "inputs": [],
      "name": "getContractValue",
      "outputs": [
        {
          "internalType": "uint256",
          "name": "",
          "type": "uint256"
        },
        {
          "internalType": "uint256",
          "name": "",
          "type": "uint256"
        }
      ],
      "stateMutability": "view",
      "type": "function"
    },
    {
      "inputs": [],
      "name": "getDetails2",
      "outputs": [
        {
          "components": [
            {
              "internalType": "string",
              "name": "productName",
              "type": "string"
            },
            {
              "internalType": "address",
              "name": "buyer",
              "type": "address"
            },
            {
              "internalType": "string",
              "name": "buyerName",
              "type": "string"
            },
            {
              "internalType": "address",
              "name": "seller",
              "type": "address"
            },
            {
              "internalType": "string",
              "name": "sellerName",
              "type": "string"
            },
            {
              "internalType": "uint256",
              "name": "estimatedYieldMin",
              "type": "uint256"
            },
            {
              "internalType": "uint256",
              "name": "estimatedYieldMax",
              "type": "uint256"
            },
            {
              "internalType": "uint256",
              "name": "tentativeYield",
              "type": "uint256"
            },
            {
              "internalType": "uint256",
              "name": "estimatedPriceMin",
              "type": "uint256"
            },
            {
              "internalType": "uint256",
              "name": "estimatedPriceMax",
              "type": "uint256"
            },
            {
              "internalType": "uint256",
              "name": "tentativePrice",
              "type": "uint256"
            }
          ],
          "internalType": "struct ContractDetails",
          "name": "",
          "type": "tuple"
        }
      ],
      "stateMutability": "view",
      "type": "function"
    },
    {
      "inputs": [],
      "name": "getProduct",
      "outputs": [
        {
          "internalType": "string",
          "name": "",
          "type": "string"
        },
        {
          "internalType": "uint256",
          "name": "",
          "type": "uint256"
        },
        {
          "internalType": "uint256",
          "name": "",
          "type": "uint256"
        },
        {
          "internalType": "uint256",
          "name": "",
          "type": "uint256"
        },
        {
          "internalType": "uint256",
          "name": "",
          "type": "uint256"
        }
      ],
      "stateMutability": "view",
      "type": "function"
    },
    {
      "inputs": [],
      "name": "getSeller",
      "outputs": [
        {
          "internalType": "string",
          "name": "",
          "type": "string"
        },
        {
          "internalType": "address",
          "name": "",
          "type": "address"
        }
      ],
      "stateMutability": "view",
      "type": "function"
    },
    {
      "inputs": [],
      "name": "makeDownpayment",
      "outputs": [
        {
          "internalType": "bool",
          "name": "",
          "type": "bool"
        }
      ],
      "stateMutability": "nonpayable",
      "type": "function"
    },
    {
      "inputs": [
        {
          "internalType": "uint256",
          "name": "_amount",
          "type": "uint256"
        }
      ],
      "name": "releaseAmount",
      "outputs": [
        {
          "internalType": "bool",
          "name": "",
          "type": "bool"
        }
      ],
      "stateMutability": "nonpayable",
      "type": "function"
    },
    {
      "inputs": [],
      "name": "sellerSign",
      "outputs": [],
      "stateMutability": "nonpayable",
      "type": "function"
    },
    {
      "inputs": [
        {
          "internalType": "uint256",
          "name": "_amount",
          "type": "uint256"
        }
      ],
      "name": "unlockAmount",
      "outputs": [
        {
          "internalType": "bool",
          "name": "",
          "type": "bool"
        }
      ],
      "stateMutability": "nonpayable",
      "type": "function"
    },
    {
      "inputs": [],
      "name": "withdraw",
      "outputs": [
        {
          "internalType": "bool",
          "name": "",
          "type": "bool"
        }
      ],
      "stateMutability": "nonpayable",
      "type": "function"
    }
  ],
  "bytecode": "0x60806040523480156200001157600080fd5b50604051620038e5380380620038e58339818101604052810190620000379190620005f6565b600081101580156200004a575061271081105b6200008c576040517f08c379a00000000000000000000000000000000000000000000000000000000081526004016200008390620007e7565b60405180910390fd5b8960039080519060200190620000a492919062000309565b5033600160006101000a81548173ffffffffffffffffffffffffffffffffffffffff021916908373ffffffffffffffffffffffffffffffffffffffff160217905550600160009054906101000a900473ffffffffffffffffffffffffffffffffffffffff16600260006101000a81548173ffffffffffffffffffffffffffffffffffffffff021916908373ffffffffffffffffffffffffffffffffffffffff1602179055508a6000806101000a81548173ffffffffffffffffffffffffffffffffffffffff021916908373ffffffffffffffffffffffffffffffffffffffff16021790555086600460006101000a81548173ffffffffffffffffffffffffffffffffffffffff021916908373ffffffffffffffffffffffffffffffffffffffff1602179055508860059080519060200190620001e292919062000309565b508760079080519060200190620001fb92919062000309565b5085600660006101000a81548173ffffffffffffffffffffffffffffffffffffffff021916908373ffffffffffffffffffffffffffffffffffffffff1602179055506000601181905550600060128190555080601381905550846008819055508360098190555082600b8190555081600c81905550670de0b6b3a7640000838662000287919062000838565b62000293919062000838565b600f81905550670de0b6b3a76400008285620002b0919062000838565b620002bc919062000838565b6010819055506000600e60016101000a81548160ff0219169083151502179055506000600e60026101000a81548160ff0219169083151502179055505050505050505050505050620008fe565b8280546200031790620008c8565b90600052602060002090601f0160209004810192826200033b576000855562000387565b82601f106200035657805160ff191683800117855562000387565b8280016001018555821562000387579182015b828111156200038657825182559160200191906001019062000369565b5b5090506200039691906200039a565b5090565b5b80821115620003b55760008160009055506001016200039b565b5090565b6000604051905090565b600080fd5b600080fd5b600073ffffffffffffffffffffffffffffffffffffffff82169050919050565b6000620003fa82620003cd565b9050919050565b6200040c81620003ed565b81146200041857600080fd5b50565b6000815190506200042c8162000401565b92915050565b600080fd5b600080fd5b6000601f19601f8301169050919050565b7f4e487b7100000000000000000000000000000000000000000000000000000000600052604160045260246000fd5b62000487826200043c565b810181811067ffffffffffffffff82111715620004a957620004a86200044d565b5b80604052505050565b6000620004be620003b9565b9050620004cc82826200047c565b919050565b600067ffffffffffffffff821115620004ef57620004ee6200044d565b5b620004fa826200043c565b9050602081019050919050565b60005b83811015620005275780820151818401526020810190506200050a565b8381111562000537576000848401525b50505050565b6000620005546200054e84620004d1565b620004b2565b90508281526020810184848401111562000573576200057262000437565b5b6200058084828562000507565b509392505050565b600082601f830112620005a0576200059f62000432565b5b8151620005b28482602086016200053d565b91505092915050565b6000819050919050565b620005d081620005bb565b8114620005dc57600080fd5b50565b600081519050620005f081620005c5565b92915050565b60008060008060008060008060008060006101608c8e0312156200061f576200061e620003c3565b5b60006200062f8e828f016200041b565b9b505060208c015167ffffffffffffffff811115620006535762000652620003c8565b5b620006618e828f0162000588565b9a505060408c015167ffffffffffffffff811115620006855762000684620003c8565b5b620006938e828f0162000588565b99505060608c015167ffffffffffffffff811115620006b757620006b6620003c8565b5b620006c58e828f0162000588565b9850506080620006d88e828f016200041b565b97505060a0620006eb8e828f016200041b565b96505060c0620006fe8e828f01620005df565b95505060e0620007118e828f01620005df565b945050610100620007258e828f01620005df565b935050610120620007398e828f01620005df565b9250506101406200074d8e828f01620005df565b9150509295989b509295989b9093969950565b600082825260208201905092915050565b7f496e76616c696420646f776e5061796d656e744270732c20706c65617365207060008201527f6173732070657263656e7461676520626173697320706f696e74730000000000602082015250565b6000620007cf603b8362000760565b9150620007dc8262000771565b604082019050919050565b600060208201905081810360008301526200080281620007c0565b9050919050565b7f4e487b7100000000000000000000000000000000000000000000000000000000600052601160045260246000fd5b60006200084582620005bb565b91506200085283620005bb565b9250817fffffffffffffffffffffffffffffffffffffffffffffffffffffffffffffffff04831182151516156200088e576200088d62000809565b5b828202905092915050565b7f4e487b7100000000000000000000000000000000000000000000000000000000600052602260045260246000fd5b60006002820490506001821680620008e157607f821691505b60208210811415620008f857620008f762000899565b5b50919050565b612fd7806200090e6000396000f3fe608060405234801561001057600080fd5b50600436106101005760003560e01c8063807b5d2911610097578063da38575611610066578063da3857561461025e578063dbd0e1b61461027c578063dc82697c1461029b578063ea8a1af0146102ba57610100565b8063807b5d291461021057806396a69f431461021a578063a513de6914610238578063c011bf161461024257610100565b80634cd2c09a116100d35780634cd2c09a1461017f578063565974d3146101af5780635ebe2514146101d3578063603daf9a146101f157610100565b8063046a2fdd146101055780632278f36b1461010f5780633ccfd60b1461013f5780634ba200501461015d575b600080fd5b61010d6102c4565b005b61012960048036038101906101249190612134565b6104f7565b604051610136919061217c565b60405180910390f35b6101476107c2565b604051610154919061217c565b60405180910390f35b610165610af6565b60405161017695949392919061223f565b60405180910390f35b61019960048036038101906101949190612134565b610ba9565b6040516101a6919061217c565b60405180910390f35b6101b7610daf565b6040516101ca97969594939291906122da565b60405180910390f35b6101db610ed7565b6040516101e8919061217c565b60405180910390f35b6101f961119b565b604051610207929190612349565b60405180910390f35b610218611258565b005b6102226113ae565b60405161022f91906124de565b60405180910390f35b610240611621565b005b61025c6004803603810190610257919061252c565b611753565b005b610266611797565b604051610273919061217c565b60405180910390f35b6102846119ea565b604051610292929190612349565b60405180910390f35b6102a3611aa7565b6040516102b1929190612559565b60405180910390f35b6102c2611ab8565b005b600460009054906101000a900473ffffffffffffffffffffffffffffffffffffffff1673ffffffffffffffffffffffffffffffffffffffff163373ffffffffffffffffffffffffffffffffffffffff1614610354576040517f08c379a000000000000000000000000000000000000000000000000000000000815260040161034b906125ce565b60405180910390fd5b60008060009054906101000a900473ffffffffffffffffffffffffffffffffffffffff16905060008173ffffffffffffffffffffffffffffffffffffffff166370a08231306040518263ffffffff1660e01b81526004016103b591906125ee565b60206040518083038186803b1580156103cd57600080fd5b505afa1580156103e1573d6000803e3d6000fd5b505050506040513d601f19601f82011682018060405250810190610405919061261e565b905060105481101561044c576040517f08c379a0000000000000000000000000000000000000000000000000000000008152600401610443906126bd565b60405180910390fd5b6001600e60016101000a81548160ff021916908315150217905550806011819055507fca509163edfc238d34e4ef84d235590fe07508a67a58fa10a2a30ba245252f6a600460009054906101000a900473ffffffffffffffffffffffffffffffffffffffff16600660009054906101000a900473ffffffffffffffffffffffffffffffffffffffff16600f546010546040516104eb94939291906126dd565b60405180910390a15050565b6000600460009054906101000a900473ffffffffffffffffffffffffffffffffffffffff1673ffffffffffffffffffffffffffffffffffffffff163373ffffffffffffffffffffffffffffffffffffffff1614610589576040517f08c379a0000000000000000000000000000000000000000000000000000000008152600401610580906125ce565b60405180910390fd5b600e60009054906101000a900460ff1680156105b15750600e60019054906101000a900460ff165b80156105c95750600e60029054906101000a900460ff165b610608576040517f08c379a00000000000000000000000000000000000000000000000000000000081526004016105ff9061276e565b60405180910390fd5b60008060009054906101000a900473ffffffffffffffffffffffffffffffffffffffff16905060008173ffffffffffffffffffffffffffffffffffffffff166370a08231306040518263ffffffff1660e01b815260040161066991906125ee565b60206040518083038186803b15801561068157600080fd5b505afa158015610695573d6000803e3d6000fd5b505050506040513d601f19601f820116820180604052508101906106b9919061261e565b9050836012546106c991906127bd565b6012819055506000601154826106df9190612813565b9050808510610723576040517f08c379a000000000000000000000000000000000000000000000000000000000815260040161071a90612893565b60405180910390fd5b846011546107319190612813565b6011819055507fcb54aad3bd772fcfe1bc124e01bd1a91a91c9d80126d8b3014c4d9e687d5ca48600460009054906101000a900473ffffffffffffffffffffffffffffffffffffffff16600660009054906101000a900473ffffffffffffffffffffffffffffffffffffffff16876040516107ae939291906128b3565b60405180910390a160019350505050919050565b6000600660009054906101000a900473ffffffffffffffffffffffffffffffffffffffff1673ffffffffffffffffffffffffffffffffffffffff163373ffffffffffffffffffffffffffffffffffffffff1614610854576040517f08c379a000000000000000000000000000000000000000000000000000000000815260040161084b90612936565b60405180910390fd5b600e60009054906101000a900460ff16801561087c5750600e60019054906101000a900460ff165b80156108945750600e60029054906101000a900460ff165b6108d3576040517f08c379a00000000000000000000000000000000000000000000000000000000081526004016108ca9061276e565b60405180910390fd5b60008060009054906101000a900473ffffffffffffffffffffffffffffffffffffffff16905060008173ffffffffffffffffffffffffffffffffffffffff166370a08231306040518263ffffffff1660e01b815260040161093491906125ee565b60206040518083038186803b15801561094c57600080fd5b505afa158015610960573d6000803e3d6000fd5b505050506040513d601f19601f82011682018060405250810190610984919061261e565b90508060115411156109cb576040517f08c379a00000000000000000000000000000000000000000000000000000000081526004016109c2906129c8565b60405180910390fd5b6000601154826109db9190612813565b905060008111610a20576040517f08c379a0000000000000000000000000000000000000000000000000000000008152600401610a1790612893565b60405180910390fd5b610a6d600660009054906101000a900473ffffffffffffffffffffffffffffffffffffffff16828573ffffffffffffffffffffffffffffffffffffffff16611d589092919063ffffffff16565b7f9b1bfa7fa9ee420a16e124f794c35ac9f90472acc99140eb2f6447c714cad8eb600460009054906101000a900473ffffffffffffffffffffffffffffffffffffffff16600660009054906101000a900473ffffffffffffffffffffffffffffffffffffffff1683604051610ae4939291906128b3565b60405180910390a16001935050505090565b60606000806000806003600854600954600b54600c54848054610b1890612a17565b80601f0160208091040260200160405190810160405280929190818152602001828054610b4490612a17565b8015610b915780601f10610b6657610100808354040283529160200191610b91565b820191906000526020600020905b815481529060010190602001808311610b7457829003601f168201915b50505050509450945094509450945094509091929394565b6000600260009054906101000a900473ffffffffffffffffffffffffffffffffffffffff1673ffffffffffffffffffffffffffffffffffffffff163373ffffffffffffffffffffffffffffffffffffffff1614610c3b576040517f08c379a0000000000000000000000000000000000000000000000000000000008152600401610c3290612a95565b60405180910390fd5b600e60009054906101000a900460ff168015610c635750600e60019054906101000a900460ff165b8015610c7b5750600e60029054906101000a900460ff165b610cba576040517f08c379a0000000000000000000000000000000000000000000000000000000008152600401610cb19061276e565b60405180910390fd5b601254821115610cff576040517f08c379a0000000000000000000000000000000000000000000000000000000008152600401610cf690612b27565b60405180910390fd5b81601154610d0d9190612813565b60118190555081601254610d219190612813565b6012819055507fc1c90b8e0705b212262c0dbd7580efe1862c2f185bf96899226f7596beb2db09600460009054906101000a900473ffffffffffffffffffffffffffffffffffffffff16600660009054906101000a900473ffffffffffffffffffffffffffffffffffffffff1684604051610d9e939291906128b3565b60405180910390a160019050919050565b60008060008060008060008060008054906101000a900473ffffffffffffffffffffffffffffffffffffffff16905060008173ffffffffffffffffffffffffffffffffffffffff166370a08231306040518263ffffffff1660e01b8152600401610e1991906125ee565b60206040518083038186803b158015610e3157600080fd5b505afa158015610e45573d6000803e3d6000fd5b505050506040513d601f19601f82011682018060405250810190610e69919061261e565b9050600460009054906101000a900473ffffffffffffffffffffffffffffffffffffffff16600660009054906101000a900473ffffffffffffffffffffffffffffffffffffffff16600f54601054846012546011549850985098509850985098509850505090919293949596565b6000600460009054906101000a900473ffffffffffffffffffffffffffffffffffffffff1673ffffffffffffffffffffffffffffffffffffffff163373ffffffffffffffffffffffffffffffffffffffff1614610f69576040517f08c379a0000000000000000000000000000000000000000000000000000000008152600401610f60906125ce565b60405180910390fd5b600e60009054906101000a900460ff168015610f915750600e60019054906101000a900460ff165b8015610fa95750600e60029054906101000a900460ff165b610fe8576040517f08c379a0000000000000000000000000000000000000000000000000000000008152600401610fdf9061276e565b60405180910390fd5b60008060009054906101000a900473ffffffffffffffffffffffffffffffffffffffff16905060008173ffffffffffffffffffffffffffffffffffffffff166370a08231306040518263ffffffff1660e01b815260040161104991906125ee565b60206040518083038186803b15801561106157600080fd5b505afa158015611075573d6000803e3d6000fd5b505050506040513d601f19601f82011682018060405250810190611099919061261e565b90506000612710600f546013546110b09190612b47565b6110ba9190612bd0565b90508181106110fe576040517f08c379a00000000000000000000000000000000000000000000000000000000081526004016110f590612893565b60405180910390fd5b8060125461110c91906127bd565b6012819055507fcb54aad3bd772fcfe1bc124e01bd1a91a91c9d80126d8b3014c4d9e687d5ca48600460009054906101000a900473ffffffffffffffffffffffffffffffffffffffff16600660009054906101000a900473ffffffffffffffffffffffffffffffffffffffff1683604051611189939291906128b3565b60405180910390a16001935050505090565b606060006005600460009054906101000a900473ffffffffffffffffffffffffffffffffffffffff168180546111d090612a17565b80601f01602080910402602001604051908101604052809291908181526020018280546111fc90612a17565b80156112495780601f1061121e57610100808354040283529160200191611249565b820191906000526020600020905b81548152906001019060200180831161122c57829003601f168201915b50505050509150915091509091565b600160009054906101000a900473ffffffffffffffffffffffffffffffffffffffff1673ffffffffffffffffffffffffffffffffffffffff163373ffffffffffffffffffffffffffffffffffffffff16146112e8576040517f08c379a00000000000000000000000000000000000000000000000000000000081526004016112df90612c73565b60405180910390fd5b6001600e60006101000a81548160ff0219169083151502179055507f2d02a8006c04b9bb35fcf84fbe0c3a2eebc574698ed7716c9f67b0f67244b6f5600160009054906101000a900473ffffffffffffffffffffffffffffffffffffffff16600460009054906101000a900473ffffffffffffffffffffffffffffffffffffffff16600660009054906101000a900473ffffffffffffffffffffffffffffffffffffffff16600f546010546040516113a4959493929190612c93565b60405180910390a1565b6113b6612073565b604051806101600160405280600380546113cf90612a17565b80601f01602080910402602001604051908101604052809291908181526020018280546113fb90612a17565b80156114485780601f1061141d57610100808354040283529160200191611448565b820191906000526020600020905b81548152906001019060200180831161142b57829003601f168201915b50505050508152602001600460009054906101000a900473ffffffffffffffffffffffffffffffffffffffff1673ffffffffffffffffffffffffffffffffffffffff1681526020016005805461149d90612a17565b80601f01602080910402602001604051908101604052809291908181526020018280546114c990612a17565b80156115165780601f106114eb57610100808354040283529160200191611516565b820191906000526020600020905b8154815290600101906020018083116114f957829003601f168201915b50505050508152602001600660009054906101000a900473ffffffffffffffffffffffffffffffffffffffff1673ffffffffffffffffffffffffffffffffffffffff1681526020016007805461156b90612a17565b80601f016020809104026020016040519081016040528092919081815260200182805461159790612a17565b80156115e45780601f106115b9576101008083540402835291602001916115e4565b820191906000526020600020905b8154815290600101906020018083116115c757829003601f168201915b5050505050815260200160085481526020016009548152602001600a548152602001600b548152602001600c548152602001600d54815250905090565b600660009054906101000a900473ffffffffffffffffffffffffffffffffffffffff1673ffffffffffffffffffffffffffffffffffffffff163373ffffffffffffffffffffffffffffffffffffffff16146116b1576040517f08c379a00000000000000000000000000000000000000000000000000000000081526004016116a890612936565b60405180910390fd5b6001600e60026101000a81548160ff0219169083151502179055507f2e4ddfb651f821a25a38775d9a40cd48df71699988424942de2b58a490463f0f600460009054906101000a900473ffffffffffffffffffffffffffffffffffffffff16600660009054906101000a900473ffffffffffffffffffffffffffffffffffffffff16600f5460105460405161174994939291906126dd565b60405180910390a1565b80600260006101000a81548173ffffffffffffffffffffffffffffffffffffffff021916908373ffffffffffffffffffffffffffffffffffffffff16021790555050565b6000600460009054906101000a900473ffffffffffffffffffffffffffffffffffffffff1673ffffffffffffffffffffffffffffffffffffffff163373ffffffffffffffffffffffffffffffffffffffff1614611829576040517f08c379a0000000000000000000000000000000000000000000000000000000008152600401611820906125ce565b60405180910390fd5b600e60009054906101000a900460ff1680156118515750600e60019054906101000a900460ff165b80156118695750600e60029054906101000a900460ff165b6118a8576040517f08c379a000000000000000000000000000000000000000000000000000000000815260040161189f9061276e565b60405180910390fd5b60008060009054906101000a900473ffffffffffffffffffffffffffffffffffffffff16905060008173ffffffffffffffffffffffffffffffffffffffff166370a08231306040518263ffffffff1660e01b815260040161190991906125ee565b60206040518083038186803b15801561192157600080fd5b505afa158015611935573d6000803e3d6000fd5b505050506040513d601f19601f82011682018060405250810190611959919061261e565b9050806012819055507fcb54aad3bd772fcfe1bc124e01bd1a91a91c9d80126d8b3014c4d9e687d5ca48600460009054906101000a900473ffffffffffffffffffffffffffffffffffffffff16600660009054906101000a900473ffffffffffffffffffffffffffffffffffffffff16836040516119d9939291906128b3565b60405180910390a160019250505090565b606060006007600660009054906101000a900473ffffffffffffffffffffffffffffffffffffffff16818054611a1f90612a17565b80601f0160208091040260200160405190810160405280929190818152602001828054611a4b90612a17565b8015611a985780601f10611a6d57610100808354040283529160200191611a98565b820191906000526020600020905b815481529060010190602001808311611a7b57829003601f168201915b50505050509150915091509091565b600080600f54601054915091509091565b600160009054906101000a900473ffffffffffffffffffffffffffffffffffffffff1673ffffffffffffffffffffffffffffffffffffffff163373ffffffffffffffffffffffffffffffffffffffff1614611b48576040517f08c379a0000000000000000000000000000000000000000000000000000000008152600401611b3f90612c73565b60405180910390fd5b600e60009054906101000a900460ff168015611b705750600e60019054906101000a900460ff165b8015611b885750600e60029054906101000a900460ff165b611bc7576040517f08c379a0000000000000000000000000000000000000000000000000000000008152600401611bbe9061276e565b60405180910390fd5b60008060009054906101000a900473ffffffffffffffffffffffffffffffffffffffff16905060008173ffffffffffffffffffffffffffffffffffffffff166370a08231306040518263ffffffff1660e01b8152600401611c2891906125ee565b60206040518083038186803b158015611c4057600080fd5b505afa158015611c54573d6000803e3d6000fd5b505050506040513d601f19601f82011682018060405250810190611c78919061261e565b9050611cc7600460009054906101000a900473ffffffffffffffffffffffffffffffffffffffff16828473ffffffffffffffffffffffffffffffffffffffff16611d589092919063ffffffff16565b600060118190555060006012819055507f50d9aca76814f78d884b23d6acf60b8e4a0404b5bfd5fe15fae3cc9d874eb949600460009054906101000a900473ffffffffffffffffffffffffffffffffffffffff16600660009054906101000a900473ffffffffffffffffffffffffffffffffffffffff16604051611d4c929190612ce6565b60405180910390a15050565b611dd98363a9059cbb60e01b8484604051602401611d77929190612d0f565b604051602081830303815290604052907bffffffffffffffffffffffffffffffffffffffffffffffffffffffff19166020820180517bffffffffffffffffffffffffffffffffffffffffffffffffffffffff8381831617835250505050611dde565b505050565b6000611e40826040518060400160405280602081526020017f5361666545524332303a206c6f772d6c6576656c2063616c6c206661696c65648152508573ffffffffffffffffffffffffffffffffffffffff16611ea59092919063ffffffff16565b9050600081511115611ea05780806020019051810190611e609190612d64565b611e9f576040517f08c379a0000000000000000000000000000000000000000000000000000000008152600401611e9690612e03565b60405180910390fd5b5b505050565b6060611eb48484600085611ebd565b90509392505050565b606082471015611f02576040517f08c379a0000000000000000000000000000000000000000000000000000000008152600401611ef990612e95565b60405180910390fd5b6000808673ffffffffffffffffffffffffffffffffffffffff168587604051611f2b9190612efc565b60006040518083038185875af1925050503d8060008114611f68576040519150601f19603f3d011682016040523d82523d6000602084013e611f6d565b606091505b5091509150611f7e87838387611f8a565b92505050949350505050565b60608315611fed57600083511415611fe557611fa585612000565b611fe4576040517f08c379a0000000000000000000000000000000000000000000000000000000008152600401611fdb90612f5f565b60405180910390fd5b5b829050611ff8565b611ff78383612023565b5b949350505050565b6000808273ffffffffffffffffffffffffffffffffffffffff163b119050919050565b6000825111156120365781518083602001fd5b806040517f08c379a000000000000000000000000000000000000000000000000000000000815260040161206a9190612f7f565b60405180910390fd5b60405180610160016040528060608152602001600073ffffffffffffffffffffffffffffffffffffffff16815260200160608152602001600073ffffffffffffffffffffffffffffffffffffffff168152602001606081526020016000815260200160008152602001600081526020016000815260200160008152602001600081525090565b600080fd5b6000819050919050565b612111816120fe565b811461211c57600080fd5b50565b60008135905061212e81612108565b92915050565b60006020828403121561214a576121496120f9565b5b60006121588482850161211f565b91505092915050565b60008115159050919050565b61217681612161565b82525050565b6000602082019050612191600083018461216d565b92915050565b600081519050919050565b600082825260208201905092915050565b60005b838110156121d15780820151818401526020810190506121b6565b838111156121e0576000848401525b50505050565b6000601f19601f8301169050919050565b600061220282612197565b61220c81856121a2565b935061221c8185602086016121b3565b612225816121e6565b840191505092915050565b612239816120fe565b82525050565b600060a082019050818103600083015261225981886121f7565b90506122686020830187612230565b6122756040830186612230565b6122826060830185612230565b61228f6080830184612230565b9695505050505050565b600073ffffffffffffffffffffffffffffffffffffffff82169050919050565b60006122c482612299565b9050919050565b6122d4816122b9565b82525050565b600060e0820190506122ef600083018a6122cb565b6122fc60208301896122cb565b6123096040830188612230565b6123166060830187612230565b6123236080830186612230565b61233060a0830185612230565b61233d60c0830184612230565b98975050505050505050565b6000604082019050818103600083015261236381856121f7565b905061237260208301846122cb565b9392505050565b600082825260208201905092915050565b600061239582612197565b61239f8185612379565b93506123af8185602086016121b3565b6123b8816121e6565b840191505092915050565b6123cc816122b9565b82525050565b6123db816120fe565b82525050565b60006101608301600083015184820360008601526123ff828261238a565b915050602083015161241460208601826123c3565b506040830151848203604086015261242c828261238a565b915050606083015161244160608601826123c3565b5060808301518482036080860152612459828261238a565b91505060a083015161246e60a08601826123d2565b5060c083015161248160c08601826123d2565b5060e083015161249460e08601826123d2565b506101008301516124a96101008601826123d2565b506101208301516124be6101208601826123d2565b506101408301516124d36101408601826123d2565b508091505092915050565b600060208201905081810360008301526124f881846123e1565b905092915050565b612509816122b9565b811461251457600080fd5b50565b60008135905061252681612500565b92915050565b600060208284031215612542576125416120f9565b5b600061255084828501612517565b91505092915050565b600060408201905061256e6000830185612230565b61257b6020830184612230565b9392505050565b7f4f6e6c792062757965722063616e2072656c656173652066756e64732e000000600082015250565b60006125b8601d836121a2565b91506125c382612582565b602082019050919050565b600060208201905081810360008301526125e7816125ab565b9050919050565b600060208201905061260360008301846122cb565b92915050565b60008151905061261881612108565b92915050565b600060208284031215612634576126336120f9565b5b600061264284828501612609565b91505092915050565b7f506c65617365206465706f73697420746f6b656e73206265666f72652073696760008201527f6e696e6720636f6e747261637400000000000000000000000000000000000000602082015250565b60006126a7602d836121a2565b91506126b28261264b565b604082019050919050565b600060208201905081810360008301526126d68161269a565b9050919050565b60006080820190506126f260008301876122cb565b6126ff60208301866122cb565b61270c6040830185612230565b6127196060830184612230565b95945050505050565b7f436f6e7472616374206e6f74207965742066696e616c00000000000000000000600082015250565b60006127586016836121a2565b915061276382612722565b602082019050919050565b600060208201905081810360008301526127878161274b565b9050919050565b7f4e487b7100000000000000000000000000000000000000000000000000000000600052601160045260246000fd5b60006127c8826120fe565b91506127d3836120fe565b9250827fffffffffffffffffffffffffffffffffffffffffffffffffffffffffffffffff038211156128085761280761278e565b5b828201905092915050565b600061281e826120fe565b9150612829836120fe565b92508282101561283c5761283b61278e565b5b828203905092915050565b7f496e73756666696369656e742066756e64730000000000000000000000000000600082015250565b600061287d6012836121a2565b915061288882612847565b602082019050919050565b600060208201905081810360008301526128ac81612870565b9050919050565b60006060820190506128c860008301866122cb565b6128d560208301856122cb565b6128e26040830184612230565b949350505050565b7f4f6e6c792073656c6c65722063616e2077697468647261772e00000000000000600082015250565b60006129206019836121a2565b915061292b826128ea565b602082019050919050565b6000602082019050818103600083015261294f81612913565b9050919050565b7f496e76616c69642073746174652e204c6f636b6564203e2042616c616e63652160008201527f2100000000000000000000000000000000000000000000000000000000000000602082015250565b60006129b26021836121a2565b91506129bd82612956565b604082019050919050565b600060208201905081810360008301526129e1816129a5565b9050919050565b7f4e487b7100000000000000000000000000000000000000000000000000000000600052602260045260246000fd5b60006002820490506001821680612a2f57607f821691505b60208210811415612a4357612a426129e8565b5b50919050565b7f4f6e6c7920756e6c6f636b65722063616e20756e6c6f636b2066756e64732e00600082015250565b6000612a7f601f836121a2565b9150612a8a82612a49565b602082019050919050565b60006020820190508181036000830152612aae81612a72565b9050919050565b7f43616e6e6f7420756e6c6f636b206d6f7265207468616e2066756e647320726560008201527f6c65617365642062792062757965722e00000000000000000000000000000000602082015250565b6000612b116030836121a2565b9150612b1c82612ab5565b604082019050919050565b60006020820190508181036000830152612b4081612b04565b9050919050565b6000612b52826120fe565b9150612b5d836120fe565b9250817fffffffffffffffffffffffffffffffffffffffffffffffffffffffffffffffff0483118215151615612b9657612b9561278e565b5b828202905092915050565b7f4e487b7100000000000000000000000000000000000000000000000000000000600052601260045260246000fd5b6000612bdb826120fe565b9150612be6836120fe565b925082612bf657612bf5612ba1565b5b828204905092915050565b7f4f6e6c792061646d696e2063616e20706572666f726d2074686973206f70657260008201527f6174696f6e2e0000000000000000000000000000000000000000000000000000602082015250565b6000612c5d6026836121a2565b9150612c6882612c01565b604082019050919050565b60006020820190508181036000830152612c8c81612c50565b9050919050565b600060a082019050612ca860008301886122cb565b612cb560208301876122cb565b612cc260408301866122cb565b612ccf6060830185612230565b612cdc6080830184612230565b9695505050505050565b6000604082019050612cfb60008301856122cb565b612d0860208301846122cb565b9392505050565b6000604082019050612d2460008301856122cb565b612d316020830184612230565b9392505050565b612d4181612161565b8114612d4c57600080fd5b50565b600081519050612d5e81612d38565b92915050565b600060208284031215612d7a57612d796120f9565b5b6000612d8884828501612d4f565b91505092915050565b7f5361666545524332303a204552433230206f7065726174696f6e20646964206e60008201527f6f74207375636365656400000000000000000000000000000000000000000000602082015250565b6000612ded602a836121a2565b9150612df882612d91565b604082019050919050565b60006020820190508181036000830152612e1c81612de0565b9050919050565b7f416464726573733a20696e73756666696369656e742062616c616e636520666f60008201527f722063616c6c0000000000000000000000000000000000000000000000000000602082015250565b6000612e7f6026836121a2565b9150612e8a82612e23565b604082019050919050565b60006020820190508181036000830152612eae81612e72565b9050919050565b600081519050919050565b600081905092915050565b6000612ed682612eb5565b612ee08185612ec0565b9350612ef08185602086016121b3565b80840191505092915050565b6000612f088284612ecb565b915081905092915050565b7f416464726573733a2063616c6c20746f206e6f6e2d636f6e7472616374000000600082015250565b6000612f49601d836121a2565b9150612f5482612f13565b602082019050919050565b60006020820190508181036000830152612f7881612f3c565b9050919050565b60006020820190508181036000830152612f9981846121f7565b90509291505056fea26469706673582212201ab40367bf94e316317a249a68a3497298c3a7b0c98f9f1169776ffa039f530864736f6c63430008090033",
  "linkReferences": {},
  "deployedLinkReferences": {}
}