{
  "_format": "hh-sol-artifact-1",
  "contractName": "EscrowPurchase",
  "sourceName": "contracts/EscrowPurchase.sol",
  "abi": [
    {
      "inputs": [
        {
          "internalType": "address",
          "name": "_tokenAddress",
          "type": "address"
        },
        {
          "internalType": "string",
          "name": "_productName",
          "type": "string"
        },
        {
          "internalType": "string",
          "name": "_buyerName",
          "type": "string"
        },
        {
          "internalType": "string",
          "name": "_sellerName",
          "type": "string"
        },
        {
          "internalType": "address",
          "name": "_buyer",
          "type": "address"
        },
        {
          "internalType": "address",
          "name": "_seller",
          "type": "address"
        },
        {
          "internalType": "uint256",
          "name": "_estimatedYieldMin",
          "type": "uint256"
        },
        {
          "internalType": "uint256",
          "name": "_estimatedYieldMax",
          "type": "uint256"
        },
        {
          "internalType": "uint256",
          "name": "_estimatedPriceMin",
          "type": "uint256"
        },
        {
          "internalType": "uint256",
          "name": "_estimatedPriceMax",
          "type": "uint256"
        },
        {
          "internalType": "uint256",
          "name": "_downPaymentBps",
          "type": "uint256"
        }
      ],
      "stateMutability": "nonpayable",
      "type": "constructor"
    },
    {
      "anonymous": false,
      "inputs": [
        {
          "indexed": false,
          "internalType": "address",
          "name": "admin",
          "type": "address"
        },
        {
          "indexed": false,
          "internalType": "address",
          "name": "buyer",
          "type": "address"
        },
        {
          "indexed": false,
          "internalType": "address",
          "name": "seller",
          "type": "address"
        },
        {
          "indexed": false,
          "internalType": "uint256",
          "name": "contractValueMin",
          "type": "uint256"
        },
        {
          "indexed": false,
          "internalType": "uint256",
          "name": "contractValueMax",
          "type": "uint256"
        }
      ],
      "name": "AdminSigned",
      "type": "event"
    },
    {
      "anonymous": false,
      "inputs": [
        {
          "indexed": false,
          "internalType": "address",
          "name": "buyer",
          "type": "address"
        },
        {
          "indexed": false,
          "internalType": "address",
          "name": "seller",
          "type": "address"
        },
        {
          "indexed": false,
          "internalType": "uint256",
          "name": "contractValueMin",
          "type": "uint256"
        },
        {
          "indexed": false,
          "internalType": "uint256",
          "name": "contractValueMax",
          "type": "uint256"
        }
      ],
      "name": "BuyerSigned",
      "type": "event"
    },
    {
      "anonymous": false,
      "inputs": [
        {
          "indexed": false,
          "internalType": "address",
          "name": "buyer",
          "type": "address"
        },
        {
          "indexed": false,
          "internalType": "address",
          "name": "seller",
          "type": "address"
        }
      ],
      "name": "Cancel",
      "type": "event"
    },
    {
      "anonymous": false,
      "inputs": [
        {
          "indexed": false,
          "internalType": "address",
          "name": "buyer",
          "type": "address"
        },
        {
          "indexed": false,
          "internalType": "address",
          "name": "seller",
          "type": "address"
        },
        {
          "indexed": false,
          "internalType": "uint256",
          "name": "qty",
          "type": "uint256"
        }
      ],
      "name": "Deposit",
      "type": "event"
    },
    {
      "anonymous": false,
      "inputs": [
        {
          "indexed": false,
          "internalType": "address",
          "name": "buyer",
          "type": "address"
        },
        {
          "indexed": false,
          "internalType": "address",
          "name": "seller",
          "type": "address"
        },
        {
          "indexed": false,
          "internalType": "uint256",
          "name": "qty",
          "type": "uint256"
        }
      ],
      "name": "Release",
      "type": "event"
    },
    {
      "anonymous": false,
      "inputs": [
        {
          "indexed": false,
          "internalType": "address",
          "name": "buyer",
          "type": "address"
        },
        {
          "indexed": false,
          "internalType": "address",
          "name": "seller",
          "type": "address"
        },
        {
          "indexed": false,
          "internalType": "uint256",
          "name": "contractValueMin",
          "type": "uint256"
        },
        {
          "indexed": false,
          "internalType": "uint256",
          "name": "contractValueMax",
          "type": "uint256"
        }
      ],
      "name": "SellerSigned",
      "type": "event"
    },
    {
      "anonymous": false,
      "inputs": [
        {
          "indexed": false,
          "internalType": "address",
          "name": "buyer",
          "type": "address"
        },
        {
          "indexed": false,
          "internalType": "address",
          "name": "seller",
          "type": "address"
        },
        {
          "indexed": false,
          "internalType": "uint256",
          "name": "qty",
          "type": "uint256"
        }
      ],
      "name": "Unlock",
      "type": "event"
    },
    {
      "anonymous": false,
      "inputs": [
        {
          "indexed": false,
          "internalType": "address",
          "name": "buyer",
          "type": "address"
        },
        {
          "indexed": false,
          "internalType": "address",
          "name": "seller",
          "type": "address"
        },
        {
          "indexed": false,
          "internalType": "uint256",
          "name": "qty",
          "type": "uint256"
        }
      ],
      "name": "Withdraw",
      "type": "event"
    },
    {
      "inputs": [],
      "name": "adminSign",
      "outputs": [],
      "stateMutability": "nonpayable",
      "type": "function"
    },
    {
      "inputs": [
        {
          "internalType": "address",
          "name": "_unlocker",
          "type": "address"
        }
      ],
      "name": "assignUnlocker",
      "outputs": [],
      "stateMutability": "nonpayable",
      "type": "function"
    },
    {
      "inputs": [],
      "name": "buyerSign",
      "outputs": [],
      "stateMutability": "nonpayable",
      "type": "function"
    },
    {
      "inputs": [],
      "name": "cancel",
      "outputs": [],
      "stateMutability": "nonpayable",
      "type": "function"
    },
    {
      "inputs": [],
      "name": "details",
      "outputs": [
        {
          "internalType": "address",
          "name": "",
          "type": "address"
        },
        {
          "internalType": "address",
          "name": "",
          "type": "address"
        },
        {
          "internalType": "uint256",
          "name": "",
          "type": "uint256"
        },
        {
          "internalType": "uint256",
          "name": "",
          "type": "uint256"
        },
        {
          "internalType": "uint256",
          "name": "",
          "type": "uint256"
        },
        {
          "internalType": "uint256",
          "name": "",
          "type": "uint256"
        },
        {
          "internalType": "uint256",
          "name": "",
          "type": "uint256"
        }
      ],
      "stateMutability": "view",
      "type": "function"
    },
    {
      "inputs": [],
      "name": "finalPayment",
      "outputs": [
        {
          "internalType": "bool",
          "name": "",
          "type": "bool"
        }
      ],
      "stateMutability": "nonpayable",
      "type": "function"
    },
    {
      "inputs": [],
      "name": "getBuyer",
      "outputs": [
        {
          "internalType": "string",
          "name": "",
          "type": "string"
        },
        {
          "internalType": "address",
          "name": "",
          "type": "address"
        }
      ],
      "stateMutability": "view",
      "type": "function"
    },
    {
      "inputs": [],
      "name": "getContractValue",
      "outputs": [
        {
          "internalType": "uint256",
          "name": "",
          "type": "uint256"
        },
        {
          "internalType": "uint256",
          "name": "",
          "type": "uint256"
        }
      ],
      "stateMutability": "view",
      "type": "function"
    },
    {
      "inputs": [],
      "name": "getDetails2",
      "outputs": [
        {
          "components": [
            {
              "internalType": "string",
              "name": "productName",
              "type": "string"
            },
            {
              "internalType": "address",
              "name": "buyer",
              "type": "address"
            },
            {
              "internalType": "string",
              "name": "buyerName",
              "type": "string"
            },
            {
              "internalType": "address",
              "name": "seller",
              "type": "address"
            },
            {
              "internalType": "string",
              "name": "sellerName",
              "type": "string"
            },
            {
              "internalType": "uint256",
              "name": "estimatedYieldMin",
              "type": "uint256"
            },
            {
              "internalType": "uint256",
              "name": "estimatedYieldMax",
              "type": "uint256"
            },
            {
              "internalType": "uint256",
              "name": "tentativeYield",
              "type": "uint256"
            },
            {
              "internalType": "uint256",
              "name": "estimatedPriceMin",
              "type": "uint256"
            },
            {
              "internalType": "uint256",
              "name": "estimatedPriceMax",
              "type": "uint256"
            },
            {
              "internalType": "uint256",
              "name": "tentativePrice",
              "type": "uint256"
            },
            {
              "internalType": "uint256",
              "name": "releasedAmount",
              "type": "uint256"
            },
            {
              "internalType": "uint256",
              "name": "lockedAmount",
              "type": "uint256"
            },
            {
              "internalType": "address",
              "name": "contractNFT",
              "type": "address"
            }
          ],
          "internalType": "struct ContractDetails",
          "name": "",
          "type": "tuple"
        }
      ],
      "stateMutability": "view",
      "type": "function"
    },
    {
      "inputs": [],
      "name": "getProduct",
      "outputs": [
        {
          "internalType": "string",
          "name": "",
          "type": "string"
        },
        {
          "internalType": "uint256",
          "name": "",
          "type": "uint256"
        },
        {
          "internalType": "uint256",
          "name": "",
          "type": "uint256"
        },
        {
          "internalType": "uint256",
          "name": "",
          "type": "uint256"
        },
        {
          "internalType": "uint256",
          "name": "",
          "type": "uint256"
        }
      ],
      "stateMutability": "view",
      "type": "function"
    },
    {
      "inputs": [],
      "name": "getSeller",
      "outputs": [
        {
          "internalType": "string",
          "name": "",
          "type": "string"
        },
        {
          "internalType": "address",
          "name": "",
          "type": "address"
        }
      ],
      "stateMutability": "view",
      "type": "function"
    },
    {
      "inputs": [],
      "name": "makeDownpayment",
      "outputs": [
        {
          "internalType": "bool",
          "name": "",
          "type": "bool"
        }
      ],
      "stateMutability": "nonpayable",
      "type": "function"
    },
    {
      "inputs": [
        {
          "internalType": "uint256",
          "name": "_amount",
          "type": "uint256"
        }
      ],
      "name": "releaseAmount",
      "outputs": [
        {
          "internalType": "bool",
          "name": "",
          "type": "bool"
        }
      ],
      "stateMutability": "nonpayable",
      "type": "function"
    },
    {
      "inputs": [],
      "name": "sellerSign",
      "outputs": [],
      "stateMutability": "nonpayable",
      "type": "function"
    },
    {
      "inputs": [
        {
          "internalType": "address",
          "name": "_nftAddress",
          "type": "address"
        }
      ],
      "name": "setNFT",
      "outputs": [],
      "stateMutability": "nonpayable",
      "type": "function"
    },
    {
      "inputs": [
        {
          "internalType": "uint256",
          "name": "_amount",
          "type": "uint256"
        }
      ],
      "name": "unlockAmount",
      "outputs": [
        {
          "internalType": "bool",
          "name": "",
          "type": "bool"
        }
      ],
      "stateMutability": "nonpayable",
      "type": "function"
    },
    {
      "inputs": [],
      "name": "withdraw",
      "outputs": [
        {
          "internalType": "bool",
          "name": "",
          "type": "bool"
        }
      ],
      "stateMutability": "nonpayable",
      "type": "function"
    }
  ],
  "bytecode": "0x60806040523480156200001157600080fd5b5060405162003b7a38038062003b7a8339818101604052810190620000379190620005f6565b600081101580156200004a575061271081105b6200008c576040517f08c379a00000000000000000000000000000000000000000000000000000000081526004016200008390620007e7565b60405180910390fd5b8960049080519060200190620000a492919062000309565b5033600160006101000a81548173ffffffffffffffffffffffffffffffffffffffff021916908373ffffffffffffffffffffffffffffffffffffffff160217905550600560009054906101000a900473ffffffffffffffffffffffffffffffffffffffff16600360006101000a81548173ffffffffffffffffffffffffffffffffffffffff021916908373ffffffffffffffffffffffffffffffffffffffff1602179055508a6000806101000a81548173ffffffffffffffffffffffffffffffffffffffff021916908373ffffffffffffffffffffffffffffffffffffffff16021790555086600560006101000a81548173ffffffffffffffffffffffffffffffffffffffff021916908373ffffffffffffffffffffffffffffffffffffffff1602179055508860069080519060200190620001e292919062000309565b508760089080519060200190620001fb92919062000309565b5085600760006101000a81548173ffffffffffffffffffffffffffffffffffffffff021916908373ffffffffffffffffffffffffffffffffffffffff16021790555060006012819055506000601381905550806014819055508460098190555083600a8190555082600c8190555081600d81905550670de0b6b3a7640000838662000287919062000838565b62000293919062000838565b601081905550670de0b6b3a76400008285620002b0919062000838565b620002bc919062000838565b6011819055506000600f60016101000a81548160ff0219169083151502179055506000600f60026101000a81548160ff0219169083151502179055505050505050505050505050620008fe565b8280546200031790620008c8565b90600052602060002090601f0160209004810192826200033b576000855562000387565b82601f106200035657805160ff191683800117855562000387565b8280016001018555821562000387579182015b828111156200038657825182559160200191906001019062000369565b5b5090506200039691906200039a565b5090565b5b80821115620003b55760008160009055506001016200039b565b5090565b6000604051905090565b600080fd5b600080fd5b600073ffffffffffffffffffffffffffffffffffffffff82169050919050565b6000620003fa82620003cd565b9050919050565b6200040c81620003ed565b81146200041857600080fd5b50565b6000815190506200042c8162000401565b92915050565b600080fd5b600080fd5b6000601f19601f8301169050919050565b7f4e487b7100000000000000000000000000000000000000000000000000000000600052604160045260246000fd5b62000487826200043c565b810181811067ffffffffffffffff82111715620004a957620004a86200044d565b5b80604052505050565b6000620004be620003b9565b9050620004cc82826200047c565b919050565b600067ffffffffffffffff821115620004ef57620004ee6200044d565b5b620004fa826200043c565b9050602081019050919050565b60005b83811015620005275780820151818401526020810190506200050a565b8381111562000537576000848401525b50505050565b6000620005546200054e84620004d1565b620004b2565b90508281526020810184848401111562000573576200057262000437565b5b6200058084828562000507565b509392505050565b600082601f830112620005a0576200059f62000432565b5b8151620005b28482602086016200053d565b91505092915050565b6000819050919050565b620005d081620005bb565b8114620005dc57600080fd5b50565b600081519050620005f081620005c5565b92915050565b60008060008060008060008060008060006101608c8e0312156200061f576200061e620003c3565b5b60006200062f8e828f016200041b565b9b505060208c015167ffffffffffffffff811115620006535762000652620003c8565b5b620006618e828f0162000588565b9a505060408c015167ffffffffffffffff811115620006855762000684620003c8565b5b620006938e828f0162000588565b99505060608c015167ffffffffffffffff811115620006b757620006b6620003c8565b5b620006c58e828f0162000588565b9850506080620006d88e828f016200041b565b97505060a0620006eb8e828f016200041b565b96505060c0620006fe8e828f01620005df565b95505060e0620007118e828f01620005df565b945050610100620007258e828f01620005df565b935050610120620007398e828f01620005df565b9250506101406200074d8e828f01620005df565b9150509295989b509295989b9093969950565b600082825260208201905092915050565b7f496e76616c696420646f776e5061796d656e744270732c20706c65617365207060008201527f6173732070657263656e7461676520626173697320706f696e74730000000000602082015250565b6000620007cf603b8362000760565b9150620007dc8262000771565b604082019050919050565b600060208201905081810360008301526200080281620007c0565b9050919050565b7f4e487b7100000000000000000000000000000000000000000000000000000000600052601160045260246000fd5b60006200084582620005bb565b91506200085283620005bb565b9250817fffffffffffffffffffffffffffffffffffffffffffffffffffffffffffffffff04831182151516156200088e576200088d62000809565b5b828202905092915050565b7f4e487b7100000000000000000000000000000000000000000000000000000000600052602260045260246000fd5b60006002820490506001821680620008e157607f821691505b60208210811415620008f857620008f762000899565b5b50919050565b61326c806200090e6000396000f3fe608060405234801561001057600080fd5b506004361061010b5760003560e01c8063807b5d29116100a2578063da38575611610071578063da38575614610269578063dbd0e1b614610287578063dc82697c146102a6578063ea8a1af0146102c5578063f56e9c66146102cf5761010b565b8063807b5d291461021b57806396a69f4314610225578063a513de6914610243578063c011bf161461024d5761010b565b80634cd2c09a116100de5780634cd2c09a1461018a578063565974d3146101ba5780635ebe2514146101de578063603daf9a146101fc5761010b565b8063046a2fdd146101105780632278f36b1461011a5780633ccfd60b1461014a5780634ba2005014610168575b600080fd5b6101186102eb565b005b610134600480360381019061012f919061236f565b610527565b60405161014191906123b7565b60405180910390f35b610152610648565b60405161015f91906123b7565b60405180910390f35b61017061097c565b60405161018195949392919061247a565b60405180910390f35b6101a4600480360381019061019f919061236f565b610a2f565b6040516101b191906123b7565b60405180910390f35b6101c2610c35565b6040516101d59796959493929190612515565b60405180910390f35b6101e6610d5d565b6040516101f391906123b7565b60405180910390f35b610204610e7b565b604051610212929190612584565b60405180910390f35b610223610f38565b005b61022d61108e565b60405161023a9190612758565b60405180910390f35b61024b6110a3565b005b610267600480360381019061026291906127a6565b6111d5565b005b610271611219565b60405161027e91906123b7565b60405180910390f35b61028f61146c565b60405161029d929190612584565b60405180910390f35b6102ae611529565b6040516102bc9291906127d3565b60405180910390f35b6102cd61153a565b005b6102e960048036038101906102e491906127a6565b6117da565b005b600560009054906101000a900473ffffffffffffffffffffffffffffffffffffffff1673ffffffffffffffffffffffffffffffffffffffff163373ffffffffffffffffffffffffffffffffffffffff161461037b576040517f08c379a000000000000000000000000000000000000000000000000000000000815260040161037290612848565b60405180910390fd5b60008060009054906101000a900473ffffffffffffffffffffffffffffffffffffffff16905060008173ffffffffffffffffffffffffffffffffffffffff166370a08231306040518263ffffffff1660e01b81526004016103dc9190612868565b60206040518083038186803b1580156103f457600080fd5b505afa158015610408573d6000803e3d6000fd5b505050506040513d601f19601f8201168201806040525081019061042c9190612898565b9050601154811015610473576040517f08c379a000000000000000000000000000000000000000000000000000000000815260040161046a90612937565b60405180910390fd5b6001600f60016101000a81548160ff021916908315150217905550806012819055507fca509163edfc238d34e4ef84d235590fe07508a67a58fa10a2a30ba245252f6a600560009054906101000a900473ffffffffffffffffffffffffffffffffffffffff16600760009054906101000a900473ffffffffffffffffffffffffffffffffffffffff166010546011546040516105129493929190612957565b60405180910390a16105226118ae565b505050565b6000600560009054906101000a900473ffffffffffffffffffffffffffffffffffffffff1673ffffffffffffffffffffffffffffffffffffffff163373ffffffffffffffffffffffffffffffffffffffff16146105b9576040517f08c379a00000000000000000000000000000000000000000000000000000000081526004016105b090612848565b60405180910390fd5b600f60009054906101000a900460ff1680156105e15750600f60019054906101000a900460ff165b80156105f95750600f60029054906101000a900460ff165b610638576040517f08c379a000000000000000000000000000000000000000000000000000000000815260040161062f906129e8565b60405180910390fd5b61064182611a61565b9050919050565b6000600760009054906101000a900473ffffffffffffffffffffffffffffffffffffffff1673ffffffffffffffffffffffffffffffffffffffff163373ffffffffffffffffffffffffffffffffffffffff16146106da576040517f08c379a00000000000000000000000000000000000000000000000000000000081526004016106d190612a54565b60405180910390fd5b600f60009054906101000a900460ff1680156107025750600f60019054906101000a900460ff165b801561071a5750600f60029054906101000a900460ff165b610759576040517f08c379a0000000000000000000000000000000000000000000000000000000008152600401610750906129e8565b60405180910390fd5b60008060009054906101000a900473ffffffffffffffffffffffffffffffffffffffff16905060008173ffffffffffffffffffffffffffffffffffffffff166370a08231306040518263ffffffff1660e01b81526004016107ba9190612868565b60206040518083038186803b1580156107d257600080fd5b505afa1580156107e6573d6000803e3d6000fd5b505050506040513d601f19601f8201168201806040525081019061080a9190612898565b9050806012541115610851576040517f08c379a000000000000000000000000000000000000000000000000000000000815260040161084890612ae6565b60405180910390fd5b6000601254826108619190612b35565b9050600081116108a6576040517f08c379a000000000000000000000000000000000000000000000000000000000815260040161089d90612bb5565b60405180910390fd5b6108f3600760009054906101000a900473ffffffffffffffffffffffffffffffffffffffff16828573ffffffffffffffffffffffffffffffffffffffff16611ca79092919063ffffffff16565b7f9b1bfa7fa9ee420a16e124f794c35ac9f90472acc99140eb2f6447c714cad8eb600560009054906101000a900473ffffffffffffffffffffffffffffffffffffffff16600760009054906101000a900473ffffffffffffffffffffffffffffffffffffffff168360405161096a93929190612bd5565b60405180910390a16001935050505090565b60606000806000806004600954600a54600c54600d5484805461099e90612c3b565b80601f01602080910402602001604051908101604052809291908181526020018280546109ca90612c3b565b8015610a175780601f106109ec57610100808354040283529160200191610a17565b820191906000526020600020905b8154815290600101906020018083116109fa57829003601f168201915b50505050509450945094509450945094509091929394565b6000600360009054906101000a900473ffffffffffffffffffffffffffffffffffffffff1673ffffffffffffffffffffffffffffffffffffffff163373ffffffffffffffffffffffffffffffffffffffff1614610ac1576040517f08c379a0000000000000000000000000000000000000000000000000000000008152600401610ab890612cb9565b60405180910390fd5b600f60009054906101000a900460ff168015610ae95750600f60019054906101000a900460ff165b8015610b015750600f60029054906101000a900460ff165b610b40576040517f08c379a0000000000000000000000000000000000000000000000000000000008152600401610b37906129e8565b60405180910390fd5b601354821115610b85576040517f08c379a0000000000000000000000000000000000000000000000000000000008152600401610b7c90612d4b565b60405180910390fd5b81601254610b939190612b35565b60128190555081601354610ba79190612b35565b6013819055507fc1c90b8e0705b212262c0dbd7580efe1862c2f185bf96899226f7596beb2db09600560009054906101000a900473ffffffffffffffffffffffffffffffffffffffff16600760009054906101000a900473ffffffffffffffffffffffffffffffffffffffff1684604051610c2493929190612bd5565b60405180910390a160019050919050565b60008060008060008060008060008054906101000a900473ffffffffffffffffffffffffffffffffffffffff16905060008173ffffffffffffffffffffffffffffffffffffffff166370a08231306040518263ffffffff1660e01b8152600401610c9f9190612868565b60206040518083038186803b158015610cb757600080fd5b505afa158015610ccb573d6000803e3d6000fd5b505050506040513d601f19601f82011682018060405250810190610cef9190612898565b9050600560009054906101000a900473ffffffffffffffffffffffffffffffffffffffff16600760009054906101000a900473ffffffffffffffffffffffffffffffffffffffff16601054601154846013546012549850985098509850985098509850505090919293949596565b6000600560009054906101000a900473ffffffffffffffffffffffffffffffffffffffff1673ffffffffffffffffffffffffffffffffffffffff163373ffffffffffffffffffffffffffffffffffffffff1614610def576040517f08c379a0000000000000000000000000000000000000000000000000000000008152600401610de690612848565b60405180910390fd5b600f60009054906101000a900460ff168015610e175750600f60019054906101000a900460ff165b8015610e2f5750600f60029054906101000a900460ff165b610e6e576040517f08c379a0000000000000000000000000000000000000000000000000000000008152600401610e65906129e8565b60405180910390fd5b610e766118ae565b905090565b606060006006600560009054906101000a900473ffffffffffffffffffffffffffffffffffffffff16818054610eb090612c3b565b80601f0160208091040260200160405190810160405280929190818152602001828054610edc90612c3b565b8015610f295780601f10610efe57610100808354040283529160200191610f29565b820191906000526020600020905b815481529060010190602001808311610f0c57829003601f168201915b50505050509150915091509091565b600160009054906101000a900473ffffffffffffffffffffffffffffffffffffffff1673ffffffffffffffffffffffffffffffffffffffff163373ffffffffffffffffffffffffffffffffffffffff1614610fc8576040517f08c379a0000000000000000000000000000000000000000000000000000000008152600401610fbf90612ddd565b60405180910390fd5b6001600f60006101000a81548160ff0219169083151502179055507f2d02a8006c04b9bb35fcf84fbe0c3a2eebc574698ed7716c9f67b0f67244b6f5600160009054906101000a900473ffffffffffffffffffffffffffffffffffffffff16600560009054906101000a900473ffffffffffffffffffffffffffffffffffffffff16600760009054906101000a900473ffffffffffffffffffffffffffffffffffffffff16601054601154604051611084959493929190612dfd565b60405180910390a1565b611096612283565b61109e611d2d565b905090565b600760009054906101000a900473ffffffffffffffffffffffffffffffffffffffff1673ffffffffffffffffffffffffffffffffffffffff163373ffffffffffffffffffffffffffffffffffffffff1614611133576040517f08c379a000000000000000000000000000000000000000000000000000000000815260040161112a90612a54565b60405180910390fd5b6001600f60026101000a81548160ff0219169083151502179055507f2e4ddfb651f821a25a38775d9a40cd48df71699988424942de2b58a490463f0f600560009054906101000a900473ffffffffffffffffffffffffffffffffffffffff16600760009054906101000a900473ffffffffffffffffffffffffffffffffffffffff166010546011546040516111cb9493929190612957565b60405180910390a1565b80600360006101000a81548173ffffffffffffffffffffffffffffffffffffffff021916908373ffffffffffffffffffffffffffffffffffffffff16021790555050565b6000600560009054906101000a900473ffffffffffffffffffffffffffffffffffffffff1673ffffffffffffffffffffffffffffffffffffffff163373ffffffffffffffffffffffffffffffffffffffff16146112ab576040517f08c379a00000000000000000000000000000000000000000000000000000000081526004016112a290612848565b60405180910390fd5b600f60009054906101000a900460ff1680156112d35750600f60019054906101000a900460ff165b80156112eb5750600f60029054906101000a900460ff165b61132a576040517f08c379a0000000000000000000000000000000000000000000000000000000008152600401611321906129e8565b60405180910390fd5b60008060009054906101000a900473ffffffffffffffffffffffffffffffffffffffff16905060008173ffffffffffffffffffffffffffffffffffffffff166370a08231306040518263ffffffff1660e01b815260040161138b9190612868565b60206040518083038186803b1580156113a357600080fd5b505afa1580156113b7573d6000803e3d6000fd5b505050506040513d601f19601f820116820180604052508101906113db9190612898565b9050806013819055507fcb54aad3bd772fcfe1bc124e01bd1a91a91c9d80126d8b3014c4d9e687d5ca48600560009054906101000a900473ffffffffffffffffffffffffffffffffffffffff16600760009054906101000a900473ffffffffffffffffffffffffffffffffffffffff168360405161145b93929190612bd5565b60405180910390a160019250505090565b606060006008600760009054906101000a900473ffffffffffffffffffffffffffffffffffffffff168180546114a190612c3b565b80601f01602080910402602001604051908101604052809291908181526020018280546114cd90612c3b565b801561151a5780601f106114ef5761010080835404028352916020019161151a565b820191906000526020600020905b8154815290600101906020018083116114fd57829003601f168201915b50505050509150915091509091565b600080601054601154915091509091565b600160009054906101000a900473ffffffffffffffffffffffffffffffffffffffff1673ffffffffffffffffffffffffffffffffffffffff163373ffffffffffffffffffffffffffffffffffffffff16146115ca576040517f08c379a00000000000000000000000000000000000000000000000000000000081526004016115c190612ddd565b60405180910390fd5b600f60009054906101000a900460ff1680156115f25750600f60019054906101000a900460ff165b801561160a5750600f60029054906101000a900460ff165b611649576040517f08c379a0000000000000000000000000000000000000000000000000000000008152600401611640906129e8565b60405180910390fd5b60008060009054906101000a900473ffffffffffffffffffffffffffffffffffffffff16905060008173ffffffffffffffffffffffffffffffffffffffff166370a08231306040518263ffffffff1660e01b81526004016116aa9190612868565b60206040518083038186803b1580156116c257600080fd5b505afa1580156116d6573d6000803e3d6000fd5b505050506040513d601f19601f820116820180604052508101906116fa9190612898565b9050611749600560009054906101000a900473ffffffffffffffffffffffffffffffffffffffff16828473ffffffffffffffffffffffffffffffffffffffff16611ca79092919063ffffffff16565b600060128190555060006013819055507f50d9aca76814f78d884b23d6acf60b8e4a0404b5bfd5fe15fae3cc9d874eb949600560009054906101000a900473ffffffffffffffffffffffffffffffffffffffff16600760009054906101000a900473ffffffffffffffffffffffffffffffffffffffff166040516117ce929190612e50565b60405180910390a15050565b600160009054906101000a900473ffffffffffffffffffffffffffffffffffffffff1673ffffffffffffffffffffffffffffffffffffffff163373ffffffffffffffffffffffffffffffffffffffff161461186a576040517f08c379a000000000000000000000000000000000000000000000000000000000815260040161186190612ddd565b60405180910390fd5b80600260006101000a81548173ffffffffffffffffffffffffffffffffffffffff021916908373ffffffffffffffffffffffffffffffffffffffff16021790555050565b60008060008054906101000a900473ffffffffffffffffffffffffffffffffffffffff16905060008173ffffffffffffffffffffffffffffffffffffffff166370a08231306040518263ffffffff1660e01b815260040161190f9190612868565b60206040518083038186803b15801561192757600080fd5b505afa15801561193b573d6000803e3d6000fd5b505050506040513d601f19601f8201168201806040525081019061195f9190612898565b905060006127106010546014546119769190612e79565b6119809190612f02565b90508181106119c4576040517f08c379a00000000000000000000000000000000000000000000000000000000081526004016119bb90612bb5565b60405180910390fd5b806013546119d29190612f33565b6013819055507fcb54aad3bd772fcfe1bc124e01bd1a91a91c9d80126d8b3014c4d9e687d5ca48600560009054906101000a900473ffffffffffffffffffffffffffffffffffffffff16600760009054906101000a900473ffffffffffffffffffffffffffffffffffffffff1683604051611a4f93929190612bd5565b60405180910390a16001935050505090565b60008060008054906101000a900473ffffffffffffffffffffffffffffffffffffffff16905060008173ffffffffffffffffffffffffffffffffffffffff166370a08231306040518263ffffffff1660e01b8152600401611ac29190612868565b60206040518083038186803b158015611ada57600080fd5b505afa158015611aee573d6000803e3d6000fd5b505050506040513d601f19601f82011682018060405250810190611b129190612898565b905083601354611b229190612f33565b601381905550600060125482611b389190612b35565b9050808510611b7c576040517f08c379a0000000000000000000000000000000000000000000000000000000008152600401611b7390612bb5565b60405180910390fd5b84601254611b8a9190612b35565b6012819055507fcb54aad3bd772fcfe1bc124e01bd1a91a91c9d80126d8b3014c4d9e687d5ca48600560009054906101000a900473ffffffffffffffffffffffffffffffffffffffff16600760009054906101000a900473ffffffffffffffffffffffffffffffffffffffff1687604051611c0793929190612bd5565b60405180910390a13073ffffffffffffffffffffffffffffffffffffffff16634cd2c09a866040518263ffffffff1660e01b8152600401611c489190612f89565b602060405180830381600087803b158015611c6257600080fd5b505af1158015611c76573d6000803e3d6000fd5b505050506040513d601f19601f82011682018060405250810190611c9a9190612fd0565b5060019350505050919050565b611d288363a9059cbb60e01b8484604051602401611cc6929190612ffd565b604051602081830303815290604052907bffffffffffffffffffffffffffffffffffffffffffffffffffffffff19166020820180517bffffffffffffffffffffffffffffffffffffffffffffffffffffffff8381831617835250505050611fee565b505050565b611d35612283565b604051806101c0016040528060048054611d4e90612c3b565b80601f0160208091040260200160405190810160405280929190818152602001828054611d7a90612c3b565b8015611dc75780601f10611d9c57610100808354040283529160200191611dc7565b820191906000526020600020905b815481529060010190602001808311611daa57829003601f168201915b50505050508152602001600560009054906101000a900473ffffffffffffffffffffffffffffffffffffffff1673ffffffffffffffffffffffffffffffffffffffff16815260200160068054611e1c90612c3b565b80601f0160208091040260200160405190810160405280929190818152602001828054611e4890612c3b565b8015611e955780601f10611e6a57610100808354040283529160200191611e95565b820191906000526020600020905b815481529060010190602001808311611e7857829003601f168201915b50505050508152602001600760009054906101000a900473ffffffffffffffffffffffffffffffffffffffff1673ffffffffffffffffffffffffffffffffffffffff16815260200160088054611eea90612c3b565b80601f0160208091040260200160405190810160405280929190818152602001828054611f1690612c3b565b8015611f635780601f10611f3857610100808354040283529160200191611f63565b820191906000526020600020905b815481529060010190602001808311611f4657829003601f168201915b505050505081526020016009548152602001600a548152602001600b548152602001600c548152602001600d548152602001600e54815260200160135481526020016012548152602001600260009054906101000a900473ffffffffffffffffffffffffffffffffffffffff1673ffffffffffffffffffffffffffffffffffffffff16815250905090565b6000612050826040518060400160405280602081526020017f5361666545524332303a206c6f772d6c6576656c2063616c6c206661696c65648152508573ffffffffffffffffffffffffffffffffffffffff166120b59092919063ffffffff16565b90506000815111156120b057808060200190518101906120709190612fd0565b6120af576040517f08c379a00000000000000000000000000000000000000000000000000000000081526004016120a690613098565b60405180910390fd5b5b505050565b60606120c484846000856120cd565b90509392505050565b606082471015612112576040517f08c379a00000000000000000000000000000000000000000000000000000000081526004016121099061312a565b60405180910390fd5b6000808673ffffffffffffffffffffffffffffffffffffffff16858760405161213b9190613191565b60006040518083038185875af1925050503d8060008114612178576040519150601f19603f3d011682016040523d82523d6000602084013e61217d565b606091505b509150915061218e8783838761219a565b92505050949350505050565b606083156121fd576000835114156121f5576121b585612210565b6121f4576040517f08c379a00000000000000000000000000000000000000000000000000000000081526004016121eb906131f4565b60405180910390fd5b5b829050612208565b6122078383612233565b5b949350505050565b6000808273ffffffffffffffffffffffffffffffffffffffff163b119050919050565b6000825111156122465781518083602001fd5b806040517f08c379a000000000000000000000000000000000000000000000000000000000815260040161227a9190613214565b60405180910390fd5b604051806101c0016040528060608152602001600073ffffffffffffffffffffffffffffffffffffffff16815260200160608152602001600073ffffffffffffffffffffffffffffffffffffffff168152602001606081526020016000815260200160008152602001600081526020016000815260200160008152602001600081526020016000815260200160008152602001600073ffffffffffffffffffffffffffffffffffffffff1681525090565b600080fd5b6000819050919050565b61234c81612339565b811461235757600080fd5b50565b60008135905061236981612343565b92915050565b60006020828403121561238557612384612334565b5b60006123938482850161235a565b91505092915050565b60008115159050919050565b6123b18161239c565b82525050565b60006020820190506123cc60008301846123a8565b92915050565b600081519050919050565b600082825260208201905092915050565b60005b8381101561240c5780820151818401526020810190506123f1565b8381111561241b576000848401525b50505050565b6000601f19601f8301169050919050565b600061243d826123d2565b61244781856123dd565b93506124578185602086016123ee565b61246081612421565b840191505092915050565b61247481612339565b82525050565b600060a08201905081810360008301526124948188612432565b90506124a3602083018761246b565b6124b0604083018661246b565b6124bd606083018561246b565b6124ca608083018461246b565b9695505050505050565b600073ffffffffffffffffffffffffffffffffffffffff82169050919050565b60006124ff826124d4565b9050919050565b61250f816124f4565b82525050565b600060e08201905061252a600083018a612506565b6125376020830189612506565b612544604083018861246b565b612551606083018761246b565b61255e608083018661246b565b61256b60a083018561246b565b61257860c083018461246b565b98975050505050505050565b6000604082019050818103600083015261259e8185612432565b90506125ad6020830184612506565b9392505050565b600082825260208201905092915050565b60006125d0826123d2565b6125da81856125b4565b93506125ea8185602086016123ee565b6125f381612421565b840191505092915050565b612607816124f4565b82525050565b61261681612339565b82525050565b60006101c083016000830151848203600086015261263a82826125c5565b915050602083015161264f60208601826125fe565b506040830151848203604086015261266782826125c5565b915050606083015161267c60608601826125fe565b506080830151848203608086015261269482826125c5565b91505060a08301516126a960a086018261260d565b5060c08301516126bc60c086018261260d565b5060e08301516126cf60e086018261260d565b506101008301516126e461010086018261260d565b506101208301516126f961012086018261260d565b5061014083015161270e61014086018261260d565b5061016083015161272361016086018261260d565b5061018083015161273861018086018261260d565b506101a083015161274d6101a08601826125fe565b508091505092915050565b60006020820190508181036000830152612772818461261c565b905092915050565b612783816124f4565b811461278e57600080fd5b50565b6000813590506127a08161277a565b92915050565b6000602082840312156127bc576127bb612334565b5b60006127ca84828501612791565b91505092915050565b60006040820190506127e8600083018561246b565b6127f5602083018461246b565b9392505050565b7f4f6e6c792062757965722063616e2072656c656173652066756e64732e000000600082015250565b6000612832601d836123dd565b915061283d826127fc565b602082019050919050565b6000602082019050818103600083015261286181612825565b9050919050565b600060208201905061287d6000830184612506565b92915050565b60008151905061289281612343565b92915050565b6000602082840312156128ae576128ad612334565b5b60006128bc84828501612883565b91505092915050565b7f506c65617365206465706f73697420746f6b656e73206265666f72652073696760008201527f6e696e6720636f6e747261637400000000000000000000000000000000000000602082015250565b6000612921602d836123dd565b915061292c826128c5565b604082019050919050565b6000602082019050818103600083015261295081612914565b9050919050565b600060808201905061296c6000830187612506565b6129796020830186612506565b612986604083018561246b565b612993606083018461246b565b95945050505050565b7f436f6e7472616374206e6f74207965742066696e616c00000000000000000000600082015250565b60006129d26016836123dd565b91506129dd8261299c565b602082019050919050565b60006020820190508181036000830152612a01816129c5565b9050919050565b7f4f6e6c792073656c6c65722063616e2077697468647261772e00000000000000600082015250565b6000612a3e6019836123dd565b9150612a4982612a08565b602082019050919050565b60006020820190508181036000830152612a6d81612a31565b9050919050565b7f496e76616c69642073746174652e204c6f636b6564203e2042616c616e63652160008201527f2100000000000000000000000000000000000000000000000000000000000000602082015250565b6000612ad06021836123dd565b9150612adb82612a74565b604082019050919050565b60006020820190508181036000830152612aff81612ac3565b9050919050565b7f4e487b7100000000000000000000000000000000000000000000000000000000600052601160045260246000fd5b6000612b4082612339565b9150612b4b83612339565b925082821015612b5e57612b5d612b06565b5b828203905092915050565b7f496e73756666696369656e742066756e64730000000000000000000000000000600082015250565b6000612b9f6012836123dd565b9150612baa82612b69565b602082019050919050565b60006020820190508181036000830152612bce81612b92565b9050919050565b6000606082019050612bea6000830186612506565b612bf76020830185612506565b612c04604083018461246b565b949350505050565b7f4e487b7100000000000000000000000000000000000000000000000000000000600052602260045260246000fd5b60006002820490506001821680612c5357607f821691505b60208210811415612c6757612c66612c0c565b5b50919050565b7f4f6e6c7920756e6c6f636b65722063616e20756e6c6f636b2066756e64732e00600082015250565b6000612ca3601f836123dd565b9150612cae82612c6d565b602082019050919050565b60006020820190508181036000830152612cd281612c96565b9050919050565b7f43616e6e6f7420756e6c6f636b206d6f7265207468616e2066756e647320726560008201527f6c65617365642062792062757965722e00000000000000000000000000000000602082015250565b6000612d356030836123dd565b9150612d4082612cd9565b604082019050919050565b60006020820190508181036000830152612d6481612d28565b9050919050565b7f4f6e6c792061646d696e2063616e20706572666f726d2074686973206f70657260008201527f6174696f6e2e0000000000000000000000000000000000000000000000000000602082015250565b6000612dc76026836123dd565b9150612dd282612d6b565b604082019050919050565b60006020820190508181036000830152612df681612dba565b9050919050565b600060a082019050612e126000830188612506565b612e1f6020830187612506565b612e2c6040830186612506565b612e39606083018561246b565b612e46608083018461246b565b9695505050505050565b6000604082019050612e656000830185612506565b612e726020830184612506565b9392505050565b6000612e8482612339565b9150612e8f83612339565b9250817fffffffffffffffffffffffffffffffffffffffffffffffffffffffffffffffff0483118215151615612ec857612ec7612b06565b5b828202905092915050565b7f4e487b7100000000000000000000000000000000000000000000000000000000600052601260045260246000fd5b6000612f0d82612339565b9150612f1883612339565b925082612f2857612f27612ed3565b5b828204905092915050565b6000612f3e82612339565b9150612f4983612339565b9250827fffffffffffffffffffffffffffffffffffffffffffffffffffffffffffffffff03821115612f7e57612f7d612b06565b5b828201905092915050565b6000602082019050612f9e600083018461246b565b92915050565b612fad8161239c565b8114612fb857600080fd5b50565b600081519050612fca81612fa4565b92915050565b600060208284031215612fe657612fe5612334565b5b6000612ff484828501612fbb565b91505092915050565b60006040820190506130126000830185612506565b61301f602083018461246b565b9392505050565b7f5361666545524332303a204552433230206f7065726174696f6e20646964206e60008201527f6f74207375636365656400000000000000000000000000000000000000000000602082015250565b6000613082602a836123dd565b915061308d82613026565b604082019050919050565b600060208201905081810360008301526130b181613075565b9050919050565b7f416464726573733a20696e73756666696369656e742062616c616e636520666f60008201527f722063616c6c0000000000000000000000000000000000000000000000000000602082015250565b60006131146026836123dd565b915061311f826130b8565b604082019050919050565b6000602082019050818103600083015261314381613107565b9050919050565b600081519050919050565b600081905092915050565b600061316b8261314a565b6131758185613155565b93506131858185602086016123ee565b80840191505092915050565b600061319d8284613160565b915081905092915050565b7f416464726573733a2063616c6c20746f206e6f6e2d636f6e7472616374000000600082015250565b60006131de601d836123dd565b91506131e9826131a8565b602082019050919050565b6000602082019050818103600083015261320d816131d1565b9050919050565b6000602082019050818103600083015261322e8184612432565b90509291505056fea264697066735822122083cf4dcc3cf171214fec3df25e65abcffbd54d4ae4e40ae8878dea2574e6ed0964736f6c63430008090033",
  "linkReferences": {},
  "deployedLinkReferences": {}
}