{
  "_format": "hh-sol-artifact-1",
  "contractName": "EscrowPurchase",
  "sourceName": "contracts/EscrowPurchase.sol",
  "abi": [
    {
      "inputs": [
        {
          "internalType": "address",
          "name": "_tokenAddress",
          "type": "address"
        },
        {
          "internalType": "string",
          "name": "_productName",
          "type": "string"
        },
        {
          "internalType": "string",
          "name": "_buyerName",
          "type": "string"
        },
        {
          "internalType": "string",
          "name": "_sellerName",
          "type": "string"
        },
        {
          "internalType": "address",
          "name": "_buyer",
          "type": "address"
        },
        {
          "internalType": "address",
          "name": "_seller",
          "type": "address"
        },
        {
          "internalType": "uint256",
          "name": "_estimatedYieldMin",
          "type": "uint256"
        },
        {
          "internalType": "uint256",
          "name": "_estimatedYieldMax",
          "type": "uint256"
        },
        {
          "internalType": "uint256",
          "name": "_estimatedPriceMin",
          "type": "uint256"
        },
        {
          "internalType": "uint256",
          "name": "_estimatedPriceMax",
          "type": "uint256"
        },
        {
          "internalType": "uint256",
          "name": "_downPaymentBps",
          "type": "uint256"
        }
      ],
      "stateMutability": "nonpayable",
      "type": "constructor"
    },
    {
      "anonymous": false,
      "inputs": [
        {
          "indexed": false,
          "internalType": "address",
          "name": "admin",
          "type": "address"
        },
        {
          "indexed": false,
          "internalType": "address",
          "name": "buyer",
          "type": "address"
        },
        {
          "indexed": false,
          "internalType": "address",
          "name": "seller",
          "type": "address"
        },
        {
          "indexed": false,
          "internalType": "uint256",
          "name": "contractValueMin",
          "type": "uint256"
        },
        {
          "indexed": false,
          "internalType": "uint256",
          "name": "contractValueMax",
          "type": "uint256"
        }
      ],
      "name": "AdminSigned",
      "type": "event"
    },
    {
      "anonymous": false,
      "inputs": [
        {
          "indexed": false,
          "internalType": "address",
          "name": "buyer",
          "type": "address"
        },
        {
          "indexed": false,
          "internalType": "address",
          "name": "seller",
          "type": "address"
        },
        {
          "indexed": false,
          "internalType": "uint256",
          "name": "contractValueMin",
          "type": "uint256"
        },
        {
          "indexed": false,
          "internalType": "uint256",
          "name": "contractValueMax",
          "type": "uint256"
        }
      ],
      "name": "BuyerSigned",
      "type": "event"
    },
    {
      "anonymous": false,
      "inputs": [
        {
          "indexed": false,
          "internalType": "address",
          "name": "buyer",
          "type": "address"
        },
        {
          "indexed": false,
          "internalType": "address",
          "name": "seller",
          "type": "address"
        }
      ],
      "name": "Cancel",
      "type": "event"
    },
    {
      "anonymous": false,
      "inputs": [
        {
          "indexed": false,
          "internalType": "address",
          "name": "buyer",
          "type": "address"
        },
        {
          "indexed": false,
          "internalType": "address",
          "name": "seller",
          "type": "address"
        },
        {
          "indexed": false,
          "internalType": "uint256",
          "name": "qty",
          "type": "uint256"
        }
      ],
      "name": "Deposit",
      "type": "event"
    },
    {
      "anonymous": false,
      "inputs": [
        {
          "indexed": false,
          "internalType": "address",
          "name": "buyer",
          "type": "address"
        },
        {
          "indexed": false,
          "internalType": "address",
          "name": "seller",
          "type": "address"
        },
        {
          "indexed": false,
          "internalType": "uint256",
          "name": "qty",
          "type": "uint256"
        }
      ],
      "name": "Release",
      "type": "event"
    },
    {
      "anonymous": false,
      "inputs": [
        {
          "indexed": false,
          "internalType": "address",
          "name": "buyer",
          "type": "address"
        },
        {
          "indexed": false,
          "internalType": "address",
          "name": "seller",
          "type": "address"
        },
        {
          "indexed": false,
          "internalType": "uint256",
          "name": "contractValueMin",
          "type": "uint256"
        },
        {
          "indexed": false,
          "internalType": "uint256",
          "name": "contractValueMax",
          "type": "uint256"
        }
      ],
      "name": "SellerSigned",
      "type": "event"
    },
    {
      "anonymous": false,
      "inputs": [
        {
          "indexed": false,
          "internalType": "address",
          "name": "buyer",
          "type": "address"
        },
        {
          "indexed": false,
          "internalType": "address",
          "name": "seller",
          "type": "address"
        },
        {
          "indexed": false,
          "internalType": "uint256",
          "name": "qty",
          "type": "uint256"
        }
      ],
      "name": "Unlock",
      "type": "event"
    },
    {
      "anonymous": false,
      "inputs": [
        {
          "indexed": false,
          "internalType": "address",
          "name": "buyer",
          "type": "address"
        },
        {
          "indexed": false,
          "internalType": "address",
          "name": "seller",
          "type": "address"
        },
        {
          "indexed": false,
          "internalType": "uint256",
          "name": "qty",
          "type": "uint256"
        }
      ],
      "name": "Withdraw",
      "type": "event"
    },
    {
      "inputs": [],
      "name": "adminSign",
      "outputs": [],
      "stateMutability": "nonpayable",
      "type": "function"
    },
    {
      "inputs": [
        {
          "internalType": "address",
          "name": "_unlocker",
          "type": "address"
        }
      ],
      "name": "assignUnlocker",
      "outputs": [],
      "stateMutability": "nonpayable",
      "type": "function"
    },
    {
      "inputs": [],
      "name": "buyerSign",
      "outputs": [],
      "stateMutability": "nonpayable",
      "type": "function"
    },
    {
      "inputs": [],
      "name": "cancel",
      "outputs": [],
      "stateMutability": "nonpayable",
      "type": "function"
    },
    {
      "inputs": [],
      "name": "details",
      "outputs": [
        {
          "internalType": "address",
          "name": "",
          "type": "address"
        },
        {
          "internalType": "address",
          "name": "",
          "type": "address"
        },
        {
          "internalType": "uint256",
          "name": "",
          "type": "uint256"
        },
        {
          "internalType": "uint256",
          "name": "",
          "type": "uint256"
        },
        {
          "internalType": "uint256",
          "name": "",
          "type": "uint256"
        },
        {
          "internalType": "uint256",
          "name": "",
          "type": "uint256"
        },
        {
          "internalType": "uint256",
          "name": "",
          "type": "uint256"
        }
      ],
      "stateMutability": "view",
      "type": "function"
    },
    {
      "inputs": [],
      "name": "finalPayment",
      "outputs": [
        {
          "internalType": "bool",
          "name": "",
          "type": "bool"
        }
      ],
      "stateMutability": "nonpayable",
      "type": "function"
    },
    {
      "inputs": [],
      "name": "getBuyer",
      "outputs": [
        {
          "internalType": "string",
          "name": "",
          "type": "string"
        },
        {
          "internalType": "address",
          "name": "",
          "type": "address"
        }
      ],
      "stateMutability": "view",
      "type": "function"
    },
    {
      "inputs": [],
      "name": "getContractValue",
      "outputs": [
        {
          "internalType": "uint256",
          "name": "",
          "type": "uint256"
        },
        {
          "internalType": "uint256",
          "name": "",
          "type": "uint256"
        }
      ],
      "stateMutability": "view",
      "type": "function"
    },
    {
      "inputs": [],
      "name": "getDetails2",
      "outputs": [
        {
          "components": [
            {
              "internalType": "string",
              "name": "productName",
              "type": "string"
            },
            {
              "internalType": "address",
              "name": "buyer",
              "type": "address"
            },
            {
              "internalType": "string",
              "name": "buyerName",
              "type": "string"
            },
            {
              "internalType": "address",
              "name": "seller",
              "type": "address"
            },
            {
              "internalType": "string",
              "name": "sellerName",
              "type": "string"
            },
            {
              "internalType": "uint256",
              "name": "estimatedYieldMin",
              "type": "uint256"
            },
            {
              "internalType": "uint256",
              "name": "estimatedYieldMax",
              "type": "uint256"
            },
            {
              "internalType": "uint256",
              "name": "tentativeYield",
              "type": "uint256"
            },
            {
              "internalType": "uint256",
              "name": "estimatedPriceMin",
              "type": "uint256"
            },
            {
              "internalType": "uint256",
              "name": "estimatedPriceMax",
              "type": "uint256"
            },
            {
              "internalType": "uint256",
              "name": "tentativePrice",
              "type": "uint256"
            },
            {
              "internalType": "uint256",
              "name": "releasedAmount",
              "type": "uint256"
            },
            {
              "internalType": "uint256",
              "name": "lockedAmount",
              "type": "uint256"
            },
            {
              "internalType": "address",
              "name": "contractNFT",
              "type": "address"
            },
            {
              "internalType": "uint256",
              "name": "contractValueMin",
              "type": "uint256"
            },
            {
              "internalType": "uint256",
              "name": "contractValueMax",
              "type": "uint256"
            },
            {
              "internalType": "bool",
              "name": "adminSigned",
              "type": "bool"
            },
            {
              "internalType": "bool",
              "name": "buyerSigned",
              "type": "bool"
            },
            {
              "internalType": "bool",
              "name": "sellerSigned",
              "type": "bool"
            }
          ],
          "internalType": "struct ContractDetails",
          "name": "",
          "type": "tuple"
        }
      ],
      "stateMutability": "view",
      "type": "function"
    },
    {
      "inputs": [],
      "name": "getProduct",
      "outputs": [
        {
          "internalType": "string",
          "name": "",
          "type": "string"
        },
        {
          "internalType": "uint256",
          "name": "",
          "type": "uint256"
        },
        {
          "internalType": "uint256",
          "name": "",
          "type": "uint256"
        },
        {
          "internalType": "uint256",
          "name": "",
          "type": "uint256"
        },
        {
          "internalType": "uint256",
          "name": "",
          "type": "uint256"
        }
      ],
      "stateMutability": "view",
      "type": "function"
    },
    {
      "inputs": [],
      "name": "getSeller",
      "outputs": [
        {
          "internalType": "string",
          "name": "",
          "type": "string"
        },
        {
          "internalType": "address",
          "name": "",
          "type": "address"
        }
      ],
      "stateMutability": "view",
      "type": "function"
    },
    {
      "inputs": [],
      "name": "makeDownpayment",
      "outputs": [
        {
          "internalType": "bool",
          "name": "",
          "type": "bool"
        }
      ],
      "stateMutability": "nonpayable",
      "type": "function"
    },
    {
      "inputs": [
        {
          "internalType": "uint256",
          "name": "_amount",
          "type": "uint256"
        }
      ],
      "name": "releaseAmount",
      "outputs": [
        {
          "internalType": "bool",
          "name": "",
          "type": "bool"
        }
      ],
      "stateMutability": "nonpayable",
      "type": "function"
    },
    {
      "inputs": [],
      "name": "sellerSign",
      "outputs": [],
      "stateMutability": "nonpayable",
      "type": "function"
    },
    {
      "inputs": [
        {
          "internalType": "address",
          "name": "_nftAddress",
          "type": "address"
        }
      ],
      "name": "setNFT",
      "outputs": [],
      "stateMutability": "nonpayable",
      "type": "function"
    },
    {
      "inputs": [
        {
          "internalType": "uint256",
          "name": "_amount",
          "type": "uint256"
        }
      ],
      "name": "unlockAmount",
      "outputs": [
        {
          "internalType": "bool",
          "name": "",
          "type": "bool"
        }
      ],
      "stateMutability": "nonpayable",
      "type": "function"
    },
    {
      "inputs": [],
      "name": "withdraw",
      "outputs": [
        {
          "internalType": "bool",
          "name": "",
          "type": "bool"
        }
      ],
      "stateMutability": "nonpayable",
      "type": "function"
    }
  ],
  "bytecode": "0x60806040523480156200001157600080fd5b5060405162003ef038038062003ef08339818101604052810190620000379190620005f6565b600081101580156200004a575061271081105b6200008c576040517f08c379a00000000000000000000000000000000000000000000000000000000081526004016200008390620007e7565b60405180910390fd5b8960049080519060200190620000a492919062000309565b5033600160006101000a81548173ffffffffffffffffffffffffffffffffffffffff021916908373ffffffffffffffffffffffffffffffffffffffff160217905550600560009054906101000a900473ffffffffffffffffffffffffffffffffffffffff16600360006101000a81548173ffffffffffffffffffffffffffffffffffffffff021916908373ffffffffffffffffffffffffffffffffffffffff1602179055508a6000806101000a81548173ffffffffffffffffffffffffffffffffffffffff021916908373ffffffffffffffffffffffffffffffffffffffff16021790555086600560006101000a81548173ffffffffffffffffffffffffffffffffffffffff021916908373ffffffffffffffffffffffffffffffffffffffff1602179055508860069080519060200190620001e292919062000309565b508760089080519060200190620001fb92919062000309565b5085600760006101000a81548173ffffffffffffffffffffffffffffffffffffffff021916908373ffffffffffffffffffffffffffffffffffffffff16021790555060006012819055506000601381905550806014819055508460098190555083600a8190555082600c8190555081600d81905550670de0b6b3a7640000838662000287919062000838565b62000293919062000838565b601081905550670de0b6b3a76400008285620002b0919062000838565b620002bc919062000838565b6011819055506000600f60016101000a81548160ff0219169083151502179055506000600f60026101000a81548160ff0219169083151502179055505050505050505050505050620008fe565b8280546200031790620008c8565b90600052602060002090601f0160209004810192826200033b576000855562000387565b82601f106200035657805160ff191683800117855562000387565b8280016001018555821562000387579182015b828111156200038657825182559160200191906001019062000369565b5b5090506200039691906200039a565b5090565b5b80821115620003b55760008160009055506001016200039b565b5090565b6000604051905090565b600080fd5b600080fd5b600073ffffffffffffffffffffffffffffffffffffffff82169050919050565b6000620003fa82620003cd565b9050919050565b6200040c81620003ed565b81146200041857600080fd5b50565b6000815190506200042c8162000401565b92915050565b600080fd5b600080fd5b6000601f19601f8301169050919050565b7f4e487b7100000000000000000000000000000000000000000000000000000000600052604160045260246000fd5b62000487826200043c565b810181811067ffffffffffffffff82111715620004a957620004a86200044d565b5b80604052505050565b6000620004be620003b9565b9050620004cc82826200047c565b919050565b600067ffffffffffffffff821115620004ef57620004ee6200044d565b5b620004fa826200043c565b9050602081019050919050565b60005b83811015620005275780820151818401526020810190506200050a565b8381111562000537576000848401525b50505050565b6000620005546200054e84620004d1565b620004b2565b90508281526020810184848401111562000573576200057262000437565b5b6200058084828562000507565b509392505050565b600082601f830112620005a0576200059f62000432565b5b8151620005b28482602086016200053d565b91505092915050565b6000819050919050565b620005d081620005bb565b8114620005dc57600080fd5b50565b600081519050620005f081620005c5565b92915050565b60008060008060008060008060008060006101608c8e0312156200061f576200061e620003c3565b5b60006200062f8e828f016200041b565b9b505060208c015167ffffffffffffffff811115620006535762000652620003c8565b5b620006618e828f0162000588565b9a505060408c015167ffffffffffffffff811115620006855762000684620003c8565b5b620006938e828f0162000588565b99505060608c015167ffffffffffffffff811115620006b757620006b6620003c8565b5b620006c58e828f0162000588565b9850506080620006d88e828f016200041b565b97505060a0620006eb8e828f016200041b565b96505060c0620006fe8e828f01620005df565b95505060e0620007118e828f01620005df565b945050610100620007258e828f01620005df565b935050610120620007398e828f01620005df565b9250506101406200074d8e828f01620005df565b9150509295989b509295989b9093969950565b600082825260208201905092915050565b7f496e76616c696420646f776e5061796d656e744270732c20706c65617365207060008201527f6173732070657263656e7461676520626173697320706f696e74730000000000602082015250565b6000620007cf603b8362000760565b9150620007dc8262000771565b604082019050919050565b600060208201905081810360008301526200080281620007c0565b9050919050565b7f4e487b7100000000000000000000000000000000000000000000000000000000600052601160045260246000fd5b60006200084582620005bb565b91506200085283620005bb565b9250817fffffffffffffffffffffffffffffffffffffffffffffffffffffffffffffffff04831182151516156200088e576200088d62000809565b5b828202905092915050565b7f4e487b7100000000000000000000000000000000000000000000000000000000600052602260045260246000fd5b60006002820490506001821680620008e157607f821691505b60208210811415620008f857620008f762000899565b5b50919050565b6135e2806200090e6000396000f3fe608060405234801561001057600080fd5b506004361061010b5760003560e01c8063807b5d29116100a2578063da38575611610071578063da38575614610269578063dbd0e1b614610287578063dc82697c146102a6578063ea8a1af0146102c5578063f56e9c66146102cf5761010b565b8063807b5d291461021b57806396a69f4314610225578063a513de6914610243578063c011bf161461024d5761010b565b80634cd2c09a116100de5780634cd2c09a1461018a578063565974d3146101ba5780635ebe2514146101de578063603daf9a146101fc5761010b565b8063046a2fdd146101105780632278f36b1461011a5780633ccfd60b1461014a5780634ba2005014610168575b600080fd5b6101186102eb565b005b610134600480360381019061012f91906125b5565b610666565b60405161014191906125fd565b60405180910390f35b610152610787565b60405161015f91906125fd565b60405180910390f35b610170610abb565b6040516101819594939291906126c0565b60405180910390f35b6101a4600480360381019061019f91906125b5565b610b6e565b6040516101b191906125fd565b60405180910390f35b6101c2610d74565b6040516101d5979695949392919061275b565b60405180910390f35b6101e6610e9c565b6040516101f391906125fd565b60405180910390f35b610204610fba565b6040516102129291906127ca565b60405180910390f35b610223611077565b005b61022d6111cd565b60405161023a9190612a16565b60405180910390f35b61024b6111e2565b005b61026760048036038101906102629190612a64565b611314565b005b610271611358565b60405161027e91906125fd565b60405180910390f35b61028f6115ab565b60405161029d9291906127ca565b60405180910390f35b6102ae611668565b6040516102bc929190612a91565b60405180910390f35b6102cd611679565b005b6102e960048036038101906102e49190612a64565b611919565b005b600560009054906101000a900473ffffffffffffffffffffffffffffffffffffffff1673ffffffffffffffffffffffffffffffffffffffff163373ffffffffffffffffffffffffffffffffffffffff161461037b576040517f08c379a000000000000000000000000000000000000000000000000000000000815260040161037290612b06565b60405180910390fd5b60008060009054906101000a900473ffffffffffffffffffffffffffffffffffffffff16905060008173ffffffffffffffffffffffffffffffffffffffff166370a08231600560009054906101000a900473ffffffffffffffffffffffffffffffffffffffff166040518263ffffffff1660e01b81526004016103fe9190612b26565b60206040518083038186803b15801561041657600080fd5b505afa15801561042a573d6000803e3d6000fd5b505050506040513d601f19601f8201168201806040525081019061044e9190612b56565b9050601154811015610495576040517f08c379a000000000000000000000000000000000000000000000000000000000815260040161048c90612bf5565b60405180910390fd5b6001600f60016101000a81548160ff021916908315150217905550806012819055507fca509163edfc238d34e4ef84d235590fe07508a67a58fa10a2a30ba245252f6a600560009054906101000a900473ffffffffffffffffffffffffffffffffffffffff16600760009054906101000a900473ffffffffffffffffffffffffffffffffffffffff166010546011546040516105349493929190612c15565b60405180910390a160008273ffffffffffffffffffffffffffffffffffffffff1663dd62ed3e33306040518363ffffffff1660e01b8152600401610579929190612c5a565b60206040518083038186803b15801561059157600080fd5b505afa1580156105a5573d6000803e3d6000fd5b505050506040513d601f19601f820116820180604052508101906105c99190612b56565b9050601154811015610610576040517f08c379a000000000000000000000000000000000000000000000000000000000815260040161060790612d1b565b60405180910390fd5b610661600560009054906101000a900473ffffffffffffffffffffffffffffffffffffffff16306011548673ffffffffffffffffffffffffffffffffffffffff166119ed909392919063ffffffff16565b505050565b6000600560009054906101000a900473ffffffffffffffffffffffffffffffffffffffff1673ffffffffffffffffffffffffffffffffffffffff163373ffffffffffffffffffffffffffffffffffffffff16146106f8576040517f08c379a00000000000000000000000000000000000000000000000000000000081526004016106ef90612b06565b60405180910390fd5b600f60009054906101000a900460ff1680156107205750600f60019054906101000a900460ff165b80156107385750600f60029054906101000a900460ff165b610777576040517f08c379a000000000000000000000000000000000000000000000000000000000815260040161076e90612d87565b60405180910390fd5b61078082611a76565b9050919050565b6000600760009054906101000a900473ffffffffffffffffffffffffffffffffffffffff1673ffffffffffffffffffffffffffffffffffffffff163373ffffffffffffffffffffffffffffffffffffffff1614610819576040517f08c379a000000000000000000000000000000000000000000000000000000000815260040161081090612df3565b60405180910390fd5b600f60009054906101000a900460ff1680156108415750600f60019054906101000a900460ff165b80156108595750600f60029054906101000a900460ff165b610898576040517f08c379a000000000000000000000000000000000000000000000000000000000815260040161088f90612d87565b60405180910390fd5b60008060009054906101000a900473ffffffffffffffffffffffffffffffffffffffff16905060008173ffffffffffffffffffffffffffffffffffffffff166370a08231306040518263ffffffff1660e01b81526004016108f99190612b26565b60206040518083038186803b15801561091157600080fd5b505afa158015610925573d6000803e3d6000fd5b505050506040513d601f19601f820116820180604052508101906109499190612b56565b9050806012541115610990576040517f08c379a000000000000000000000000000000000000000000000000000000000815260040161098790612e85565b60405180910390fd5b6000601254826109a09190612ed4565b9050600081116109e5576040517f08c379a00000000000000000000000000000000000000000000000000000000081526004016109dc90612f54565b60405180910390fd5b610a32600760009054906101000a900473ffffffffffffffffffffffffffffffffffffffff16828573ffffffffffffffffffffffffffffffffffffffff16611cbc9092919063ffffffff16565b7f9b1bfa7fa9ee420a16e124f794c35ac9f90472acc99140eb2f6447c714cad8eb600560009054906101000a900473ffffffffffffffffffffffffffffffffffffffff16600760009054906101000a900473ffffffffffffffffffffffffffffffffffffffff1683604051610aa993929190612f74565b60405180910390a16001935050505090565b60606000806000806004600954600a54600c54600d54848054610add90612fda565b80601f0160208091040260200160405190810160405280929190818152602001828054610b0990612fda565b8015610b565780601f10610b2b57610100808354040283529160200191610b56565b820191906000526020600020905b815481529060010190602001808311610b3957829003601f168201915b50505050509450945094509450945094509091929394565b6000600360009054906101000a900473ffffffffffffffffffffffffffffffffffffffff1673ffffffffffffffffffffffffffffffffffffffff163373ffffffffffffffffffffffffffffffffffffffff1614610c00576040517f08c379a0000000000000000000000000000000000000000000000000000000008152600401610bf790613058565b60405180910390fd5b600f60009054906101000a900460ff168015610c285750600f60019054906101000a900460ff165b8015610c405750600f60029054906101000a900460ff165b610c7f576040517f08c379a0000000000000000000000000000000000000000000000000000000008152600401610c7690612d87565b60405180910390fd5b601354821115610cc4576040517f08c379a0000000000000000000000000000000000000000000000000000000008152600401610cbb906130ea565b60405180910390fd5b81601254610cd29190612ed4565b60128190555081601354610ce69190612ed4565b6013819055507fc1c90b8e0705b212262c0dbd7580efe1862c2f185bf96899226f7596beb2db09600560009054906101000a900473ffffffffffffffffffffffffffffffffffffffff16600760009054906101000a900473ffffffffffffffffffffffffffffffffffffffff1684604051610d6393929190612f74565b60405180910390a160019050919050565b60008060008060008060008060008054906101000a900473ffffffffffffffffffffffffffffffffffffffff16905060008173ffffffffffffffffffffffffffffffffffffffff166370a08231306040518263ffffffff1660e01b8152600401610dde9190612b26565b60206040518083038186803b158015610df657600080fd5b505afa158015610e0a573d6000803e3d6000fd5b505050506040513d601f19601f82011682018060405250810190610e2e9190612b56565b9050600560009054906101000a900473ffffffffffffffffffffffffffffffffffffffff16600760009054906101000a900473ffffffffffffffffffffffffffffffffffffffff16601054601154846013546012549850985098509850985098509850505090919293949596565b6000600560009054906101000a900473ffffffffffffffffffffffffffffffffffffffff1673ffffffffffffffffffffffffffffffffffffffff163373ffffffffffffffffffffffffffffffffffffffff1614610f2e576040517f08c379a0000000000000000000000000000000000000000000000000000000008152600401610f2590612b06565b60405180910390fd5b600f60009054906101000a900460ff168015610f565750600f60019054906101000a900460ff165b8015610f6e5750600f60029054906101000a900460ff165b610fad576040517f08c379a0000000000000000000000000000000000000000000000000000000008152600401610fa490612d87565b60405180910390fd5b610fb5611d42565b905090565b606060006006600560009054906101000a900473ffffffffffffffffffffffffffffffffffffffff16818054610fef90612fda565b80601f016020809104026020016040519081016040528092919081815260200182805461101b90612fda565b80156110685780601f1061103d57610100808354040283529160200191611068565b820191906000526020600020905b81548152906001019060200180831161104b57829003601f168201915b50505050509150915091509091565b600160009054906101000a900473ffffffffffffffffffffffffffffffffffffffff1673ffffffffffffffffffffffffffffffffffffffff163373ffffffffffffffffffffffffffffffffffffffff1614611107576040517f08c379a00000000000000000000000000000000000000000000000000000000081526004016110fe9061317c565b60405180910390fd5b6001600f60006101000a81548160ff0219169083151502179055507f2d02a8006c04b9bb35fcf84fbe0c3a2eebc574698ed7716c9f67b0f67244b6f5600160009054906101000a900473ffffffffffffffffffffffffffffffffffffffff16600560009054906101000a900473ffffffffffffffffffffffffffffffffffffffff16600760009054906101000a900473ffffffffffffffffffffffffffffffffffffffff166010546011546040516111c395949392919061319c565b60405180910390a1565b6111d56124a0565b6111dd611ef5565b905090565b600760009054906101000a900473ffffffffffffffffffffffffffffffffffffffff1673ffffffffffffffffffffffffffffffffffffffff163373ffffffffffffffffffffffffffffffffffffffff1614611272576040517f08c379a000000000000000000000000000000000000000000000000000000000815260040161126990612df3565b60405180910390fd5b6001600f60026101000a81548160ff0219169083151502179055507f2e4ddfb651f821a25a38775d9a40cd48df71699988424942de2b58a490463f0f600560009054906101000a900473ffffffffffffffffffffffffffffffffffffffff16600760009054906101000a900473ffffffffffffffffffffffffffffffffffffffff1660105460115460405161130a9493929190612c15565b60405180910390a1565b80600360006101000a81548173ffffffffffffffffffffffffffffffffffffffff021916908373ffffffffffffffffffffffffffffffffffffffff16021790555050565b6000600560009054906101000a900473ffffffffffffffffffffffffffffffffffffffff1673ffffffffffffffffffffffffffffffffffffffff163373ffffffffffffffffffffffffffffffffffffffff16146113ea576040517f08c379a00000000000000000000000000000000000000000000000000000000081526004016113e190612b06565b60405180910390fd5b600f60009054906101000a900460ff1680156114125750600f60019054906101000a900460ff165b801561142a5750600f60029054906101000a900460ff165b611469576040517f08c379a000000000000000000000000000000000000000000000000000000000815260040161146090612d87565b60405180910390fd5b60008060009054906101000a900473ffffffffffffffffffffffffffffffffffffffff16905060008173ffffffffffffffffffffffffffffffffffffffff166370a08231306040518263ffffffff1660e01b81526004016114ca9190612b26565b60206040518083038186803b1580156114e257600080fd5b505afa1580156114f6573d6000803e3d6000fd5b505050506040513d601f19601f8201168201806040525081019061151a9190612b56565b9050806013819055507fcb54aad3bd772fcfe1bc124e01bd1a91a91c9d80126d8b3014c4d9e687d5ca48600560009054906101000a900473ffffffffffffffffffffffffffffffffffffffff16600760009054906101000a900473ffffffffffffffffffffffffffffffffffffffff168360405161159a93929190612f74565b60405180910390a160019250505090565b606060006008600760009054906101000a900473ffffffffffffffffffffffffffffffffffffffff168180546115e090612fda565b80601f016020809104026020016040519081016040528092919081815260200182805461160c90612fda565b80156116595780601f1061162e57610100808354040283529160200191611659565b820191906000526020600020905b81548152906001019060200180831161163c57829003601f168201915b50505050509150915091509091565b600080601054601154915091509091565b600160009054906101000a900473ffffffffffffffffffffffffffffffffffffffff1673ffffffffffffffffffffffffffffffffffffffff163373ffffffffffffffffffffffffffffffffffffffff1614611709576040517f08c379a00000000000000000000000000000000000000000000000000000000081526004016117009061317c565b60405180910390fd5b600f60009054906101000a900460ff1680156117315750600f60019054906101000a900460ff165b80156117495750600f60029054906101000a900460ff165b611788576040517f08c379a000000000000000000000000000000000000000000000000000000000815260040161177f90612d87565b60405180910390fd5b60008060009054906101000a900473ffffffffffffffffffffffffffffffffffffffff16905060008173ffffffffffffffffffffffffffffffffffffffff166370a08231306040518263ffffffff1660e01b81526004016117e99190612b26565b60206040518083038186803b15801561180157600080fd5b505afa158015611815573d6000803e3d6000fd5b505050506040513d601f19601f820116820180604052508101906118399190612b56565b9050611888600560009054906101000a900473ffffffffffffffffffffffffffffffffffffffff16828473ffffffffffffffffffffffffffffffffffffffff16611cbc9092919063ffffffff16565b600060128190555060006013819055507f50d9aca76814f78d884b23d6acf60b8e4a0404b5bfd5fe15fae3cc9d874eb949600560009054906101000a900473ffffffffffffffffffffffffffffffffffffffff16600760009054906101000a900473ffffffffffffffffffffffffffffffffffffffff1660405161190d929190612c5a565b60405180910390a15050565b600160009054906101000a900473ffffffffffffffffffffffffffffffffffffffff1673ffffffffffffffffffffffffffffffffffffffff163373ffffffffffffffffffffffffffffffffffffffff16146119a9576040517f08c379a00000000000000000000000000000000000000000000000000000000081526004016119a09061317c565b60405180910390fd5b80600260006101000a81548173ffffffffffffffffffffffffffffffffffffffff021916908373ffffffffffffffffffffffffffffffffffffffff16021790555050565b611a70846323b872dd60e01b858585604051602401611a0e93929190612f74565b604051602081830303815290604052907bffffffffffffffffffffffffffffffffffffffffffffffffffffffff19166020820180517bffffffffffffffffffffffffffffffffffffffffffffffffffffffff838183161783525050505061220b565b50505050565b60008060008054906101000a900473ffffffffffffffffffffffffffffffffffffffff16905060008173ffffffffffffffffffffffffffffffffffffffff166370a08231306040518263ffffffff1660e01b8152600401611ad79190612b26565b60206040518083038186803b158015611aef57600080fd5b505afa158015611b03573d6000803e3d6000fd5b505050506040513d601f19601f82011682018060405250810190611b279190612b56565b905083601354611b3791906131ef565b601381905550600060125482611b4d9190612ed4565b9050808510611b91576040517f08c379a0000000000000000000000000000000000000000000000000000000008152600401611b8890612f54565b60405180910390fd5b84601254611b9f9190612ed4565b6012819055507fcb54aad3bd772fcfe1bc124e01bd1a91a91c9d80126d8b3014c4d9e687d5ca48600560009054906101000a900473ffffffffffffffffffffffffffffffffffffffff16600760009054906101000a900473ffffffffffffffffffffffffffffffffffffffff1687604051611c1c93929190612f74565b60405180910390a13073ffffffffffffffffffffffffffffffffffffffff16634cd2c09a866040518263ffffffff1660e01b8152600401611c5d9190613245565b602060405180830381600087803b158015611c7757600080fd5b505af1158015611c8b573d6000803e3d6000fd5b505050506040513d601f19601f82011682018060405250810190611caf919061328c565b5060019350505050919050565b611d3d8363a9059cbb60e01b8484604051602401611cdb9291906132b9565b604051602081830303815290604052907bffffffffffffffffffffffffffffffffffffffffffffffffffffffff19166020820180517bffffffffffffffffffffffffffffffffffffffffffffffffffffffff838183161783525050505061220b565b505050565b60008060008054906101000a900473ffffffffffffffffffffffffffffffffffffffff16905060008173ffffffffffffffffffffffffffffffffffffffff166370a08231306040518263ffffffff1660e01b8152600401611da39190612b26565b60206040518083038186803b158015611dbb57600080fd5b505afa158015611dcf573d6000803e3d6000fd5b505050506040513d601f19601f82011682018060405250810190611df39190612b56565b90506000612710601054601454611e0a91906132e2565b611e14919061336b565b9050818110611e58576040517f08c379a0000000000000000000000000000000000000000000000000000000008152600401611e4f90612f54565b60405180910390fd5b80601354611e6691906131ef565b6013819055507fcb54aad3bd772fcfe1bc124e01bd1a91a91c9d80126d8b3014c4d9e687d5ca48600560009054906101000a900473ffffffffffffffffffffffffffffffffffffffff16600760009054906101000a900473ffffffffffffffffffffffffffffffffffffffff1683604051611ee393929190612f74565b60405180910390a16001935050505090565b611efd6124a0565b60405180610260016040528060048054611f1690612fda565b80601f0160208091040260200160405190810160405280929190818152602001828054611f4290612fda565b8015611f8f5780601f10611f6457610100808354040283529160200191611f8f565b820191906000526020600020905b815481529060010190602001808311611f7257829003601f168201915b50505050508152602001600560009054906101000a900473ffffffffffffffffffffffffffffffffffffffff1673ffffffffffffffffffffffffffffffffffffffff16815260200160068054611fe490612fda565b80601f016020809104026020016040519081016040528092919081815260200182805461201090612fda565b801561205d5780601f106120325761010080835404028352916020019161205d565b820191906000526020600020905b81548152906001019060200180831161204057829003601f168201915b50505050508152602001600760009054906101000a900473ffffffffffffffffffffffffffffffffffffffff1673ffffffffffffffffffffffffffffffffffffffff168152602001600880546120b290612fda565b80601f01602080910402602001604051908101604052809291908181526020018280546120de90612fda565b801561212b5780601f106121005761010080835404028352916020019161212b565b820191906000526020600020905b81548152906001019060200180831161210e57829003601f168201915b505050505081526020016009548152602001600a548152602001600b548152602001600c548152602001600d548152602001600e54815260200160135481526020016012548152602001600260009054906101000a900473ffffffffffffffffffffffffffffffffffffffff1673ffffffffffffffffffffffffffffffffffffffff16815260200160105481526020016011548152602001600f60009054906101000a900460ff1615158152602001600f60019054906101000a900460ff1615158152602001600f60029054906101000a900460ff161515815250905090565b600061226d826040518060400160405280602081526020017f5361666545524332303a206c6f772d6c6576656c2063616c6c206661696c65648152508573ffffffffffffffffffffffffffffffffffffffff166122d29092919063ffffffff16565b90506000815111156122cd578080602001905181019061228d919061328c565b6122cc576040517f08c379a00000000000000000000000000000000000000000000000000000000081526004016122c39061340e565b60405180910390fd5b5b505050565b60606122e184846000856122ea565b90509392505050565b60608247101561232f576040517f08c379a0000000000000000000000000000000000000000000000000000000008152600401612326906134a0565b60405180910390fd5b6000808673ffffffffffffffffffffffffffffffffffffffff1685876040516123589190613507565b60006040518083038185875af1925050503d8060008114612395576040519150601f19603f3d011682016040523d82523d6000602084013e61239a565b606091505b50915091506123ab878383876123b7565b92505050949350505050565b6060831561241a57600083511415612412576123d28561242d565b612411576040517f08c379a00000000000000000000000000000000000000000000000000000000081526004016124089061356a565b60405180910390fd5b5b829050612425565b6124248383612450565b5b949350505050565b6000808273ffffffffffffffffffffffffffffffffffffffff163b119050919050565b6000825111156124635781518083602001fd5b806040517f08c379a0000000000000000000000000000000000000000000000000000000008152600401612497919061358a565b60405180910390fd5b60405180610260016040528060608152602001600073ffffffffffffffffffffffffffffffffffffffff16815260200160608152602001600073ffffffffffffffffffffffffffffffffffffffff168152602001606081526020016000815260200160008152602001600081526020016000815260200160008152602001600081526020016000815260200160008152602001600073ffffffffffffffffffffffffffffffffffffffff16815260200160008152602001600081526020016000151581526020016000151581526020016000151581525090565b600080fd5b6000819050919050565b6125928161257f565b811461259d57600080fd5b50565b6000813590506125af81612589565b92915050565b6000602082840312156125cb576125ca61257a565b5b60006125d9848285016125a0565b91505092915050565b60008115159050919050565b6125f7816125e2565b82525050565b600060208201905061261260008301846125ee565b92915050565b600081519050919050565b600082825260208201905092915050565b60005b83811015612652578082015181840152602081019050612637565b83811115612661576000848401525b50505050565b6000601f19601f8301169050919050565b600061268382612618565b61268d8185612623565b935061269d818560208601612634565b6126a681612667565b840191505092915050565b6126ba8161257f565b82525050565b600060a08201905081810360008301526126da8188612678565b90506126e960208301876126b1565b6126f660408301866126b1565b61270360608301856126b1565b61271060808301846126b1565b9695505050505050565b600073ffffffffffffffffffffffffffffffffffffffff82169050919050565b60006127458261271a565b9050919050565b6127558161273a565b82525050565b600060e082019050612770600083018a61274c565b61277d602083018961274c565b61278a60408301886126b1565b61279760608301876126b1565b6127a460808301866126b1565b6127b160a08301856126b1565b6127be60c08301846126b1565b98975050505050505050565b600060408201905081810360008301526127e48185612678565b90506127f3602083018461274c565b9392505050565b600082825260208201905092915050565b600061281682612618565b61282081856127fa565b9350612830818560208601612634565b61283981612667565b840191505092915050565b61284d8161273a565b82525050565b61285c8161257f565b82525050565b61286b816125e2565b82525050565b600061026083016000830151848203600086015261288f828261280b565b91505060208301516128a46020860182612844565b50604083015184820360408601526128bc828261280b565b91505060608301516128d16060860182612844565b50608083015184820360808601526128e9828261280b565b91505060a08301516128fe60a0860182612853565b5060c083015161291160c0860182612853565b5060e083015161292460e0860182612853565b50610100830151612939610100860182612853565b5061012083015161294e610120860182612853565b50610140830151612963610140860182612853565b50610160830151612978610160860182612853565b5061018083015161298d610180860182612853565b506101a08301516129a26101a0860182612844565b506101c08301516129b76101c0860182612853565b506101e08301516129cc6101e0860182612853565b506102008301516129e1610200860182612862565b506102208301516129f6610220860182612862565b50610240830151612a0b610240860182612862565b508091505092915050565b60006020820190508181036000830152612a308184612871565b905092915050565b612a418161273a565b8114612a4c57600080fd5b50565b600081359050612a5e81612a38565b92915050565b600060208284031215612a7a57612a7961257a565b5b6000612a8884828501612a4f565b91505092915050565b6000604082019050612aa660008301856126b1565b612ab360208301846126b1565b9392505050565b7f4f6e6c792062757965722063616e2072656c656173652066756e64732e000000600082015250565b6000612af0601d83612623565b9150612afb82612aba565b602082019050919050565b60006020820190508181036000830152612b1f81612ae3565b9050919050565b6000602082019050612b3b600083018461274c565b92915050565b600081519050612b5081612589565b92915050565b600060208284031215612b6c57612b6b61257a565b5b6000612b7a84828501612b41565b91505092915050565b7f496e73756666696369656e7420746f6b656e7320666f72207369676e696e672060008201527f636f6e7472616374000000000000000000000000000000000000000000000000602082015250565b6000612bdf602883612623565b9150612bea82612b83565b604082019050919050565b60006020820190508181036000830152612c0e81612bd2565b9050919050565b6000608082019050612c2a600083018761274c565b612c37602083018661274c565b612c4460408301856126b1565b612c5160608301846126b1565b95945050505050565b6000604082019050612c6f600083018561274c565b612c7c602083018461274c565b9392505050565b7f43616e206e6f74207472616e7366657220746f6b656e7320696e746f20636f6e60008201527f74726163742e20496e73756666696369656e7420746f6b656e20616c6c6f776160208201527f6e63650000000000000000000000000000000000000000000000000000000000604082015250565b6000612d05604383612623565b9150612d1082612c83565b606082019050919050565b60006020820190508181036000830152612d3481612cf8565b9050919050565b7f436f6e7472616374206e6f74207965742066696e616c00000000000000000000600082015250565b6000612d71601683612623565b9150612d7c82612d3b565b602082019050919050565b60006020820190508181036000830152612da081612d64565b9050919050565b7f4f6e6c792073656c6c65722063616e2077697468647261772e00000000000000600082015250565b6000612ddd601983612623565b9150612de882612da7565b602082019050919050565b60006020820190508181036000830152612e0c81612dd0565b9050919050565b7f496e76616c69642073746174652e204c6f636b6564203e2042616c616e63652160008201527f2100000000000000000000000000000000000000000000000000000000000000602082015250565b6000612e6f602183612623565b9150612e7a82612e13565b604082019050919050565b60006020820190508181036000830152612e9e81612e62565b9050919050565b7f4e487b7100000000000000000000000000000000000000000000000000000000600052601160045260246000fd5b6000612edf8261257f565b9150612eea8361257f565b925082821015612efd57612efc612ea5565b5b828203905092915050565b7f496e73756666696369656e742066756e64730000000000000000000000000000600082015250565b6000612f3e601283612623565b9150612f4982612f08565b602082019050919050565b60006020820190508181036000830152612f6d81612f31565b9050919050565b6000606082019050612f89600083018661274c565b612f96602083018561274c565b612fa360408301846126b1565b949350505050565b7f4e487b7100000000000000000000000000000000000000000000000000000000600052602260045260246000fd5b60006002820490506001821680612ff257607f821691505b6020821081141561300657613005612fab565b5b50919050565b7f4f6e6c7920756e6c6f636b65722063616e20756e6c6f636b2066756e64732e00600082015250565b6000613042601f83612623565b915061304d8261300c565b602082019050919050565b6000602082019050818103600083015261307181613035565b9050919050565b7f43616e6e6f7420756e6c6f636b206d6f7265207468616e2066756e647320726560008201527f6c65617365642062792062757965722e00000000000000000000000000000000602082015250565b60006130d4603083612623565b91506130df82613078565b604082019050919050565b60006020820190508181036000830152613103816130c7565b9050919050565b7f4f6e6c792061646d696e2063616e20706572666f726d2074686973206f70657260008201527f6174696f6e2e0000000000000000000000000000000000000000000000000000602082015250565b6000613166602683612623565b91506131718261310a565b604082019050919050565b6000602082019050818103600083015261319581613159565b9050919050565b600060a0820190506131b1600083018861274c565b6131be602083018761274c565b6131cb604083018661274c565b6131d860608301856126b1565b6131e560808301846126b1565b9695505050505050565b60006131fa8261257f565b91506132058361257f565b9250827fffffffffffffffffffffffffffffffffffffffffffffffffffffffffffffffff0382111561323a57613239612ea5565b5b828201905092915050565b600060208201905061325a60008301846126b1565b92915050565b613269816125e2565b811461327457600080fd5b50565b60008151905061328681613260565b92915050565b6000602082840312156132a2576132a161257a565b5b60006132b084828501613277565b91505092915050565b60006040820190506132ce600083018561274c565b6132db60208301846126b1565b9392505050565b60006132ed8261257f565b91506132f88361257f565b9250817fffffffffffffffffffffffffffffffffffffffffffffffffffffffffffffffff048311821515161561333157613330612ea5565b5b828202905092915050565b7f4e487b7100000000000000000000000000000000000000000000000000000000600052601260045260246000fd5b60006133768261257f565b91506133818361257f565b9250826133915761339061333c565b5b828204905092915050565b7f5361666545524332303a204552433230206f7065726174696f6e20646964206e60008201527f6f74207375636365656400000000000000000000000000000000000000000000602082015250565b60006133f8602a83612623565b91506134038261339c565b604082019050919050565b60006020820190508181036000830152613427816133eb565b9050919050565b7f416464726573733a20696e73756666696369656e742062616c616e636520666f60008201527f722063616c6c0000000000000000000000000000000000000000000000000000602082015250565b600061348a602683612623565b91506134958261342e565b604082019050919050565b600060208201905081810360008301526134b98161347d565b9050919050565b600081519050919050565b600081905092915050565b60006134e1826134c0565b6134eb81856134cb565b93506134fb818560208601612634565b80840191505092915050565b600061351382846134d6565b915081905092915050565b7f416464726573733a2063616c6c20746f206e6f6e2d636f6e7472616374000000600082015250565b6000613554601d83612623565b915061355f8261351e565b602082019050919050565b6000602082019050818103600083015261358381613547565b9050919050565b600060208201905081810360008301526135a48184612678565b90509291505056fea26469706673582212200b9e5ed93a1ef8dc197fdcea31016dbb416361c2b7268234b922623e258348a464736f6c63430008090033",
  "linkReferences": {},
  "deployedLinkReferences": {}
}