{
  "_format": "hh-sol-artifact-1",
  "contractName": "ContractNFT",
  "sourceName": "contracts/ContractNFT.sol",
  "abi": [
    {
      "inputs": [],
      "stateMutability": "nonpayable",
      "type": "constructor"
    },
    {
      "anonymous": false,
      "inputs": [
        {
          "indexed": true,
          "internalType": "address",
          "name": "owner",
          "type": "address"
        },
        {
          "indexed": true,
          "internalType": "address",
          "name": "approved",
          "type": "address"
        },
        {
          "indexed": true,
          "internalType": "uint256",
          "name": "tokenId",
          "type": "uint256"
        }
      ],
      "name": "Approval",
      "type": "event"
    },
    {
      "anonymous": false,
      "inputs": [
        {
          "indexed": true,
          "internalType": "address",
          "name": "owner",
          "type": "address"
        },
        {
          "indexed": true,
          "internalType": "address",
          "name": "operator",
          "type": "address"
        },
        {
          "indexed": false,
          "internalType": "bool",
          "name": "approved",
          "type": "bool"
        }
      ],
      "name": "ApprovalForAll",
      "type": "event"
    },
    {
      "anonymous": false,
      "inputs": [
        {
          "indexed": true,
          "internalType": "bytes32",
          "name": "role",
          "type": "bytes32"
        },
        {
          "indexed": true,
          "internalType": "bytes32",
          "name": "previousAdminRole",
          "type": "bytes32"
        },
        {
          "indexed": true,
          "internalType": "bytes32",
          "name": "newAdminRole",
          "type": "bytes32"
        }
      ],
      "name": "RoleAdminChanged",
      "type": "event"
    },
    {
      "anonymous": false,
      "inputs": [
        {
          "indexed": true,
          "internalType": "bytes32",
          "name": "role",
          "type": "bytes32"
        },
        {
          "indexed": true,
          "internalType": "address",
          "name": "account",
          "type": "address"
        },
        {
          "indexed": true,
          "internalType": "address",
          "name": "sender",
          "type": "address"
        }
      ],
      "name": "RoleGranted",
      "type": "event"
    },
    {
      "anonymous": false,
      "inputs": [
        {
          "indexed": true,
          "internalType": "bytes32",
          "name": "role",
          "type": "bytes32"
        },
        {
          "indexed": true,
          "internalType": "address",
          "name": "account",
          "type": "address"
        },
        {
          "indexed": true,
          "internalType": "address",
          "name": "sender",
          "type": "address"
        }
      ],
      "name": "RoleRevoked",
      "type": "event"
    },
    {
      "anonymous": false,
      "inputs": [
        {
          "indexed": true,
          "internalType": "address",
          "name": "from",
          "type": "address"
        },
        {
          "indexed": true,
          "internalType": "address",
          "name": "to",
          "type": "address"
        },
        {
          "indexed": true,
          "internalType": "uint256",
          "name": "tokenId",
          "type": "uint256"
        }
      ],
      "name": "Transfer",
      "type": "event"
    },
    {
      "inputs": [],
      "name": "DEFAULT_ADMIN_ROLE",
      "outputs": [
        {
          "internalType": "bytes32",
          "name": "",
          "type": "bytes32"
        }
      ],
      "stateMutability": "view",
      "type": "function"
    },
    {
      "inputs": [],
      "name": "MINTER_ROLE",
      "outputs": [
        {
          "internalType": "bytes32",
          "name": "",
          "type": "bytes32"
        }
      ],
      "stateMutability": "view",
      "type": "function"
    },
    {
      "inputs": [
        {
          "internalType": "address",
          "name": "to",
          "type": "address"
        },
        {
          "internalType": "uint256",
          "name": "tokenId",
          "type": "uint256"
        }
      ],
      "name": "approve",
      "outputs": [],
      "stateMutability": "nonpayable",
      "type": "function"
    },
    {
      "inputs": [
        {
          "internalType": "address",
          "name": "owner",
          "type": "address"
        }
      ],
      "name": "balanceOf",
      "outputs": [
        {
          "internalType": "uint256",
          "name": "",
          "type": "uint256"
        }
      ],
      "stateMutability": "view",
      "type": "function"
    },
    {
      "inputs": [
        {
          "internalType": "uint256",
          "name": "tokenId",
          "type": "uint256"
        }
      ],
      "name": "getApproved",
      "outputs": [
        {
          "internalType": "address",
          "name": "",
          "type": "address"
        }
      ],
      "stateMutability": "view",
      "type": "function"
    },
    {
      "inputs": [
        {
          "internalType": "bytes32",
          "name": "role",
          "type": "bytes32"
        }
      ],
      "name": "getRoleAdmin",
      "outputs": [
        {
          "internalType": "bytes32",
          "name": "",
          "type": "bytes32"
        }
      ],
      "stateMutability": "view",
      "type": "function"
    },
    {
      "inputs": [
        {
          "internalType": "bytes32",
          "name": "role",
          "type": "bytes32"
        },
        {
          "internalType": "address",
          "name": "account",
          "type": "address"
        }
      ],
      "name": "grantRole",
      "outputs": [],
      "stateMutability": "nonpayable",
      "type": "function"
    },
    {
      "inputs": [
        {
          "internalType": "bytes32",
          "name": "role",
          "type": "bytes32"
        },
        {
          "internalType": "address",
          "name": "account",
          "type": "address"
        }
      ],
      "name": "hasRole",
      "outputs": [
        {
          "internalType": "bool",
          "name": "",
          "type": "bool"
        }
      ],
      "stateMutability": "view",
      "type": "function"
    },
    {
      "inputs": [
        {
          "internalType": "address",
          "name": "owner",
          "type": "address"
        },
        {
          "internalType": "address",
          "name": "operator",
          "type": "address"
        }
      ],
      "name": "isApprovedForAll",
      "outputs": [
        {
          "internalType": "bool",
          "name": "",
          "type": "bool"
        }
      ],
      "stateMutability": "view",
      "type": "function"
    },
    {
      "inputs": [],
      "name": "name",
      "outputs": [
        {
          "internalType": "string",
          "name": "",
          "type": "string"
        }
      ],
      "stateMutability": "view",
      "type": "function"
    },
    {
      "inputs": [
        {
          "internalType": "uint256",
          "name": "tokenId",
          "type": "uint256"
        }
      ],
      "name": "ownerOf",
      "outputs": [
        {
          "internalType": "address",
          "name": "",
          "type": "address"
        }
      ],
      "stateMutability": "view",
      "type": "function"
    },
    {
      "inputs": [
        {
          "internalType": "bytes32",
          "name": "role",
          "type": "bytes32"
        },
        {
          "internalType": "address",
          "name": "account",
          "type": "address"
        }
      ],
      "name": "renounceRole",
      "outputs": [],
      "stateMutability": "nonpayable",
      "type": "function"
    },
    {
      "inputs": [
        {
          "internalType": "bytes32",
          "name": "role",
          "type": "bytes32"
        },
        {
          "internalType": "address",
          "name": "account",
          "type": "address"
        }
      ],
      "name": "revokeRole",
      "outputs": [],
      "stateMutability": "nonpayable",
      "type": "function"
    },
    {
      "inputs": [
        {
          "internalType": "address",
          "name": "to",
          "type": "address"
        },
        {
          "internalType": "string",
          "name": "uri",
          "type": "string"
        }
      ],
      "name": "safeMint",
      "outputs": [],
      "stateMutability": "nonpayable",
      "type": "function"
    },
    {
      "inputs": [
        {
          "internalType": "address",
          "name": "from",
          "type": "address"
        },
        {
          "internalType": "address",
          "name": "to",
          "type": "address"
        },
        {
          "internalType": "uint256",
          "name": "tokenId",
          "type": "uint256"
        }
      ],
      "name": "safeTransferFrom",
      "outputs": [],
      "stateMutability": "nonpayable",
      "type": "function"
    },
    {
      "inputs": [
        {
          "internalType": "address",
          "name": "from",
          "type": "address"
        },
        {
          "internalType": "address",
          "name": "to",
          "type": "address"
        },
        {
          "internalType": "uint256",
          "name": "tokenId",
          "type": "uint256"
        },
        {
          "internalType": "bytes",
          "name": "data",
          "type": "bytes"
        }
      ],
      "name": "safeTransferFrom",
      "outputs": [],
      "stateMutability": "nonpayable",
      "type": "function"
    },
    {
      "inputs": [
        {
          "internalType": "address",
          "name": "operator",
          "type": "address"
        },
        {
          "internalType": "bool",
          "name": "approved",
          "type": "bool"
        }
      ],
      "name": "setApprovalForAll",
      "outputs": [],
      "stateMutability": "nonpayable",
      "type": "function"
    },
    {
      "inputs": [
        {
          "internalType": "bytes4",
          "name": "interfaceId",
          "type": "bytes4"
        }
      ],
      "name": "supportsInterface",
      "outputs": [
        {
          "internalType": "bool",
          "name": "",
          "type": "bool"
        }
      ],
      "stateMutability": "view",
      "type": "function"
    },
    {
      "inputs": [],
      "name": "symbol",
      "outputs": [
        {
          "internalType": "string",
          "name": "",
          "type": "string"
        }
      ],
      "stateMutability": "view",
      "type": "function"
    },
    {
      "inputs": [
        {
          "internalType": "uint256",
          "name": "tokenId",
          "type": "uint256"
        }
      ],
      "name": "tokenURI",
      "outputs": [
        {
          "internalType": "string",
          "name": "",
          "type": "string"
        }
      ],
      "stateMutability": "view",
      "type": "function"
    },
    {
      "inputs": [
        {
          "internalType": "address",
          "name": "from",
          "type": "address"
        },
        {
          "internalType": "address",
          "name": "to",
          "type": "address"
        },
        {
          "internalType": "uint256",
          "name": "tokenId",
          "type": "uint256"
        }
      ],
      "name": "transferFrom",
      "outputs": [],
      "stateMutability": "nonpayable",
      "type": "function"
    }
  ],
  "bytecode": "0x60806040523480156200001157600080fd5b506040518060400160405280600b81526020017f436f6e74726163744e46540000000000000000000000000000000000000000008152506040518060400160405280600b81526020017f436f6e74726163744e465400000000000000000000000000000000000000000081525081600090805190602001906200009692919062000264565b508060019080519060200190620000af92919062000264565b505050620000c76000801b33620000ff60201b60201c565b620000f97f9f2df0fed2c77648de5860a4cc508cd0818c85b8b8a1ab4ceeef8d981c8956a633620000ff60201b60201c565b62000379565b620001118282620001f160201b60201c565b620001ed5760016007600084815260200190815260200160002060000160008373ffffffffffffffffffffffffffffffffffffffff1673ffffffffffffffffffffffffffffffffffffffff16815260200190815260200160002060006101000a81548160ff021916908315150217905550620001926200025c60201b60201c565b73ffffffffffffffffffffffffffffffffffffffff168173ffffffffffffffffffffffffffffffffffffffff16837f2f8788117e7eff1d82e926ec794901d17c78024a50270940304540a733656f0d60405160405180910390a45b5050565b60006007600084815260200190815260200160002060000160008373ffffffffffffffffffffffffffffffffffffffff1673ffffffffffffffffffffffffffffffffffffffff16815260200190815260200160002060009054906101000a900460ff16905092915050565b600033905090565b828054620002729062000343565b90600052602060002090601f016020900481019282620002965760008555620002e2565b82601f10620002b157805160ff1916838001178555620002e2565b82800160010185558215620002e2579182015b82811115620002e1578251825591602001919060010190620002c4565b5b509050620002f19190620002f5565b5090565b5b8082111562000310576000816000905550600101620002f6565b5090565b7f4e487b7100000000000000000000000000000000000000000000000000000000600052602260045260246000fd5b600060028204905060018216806200035c57607f821691505b6020821081141562000373576200037262000314565b5b50919050565b61366c80620003896000396000f3fe608060405234801561001057600080fd5b50600436106101375760003560e01c806370a08231116100b8578063b88d4fde1161007c578063b88d4fde1461035e578063c87b56dd1461037a578063d204c45e146103aa578063d5391393146103c6578063d547741f146103e4578063e985e9c51461040057610137565b806370a08231146102a657806391d14854146102d657806395d89b4114610306578063a217fddf14610324578063a22cb4651461034257610137565b8063248a9ca3116100ff578063248a9ca3146101f25780632f2ff15d1461022257806336568abe1461023e57806342842e0e1461025a5780636352211e1461027657610137565b806301ffc9a71461013c57806306fdde031461016c578063081812fc1461018a578063095ea7b3146101ba57806323b872dd146101d6575b600080fd5b610156600480360381019061015191906123c6565b610430565b604051610163919061240e565b60405180910390f35b610174610442565b60405161018191906124c2565b60405180910390f35b6101a4600480360381019061019f919061251a565b6104d4565b6040516101b19190612588565b60405180910390f35b6101d460048036038101906101cf91906125cf565b61051a565b005b6101f060048036038101906101eb919061260f565b610632565b005b61020c60048036038101906102079190612698565b610692565b60405161021991906126d4565b60405180910390f35b61023c600480360381019061023791906126ef565b6106b2565b005b610258600480360381019061025391906126ef565b6106d3565b005b610274600480360381019061026f919061260f565b610756565b005b610290600480360381019061028b919061251a565b610776565b60405161029d9190612588565b60405180910390f35b6102c060048036038101906102bb919061272f565b6107fd565b6040516102cd919061276b565b60405180910390f35b6102f060048036038101906102eb91906126ef565b6108b5565b6040516102fd919061240e565b60405180910390f35b61030e610920565b60405161031b91906124c2565b60405180910390f35b61032c6109b2565b60405161033991906126d4565b60405180910390f35b61035c600480360381019061035791906127b2565b6109b9565b005b61037860048036038101906103739190612927565b6109cf565b005b610394600480360381019061038f919061251a565b610a31565b6040516103a191906124c2565b60405180910390f35b6103c460048036038101906103bf9190612a4b565b610a43565b005b6103ce610a9f565b6040516103db91906126d4565b60405180910390f35b6103fe60048036038101906103f991906126ef565b610ac3565b005b61041a60048036038101906104159190612aa7565b610ae4565b604051610427919061240e565b60405180910390f35b600061043b82610b78565b9050919050565b60606000805461045190612b16565b80601f016020809104026020016040519081016040528092919081815260200182805461047d90612b16565b80156104ca5780601f1061049f576101008083540402835291602001916104ca565b820191906000526020600020905b8154815290600101906020018083116104ad57829003601f168201915b5050505050905090565b60006104df82610bf2565b6004600083815260200190815260200160002060009054906101000a900473ffffffffffffffffffffffffffffffffffffffff169050919050565b600061052582610776565b90508073ffffffffffffffffffffffffffffffffffffffff168373ffffffffffffffffffffffffffffffffffffffff161415610596576040517f08c379a000000000000000000000000000000000000000000000000000000000815260040161058d90612bba565b60405180910390fd5b8073ffffffffffffffffffffffffffffffffffffffff166105b5610c3d565b73ffffffffffffffffffffffffffffffffffffffff1614806105e457506105e3816105de610c3d565b610ae4565b5b610623576040517f08c379a000000000000000000000000000000000000000000000000000000000815260040161061a90612c4c565b60405180910390fd5b61062d8383610c45565b505050565b61064361063d610c3d565b82610cfe565b610682576040517f08c379a000000000000000000000000000000000000000000000000000000000815260040161067990612cde565b60405180910390fd5b61068d838383610d93565b505050565b600060076000838152602001908152602001600020600101549050919050565b6106bb82610692565b6106c48161108d565b6106ce83836110a1565b505050565b6106db610c3d565b73ffffffffffffffffffffffffffffffffffffffff168173ffffffffffffffffffffffffffffffffffffffff1614610748576040517f08c379a000000000000000000000000000000000000000000000000000000000815260040161073f90612d70565b60405180910390fd5b6107528282611182565b5050565b610771838383604051806020016040528060008152506109cf565b505050565b60008061078283611264565b9050600073ffffffffffffffffffffffffffffffffffffffff168173ffffffffffffffffffffffffffffffffffffffff1614156107f4576040517f08c379a00000000000000000000000000000000000000000000000000000000081526004016107eb90612ddc565b60405180910390fd5b80915050919050565b60008073ffffffffffffffffffffffffffffffffffffffff168273ffffffffffffffffffffffffffffffffffffffff16141561086e576040517f08c379a000000000000000000000000000000000000000000000000000000000815260040161086590612e6e565b60405180910390fd5b600360008373ffffffffffffffffffffffffffffffffffffffff1673ffffffffffffffffffffffffffffffffffffffff168152602001908152602001600020549050919050565b60006007600084815260200190815260200160002060000160008373ffffffffffffffffffffffffffffffffffffffff1673ffffffffffffffffffffffffffffffffffffffff16815260200190815260200160002060009054906101000a900460ff16905092915050565b60606001805461092f90612b16565b80601f016020809104026020016040519081016040528092919081815260200182805461095b90612b16565b80156109a85780601f1061097d576101008083540402835291602001916109a8565b820191906000526020600020905b81548152906001019060200180831161098b57829003601f168201915b5050505050905090565b6000801b81565b6109cb6109c4610c3d565b83836112a1565b5050565b6109e06109da610c3d565b83610cfe565b610a1f576040517f08c379a0000000000000000000000000000000000000000000000000000000008152600401610a1690612cde565b60405180910390fd5b610a2b8484848461140e565b50505050565b6060610a3c8261146a565b9050919050565b7f9f2df0fed2c77648de5860a4cc508cd0818c85b8b8a1ab4ceeef8d981c8956a6610a6d8161108d565b6000610a79600861157d565b9050610a85600861158b565b610a8f84826115a1565b610a9981846115bf565b50505050565b7f9f2df0fed2c77648de5860a4cc508cd0818c85b8b8a1ab4ceeef8d981c8956a681565b610acc82610692565b610ad58161108d565b610adf8383611182565b505050565b6000600560008473ffffffffffffffffffffffffffffffffffffffff1673ffffffffffffffffffffffffffffffffffffffff16815260200190815260200160002060008373ffffffffffffffffffffffffffffffffffffffff1673ffffffffffffffffffffffffffffffffffffffff16815260200190815260200160002060009054906101000a900460ff16905092915050565b60007f7965db0b000000000000000000000000000000000000000000000000000000007bffffffffffffffffffffffffffffffffffffffffffffffffffffffff1916827bffffffffffffffffffffffffffffffffffffffffffffffffffffffff19161480610beb5750610bea82611633565b5b9050919050565b610bfb81611715565b610c3a576040517f08c379a0000000000000000000000000000000000000000000000000000000008152600401610c3190612ddc565b60405180910390fd5b50565b600033905090565b816004600083815260200190815260200160002060006101000a81548173ffffffffffffffffffffffffffffffffffffffff021916908373ffffffffffffffffffffffffffffffffffffffff160217905550808273ffffffffffffffffffffffffffffffffffffffff16610cb883610776565b73ffffffffffffffffffffffffffffffffffffffff167f8c5be1e5ebec7d5bd14f71427d1e84f3dd0314c0f7b2291e5b200ac8c7c3b92560405160405180910390a45050565b600080610d0a83610776565b90508073ffffffffffffffffffffffffffffffffffffffff168473ffffffffffffffffffffffffffffffffffffffff161480610d4c5750610d4b8185610ae4565b5b80610d8a57508373ffffffffffffffffffffffffffffffffffffffff16610d72846104d4565b73ffffffffffffffffffffffffffffffffffffffff16145b91505092915050565b8273ffffffffffffffffffffffffffffffffffffffff16610db382610776565b73ffffffffffffffffffffffffffffffffffffffff1614610e09576040517f08c379a0000000000000000000000000000000000000000000000000000000008152600401610e0090612f00565b60405180910390fd5b600073ffffffffffffffffffffffffffffffffffffffff168273ffffffffffffffffffffffffffffffffffffffff161415610e79576040517f08c379a0000000000000000000000000000000000000000000000000000000008152600401610e7090612f92565b60405180910390fd5b610e868383836001611756565b8273ffffffffffffffffffffffffffffffffffffffff16610ea682610776565b73ffffffffffffffffffffffffffffffffffffffff1614610efc576040517f08c379a0000000000000000000000000000000000000000000000000000000008152600401610ef390612f00565b60405180910390fd5b6004600082815260200190815260200160002060006101000a81549073ffffffffffffffffffffffffffffffffffffffff02191690556001600360008573ffffffffffffffffffffffffffffffffffffffff1673ffffffffffffffffffffffffffffffffffffffff168152602001908152602001600020600082825403925050819055506001600360008473ffffffffffffffffffffffffffffffffffffffff1673ffffffffffffffffffffffffffffffffffffffff16815260200190815260200160002060008282540192505081905550816002600083815260200190815260200160002060006101000a81548173ffffffffffffffffffffffffffffffffffffffff021916908373ffffffffffffffffffffffffffffffffffffffff160217905550808273ffffffffffffffffffffffffffffffffffffffff168473ffffffffffffffffffffffffffffffffffffffff167fddf252ad1be2c89b69c2b068fc378daa952ba7f163c4a11628f55a4df523b3ef60405160405180910390a4611088838383600161187c565b505050565b61109e81611099610c3d565b611882565b50565b6110ab82826108b5565b61117e5760016007600084815260200190815260200160002060000160008373ffffffffffffffffffffffffffffffffffffffff1673ffffffffffffffffffffffffffffffffffffffff16815260200190815260200160002060006101000a81548160ff021916908315150217905550611123610c3d565b73ffffffffffffffffffffffffffffffffffffffff168173ffffffffffffffffffffffffffffffffffffffff16837f2f8788117e7eff1d82e926ec794901d17c78024a50270940304540a733656f0d60405160405180910390a45b5050565b61118c82826108b5565b156112605760006007600084815260200190815260200160002060000160008373ffffffffffffffffffffffffffffffffffffffff1673ffffffffffffffffffffffffffffffffffffffff16815260200190815260200160002060006101000a81548160ff021916908315150217905550611205610c3d565b73ffffffffffffffffffffffffffffffffffffffff168173ffffffffffffffffffffffffffffffffffffffff16837ff6391f5c32d9c69d2a47ea670b442974b53935d1edc7fd64eb21e047a839171b60405160405180910390a45b5050565b60006002600083815260200190815260200160002060009054906101000a900473ffffffffffffffffffffffffffffffffffffffff169050919050565b8173ffffffffffffffffffffffffffffffffffffffff168373ffffffffffffffffffffffffffffffffffffffff161415611310576040517f08c379a000000000000000000000000000000000000000000000000000000000815260040161130790612ffe565b60405180910390fd5b80600560008573ffffffffffffffffffffffffffffffffffffffff1673ffffffffffffffffffffffffffffffffffffffff16815260200190815260200160002060008473ffffffffffffffffffffffffffffffffffffffff1673ffffffffffffffffffffffffffffffffffffffff16815260200190815260200160002060006101000a81548160ff0219169083151502179055508173ffffffffffffffffffffffffffffffffffffffff168373ffffffffffffffffffffffffffffffffffffffff167f17307eab39ab6107e8899845ad3d59bd9653f200f220920489ca2b5937696c3183604051611401919061240e565b60405180910390a3505050565b611419848484610d93565b61142584848484611907565b611464576040517f08c379a000000000000000000000000000000000000000000000000000000000815260040161145b90613090565b60405180910390fd5b50505050565b606061147582610bf2565b600060066000848152602001908152602001600020805461149590612b16565b80601f01602080910402602001604051908101604052809291908181526020018280546114c190612b16565b801561150e5780601f106114e35761010080835404028352916020019161150e565b820191906000526020600020905b8154815290600101906020018083116114f157829003601f168201915b50505050509050600061151f611a9e565b9050600081511415611535578192505050611578565b60008251111561156a5780826040516020016115529291906130ec565b60405160208183030381529060405292505050611578565b61157384611ab5565b925050505b919050565b600081600001549050919050565b6001816000016000828254019250508190555050565b6115bb828260405180602001604052806000815250611b1d565b5050565b6115c882611715565b611607576040517f08c379a00000000000000000000000000000000000000000000000000000000081526004016115fe90613182565b60405180910390fd5b8060066000848152602001908152602001600020908051906020019061162e9291906122b7565b505050565b60007f80ac58cd000000000000000000000000000000000000000000000000000000007bffffffffffffffffffffffffffffffffffffffffffffffffffffffff1916827bffffffffffffffffffffffffffffffffffffffffffffffffffffffff191614806116fe57507f5b5e139f000000000000000000000000000000000000000000000000000000007bffffffffffffffffffffffffffffffffffffffffffffffffffffffff1916827bffffffffffffffffffffffffffffffffffffffffffffffffffffffff1916145b8061170e575061170d82611b78565b5b9050919050565b60008073ffffffffffffffffffffffffffffffffffffffff1661173783611264565b73ffffffffffffffffffffffffffffffffffffffff1614159050919050565b600181111561187657600073ffffffffffffffffffffffffffffffffffffffff168473ffffffffffffffffffffffffffffffffffffffff16146117ea5780600360008673ffffffffffffffffffffffffffffffffffffffff1673ffffffffffffffffffffffffffffffffffffffff16815260200190815260200160002060008282546117e291906131d1565b925050819055505b600073ffffffffffffffffffffffffffffffffffffffff168373ffffffffffffffffffffffffffffffffffffffff16146118755780600360008573ffffffffffffffffffffffffffffffffffffffff1673ffffffffffffffffffffffffffffffffffffffff168152602001908152602001600020600082825461186d9190613205565b925050819055505b5b50505050565b50505050565b61188c82826108b5565b6119035761189981611be2565b6118a78360001c6020611c0f565b6040516020016118b89291906132f3565b6040516020818303038152906040526040517f08c379a00000000000000000000000000000000000000000000000000000000081526004016118fa91906124c2565b60405180910390fd5b5050565b60006119288473ffffffffffffffffffffffffffffffffffffffff16611e4b565b15611a91578373ffffffffffffffffffffffffffffffffffffffff1663150b7a02611951610c3d565b8786866040518563ffffffff1660e01b81526004016119739493929190613382565b602060405180830381600087803b15801561198d57600080fd5b505af19250505080156119be57506040513d601f19601f820116820180604052508101906119bb91906133e3565b60015b611a41573d80600081146119ee576040519150601f19603f3d011682016040523d82523d6000602084013e6119f3565b606091505b50600081511415611a39576040517f08c379a0000000000000000000000000000000000000000000000000000000008152600401611a3090613090565b60405180910390fd5b805181602001fd5b63150b7a0260e01b7bffffffffffffffffffffffffffffffffffffffffffffffffffffffff1916817bffffffffffffffffffffffffffffffffffffffffffffffffffffffff191614915050611a96565b600190505b949350505050565b606060405180602001604052806000815250905090565b6060611ac082610bf2565b6000611aca611a9e565b90506000815111611aea5760405180602001604052806000815250611b15565b80611af484611e6e565b604051602001611b059291906130ec565b6040516020818303038152906040525b915050919050565b611b278383611f46565b611b346000848484611907565b611b73576040517f08c379a0000000000000000000000000000000000000000000000000000000008152600401611b6a90613090565b60405180910390fd5b505050565b60007f01ffc9a7000000000000000000000000000000000000000000000000000000007bffffffffffffffffffffffffffffffffffffffffffffffffffffffff1916827bffffffffffffffffffffffffffffffffffffffffffffffffffffffff1916149050919050565b6060611c088273ffffffffffffffffffffffffffffffffffffffff16601460ff16611c0f565b9050919050565b606060006002836002611c229190613410565b611c2c9190613205565b67ffffffffffffffff811115611c4557611c446127fc565b5b6040519080825280601f01601f191660200182016040528015611c775781602001600182028036833780820191505090505b5090507f300000000000000000000000000000000000000000000000000000000000000081600081518110611caf57611cae61346a565b5b60200101907effffffffffffffffffffffffffffffffffffffffffffffffffffffffffffff1916908160001a9053507f780000000000000000000000000000000000000000000000000000000000000081600181518110611d1357611d1261346a565b5b60200101907effffffffffffffffffffffffffffffffffffffffffffffffffffffffffffff1916908160001a90535060006001846002611d539190613410565b611d5d9190613205565b90505b6001811115611dfd577f3031323334353637383961626364656600000000000000000000000000000000600f861660108110611d9f57611d9e61346a565b5b1a60f81b828281518110611db657611db561346a565b5b60200101907effffffffffffffffffffffffffffffffffffffffffffffffffffffffffffff1916908160001a905350600485901c945080611df690613499565b9050611d60565b5060008414611e41576040517f08c379a0000000000000000000000000000000000000000000000000000000008152600401611e389061350f565b60405180910390fd5b8091505092915050565b6000808273ffffffffffffffffffffffffffffffffffffffff163b119050919050565b606060006001611e7d84612164565b01905060008167ffffffffffffffff811115611e9c57611e9b6127fc565b5b6040519080825280601f01601f191660200182016040528015611ece5781602001600182028036833780820191505090505b509050600082602001820190505b600115611f3b578080600190039150507f3031323334353637383961626364656600000000000000000000000000000000600a86061a8153600a8581611f2557611f2461352f565b5b0494506000851415611f3657611f3b565b611edc565b819350505050919050565b600073ffffffffffffffffffffffffffffffffffffffff168273ffffffffffffffffffffffffffffffffffffffff161415611fb6576040517f08c379a0000000000000000000000000000000000000000000000000000000008152600401611fad906135aa565b60405180910390fd5b611fbf81611715565b15611fff576040517f08c379a0000000000000000000000000000000000000000000000000000000008152600401611ff690613616565b60405180910390fd5b61200d600083836001611756565b61201681611715565b15612056576040517f08c379a000000000000000000000000000000000000000000000000000000000815260040161204d90613616565b60405180910390fd5b6001600360008473ffffffffffffffffffffffffffffffffffffffff1673ffffffffffffffffffffffffffffffffffffffff16815260200190815260200160002060008282540192505081905550816002600083815260200190815260200160002060006101000a81548173ffffffffffffffffffffffffffffffffffffffff021916908373ffffffffffffffffffffffffffffffffffffffff160217905550808273ffffffffffffffffffffffffffffffffffffffff16600073ffffffffffffffffffffffffffffffffffffffff167fddf252ad1be2c89b69c2b068fc378daa952ba7f163c4a11628f55a4df523b3ef60405160405180910390a461216060008383600161187c565b5050565b600080600090507a184f03e93ff9f4daa797ed6e38ed64bf6a1f01000000000000000083106121c2577a184f03e93ff9f4daa797ed6e38ed64bf6a1f01000000000000000083816121b8576121b761352f565b5b0492506040810190505b6d04ee2d6d415b85acef810000000083106121ff576d04ee2d6d415b85acef810000000083816121f5576121f461352f565b5b0492506020810190505b662386f26fc10000831061222e57662386f26fc1000083816122245761222361352f565b5b0492506010810190505b6305f5e1008310612257576305f5e100838161224d5761224c61352f565b5b0492506008810190505b612710831061227c5761271083816122725761227161352f565b5b0492506004810190505b6064831061229f57606483816122955761229461352f565b5b0492506002810190505b600a83106122ae576001810190505b80915050919050565b8280546122c390612b16565b90600052602060002090601f0160209004810192826122e5576000855561232c565b82601f106122fe57805160ff191683800117855561232c565b8280016001018555821561232c579182015b8281111561232b578251825591602001919060010190612310565b5b509050612339919061233d565b5090565b5b8082111561235657600081600090555060010161233e565b5090565b6000604051905090565b600080fd5b600080fd5b60007fffffffff0000000000000000000000000000000000000000000000000000000082169050919050565b6123a38161236e565b81146123ae57600080fd5b50565b6000813590506123c08161239a565b92915050565b6000602082840312156123dc576123db612364565b5b60006123ea848285016123b1565b91505092915050565b60008115159050919050565b612408816123f3565b82525050565b600060208201905061242360008301846123ff565b92915050565b600081519050919050565b600082825260208201905092915050565b60005b83811015612463578082015181840152602081019050612448565b83811115612472576000848401525b50505050565b6000601f19601f8301169050919050565b600061249482612429565b61249e8185612434565b93506124ae818560208601612445565b6124b781612478565b840191505092915050565b600060208201905081810360008301526124dc8184612489565b905092915050565b6000819050919050565b6124f7816124e4565b811461250257600080fd5b50565b600081359050612514816124ee565b92915050565b6000602082840312156125305761252f612364565b5b600061253e84828501612505565b91505092915050565b600073ffffffffffffffffffffffffffffffffffffffff82169050919050565b600061257282612547565b9050919050565b61258281612567565b82525050565b600060208201905061259d6000830184612579565b92915050565b6125ac81612567565b81146125b757600080fd5b50565b6000813590506125c9816125a3565b92915050565b600080604083850312156125e6576125e5612364565b5b60006125f4858286016125ba565b925050602061260585828601612505565b9150509250929050565b60008060006060848603121561262857612627612364565b5b6000612636868287016125ba565b9350506020612647868287016125ba565b925050604061265886828701612505565b9150509250925092565b6000819050919050565b61267581612662565b811461268057600080fd5b50565b6000813590506126928161266c565b92915050565b6000602082840312156126ae576126ad612364565b5b60006126bc84828501612683565b91505092915050565b6126ce81612662565b82525050565b60006020820190506126e960008301846126c5565b92915050565b6000806040838503121561270657612705612364565b5b600061271485828601612683565b9250506020612725858286016125ba565b9150509250929050565b60006020828403121561274557612744612364565b5b6000612753848285016125ba565b91505092915050565b612765816124e4565b82525050565b6000602082019050612780600083018461275c565b92915050565b61278f816123f3565b811461279a57600080fd5b50565b6000813590506127ac81612786565b92915050565b600080604083850312156127c9576127c8612364565b5b60006127d7858286016125ba565b92505060206127e88582860161279d565b9150509250929050565b600080fd5b600080fd5b7f4e487b7100000000000000000000000000000000000000000000000000000000600052604160045260246000fd5b61283482612478565b810181811067ffffffffffffffff82111715612853576128526127fc565b5b80604052505050565b600061286661235a565b9050612872828261282b565b919050565b600067ffffffffffffffff821115612892576128916127fc565b5b61289b82612478565b9050602081019050919050565b82818337600083830152505050565b60006128ca6128c584612877565b61285c565b9050828152602081018484840111156128e6576128e56127f7565b5b6128f18482856128a8565b509392505050565b600082601f83011261290e5761290d6127f2565b5b813561291e8482602086016128b7565b91505092915050565b6000806000806080858703121561294157612940612364565b5b600061294f878288016125ba565b9450506020612960878288016125ba565b935050604061297187828801612505565b925050606085013567ffffffffffffffff81111561299257612991612369565b5b61299e878288016128f9565b91505092959194509250565b600067ffffffffffffffff8211156129c5576129c46127fc565b5b6129ce82612478565b9050602081019050919050565b60006129ee6129e9846129aa565b61285c565b905082815260208101848484011115612a0a57612a096127f7565b5b612a158482856128a8565b509392505050565b600082601f830112612a3257612a316127f2565b5b8135612a428482602086016129db565b91505092915050565b60008060408385031215612a6257612a61612364565b5b6000612a70858286016125ba565b925050602083013567ffffffffffffffff811115612a9157612a90612369565b5b612a9d85828601612a1d565b9150509250929050565b60008060408385031215612abe57612abd612364565b5b6000612acc858286016125ba565b9250506020612add858286016125ba565b9150509250929050565b7f4e487b7100000000000000000000000000000000000000000000000000000000600052602260045260246000fd5b60006002820490506001821680612b2e57607f821691505b60208210811415612b4257612b41612ae7565b5b50919050565b7f4552433732313a20617070726f76616c20746f2063757272656e74206f776e6560008201527f7200000000000000000000000000000000000000000000000000000000000000602082015250565b6000612ba4602183612434565b9150612baf82612b48565b604082019050919050565b60006020820190508181036000830152612bd381612b97565b9050919050565b7f4552433732313a20617070726f76652063616c6c6572206973206e6f7420746f60008201527f6b656e206f776e6572206f7220617070726f76656420666f7220616c6c000000602082015250565b6000612c36603d83612434565b9150612c4182612bda565b604082019050919050565b60006020820190508181036000830152612c6581612c29565b9050919050565b7f4552433732313a2063616c6c6572206973206e6f7420746f6b656e206f776e6560008201527f72206f7220617070726f76656400000000000000000000000000000000000000602082015250565b6000612cc8602d83612434565b9150612cd382612c6c565b604082019050919050565b60006020820190508181036000830152612cf781612cbb565b9050919050565b7f416363657373436f6e74726f6c3a2063616e206f6e6c792072656e6f756e636560008201527f20726f6c657320666f722073656c660000000000000000000000000000000000602082015250565b6000612d5a602f83612434565b9150612d6582612cfe565b604082019050919050565b60006020820190508181036000830152612d8981612d4d565b9050919050565b7f4552433732313a20696e76616c696420746f6b656e2049440000000000000000600082015250565b6000612dc6601883612434565b9150612dd182612d90565b602082019050919050565b60006020820190508181036000830152612df581612db9565b9050919050565b7f4552433732313a2061646472657373207a65726f206973206e6f74206120766160008201527f6c6964206f776e65720000000000000000000000000000000000000000000000602082015250565b6000612e58602983612434565b9150612e6382612dfc565b604082019050919050565b60006020820190508181036000830152612e8781612e4b565b9050919050565b7f4552433732313a207472616e736665722066726f6d20696e636f72726563742060008201527f6f776e6572000000000000000000000000000000000000000000000000000000602082015250565b6000612eea602583612434565b9150612ef582612e8e565b604082019050919050565b60006020820190508181036000830152612f1981612edd565b9050919050565b7f4552433732313a207472616e7366657220746f20746865207a65726f2061646460008201527f7265737300000000000000000000000000000000000000000000000000000000602082015250565b6000612f7c602483612434565b9150612f8782612f20565b604082019050919050565b60006020820190508181036000830152612fab81612f6f565b9050919050565b7f4552433732313a20617070726f766520746f2063616c6c657200000000000000600082015250565b6000612fe8601983612434565b9150612ff382612fb2565b602082019050919050565b6000602082019050818103600083015261301781612fdb565b9050919050565b7f4552433732313a207472616e7366657220746f206e6f6e20455243373231526560008201527f63656976657220696d706c656d656e7465720000000000000000000000000000602082015250565b600061307a603283612434565b91506130858261301e565b604082019050919050565b600060208201905081810360008301526130a98161306d565b9050919050565b600081905092915050565b60006130c682612429565b6130d081856130b0565b93506130e0818560208601612445565b80840191505092915050565b60006130f882856130bb565b915061310482846130bb565b91508190509392505050565b7f45524337323155524953746f726167653a2055524920736574206f66206e6f6e60008201527f6578697374656e7420746f6b656e000000000000000000000000000000000000602082015250565b600061316c602e83612434565b915061317782613110565b604082019050919050565b6000602082019050818103600083015261319b8161315f565b9050919050565b7f4e487b7100000000000000000000000000000000000000000000000000000000600052601160045260246000fd5b60006131dc826124e4565b91506131e7836124e4565b9250828210156131fa576131f96131a2565b5b828203905092915050565b6000613210826124e4565b915061321b836124e4565b9250827fffffffffffffffffffffffffffffffffffffffffffffffffffffffffffffffff038211156132505761324f6131a2565b5b828201905092915050565b7f416363657373436f6e74726f6c3a206163636f756e7420000000000000000000600082015250565b60006132916017836130b0565b915061329c8261325b565b601782019050919050565b7f206973206d697373696e6720726f6c6520000000000000000000000000000000600082015250565b60006132dd6011836130b0565b91506132e8826132a7565b601182019050919050565b60006132fe82613284565b915061330a82856130bb565b9150613315826132d0565b915061332182846130bb565b91508190509392505050565b600081519050919050565b600082825260208201905092915050565b60006133548261332d565b61335e8185613338565b935061336e818560208601612445565b61337781612478565b840191505092915050565b60006080820190506133976000830187612579565b6133a46020830186612579565b6133b1604083018561275c565b81810360608301526133c38184613349565b905095945050505050565b6000815190506133dd8161239a565b92915050565b6000602082840312156133f9576133f8612364565b5b6000613407848285016133ce565b91505092915050565b600061341b826124e4565b9150613426836124e4565b9250817fffffffffffffffffffffffffffffffffffffffffffffffffffffffffffffffff048311821515161561345f5761345e6131a2565b5b828202905092915050565b7f4e487b7100000000000000000000000000000000000000000000000000000000600052603260045260246000fd5b60006134a4826124e4565b915060008214156134b8576134b76131a2565b5b600182039050919050565b7f537472696e67733a20686578206c656e67746820696e73756666696369656e74600082015250565b60006134f9602083612434565b9150613504826134c3565b602082019050919050565b60006020820190508181036000830152613528816134ec565b9050919050565b7f4e487b7100000000000000000000000000000000000000000000000000000000600052601260045260246000fd5b7f4552433732313a206d696e7420746f20746865207a65726f2061646472657373600082015250565b6000613594602083612434565b915061359f8261355e565b602082019050919050565b600060208201905081810360008301526135c381613587565b9050919050565b7f4552433732313a20746f6b656e20616c7265616479206d696e74656400000000600082015250565b6000613600601c83612434565b915061360b826135ca565b602082019050919050565b6000602082019050818103600083015261362f816135f3565b905091905056fea264697066735822122069fbc190dedb94dfb3975d129ecb9a0d93906547e95e885e58a6ca7ba4d8f5e864736f6c63430008090033",
  "linkReferences": {},
  "deployedLinkReferences": {}
}