{
  "_format": "hh-sol-artifact-1",
  "contractName": "IcsBuyerContract",
  "sourceName": "contracts/IcsBuyerContract.sol",
  "abi": [
    {
      "inputs": [
        {
          "internalType": "address",
          "name": "_tokenAddress",
          "type": "address"
        },
        {
          "internalType": "string",
          "name": "_productName",
          "type": "string"
        },
        {
          "internalType": "string",
          "name": "_wholesalerName",
          "type": "string"
        },
        {
          "internalType": "string",
          "name": "_icsName",
          "type": "string"
        },
        {
          "internalType": "address",
          "name": "_wholesaler",
          "type": "address"
        },
        {
          "internalType": "address",
          "name": "_ics",
          "type": "address"
        },
        {
          "internalType": "uint256",
          "name": "_estimatedYieldMin",
          "type": "uint256"
        },
        {
          "internalType": "uint256",
          "name": "_estimatedYieldMax",
          "type": "uint256"
        },
        {
          "internalType": "uint256",
          "name": "_estimatedPriceMin",
          "type": "uint256"
        },
        {
          "internalType": "uint256",
          "name": "_estimatedPriceMax",
          "type": "uint256"
        },
        {
          "internalType": "uint256",
          "name": "_downPaymentBps",
          "type": "uint256"
        }
      ],
      "stateMutability": "nonpayable",
      "type": "constructor"
    },
    {
      "anonymous": false,
      "inputs": [
        {
          "indexed": false,
          "internalType": "address",
          "name": "admin",
          "type": "address"
        },
        {
          "indexed": false,
          "internalType": "address",
          "name": "buyer",
          "type": "address"
        },
        {
          "indexed": false,
          "internalType": "address",
          "name": "seller",
          "type": "address"
        },
        {
          "indexed": false,
          "internalType": "uint256",
          "name": "contractValueMin",
          "type": "uint256"
        },
        {
          "indexed": false,
          "internalType": "uint256",
          "name": "contractValueMax",
          "type": "uint256"
        }
      ],
      "name": "AdminSigned",
      "type": "event"
    },
    {
      "anonymous": false,
      "inputs": [
        {
          "indexed": false,
          "internalType": "address",
          "name": "buyer",
          "type": "address"
        },
        {
          "indexed": false,
          "internalType": "address",
          "name": "seller",
          "type": "address"
        },
        {
          "indexed": false,
          "internalType": "uint256",
          "name": "contractValueMin",
          "type": "uint256"
        },
        {
          "indexed": false,
          "internalType": "uint256",
          "name": "contractValueMax",
          "type": "uint256"
        }
      ],
      "name": "BuyerSigned",
      "type": "event"
    },
    {
      "anonymous": false,
      "inputs": [
        {
          "indexed": false,
          "internalType": "address",
          "name": "buyer",
          "type": "address"
        },
        {
          "indexed": false,
          "internalType": "address",
          "name": "seller",
          "type": "address"
        }
      ],
      "name": "Cancel",
      "type": "event"
    },
    {
      "anonymous": false,
      "inputs": [
        {
          "indexed": false,
          "internalType": "address",
          "name": "buyer",
          "type": "address"
        },
        {
          "indexed": false,
          "internalType": "address",
          "name": "seller",
          "type": "address"
        },
        {
          "indexed": false,
          "internalType": "uint256",
          "name": "qty",
          "type": "uint256"
        }
      ],
      "name": "Deposit",
      "type": "event"
    },
    {
      "anonymous": false,
      "inputs": [
        {
          "indexed": false,
          "internalType": "address",
          "name": "buyer",
          "type": "address"
        },
        {
          "indexed": false,
          "internalType": "address",
          "name": "seller",
          "type": "address"
        },
        {
          "indexed": false,
          "internalType": "uint256",
          "name": "qty",
          "type": "uint256"
        }
      ],
      "name": "Release",
      "type": "event"
    },
    {
      "anonymous": false,
      "inputs": [
        {
          "indexed": false,
          "internalType": "address",
          "name": "buyer",
          "type": "address"
        },
        {
          "indexed": false,
          "internalType": "address",
          "name": "seller",
          "type": "address"
        },
        {
          "indexed": false,
          "internalType": "uint256",
          "name": "contractValueMin",
          "type": "uint256"
        },
        {
          "indexed": false,
          "internalType": "uint256",
          "name": "contractValueMax",
          "type": "uint256"
        }
      ],
      "name": "SellerSigned",
      "type": "event"
    },
    {
      "anonymous": false,
      "inputs": [
        {
          "indexed": false,
          "internalType": "address",
          "name": "buyer",
          "type": "address"
        },
        {
          "indexed": false,
          "internalType": "address",
          "name": "seller",
          "type": "address"
        },
        {
          "indexed": false,
          "internalType": "uint256",
          "name": "qty",
          "type": "uint256"
        }
      ],
      "name": "Unlock",
      "type": "event"
    },
    {
      "anonymous": false,
      "inputs": [
        {
          "indexed": false,
          "internalType": "address",
          "name": "buyer",
          "type": "address"
        },
        {
          "indexed": false,
          "internalType": "address",
          "name": "seller",
          "type": "address"
        },
        {
          "indexed": false,
          "internalType": "uint256",
          "name": "qty",
          "type": "uint256"
        }
      ],
      "name": "Withdraw",
      "type": "event"
    },
    {
      "inputs": [
        {
          "internalType": "uint256",
          "name": "quantity",
          "type": "uint256"
        },
        {
          "internalType": "uint256",
          "name": "price",
          "type": "uint256"
        }
      ],
      "name": "acceptHarvest",
      "outputs": [],
      "stateMutability": "nonpayable",
      "type": "function"
    },
    {
      "inputs": [
        {
          "internalType": "string",
          "name": "_uri",
          "type": "string"
        },
        {
          "internalType": "address",
          "name": "_recipient",
          "type": "address"
        },
        {
          "internalType": "uint256",
          "name": "_eventId",
          "type": "uint256"
        }
      ],
      "name": "addEvent",
      "outputs": [],
      "stateMutability": "nonpayable",
      "type": "function"
    },
    {
      "inputs": [
        {
          "internalType": "address",
          "name": "_farmer",
          "type": "address"
        },
        {
          "internalType": "address",
          "name": "_farmerContract",
          "type": "address"
        }
      ],
      "name": "addFarmer",
      "outputs": [],
      "stateMutability": "nonpayable",
      "type": "function"
    },
    {
      "inputs": [],
      "name": "adminSign",
      "outputs": [],
      "stateMutability": "nonpayable",
      "type": "function"
    },
    {
      "inputs": [
        {
          "internalType": "address",
          "name": "_unlocker",
          "type": "address"
        }
      ],
      "name": "assignUnlocker",
      "outputs": [],
      "stateMutability": "nonpayable",
      "type": "function"
    },
    {
      "inputs": [],
      "name": "buyerSign",
      "outputs": [],
      "stateMutability": "nonpayable",
      "type": "function"
    },
    {
      "inputs": [],
      "name": "cancel",
      "outputs": [],
      "stateMutability": "nonpayable",
      "type": "function"
    },
    {
      "inputs": [],
      "name": "details",
      "outputs": [
        {
          "internalType": "address",
          "name": "",
          "type": "address"
        },
        {
          "internalType": "address",
          "name": "",
          "type": "address"
        },
        {
          "internalType": "uint256",
          "name": "",
          "type": "uint256"
        },
        {
          "internalType": "uint256",
          "name": "",
          "type": "uint256"
        },
        {
          "internalType": "uint256",
          "name": "",
          "type": "uint256"
        },
        {
          "internalType": "uint256",
          "name": "",
          "type": "uint256"
        },
        {
          "internalType": "uint256",
          "name": "",
          "type": "uint256"
        }
      ],
      "stateMutability": "view",
      "type": "function"
    },
    {
      "inputs": [],
      "name": "finalPayment",
      "outputs": [
        {
          "internalType": "bool",
          "name": "",
          "type": "bool"
        }
      ],
      "stateMutability": "nonpayable",
      "type": "function"
    },
    {
      "inputs": [],
      "name": "getBuyer",
      "outputs": [
        {
          "internalType": "string",
          "name": "",
          "type": "string"
        },
        {
          "internalType": "address",
          "name": "",
          "type": "address"
        }
      ],
      "stateMutability": "view",
      "type": "function"
    },
    {
      "inputs": [],
      "name": "getContractValue",
      "outputs": [
        {
          "internalType": "uint256",
          "name": "",
          "type": "uint256"
        },
        {
          "internalType": "uint256",
          "name": "",
          "type": "uint256"
        }
      ],
      "stateMutability": "view",
      "type": "function"
    },
    {
      "inputs": [],
      "name": "getDetails2",
      "outputs": [
        {
          "components": [
            {
              "internalType": "string",
              "name": "productName",
              "type": "string"
            },
            {
              "internalType": "address",
              "name": "buyer",
              "type": "address"
            },
            {
              "internalType": "string",
              "name": "buyerName",
              "type": "string"
            },
            {
              "internalType": "address",
              "name": "seller",
              "type": "address"
            },
            {
              "internalType": "string",
              "name": "sellerName",
              "type": "string"
            },
            {
              "internalType": "uint256",
              "name": "estimatedYieldMin",
              "type": "uint256"
            },
            {
              "internalType": "uint256",
              "name": "estimatedYieldMax",
              "type": "uint256"
            },
            {
              "internalType": "uint256",
              "name": "tentativeYield",
              "type": "uint256"
            },
            {
              "internalType": "uint256",
              "name": "estimatedPriceMin",
              "type": "uint256"
            },
            {
              "internalType": "uint256",
              "name": "estimatedPriceMax",
              "type": "uint256"
            },
            {
              "internalType": "uint256",
              "name": "tentativePrice",
              "type": "uint256"
            },
            {
              "internalType": "uint256",
              "name": "releasedAmount",
              "type": "uint256"
            },
            {
              "internalType": "uint256",
              "name": "lockedAmount",
              "type": "uint256"
            },
            {
              "internalType": "address",
              "name": "contractNFT",
              "type": "address"
            }
          ],
          "internalType": "struct ContractDetails",
          "name": "",
          "type": "tuple"
        }
      ],
      "stateMutability": "view",
      "type": "function"
    },
    {
      "inputs": [],
      "name": "getProduct",
      "outputs": [
        {
          "internalType": "string",
          "name": "",
          "type": "string"
        },
        {
          "internalType": "uint256",
          "name": "",
          "type": "uint256"
        },
        {
          "internalType": "uint256",
          "name": "",
          "type": "uint256"
        },
        {
          "internalType": "uint256",
          "name": "",
          "type": "uint256"
        },
        {
          "internalType": "uint256",
          "name": "",
          "type": "uint256"
        }
      ],
      "stateMutability": "view",
      "type": "function"
    },
    {
      "inputs": [],
      "name": "getSeller",
      "outputs": [
        {
          "internalType": "string",
          "name": "",
          "type": "string"
        },
        {
          "internalType": "address",
          "name": "",
          "type": "address"
        }
      ],
      "stateMutability": "view",
      "type": "function"
    },
    {
      "inputs": [
        {
          "internalType": "address",
          "name": "_farmer",
          "type": "address"
        }
      ],
      "name": "lookupFarmerContract",
      "outputs": [
        {
          "internalType": "address",
          "name": "",
          "type": "address"
        }
      ],
      "stateMutability": "view",
      "type": "function"
    },
    {
      "inputs": [],
      "name": "makeDownpayment",
      "outputs": [
        {
          "internalType": "bool",
          "name": "",
          "type": "bool"
        }
      ],
      "stateMutability": "nonpayable",
      "type": "function"
    },
    {
      "inputs": [
        {
          "internalType": "uint256",
          "name": "_amount",
          "type": "uint256"
        }
      ],
      "name": "releaseAmount",
      "outputs": [
        {
          "internalType": "bool",
          "name": "",
          "type": "bool"
        }
      ],
      "stateMutability": "nonpayable",
      "type": "function"
    },
    {
      "inputs": [],
      "name": "sellerSign",
      "outputs": [],
      "stateMutability": "nonpayable",
      "type": "function"
    },
    {
      "inputs": [
        {
          "internalType": "address",
          "name": "_incentiveContract",
          "type": "address"
        }
      ],
      "name": "setIncentiveContract",
      "outputs": [],
      "stateMutability": "nonpayable",
      "type": "function"
    },
    {
      "inputs": [
        {
          "internalType": "address",
          "name": "_nftAddress",
          "type": "address"
        }
      ],
      "name": "setNFT",
      "outputs": [],
      "stateMutability": "nonpayable",
      "type": "function"
    },
    {
      "inputs": [
        {
          "internalType": "address",
          "name": "_farmer",
          "type": "address"
        },
        {
          "internalType": "uint256",
          "name": "quantity",
          "type": "uint256"
        },
        {
          "internalType": "uint256",
          "name": "price",
          "type": "uint256"
        }
      ],
      "name": "settleFarmer",
      "outputs": [],
      "stateMutability": "nonpayable",
      "type": "function"
    },
    {
      "inputs": [
        {
          "internalType": "enum IcsBuyerEventEnum",
          "name": "_event",
          "type": "uint8"
        }
      ],
      "name": "submitEvent",
      "outputs": [],
      "stateMutability": "nonpayable",
      "type": "function"
    },
    {
      "inputs": [
        {
          "internalType": "uint256",
          "name": "_amount",
          "type": "uint256"
        }
      ],
      "name": "unlockAmount",
      "outputs": [
        {
          "internalType": "bool",
          "name": "",
          "type": "bool"
        }
      ],
      "stateMutability": "nonpayable",
      "type": "function"
    },
    {
      "inputs": [],
      "name": "withdraw",
      "outputs": [
        {
          "internalType": "bool",
          "name": "",
          "type": "bool"
        }
      ],
      "stateMutability": "nonpayable",
      "type": "function"
    }
  ],
  "bytecode": "0x60806040526101f467ffffffffffffffff81111562000023576200002262000506565b5b604051908082528060200260200182016040528015620000525781602001602082028036833780820191505090505b50601690805190602001906200006a929190620003c7565b503480156200007857600080fd5b50604051620051c4380380620051c483398181016040528101906200009e919062000743565b8a8a8a8a8a8a8a8a8a8a8a60008110158015620000bc575061271081105b620000fe576040517f08c379a0000000000000000000000000000000000000000000000000000000008152600401620000f59062000934565b60405180910390fd5b89600490805190602001906200011692919062000456565b5033600160006101000a81548173ffffffffffffffffffffffffffffffffffffffff021916908373ffffffffffffffffffffffffffffffffffffffff160217905550600560009054906101000a900473ffffffffffffffffffffffffffffffffffffffff16600360006101000a81548173ffffffffffffffffffffffffffffffffffffffff021916908373ffffffffffffffffffffffffffffffffffffffff1602179055508a6000806101000a81548173ffffffffffffffffffffffffffffffffffffffff021916908373ffffffffffffffffffffffffffffffffffffffff16021790555086600560006101000a81548173ffffffffffffffffffffffffffffffffffffffff021916908373ffffffffffffffffffffffffffffffffffffffff16021790555088600690805190602001906200025492919062000456565b5087600890805190602001906200026d92919062000456565b5085600760006101000a81548173ffffffffffffffffffffffffffffffffffffffff021916908373ffffffffffffffffffffffffffffffffffffffff16021790555060006012819055506000601381905550806014819055508460098190555083600a8190555082600c8190555081600d81905550670de0b6b3a76400008386620002f9919062000985565b62000305919062000985565b601081905550670de0b6b3a7640000828562000322919062000985565b6200032e919062000985565b6011819055506000600f60016101000a81548160ff0219169083151502179055506000600f60026101000a81548160ff021916908315150217905550505050505050505050505033601560006101000a81548173ffffffffffffffffffffffffffffffffffffffff021916908373ffffffffffffffffffffffffffffffffffffffff160217905550505050505050505050505062000a4b565b82805482825590600052602060002090810192821562000443579160200282015b82811115620004425782518260006101000a81548173ffffffffffffffffffffffffffffffffffffffff021916908373ffffffffffffffffffffffffffffffffffffffff16021790555091602001919060010190620003e8565b5b509050620004529190620004e7565b5090565b828054620004649062000a15565b90600052602060002090601f016020900481019282620004885760008555620004d4565b82601f10620004a357805160ff1916838001178555620004d4565b82800160010185558215620004d4579182015b82811115620004d3578251825591602001919060010190620004b6565b5b509050620004e39190620004e7565b5090565b5b8082111562000502576000816000905550600101620004e8565b5090565b7f4e487b7100000000000000000000000000000000000000000000000000000000600052604160045260246000fd5b6000604051905090565b600080fd5b600080fd5b600073ffffffffffffffffffffffffffffffffffffffff82169050919050565b6000620005768262000549565b9050919050565b620005888162000569565b81146200059457600080fd5b50565b600081519050620005a8816200057d565b92915050565b600080fd5b600080fd5b6000601f19601f8301169050919050565b620005d482620005b8565b810181811067ffffffffffffffff82111715620005f657620005f562000506565b5b80604052505050565b60006200060b62000535565b9050620006198282620005c9565b919050565b600067ffffffffffffffff8211156200063c576200063b62000506565b5b6200064782620005b8565b9050602081019050919050565b60005b838110156200067457808201518184015260208101905062000657565b8381111562000684576000848401525b50505050565b6000620006a16200069b846200061e565b620005ff565b905082815260208101848484011115620006c057620006bf620005b3565b5b620006cd84828562000654565b509392505050565b600082601f830112620006ed57620006ec620005ae565b5b8151620006ff8482602086016200068a565b91505092915050565b6000819050919050565b6200071d8162000708565b81146200072957600080fd5b50565b6000815190506200073d8162000712565b92915050565b60008060008060008060008060008060006101608c8e0312156200076c576200076b6200053f565b5b60006200077c8e828f0162000597565b9b505060208c015167ffffffffffffffff811115620007a0576200079f62000544565b5b620007ae8e828f01620006d5565b9a505060408c015167ffffffffffffffff811115620007d257620007d162000544565b5b620007e08e828f01620006d5565b99505060608c015167ffffffffffffffff81111562000804576200080362000544565b5b620008128e828f01620006d5565b9850506080620008258e828f0162000597565b97505060a0620008388e828f0162000597565b96505060c06200084b8e828f016200072c565b95505060e06200085e8e828f016200072c565b945050610100620008728e828f016200072c565b935050610120620008868e828f016200072c565b9250506101406200089a8e828f016200072c565b9150509295989b509295989b9093969950565b600082825260208201905092915050565b7f496e76616c696420646f776e5061796d656e744270732c20706c65617365207060008201527f6173732070657263656e7461676520626173697320706f696e74730000000000602082015250565b60006200091c603b83620008ad565b91506200092982620008be565b604082019050919050565b600060208201905081810360008301526200094f816200090d565b9050919050565b7f4e487b7100000000000000000000000000000000000000000000000000000000600052601160045260246000fd5b6000620009928262000708565b91506200099f8362000708565b9250817fffffffffffffffffffffffffffffffffffffffffffffffffffffffffffffffff0483118215151615620009db57620009da62000956565b5b828202905092915050565b7f4e487b7100000000000000000000000000000000000000000000000000000000600052602260045260246000fd5b6000600282049050600182168062000a2e57607f821691505b6020821081141562000a455762000a44620009e6565b5b50919050565b6147698062000a5b6000396000f3fe608060405234801561001057600080fd5b50600436106101585760003560e01c8063807b5d29116100c3578063dbd0e1b61161007c578063dbd0e1b614610374578063dc82697c14610393578063e1cbf4b1146103b2578063ea8a1af0146103ce578063f56e9c66146103d8578063fa5b501d146103f457610158565b8063807b5d29146102d857806396a69f43146102e2578063a513de6914610300578063b6a5c5b51461030a578063c011bf161461033a578063da3857561461035657610158565b80634ba20050116101155780634ba20050146102095780634cd2c09a1461022b578063565974d31461025b5780635ebe25141461027f578063603daf9a1461029d5780636061e6b7146102bc57610158565b8063046a2fdd1461015d578063078182001461016757806309f3ec52146101835780632278f36b1461019f57806329a19edb146101cf5780633ccfd60b146101eb575b600080fd5b610165610410565b005b610181600480360381019061017c91906131ac565b61064c565b005b61019d600480360381019061019891906131fe565b610720565b005b6101b960048036038101906101b49190613261565b6109a3565b6040516101c691906132a9565b60405180910390f35b6101e960048036038101906101e4919061340a565b610ac4565b005b6101f3610bf0565b60405161020091906132a9565b60405180910390f35b610211610f24565b604051610222959493929190613510565b60405180910390f35b61024560048036038101906102409190613261565b610fd7565b60405161025291906132a9565b60405180910390f35b6102636111dd565b6040516102769796959493929190613579565b60405180910390f35b610287611305565b60405161029491906132a9565b60405180910390f35b6102a5611423565b6040516102b39291906135e8565b60405180910390f35b6102d660048036038101906102d19190613618565b6114e0565b005b6102e06117e3565b005b6102ea611939565b6040516102f7919061380f565b60405180910390f35b61030861194e565b005b610324600480360381019061031f91906131ac565b611a80565b6040516103319190613831565b60405180910390f35b610354600480360381019061034f91906131ac565b611b79565b005b61035e611bbd565b60405161036b91906132a9565b60405180910390f35b61037c611e10565b60405161038a9291906135e8565b60405180910390f35b61039b611ecd565b6040516103a992919061384c565b60405180910390f35b6103cc60048036038101906103c79190613875565b611ede565b005b6103d6612144565b005b6103f260048036038101906103ed91906131ac565b6123e4565b005b61040e600480360381019061040991906138b5565b6124b8565b005b600560009054906101000a900473ffffffffffffffffffffffffffffffffffffffff1673ffffffffffffffffffffffffffffffffffffffff163373ffffffffffffffffffffffffffffffffffffffff16146104a0576040517f08c379a000000000000000000000000000000000000000000000000000000000815260040161049790613941565b60405180910390fd5b60008060009054906101000a900473ffffffffffffffffffffffffffffffffffffffff16905060008173ffffffffffffffffffffffffffffffffffffffff166370a08231306040518263ffffffff1660e01b81526004016105019190613831565b60206040518083038186803b15801561051957600080fd5b505afa15801561052d573d6000803e3d6000fd5b505050506040513d601f19601f820116820180604052508101906105519190613976565b9050601154811015610598576040517f08c379a000000000000000000000000000000000000000000000000000000000815260040161058f90613a15565b60405180910390fd5b6001600f60016101000a81548160ff021916908315150217905550806012819055507fca509163edfc238d34e4ef84d235590fe07508a67a58fa10a2a30ba245252f6a600560009054906101000a900473ffffffffffffffffffffffffffffffffffffffff16600760009054906101000a900473ffffffffffffffffffffffffffffffffffffffff166010546011546040516106379493929190613a35565b60405180910390a16106476126b4565b505050565b601560009054906101000a900473ffffffffffffffffffffffffffffffffffffffff1673ffffffffffffffffffffffffffffffffffffffff163373ffffffffffffffffffffffffffffffffffffffff16146106dc576040517f08c379a00000000000000000000000000000000000000000000000000000000081526004016106d390613ac6565b60405180910390fd5b80601860006101000a81548173ffffffffffffffffffffffffffffffffffffffff021916908373ffffffffffffffffffffffffffffffffffffffff16021790555050565b600560009054906101000a900473ffffffffffffffffffffffffffffffffffffffff1673ffffffffffffffffffffffffffffffffffffffff163373ffffffffffffffffffffffffffffffffffffffff16146107b0576040517f08c379a00000000000000000000000000000000000000000000000000000000081526004016107a790613941565b60405180910390fd5b6000601960008360028111156107c9576107c8613ae6565b5b60028111156107db576107da613ae6565b5b815260200190815260200160002054905060008114156107fb57506109a0565b60008060009054906101000a900473ffffffffffffffffffffffffffffffffffffffff16905060008173ffffffffffffffffffffffffffffffffffffffff166370a08231306040518263ffffffff1660e01b815260040161085c9190613831565b60206040518083038186803b15801561087457600080fd5b505afa158015610888573d6000803e3d6000fd5b505050506040513d601f19601f820116820180604052508101906108ac9190613976565b90506000612710601054856108c19190613b44565b6108cb9190613bcd565b905081811061090f576040517f08c379a000000000000000000000000000000000000000000000000000000000815260040161090690613c4a565b60405180910390fd5b3073ffffffffffffffffffffffffffffffffffffffff16632278f36b826040518263ffffffff1660e01b81526004016109489190613c6a565b602060405180830381600087803b15801561096257600080fd5b505af1158015610976573d6000803e3d6000fd5b505050506040513d601f19601f8201168201806040525081019061099a9190613cb1565b50505050505b50565b6000600560009054906101000a900473ffffffffffffffffffffffffffffffffffffffff1673ffffffffffffffffffffffffffffffffffffffff163373ffffffffffffffffffffffffffffffffffffffff1614610a35576040517f08c379a0000000000000000000000000000000000000000000000000000000008152600401610a2c90613941565b60405180910390fd5b600f60009054906101000a900460ff168015610a5d5750600f60019054906101000a900460ff165b8015610a755750600f60029054906101000a900460ff165b610ab4576040517f08c379a0000000000000000000000000000000000000000000000000000000008152600401610aab90613d2a565b60405180910390fd5b610abd82612867565b9050919050565b601560009054906101000a900473ffffffffffffffffffffffffffffffffffffffff1673ffffffffffffffffffffffffffffffffffffffff163373ffffffffffffffffffffffffffffffffffffffff1614610b54576040517f08c379a0000000000000000000000000000000000000000000000000000000008152600401610b4b90613ac6565b60405180910390fd5b6000601860009054906101000a900473ffffffffffffffffffffffffffffffffffffffff1690508073ffffffffffffffffffffffffffffffffffffffff166329a19edb8585856040518463ffffffff1660e01b8152600401610bb893929190613d4a565b600060405180830381600087803b158015610bd257600080fd5b505af1158015610be6573d6000803e3d6000fd5b5050505050505050565b6000600760009054906101000a900473ffffffffffffffffffffffffffffffffffffffff1673ffffffffffffffffffffffffffffffffffffffff163373ffffffffffffffffffffffffffffffffffffffff1614610c82576040517f08c379a0000000000000000000000000000000000000000000000000000000008152600401610c7990613dd4565b60405180910390fd5b600f60009054906101000a900460ff168015610caa5750600f60019054906101000a900460ff165b8015610cc25750600f60029054906101000a900460ff165b610d01576040517f08c379a0000000000000000000000000000000000000000000000000000000008152600401610cf890613d2a565b60405180910390fd5b60008060009054906101000a900473ffffffffffffffffffffffffffffffffffffffff16905060008173ffffffffffffffffffffffffffffffffffffffff166370a08231306040518263ffffffff1660e01b8152600401610d629190613831565b60206040518083038186803b158015610d7a57600080fd5b505afa158015610d8e573d6000803e3d6000fd5b505050506040513d601f19601f82011682018060405250810190610db29190613976565b9050806012541115610df9576040517f08c379a0000000000000000000000000000000000000000000000000000000008152600401610df090613e66565b60405180910390fd5b600060125482610e099190613e86565b905060008111610e4e576040517f08c379a0000000000000000000000000000000000000000000000000000000008152600401610e4590613c4a565b60405180910390fd5b610e9b600760009054906101000a900473ffffffffffffffffffffffffffffffffffffffff16828573ffffffffffffffffffffffffffffffffffffffff16612aad9092919063ffffffff16565b7f9b1bfa7fa9ee420a16e124f794c35ac9f90472acc99140eb2f6447c714cad8eb600560009054906101000a900473ffffffffffffffffffffffffffffffffffffffff16600760009054906101000a900473ffffffffffffffffffffffffffffffffffffffff1683604051610f1293929190613eba565b60405180910390a16001935050505090565b60606000806000806004600954600a54600c54600d54848054610f4690613f20565b80601f0160208091040260200160405190810160405280929190818152602001828054610f7290613f20565b8015610fbf5780601f10610f9457610100808354040283529160200191610fbf565b820191906000526020600020905b815481529060010190602001808311610fa257829003601f168201915b50505050509450945094509450945094509091929394565b6000600360009054906101000a900473ffffffffffffffffffffffffffffffffffffffff1673ffffffffffffffffffffffffffffffffffffffff163373ffffffffffffffffffffffffffffffffffffffff1614611069576040517f08c379a000000000000000000000000000000000000000000000000000000000815260040161106090613f9e565b60405180910390fd5b600f60009054906101000a900460ff1680156110915750600f60019054906101000a900460ff165b80156110a95750600f60029054906101000a900460ff165b6110e8576040517f08c379a00000000000000000000000000000000000000000000000000000000081526004016110df90613d2a565b60405180910390fd5b60135482111561112d576040517f08c379a000000000000000000000000000000000000000000000000000000000815260040161112490614030565b60405180910390fd5b8160125461113b9190613e86565b6012819055508160135461114f9190613e86565b6013819055507fc1c90b8e0705b212262c0dbd7580efe1862c2f185bf96899226f7596beb2db09600560009054906101000a900473ffffffffffffffffffffffffffffffffffffffff16600760009054906101000a900473ffffffffffffffffffffffffffffffffffffffff16846040516111cc93929190613eba565b60405180910390a160019050919050565b60008060008060008060008060008054906101000a900473ffffffffffffffffffffffffffffffffffffffff16905060008173ffffffffffffffffffffffffffffffffffffffff166370a08231306040518263ffffffff1660e01b81526004016112479190613831565b60206040518083038186803b15801561125f57600080fd5b505afa158015611273573d6000803e3d6000fd5b505050506040513d601f19601f820116820180604052508101906112979190613976565b9050600560009054906101000a900473ffffffffffffffffffffffffffffffffffffffff16600760009054906101000a900473ffffffffffffffffffffffffffffffffffffffff16601054601154846013546012549850985098509850985098509850505090919293949596565b6000600560009054906101000a900473ffffffffffffffffffffffffffffffffffffffff1673ffffffffffffffffffffffffffffffffffffffff163373ffffffffffffffffffffffffffffffffffffffff1614611397576040517f08c379a000000000000000000000000000000000000000000000000000000000815260040161138e90613941565b60405180910390fd5b600f60009054906101000a900460ff1680156113bf5750600f60019054906101000a900460ff165b80156113d75750600f60029054906101000a900460ff165b611416576040517f08c379a000000000000000000000000000000000000000000000000000000000815260040161140d90613d2a565b60405180910390fd5b61141e6126b4565b905090565b606060006006600560009054906101000a900473ffffffffffffffffffffffffffffffffffffffff1681805461145890613f20565b80601f016020809104026020016040519081016040528092919081815260200182805461148490613f20565b80156114d15780601f106114a6576101008083540402835291602001916114d1565b820191906000526020600020905b8154815290600101906020018083116114b457829003601f168201915b50505050509150915091509091565b600760009054906101000a900473ffffffffffffffffffffffffffffffffffffffff1673ffffffffffffffffffffffffffffffffffffffff163373ffffffffffffffffffffffffffffffffffffffff1614611570576040517f08c379a00000000000000000000000000000000000000000000000000000000081526004016115679061409c565b60405180910390fd5b6000601760008573ffffffffffffffffffffffffffffffffffffffff1673ffffffffffffffffffffffffffffffffffffffff16815260200190815260200160002060009054906101000a900473ffffffffffffffffffffffffffffffffffffffff16905060008190506000808273ffffffffffffffffffffffffffffffffffffffff1663dc82697c6040518163ffffffff1660e01b8152600401604080518083038186803b15801561162157600080fd5b505afa158015611635573d6000803e3d6000fd5b505050506040513d601f19601f8201168201806040525081019061165991906140bc565b9150915060008060008060008060008973ffffffffffffffffffffffffffffffffffffffff1663565974d36040518163ffffffff1660e01b815260040160e06040518083038186803b1580156116ae57600080fd5b505afa1580156116c2573d6000803e3d6000fd5b505050506040513d601f19601f820116820180604052508101906116e69190614111565b965096509650965096509650965060008c8e6117029190613b44565b9050838110611746576040517f08c379a000000000000000000000000000000000000000000000000000000000815260040161173d90614225565b60405180910390fd5b8a73ffffffffffffffffffffffffffffffffffffffff16632278f36b826040518263ffffffff1660e01b815260040161177f9190613c6a565b602060405180830381600087803b15801561179957600080fd5b505af11580156117ad573d6000803e3d6000fd5b505050506040513d601f19601f820116820180604052508101906117d19190613cb1565b50505050505050505050505050505050565b600160009054906101000a900473ffffffffffffffffffffffffffffffffffffffff1673ffffffffffffffffffffffffffffffffffffffff163373ffffffffffffffffffffffffffffffffffffffff1614611873576040517f08c379a000000000000000000000000000000000000000000000000000000000815260040161186a906142b7565b60405180910390fd5b6001600f60006101000a81548160ff0219169083151502179055507f2d02a8006c04b9bb35fcf84fbe0c3a2eebc574698ed7716c9f67b0f67244b6f5600160009054906101000a900473ffffffffffffffffffffffffffffffffffffffff16600560009054906101000a900473ffffffffffffffffffffffffffffffffffffffff16600760009054906101000a900473ffffffffffffffffffffffffffffffffffffffff1660105460115460405161192f9594939291906142d7565b60405180910390a1565b611941613089565b611949612b33565b905090565b600760009054906101000a900473ffffffffffffffffffffffffffffffffffffffff1673ffffffffffffffffffffffffffffffffffffffff163373ffffffffffffffffffffffffffffffffffffffff16146119de576040517f08c379a00000000000000000000000000000000000000000000000000000000081526004016119d590613dd4565b60405180910390fd5b6001600f60026101000a81548160ff0219169083151502179055507f2e4ddfb651f821a25a38775d9a40cd48df71699988424942de2b58a490463f0f600560009054906101000a900473ffffffffffffffffffffffffffffffffffffffff16600760009054906101000a900473ffffffffffffffffffffffffffffffffffffffff16601054601154604051611a769493929190613a35565b60405180910390a1565b6000601560009054906101000a900473ffffffffffffffffffffffffffffffffffffffff1673ffffffffffffffffffffffffffffffffffffffff163373ffffffffffffffffffffffffffffffffffffffff1614611b12576040517f08c379a0000000000000000000000000000000000000000000000000000000008152600401611b0990613ac6565b60405180910390fd5b601760008373ffffffffffffffffffffffffffffffffffffffff1673ffffffffffffffffffffffffffffffffffffffff16815260200190815260200160002060009054906101000a900473ffffffffffffffffffffffffffffffffffffffff169050919050565b80600360006101000a81548173ffffffffffffffffffffffffffffffffffffffff021916908373ffffffffffffffffffffffffffffffffffffffff16021790555050565b6000600560009054906101000a900473ffffffffffffffffffffffffffffffffffffffff1673ffffffffffffffffffffffffffffffffffffffff163373ffffffffffffffffffffffffffffffffffffffff1614611c4f576040517f08c379a0000000000000000000000000000000000000000000000000000000008152600401611c4690613941565b60405180910390fd5b600f60009054906101000a900460ff168015611c775750600f60019054906101000a900460ff165b8015611c8f5750600f60029054906101000a900460ff165b611cce576040517f08c379a0000000000000000000000000000000000000000000000000000000008152600401611cc590613d2a565b60405180910390fd5b60008060009054906101000a900473ffffffffffffffffffffffffffffffffffffffff16905060008173ffffffffffffffffffffffffffffffffffffffff166370a08231306040518263ffffffff1660e01b8152600401611d2f9190613831565b60206040518083038186803b158015611d4757600080fd5b505afa158015611d5b573d6000803e3d6000fd5b505050506040513d601f19601f82011682018060405250810190611d7f9190613976565b9050806013819055507fcb54aad3bd772fcfe1bc124e01bd1a91a91c9d80126d8b3014c4d9e687d5ca48600560009054906101000a900473ffffffffffffffffffffffffffffffffffffffff16600760009054906101000a900473ffffffffffffffffffffffffffffffffffffffff1683604051611dff93929190613eba565b60405180910390a160019250505090565b606060006008600760009054906101000a900473ffffffffffffffffffffffffffffffffffffffff16818054611e4590613f20565b80601f0160208091040260200160405190810160405280929190818152602001828054611e7190613f20565b8015611ebe5780601f10611e9357610100808354040283529160200191611ebe565b820191906000526020600020905b815481529060010190602001808311611ea157829003601f168201915b50505050509150915091509091565b600080601054601154915091509091565b601560009054906101000a900473ffffffffffffffffffffffffffffffffffffffff1673ffffffffffffffffffffffffffffffffffffffff163373ffffffffffffffffffffffffffffffffffffffff1614611f6e576040517f08c379a0000000000000000000000000000000000000000000000000000000008152600401611f6590613ac6565b60405180910390fd5b60008190503073ffffffffffffffffffffffffffffffffffffffff168173ffffffffffffffffffffffffffffffffffffffff1663f11777126040518163ffffffff1660e01b815260040160206040518083038186803b158015611fd057600080fd5b505afa158015611fe4573d6000803e3d6000fd5b505050506040513d601f19601f82011682018060405250810190612008919061432a565b73ffffffffffffffffffffffffffffffffffffffff161461205e576040517f08c379a0000000000000000000000000000000000000000000000000000000008152600401612055906143c9565b60405180910390fd5b6016839080600181540180825580915050600190039060005260206000200160009091909190916101000a81548173ffffffffffffffffffffffffffffffffffffffff021916908373ffffffffffffffffffffffffffffffffffffffff16021790555081601760008573ffffffffffffffffffffffffffffffffffffffff1673ffffffffffffffffffffffffffffffffffffffff16815260200190815260200160002060006101000a81548173ffffffffffffffffffffffffffffffffffffffff021916908373ffffffffffffffffffffffffffffffffffffffff160217905550505050565b600160009054906101000a900473ffffffffffffffffffffffffffffffffffffffff1673ffffffffffffffffffffffffffffffffffffffff163373ffffffffffffffffffffffffffffffffffffffff16146121d4576040517f08c379a00000000000000000000000000000000000000000000000000000000081526004016121cb906142b7565b60405180910390fd5b600f60009054906101000a900460ff1680156121fc5750600f60019054906101000a900460ff165b80156122145750600f60029054906101000a900460ff165b612253576040517f08c379a000000000000000000000000000000000000000000000000000000000815260040161224a90613d2a565b60405180910390fd5b60008060009054906101000a900473ffffffffffffffffffffffffffffffffffffffff16905060008173ffffffffffffffffffffffffffffffffffffffff166370a08231306040518263ffffffff1660e01b81526004016122b49190613831565b60206040518083038186803b1580156122cc57600080fd5b505afa1580156122e0573d6000803e3d6000fd5b505050506040513d601f19601f820116820180604052508101906123049190613976565b9050612353600560009054906101000a900473ffffffffffffffffffffffffffffffffffffffff16828473ffffffffffffffffffffffffffffffffffffffff16612aad9092919063ffffffff16565b600060128190555060006013819055507f50d9aca76814f78d884b23d6acf60b8e4a0404b5bfd5fe15fae3cc9d874eb949600560009054906101000a900473ffffffffffffffffffffffffffffffffffffffff16600760009054906101000a900473ffffffffffffffffffffffffffffffffffffffff166040516123d89291906143e9565b60405180910390a15050565b600160009054906101000a900473ffffffffffffffffffffffffffffffffffffffff1673ffffffffffffffffffffffffffffffffffffffff163373ffffffffffffffffffffffffffffffffffffffff1614612474576040517f08c379a000000000000000000000000000000000000000000000000000000000815260040161246b906142b7565b60405180910390fd5b80600260006101000a81548173ffffffffffffffffffffffffffffffffffffffff021916908373ffffffffffffffffffffffffffffffffffffffff16021790555050565b600560009054906101000a900473ffffffffffffffffffffffffffffffffffffffff1673ffffffffffffffffffffffffffffffffffffffff163373ffffffffffffffffffffffffffffffffffffffff1614612548576040517f08c379a000000000000000000000000000000000000000000000000000000000815260040161253f90613941565b60405180910390fd5b6000670de0b6b3a7640000828461255f9190613b44565b6125699190613b44565b905060008060009054906101000a900473ffffffffffffffffffffffffffffffffffffffff16905060008173ffffffffffffffffffffffffffffffffffffffff166370a08231306040518263ffffffff1660e01b81526004016125cc9190613831565b60206040518083038186803b1580156125e457600080fd5b505afa1580156125f8573d6000803e3d6000fd5b505050506040513d601f19601f8201168201806040525081019061261c9190613976565b9050808310612660576040517f08c379a000000000000000000000000000000000000000000000000000000000815260040161265790614484565b60405180910390fd5b6126ad600760009054906101000a900473ffffffffffffffffffffffffffffffffffffffff16848473ffffffffffffffffffffffffffffffffffffffff16612aad9092919063ffffffff16565b5050505050565b60008060008054906101000a900473ffffffffffffffffffffffffffffffffffffffff16905060008173ffffffffffffffffffffffffffffffffffffffff166370a08231306040518263ffffffff1660e01b81526004016127159190613831565b60206040518083038186803b15801561272d57600080fd5b505afa158015612741573d6000803e3d6000fd5b505050506040513d601f19601f820116820180604052508101906127659190613976565b9050600061271060105460145461277c9190613b44565b6127869190613bcd565b90508181106127ca576040517f08c379a00000000000000000000000000000000000000000000000000000000081526004016127c190613c4a565b60405180910390fd5b806013546127d891906144a4565b6013819055507fcb54aad3bd772fcfe1bc124e01bd1a91a91c9d80126d8b3014c4d9e687d5ca48600560009054906101000a900473ffffffffffffffffffffffffffffffffffffffff16600760009054906101000a900473ffffffffffffffffffffffffffffffffffffffff168360405161285593929190613eba565b60405180910390a16001935050505090565b60008060008054906101000a900473ffffffffffffffffffffffffffffffffffffffff16905060008173ffffffffffffffffffffffffffffffffffffffff166370a08231306040518263ffffffff1660e01b81526004016128c89190613831565b60206040518083038186803b1580156128e057600080fd5b505afa1580156128f4573d6000803e3d6000fd5b505050506040513d601f19601f820116820180604052508101906129189190613976565b90508360135461292891906144a4565b60138190555060006012548261293e9190613e86565b9050808510612982576040517f08c379a000000000000000000000000000000000000000000000000000000000815260040161297990613c4a565b60405180910390fd5b846012546129909190613e86565b6012819055507fcb54aad3bd772fcfe1bc124e01bd1a91a91c9d80126d8b3014c4d9e687d5ca48600560009054906101000a900473ffffffffffffffffffffffffffffffffffffffff16600760009054906101000a900473ffffffffffffffffffffffffffffffffffffffff1687604051612a0d93929190613eba565b60405180910390a13073ffffffffffffffffffffffffffffffffffffffff16634cd2c09a866040518263ffffffff1660e01b8152600401612a4e9190613c6a565b602060405180830381600087803b158015612a6857600080fd5b505af1158015612a7c573d6000803e3d6000fd5b505050506040513d601f19601f82011682018060405250810190612aa09190613cb1565b5060019350505050919050565b612b2e8363a9059cbb60e01b8484604051602401612acc9291906144fa565b604051602081830303815290604052907bffffffffffffffffffffffffffffffffffffffffffffffffffffffff19166020820180517bffffffffffffffffffffffffffffffffffffffffffffffffffffffff8381831617835250505050612df4565b505050565b612b3b613089565b604051806101c0016040528060048054612b5490613f20565b80601f0160208091040260200160405190810160405280929190818152602001828054612b8090613f20565b8015612bcd5780601f10612ba257610100808354040283529160200191612bcd565b820191906000526020600020905b815481529060010190602001808311612bb057829003601f168201915b50505050508152602001600560009054906101000a900473ffffffffffffffffffffffffffffffffffffffff1673ffffffffffffffffffffffffffffffffffffffff16815260200160068054612c2290613f20565b80601f0160208091040260200160405190810160405280929190818152602001828054612c4e90613f20565b8015612c9b5780601f10612c7057610100808354040283529160200191612c9b565b820191906000526020600020905b815481529060010190602001808311612c7e57829003601f168201915b50505050508152602001600760009054906101000a900473ffffffffffffffffffffffffffffffffffffffff1673ffffffffffffffffffffffffffffffffffffffff16815260200160088054612cf090613f20565b80601f0160208091040260200160405190810160405280929190818152602001828054612d1c90613f20565b8015612d695780601f10612d3e57610100808354040283529160200191612d69565b820191906000526020600020905b815481529060010190602001808311612d4c57829003601f168201915b505050505081526020016009548152602001600a548152602001600b548152602001600c548152602001600d548152602001600e54815260200160135481526020016012548152602001600260009054906101000a900473ffffffffffffffffffffffffffffffffffffffff1673ffffffffffffffffffffffffffffffffffffffff16815250905090565b6000612e56826040518060400160405280602081526020017f5361666545524332303a206c6f772d6c6576656c2063616c6c206661696c65648152508573ffffffffffffffffffffffffffffffffffffffff16612ebb9092919063ffffffff16565b9050600081511115612eb65780806020019051810190612e769190613cb1565b612eb5576040517f08c379a0000000000000000000000000000000000000000000000000000000008152600401612eac90614595565b60405180910390fd5b5b505050565b6060612eca8484600085612ed3565b90509392505050565b606082471015612f18576040517f08c379a0000000000000000000000000000000000000000000000000000000008152600401612f0f90614627565b60405180910390fd5b6000808673ffffffffffffffffffffffffffffffffffffffff168587604051612f41919061468e565b60006040518083038185875af1925050503d8060008114612f7e576040519150601f19603f3d011682016040523d82523d6000602084013e612f83565b606091505b5091509150612f9487838387612fa0565b92505050949350505050565b6060831561300357600083511415612ffb57612fbb85613016565b612ffa576040517f08c379a0000000000000000000000000000000000000000000000000000000008152600401612ff1906146f1565b60405180910390fd5b5b82905061300e565b61300d8383613039565b5b949350505050565b6000808273ffffffffffffffffffffffffffffffffffffffff163b119050919050565b60008251111561304c5781518083602001fd5b806040517f08c379a00000000000000000000000000000000000000000000000000000000081526004016130809190614711565b60405180910390fd5b604051806101c0016040528060608152602001600073ffffffffffffffffffffffffffffffffffffffff16815260200160608152602001600073ffffffffffffffffffffffffffffffffffffffff168152602001606081526020016000815260200160008152602001600081526020016000815260200160008152602001600081526020016000815260200160008152602001600073ffffffffffffffffffffffffffffffffffffffff1681525090565b6000604051905090565b600080fd5b600080fd5b600073ffffffffffffffffffffffffffffffffffffffff82169050919050565b60006131798261314e565b9050919050565b6131898161316e565b811461319457600080fd5b50565b6000813590506131a681613180565b92915050565b6000602082840312156131c2576131c1613144565b5b60006131d084828501613197565b91505092915050565b600381106131e657600080fd5b50565b6000813590506131f8816131d9565b92915050565b60006020828403121561321457613213613144565b5b6000613222848285016131e9565b91505092915050565b6000819050919050565b61323e8161322b565b811461324957600080fd5b50565b60008135905061325b81613235565b92915050565b60006020828403121561327757613276613144565b5b60006132858482850161324c565b91505092915050565b60008115159050919050565b6132a38161328e565b82525050565b60006020820190506132be600083018461329a565b92915050565b600080fd5b600080fd5b6000601f19601f8301169050919050565b7f4e487b7100000000000000000000000000000000000000000000000000000000600052604160045260246000fd5b613317826132ce565b810181811067ffffffffffffffff82111715613336576133356132df565b5b80604052505050565b600061334961313a565b9050613355828261330e565b919050565b600067ffffffffffffffff821115613375576133746132df565b5b61337e826132ce565b9050602081019050919050565b82818337600083830152505050565b60006133ad6133a88461335a565b61333f565b9050828152602081018484840111156133c9576133c86132c9565b5b6133d484828561338b565b509392505050565b600082601f8301126133f1576133f06132c4565b5b813561340184826020860161339a565b91505092915050565b60008060006060848603121561342357613422613144565b5b600084013567ffffffffffffffff81111561344157613440613149565b5b61344d868287016133dc565b935050602061345e86828701613197565b925050604061346f8682870161324c565b9150509250925092565b600081519050919050565b600082825260208201905092915050565b60005b838110156134b3578082015181840152602081019050613498565b838111156134c2576000848401525b50505050565b60006134d382613479565b6134dd8185613484565b93506134ed818560208601613495565b6134f6816132ce565b840191505092915050565b61350a8161322b565b82525050565b600060a082019050818103600083015261352a81886134c8565b90506135396020830187613501565b6135466040830186613501565b6135536060830185613501565b6135606080830184613501565b9695505050505050565b6135738161316e565b82525050565b600060e08201905061358e600083018a61356a565b61359b602083018961356a565b6135a86040830188613501565b6135b56060830187613501565b6135c26080830186613501565b6135cf60a0830185613501565b6135dc60c0830184613501565b98975050505050505050565b6000604082019050818103600083015261360281856134c8565b9050613611602083018461356a565b9392505050565b60008060006060848603121561363157613630613144565b5b600061363f86828701613197565b93505060206136508682870161324c565b92505060406136618682870161324c565b9150509250925092565b600082825260208201905092915050565b600061368782613479565b613691818561366b565b93506136a1818560208601613495565b6136aa816132ce565b840191505092915050565b6136be8161316e565b82525050565b6136cd8161322b565b82525050565b60006101c08301600083015184820360008601526136f1828261367c565b915050602083015161370660208601826136b5565b506040830151848203604086015261371e828261367c565b915050606083015161373360608601826136b5565b506080830151848203608086015261374b828261367c565b91505060a083015161376060a08601826136c4565b5060c083015161377360c08601826136c4565b5060e083015161378660e08601826136c4565b5061010083015161379b6101008601826136c4565b506101208301516137b06101208601826136c4565b506101408301516137c56101408601826136c4565b506101608301516137da6101608601826136c4565b506101808301516137ef6101808601826136c4565b506101a08301516138046101a08601826136b5565b508091505092915050565b6000602082019050818103600083015261382981846136d3565b905092915050565b6000602082019050613846600083018461356a565b92915050565b60006040820190506138616000830185613501565b61386e6020830184613501565b9392505050565b6000806040838503121561388c5761388b613144565b5b600061389a85828601613197565b92505060206138ab85828601613197565b9150509250929050565b600080604083850312156138cc576138cb613144565b5b60006138da8582860161324c565b92505060206138eb8582860161324c565b9150509250929050565b7f4f6e6c792062757965722063616e2072656c656173652066756e64732e000000600082015250565b600061392b601d83613484565b9150613936826138f5565b602082019050919050565b6000602082019050818103600083015261395a8161391e565b9050919050565b60008151905061397081613235565b92915050565b60006020828403121561398c5761398b613144565b5b600061399a84828501613961565b91505092915050565b7f506c65617365206465706f73697420746f6b656e73206265666f72652073696760008201527f6e696e6720636f6e747261637400000000000000000000000000000000000000602082015250565b60006139ff602d83613484565b9150613a0a826139a3565b604082019050919050565b60006020820190508181036000830152613a2e816139f2565b9050919050565b6000608082019050613a4a600083018761356a565b613a57602083018661356a565b613a646040830185613501565b613a716060830184613501565b95945050505050565b7f4f6e6c79206f776e65727320616c6c6f7765642e000000000000000000000000600082015250565b6000613ab0601483613484565b9150613abb82613a7a565b602082019050919050565b60006020820190508181036000830152613adf81613aa3565b9050919050565b7f4e487b7100000000000000000000000000000000000000000000000000000000600052602160045260246000fd5b7f4e487b7100000000000000000000000000000000000000000000000000000000600052601160045260246000fd5b6000613b4f8261322b565b9150613b5a8361322b565b9250817fffffffffffffffffffffffffffffffffffffffffffffffffffffffffffffffff0483118215151615613b9357613b92613b15565b5b828202905092915050565b7f4e487b7100000000000000000000000000000000000000000000000000000000600052601260045260246000fd5b6000613bd88261322b565b9150613be38361322b565b925082613bf357613bf2613b9e565b5b828204905092915050565b7f496e73756666696369656e742066756e64730000000000000000000000000000600082015250565b6000613c34601283613484565b9150613c3f82613bfe565b602082019050919050565b60006020820190508181036000830152613c6381613c27565b9050919050565b6000602082019050613c7f6000830184613501565b92915050565b613c8e8161328e565b8114613c9957600080fd5b50565b600081519050613cab81613c85565b92915050565b600060208284031215613cc757613cc6613144565b5b6000613cd584828501613c9c565b91505092915050565b7f436f6e7472616374206e6f74207965742066696e616c00000000000000000000600082015250565b6000613d14601683613484565b9150613d1f82613cde565b602082019050919050565b60006020820190508181036000830152613d4381613d07565b9050919050565b60006060820190508181036000830152613d6481866134c8565b9050613d73602083018561356a565b613d806040830184613501565b949350505050565b7f4f6e6c792073656c6c65722063616e2077697468647261772e00000000000000600082015250565b6000613dbe601983613484565b9150613dc982613d88565b602082019050919050565b60006020820190508181036000830152613ded81613db1565b9050919050565b7f496e76616c69642073746174652e204c6f636b6564203e2042616c616e63652160008201527f2100000000000000000000000000000000000000000000000000000000000000602082015250565b6000613e50602183613484565b9150613e5b82613df4565b604082019050919050565b60006020820190508181036000830152613e7f81613e43565b9050919050565b6000613e918261322b565b9150613e9c8361322b565b925082821015613eaf57613eae613b15565b5b828203905092915050565b6000606082019050613ecf600083018661356a565b613edc602083018561356a565b613ee96040830184613501565b949350505050565b7f4e487b7100000000000000000000000000000000000000000000000000000000600052602260045260246000fd5b60006002820490506001821680613f3857607f821691505b60208210811415613f4c57613f4b613ef1565b5b50919050565b7f4f6e6c7920756e6c6f636b65722063616e20756e6c6f636b2066756e64732e00600082015250565b6000613f88601f83613484565b9150613f9382613f52565b602082019050919050565b60006020820190508181036000830152613fb781613f7b565b9050919050565b7f43616e6e6f7420756e6c6f636b206d6f7265207468616e2066756e647320726560008201527f6c65617365642062792062757965722e00000000000000000000000000000000602082015250565b600061401a603083613484565b915061402582613fbe565b604082019050919050565b600060208201905081810360008301526140498161400d565b9050919050565b7f4f6e6c792049435320616c6c6f7765642e000000000000000000000000000000600082015250565b6000614086601183613484565b915061409182614050565b602082019050919050565b600060208201905081810360008301526140b581614079565b9050919050565b600080604083850312156140d3576140d2613144565b5b60006140e185828601613961565b92505060206140f285828601613961565b9150509250929050565b60008151905061410b81613180565b92915050565b600080600080600080600060e0888a0312156141305761412f613144565b5b600061413e8a828b016140fc565b975050602061414f8a828b016140fc565b96505060406141608a828b01613961565b95505060606141718a828b01613961565b94505060806141828a828b01613961565b93505060a06141938a828b01613961565b92505060c06141a48a828b01613961565b91505092959891949750929550565b7f496e73756666696369656e742066756e647320696e206661726d657220636f6e60008201527f7472616374000000000000000000000000000000000000000000000000000000602082015250565b600061420f602583613484565b915061421a826141b3565b604082019050919050565b6000602082019050818103600083015261423e81614202565b9050919050565b7f4f6e6c792061646d696e2063616e20706572666f726d2074686973206f70657260008201527f6174696f6e2e0000000000000000000000000000000000000000000000000000602082015250565b60006142a1602683613484565b91506142ac82614245565b604082019050919050565b600060208201905081810360008301526142d081614294565b9050919050565b600060a0820190506142ec600083018861356a565b6142f9602083018761356a565b614306604083018661356a565b6143136060830185613501565b6143206080830184613501565b9695505050505050565b6000602082840312156143405761433f613144565b5b600061434e848285016140fc565b91505092915050565b7f496e76616c6964206661726d657220636f6e74726163742e2043616e206e6f7460008201527f2061646420746f207468697320636f6e74726163740000000000000000000000602082015250565b60006143b3603583613484565b91506143be82614357565b604082019050919050565b600060208201905081810360008301526143e2816143a6565b9050919050565b60006040820190506143fe600083018561356a565b61440b602083018461356a565b9392505050565b7f43616e27742072656c656173652066696e616c2066756e64732e20496e73756660008201527f66696369656e742066756e647300000000000000000000000000000000000000602082015250565b600061446e602d83613484565b915061447982614412565b604082019050919050565b6000602082019050818103600083015261449d81614461565b9050919050565b60006144af8261322b565b91506144ba8361322b565b9250827fffffffffffffffffffffffffffffffffffffffffffffffffffffffffffffffff038211156144ef576144ee613b15565b5b828201905092915050565b600060408201905061450f600083018561356a565b61451c6020830184613501565b9392505050565b7f5361666545524332303a204552433230206f7065726174696f6e20646964206e60008201527f6f74207375636365656400000000000000000000000000000000000000000000602082015250565b600061457f602a83613484565b915061458a82614523565b604082019050919050565b600060208201905081810360008301526145ae81614572565b9050919050565b7f416464726573733a20696e73756666696369656e742062616c616e636520666f60008201527f722063616c6c0000000000000000000000000000000000000000000000000000602082015250565b6000614611602683613484565b915061461c826145b5565b604082019050919050565b6000602082019050818103600083015261464081614604565b9050919050565b600081519050919050565b600081905092915050565b600061466882614647565b6146728185614652565b9350614682818560208601613495565b80840191505092915050565b600061469a828461465d565b915081905092915050565b7f416464726573733a2063616c6c20746f206e6f6e2d636f6e7472616374000000600082015250565b60006146db601d83613484565b91506146e6826146a5565b602082019050919050565b6000602082019050818103600083015261470a816146ce565b9050919050565b6000602082019050818103600083015261472b81846134c8565b90509291505056fea26469706673582212203718ba7fa7c1c99f0ce4472e6949b3fc7c52fcdd039b5bca36aad46532fcd5c064736f6c63430008090033",
  "linkReferences": {},
  "deployedLinkReferences": {}
}