{
  "_format": "hh-sol-artifact-1",
  "contractName": "IcsBuyerContract",
  "sourceName": "contracts/IcsBuyerContract.sol",
  "abi": [
    {
      "inputs": [
        {
          "internalType": "address",
          "name": "_tokenAddress",
          "type": "address"
        },
        {
          "internalType": "string",
          "name": "_productName",
          "type": "string"
        },
        {
          "internalType": "string",
          "name": "_wholesalerName",
          "type": "string"
        },
        {
          "internalType": "string",
          "name": "_icsName",
          "type": "string"
        },
        {
          "internalType": "address",
          "name": "_wholesaler",
          "type": "address"
        },
        {
          "internalType": "address",
          "name": "_ics",
          "type": "address"
        },
        {
          "internalType": "uint256",
          "name": "_estimatedYieldMin",
          "type": "uint256"
        },
        {
          "internalType": "uint256",
          "name": "_estimatedYieldMax",
          "type": "uint256"
        },
        {
          "internalType": "uint256",
          "name": "_estimatedPriceMin",
          "type": "uint256"
        },
        {
          "internalType": "uint256",
          "name": "_estimatedPriceMax",
          "type": "uint256"
        },
        {
          "internalType": "uint256",
          "name": "_downPaymentBps",
          "type": "uint256"
        }
      ],
      "stateMutability": "nonpayable",
      "type": "constructor"
    },
    {
      "anonymous": false,
      "inputs": [
        {
          "indexed": false,
          "internalType": "address",
          "name": "admin",
          "type": "address"
        },
        {
          "indexed": false,
          "internalType": "address",
          "name": "buyer",
          "type": "address"
        },
        {
          "indexed": false,
          "internalType": "address",
          "name": "seller",
          "type": "address"
        },
        {
          "indexed": false,
          "internalType": "uint256",
          "name": "contractValueMin",
          "type": "uint256"
        },
        {
          "indexed": false,
          "internalType": "uint256",
          "name": "contractValueMax",
          "type": "uint256"
        }
      ],
      "name": "AdminSigned",
      "type": "event"
    },
    {
      "anonymous": false,
      "inputs": [
        {
          "indexed": false,
          "internalType": "address",
          "name": "buyer",
          "type": "address"
        },
        {
          "indexed": false,
          "internalType": "address",
          "name": "seller",
          "type": "address"
        },
        {
          "indexed": false,
          "internalType": "uint256",
          "name": "contractValueMin",
          "type": "uint256"
        },
        {
          "indexed": false,
          "internalType": "uint256",
          "name": "contractValueMax",
          "type": "uint256"
        }
      ],
      "name": "BuyerSigned",
      "type": "event"
    },
    {
      "anonymous": false,
      "inputs": [
        {
          "indexed": false,
          "internalType": "address",
          "name": "buyer",
          "type": "address"
        },
        {
          "indexed": false,
          "internalType": "address",
          "name": "seller",
          "type": "address"
        }
      ],
      "name": "Cancel",
      "type": "event"
    },
    {
      "anonymous": false,
      "inputs": [
        {
          "indexed": false,
          "internalType": "address",
          "name": "buyer",
          "type": "address"
        },
        {
          "indexed": false,
          "internalType": "address",
          "name": "seller",
          "type": "address"
        },
        {
          "indexed": false,
          "internalType": "uint256",
          "name": "qty",
          "type": "uint256"
        }
      ],
      "name": "Deposit",
      "type": "event"
    },
    {
      "anonymous": false,
      "inputs": [
        {
          "indexed": false,
          "internalType": "address",
          "name": "buyer",
          "type": "address"
        },
        {
          "indexed": false,
          "internalType": "address",
          "name": "seller",
          "type": "address"
        },
        {
          "indexed": false,
          "internalType": "uint256",
          "name": "qty",
          "type": "uint256"
        }
      ],
      "name": "Release",
      "type": "event"
    },
    {
      "anonymous": false,
      "inputs": [
        {
          "indexed": false,
          "internalType": "address",
          "name": "buyer",
          "type": "address"
        },
        {
          "indexed": false,
          "internalType": "address",
          "name": "seller",
          "type": "address"
        },
        {
          "indexed": false,
          "internalType": "uint256",
          "name": "contractValueMin",
          "type": "uint256"
        },
        {
          "indexed": false,
          "internalType": "uint256",
          "name": "contractValueMax",
          "type": "uint256"
        }
      ],
      "name": "SellerSigned",
      "type": "event"
    },
    {
      "anonymous": false,
      "inputs": [
        {
          "indexed": false,
          "internalType": "address",
          "name": "buyer",
          "type": "address"
        },
        {
          "indexed": false,
          "internalType": "address",
          "name": "seller",
          "type": "address"
        },
        {
          "indexed": false,
          "internalType": "uint256",
          "name": "qty",
          "type": "uint256"
        }
      ],
      "name": "Unlock",
      "type": "event"
    },
    {
      "anonymous": false,
      "inputs": [
        {
          "indexed": false,
          "internalType": "address",
          "name": "buyer",
          "type": "address"
        },
        {
          "indexed": false,
          "internalType": "address",
          "name": "seller",
          "type": "address"
        },
        {
          "indexed": false,
          "internalType": "uint256",
          "name": "qty",
          "type": "uint256"
        }
      ],
      "name": "Withdraw",
      "type": "event"
    },
    {
      "inputs": [
        {
          "internalType": "uint256",
          "name": "quantity",
          "type": "uint256"
        },
        {
          "internalType": "uint256",
          "name": "price",
          "type": "uint256"
        }
      ],
      "name": "acceptHarvest",
      "outputs": [],
      "stateMutability": "nonpayable",
      "type": "function"
    },
    {
      "inputs": [
        {
          "internalType": "string",
          "name": "_uri",
          "type": "string"
        },
        {
          "internalType": "address",
          "name": "_recipient",
          "type": "address"
        },
        {
          "internalType": "uint256",
          "name": "_eventId",
          "type": "uint256"
        }
      ],
      "name": "addEvent",
      "outputs": [],
      "stateMutability": "nonpayable",
      "type": "function"
    },
    {
      "inputs": [
        {
          "internalType": "address",
          "name": "_farmer",
          "type": "address"
        },
        {
          "internalType": "address",
          "name": "_farmerContract",
          "type": "address"
        }
      ],
      "name": "addFarmer",
      "outputs": [],
      "stateMutability": "nonpayable",
      "type": "function"
    },
    {
      "inputs": [],
      "name": "adminSign",
      "outputs": [],
      "stateMutability": "nonpayable",
      "type": "function"
    },
    {
      "inputs": [
        {
          "internalType": "address",
          "name": "_unlocker",
          "type": "address"
        }
      ],
      "name": "assignUnlocker",
      "outputs": [],
      "stateMutability": "nonpayable",
      "type": "function"
    },
    {
      "inputs": [],
      "name": "buyerSign",
      "outputs": [],
      "stateMutability": "nonpayable",
      "type": "function"
    },
    {
      "inputs": [],
      "name": "cancel",
      "outputs": [],
      "stateMutability": "nonpayable",
      "type": "function"
    },
    {
      "inputs": [],
      "name": "details",
      "outputs": [
        {
          "internalType": "address",
          "name": "",
          "type": "address"
        },
        {
          "internalType": "address",
          "name": "",
          "type": "address"
        },
        {
          "internalType": "uint256",
          "name": "",
          "type": "uint256"
        },
        {
          "internalType": "uint256",
          "name": "",
          "type": "uint256"
        },
        {
          "internalType": "uint256",
          "name": "",
          "type": "uint256"
        },
        {
          "internalType": "uint256",
          "name": "",
          "type": "uint256"
        },
        {
          "internalType": "uint256",
          "name": "",
          "type": "uint256"
        }
      ],
      "stateMutability": "view",
      "type": "function"
    },
    {
      "inputs": [],
      "name": "finalPayment",
      "outputs": [
        {
          "internalType": "bool",
          "name": "",
          "type": "bool"
        }
      ],
      "stateMutability": "nonpayable",
      "type": "function"
    },
    {
      "inputs": [],
      "name": "getBuyer",
      "outputs": [
        {
          "internalType": "string",
          "name": "",
          "type": "string"
        },
        {
          "internalType": "address",
          "name": "",
          "type": "address"
        }
      ],
      "stateMutability": "view",
      "type": "function"
    },
    {
      "inputs": [],
      "name": "getContractValue",
      "outputs": [
        {
          "internalType": "uint256",
          "name": "",
          "type": "uint256"
        },
        {
          "internalType": "uint256",
          "name": "",
          "type": "uint256"
        }
      ],
      "stateMutability": "view",
      "type": "function"
    },
    {
      "inputs": [],
      "name": "getDetails2",
      "outputs": [
        {
          "components": [
            {
              "internalType": "string",
              "name": "productName",
              "type": "string"
            },
            {
              "internalType": "address",
              "name": "buyer",
              "type": "address"
            },
            {
              "internalType": "string",
              "name": "buyerName",
              "type": "string"
            },
            {
              "internalType": "address",
              "name": "seller",
              "type": "address"
            },
            {
              "internalType": "string",
              "name": "sellerName",
              "type": "string"
            },
            {
              "internalType": "uint256",
              "name": "estimatedYieldMin",
              "type": "uint256"
            },
            {
              "internalType": "uint256",
              "name": "estimatedYieldMax",
              "type": "uint256"
            },
            {
              "internalType": "uint256",
              "name": "tentativeYield",
              "type": "uint256"
            },
            {
              "internalType": "uint256",
              "name": "estimatedPriceMin",
              "type": "uint256"
            },
            {
              "internalType": "uint256",
              "name": "estimatedPriceMax",
              "type": "uint256"
            },
            {
              "internalType": "uint256",
              "name": "tentativePrice",
              "type": "uint256"
            },
            {
              "internalType": "uint256",
              "name": "releasedAmount",
              "type": "uint256"
            },
            {
              "internalType": "uint256",
              "name": "lockedAmount",
              "type": "uint256"
            },
            {
              "internalType": "address",
              "name": "contractNFT",
              "type": "address"
            },
            {
              "internalType": "uint256",
              "name": "contractValueMin",
              "type": "uint256"
            },
            {
              "internalType": "uint256",
              "name": "contractValueMax",
              "type": "uint256"
            },
            {
              "internalType": "bool",
              "name": "adminSigned",
              "type": "bool"
            },
            {
              "internalType": "bool",
              "name": "buyerSigned",
              "type": "bool"
            },
            {
              "internalType": "bool",
              "name": "sellerSigned",
              "type": "bool"
            }
          ],
          "internalType": "struct ContractDetails",
          "name": "",
          "type": "tuple"
        }
      ],
      "stateMutability": "view",
      "type": "function"
    },
    {
      "inputs": [],
      "name": "getProduct",
      "outputs": [
        {
          "internalType": "string",
          "name": "",
          "type": "string"
        },
        {
          "internalType": "uint256",
          "name": "",
          "type": "uint256"
        },
        {
          "internalType": "uint256",
          "name": "",
          "type": "uint256"
        },
        {
          "internalType": "uint256",
          "name": "",
          "type": "uint256"
        },
        {
          "internalType": "uint256",
          "name": "",
          "type": "uint256"
        }
      ],
      "stateMutability": "view",
      "type": "function"
    },
    {
      "inputs": [],
      "name": "getSeller",
      "outputs": [
        {
          "internalType": "string",
          "name": "",
          "type": "string"
        },
        {
          "internalType": "address",
          "name": "",
          "type": "address"
        }
      ],
      "stateMutability": "view",
      "type": "function"
    },
    {
      "inputs": [
        {
          "internalType": "address",
          "name": "_farmer",
          "type": "address"
        }
      ],
      "name": "lookupFarmerContract",
      "outputs": [
        {
          "internalType": "address",
          "name": "",
          "type": "address"
        }
      ],
      "stateMutability": "view",
      "type": "function"
    },
    {
      "inputs": [],
      "name": "makeDownpayment",
      "outputs": [
        {
          "internalType": "bool",
          "name": "",
          "type": "bool"
        }
      ],
      "stateMutability": "nonpayable",
      "type": "function"
    },
    {
      "inputs": [
        {
          "internalType": "uint256",
          "name": "_amount",
          "type": "uint256"
        }
      ],
      "name": "releaseAmount",
      "outputs": [
        {
          "internalType": "bool",
          "name": "",
          "type": "bool"
        }
      ],
      "stateMutability": "nonpayable",
      "type": "function"
    },
    {
      "inputs": [],
      "name": "sellerSign",
      "outputs": [],
      "stateMutability": "nonpayable",
      "type": "function"
    },
    {
      "inputs": [
        {
          "internalType": "address",
          "name": "_incentiveContract",
          "type": "address"
        }
      ],
      "name": "setIncentiveContract",
      "outputs": [],
      "stateMutability": "nonpayable",
      "type": "function"
    },
    {
      "inputs": [
        {
          "internalType": "address",
          "name": "_nftAddress",
          "type": "address"
        }
      ],
      "name": "setNFT",
      "outputs": [],
      "stateMutability": "nonpayable",
      "type": "function"
    },
    {
      "inputs": [
        {
          "internalType": "address",
          "name": "_farmer",
          "type": "address"
        },
        {
          "internalType": "uint256",
          "name": "quantity",
          "type": "uint256"
        },
        {
          "internalType": "uint256",
          "name": "price",
          "type": "uint256"
        }
      ],
      "name": "settleFarmer",
      "outputs": [],
      "stateMutability": "nonpayable",
      "type": "function"
    },
    {
      "inputs": [
        {
          "internalType": "enum IcsBuyerEventEnum",
          "name": "_event",
          "type": "uint8"
        }
      ],
      "name": "submitEvent",
      "outputs": [],
      "stateMutability": "nonpayable",
      "type": "function"
    },
    {
      "inputs": [
        {
          "internalType": "uint256",
          "name": "_amount",
          "type": "uint256"
        }
      ],
      "name": "unlockAmount",
      "outputs": [
        {
          "internalType": "bool",
          "name": "",
          "type": "bool"
        }
      ],
      "stateMutability": "nonpayable",
      "type": "function"
    },
    {
      "inputs": [],
      "name": "withdraw",
      "outputs": [
        {
          "internalType": "bool",
          "name": "",
          "type": "bool"
        }
      ],
      "stateMutability": "nonpayable",
      "type": "function"
    }
  ],
  "bytecode": "0x60806040526101f467ffffffffffffffff81111562000023576200002262000506565b5b604051908082528060200260200182016040528015620000525781602001602082028036833780820191505090505b50601690805190602001906200006a929190620003c7565b503480156200007857600080fd5b506040516200553a3803806200553a83398181016040528101906200009e919062000743565b8a8a8a8a8a8a8a8a8a8a8a60008110158015620000bc575061271081105b620000fe576040517f08c379a0000000000000000000000000000000000000000000000000000000008152600401620000f59062000934565b60405180910390fd5b89600490805190602001906200011692919062000456565b5033600160006101000a81548173ffffffffffffffffffffffffffffffffffffffff021916908373ffffffffffffffffffffffffffffffffffffffff160217905550600560009054906101000a900473ffffffffffffffffffffffffffffffffffffffff16600360006101000a81548173ffffffffffffffffffffffffffffffffffffffff021916908373ffffffffffffffffffffffffffffffffffffffff1602179055508a6000806101000a81548173ffffffffffffffffffffffffffffffffffffffff021916908373ffffffffffffffffffffffffffffffffffffffff16021790555086600560006101000a81548173ffffffffffffffffffffffffffffffffffffffff021916908373ffffffffffffffffffffffffffffffffffffffff16021790555088600690805190602001906200025492919062000456565b5087600890805190602001906200026d92919062000456565b5085600760006101000a81548173ffffffffffffffffffffffffffffffffffffffff021916908373ffffffffffffffffffffffffffffffffffffffff16021790555060006012819055506000601381905550806014819055508460098190555083600a8190555082600c8190555081600d81905550670de0b6b3a76400008386620002f9919062000985565b62000305919062000985565b601081905550670de0b6b3a7640000828562000322919062000985565b6200032e919062000985565b6011819055506000600f60016101000a81548160ff0219169083151502179055506000600f60026101000a81548160ff021916908315150217905550505050505050505050505033601560006101000a81548173ffffffffffffffffffffffffffffffffffffffff021916908373ffffffffffffffffffffffffffffffffffffffff160217905550505050505050505050505062000a4b565b82805482825590600052602060002090810192821562000443579160200282015b82811115620004425782518260006101000a81548173ffffffffffffffffffffffffffffffffffffffff021916908373ffffffffffffffffffffffffffffffffffffffff16021790555091602001919060010190620003e8565b5b509050620004529190620004e7565b5090565b828054620004649062000a15565b90600052602060002090601f016020900481019282620004885760008555620004d4565b82601f10620004a357805160ff1916838001178555620004d4565b82800160010185558215620004d4579182015b82811115620004d3578251825591602001919060010190620004b6565b5b509050620004e39190620004e7565b5090565b5b8082111562000502576000816000905550600101620004e8565b5090565b7f4e487b7100000000000000000000000000000000000000000000000000000000600052604160045260246000fd5b6000604051905090565b600080fd5b600080fd5b600073ffffffffffffffffffffffffffffffffffffffff82169050919050565b6000620005768262000549565b9050919050565b620005888162000569565b81146200059457600080fd5b50565b600081519050620005a8816200057d565b92915050565b600080fd5b600080fd5b6000601f19601f8301169050919050565b620005d482620005b8565b810181811067ffffffffffffffff82111715620005f657620005f562000506565b5b80604052505050565b60006200060b62000535565b9050620006198282620005c9565b919050565b600067ffffffffffffffff8211156200063c576200063b62000506565b5b6200064782620005b8565b9050602081019050919050565b60005b838110156200067457808201518184015260208101905062000657565b8381111562000684576000848401525b50505050565b6000620006a16200069b846200061e565b620005ff565b905082815260208101848484011115620006c057620006bf620005b3565b5b620006cd84828562000654565b509392505050565b600082601f830112620006ed57620006ec620005ae565b5b8151620006ff8482602086016200068a565b91505092915050565b6000819050919050565b6200071d8162000708565b81146200072957600080fd5b50565b6000815190506200073d8162000712565b92915050565b60008060008060008060008060008060006101608c8e0312156200076c576200076b6200053f565b5b60006200077c8e828f0162000597565b9b505060208c015167ffffffffffffffff811115620007a0576200079f62000544565b5b620007ae8e828f01620006d5565b9a505060408c015167ffffffffffffffff811115620007d257620007d162000544565b5b620007e08e828f01620006d5565b99505060608c015167ffffffffffffffff81111562000804576200080362000544565b5b620008128e828f01620006d5565b9850506080620008258e828f0162000597565b97505060a0620008388e828f0162000597565b96505060c06200084b8e828f016200072c565b95505060e06200085e8e828f016200072c565b945050610100620008728e828f016200072c565b935050610120620008868e828f016200072c565b9250506101406200089a8e828f016200072c565b9150509295989b509295989b9093969950565b600082825260208201905092915050565b7f496e76616c696420646f776e5061796d656e744270732c20706c65617365207060008201527f6173732070657263656e7461676520626173697320706f696e74730000000000602082015250565b60006200091c603b83620008ad565b91506200092982620008be565b604082019050919050565b600060208201905081810360008301526200094f816200090d565b9050919050565b7f4e487b7100000000000000000000000000000000000000000000000000000000600052601160045260246000fd5b6000620009928262000708565b91506200099f8362000708565b9250817fffffffffffffffffffffffffffffffffffffffffffffffffffffffffffffffff0483118215151615620009db57620009da62000956565b5b828202905092915050565b7f4e487b7100000000000000000000000000000000000000000000000000000000600052602260045260246000fd5b6000600282049050600182168062000a2e57607f821691505b6020821081141562000a455762000a44620009e6565b5b50919050565b614adf8062000a5b6000396000f3fe608060405234801561001057600080fd5b50600436106101585760003560e01c8063807b5d29116100c3578063dbd0e1b61161007c578063dbd0e1b614610374578063dc82697c14610393578063e1cbf4b1146103b2578063ea8a1af0146103ce578063f56e9c66146103d8578063fa5b501d146103f457610158565b8063807b5d29146102d857806396a69f43146102e2578063a513de6914610300578063b6a5c5b51461030a578063c011bf161461033a578063da3857561461035657610158565b80634ba20050116101155780634ba20050146102095780634cd2c09a1461022b578063565974d31461025b5780635ebe25141461027f578063603daf9a1461029d5780636061e6b7146102bc57610158565b8063046a2fdd1461015d578063078182001461016757806309f3ec52146101835780632278f36b1461019f57806329a19edb146101cf5780633ccfd60b146101eb575b600080fd5b610165610410565b005b610181600480360381019061017c91906133f2565b61078b565b005b61019d60048036038101906101989190613444565b61085f565b005b6101b960048036038101906101b491906134a7565b610ae2565b6040516101c691906134ef565b60405180910390f35b6101e960048036038101906101e49190613650565b610c03565b005b6101f3610d2f565b60405161020091906134ef565b60405180910390f35b610211611063565b604051610222959493929190613756565b60405180910390f35b610245600480360381019061024091906134a7565b611116565b60405161025291906134ef565b60405180910390f35b61026361131c565b60405161027697969594939291906137bf565b60405180910390f35b610287611444565b60405161029491906134ef565b60405180910390f35b6102a5611562565b6040516102b392919061382e565b60405180910390f35b6102d660048036038101906102d1919061385e565b61161f565b005b6102e0611922565b005b6102ea611a78565b6040516102f79190613acd565b60405180910390f35b610308611a8d565b005b610324600480360381019061031f91906133f2565b611bbf565b6040516103319190613aef565b60405180910390f35b610354600480360381019061034f91906133f2565b611cb8565b005b61035e611cfc565b60405161036b91906134ef565b60405180910390f35b61037c611f4f565b60405161038a92919061382e565b60405180910390f35b61039b61200c565b6040516103a9929190613b0a565b60405180910390f35b6103cc60048036038101906103c79190613b33565b61201d565b005b6103d6612283565b005b6103f260048036038101906103ed91906133f2565b612523565b005b61040e60048036038101906104099190613b73565b6125f7565b005b600560009054906101000a900473ffffffffffffffffffffffffffffffffffffffff1673ffffffffffffffffffffffffffffffffffffffff163373ffffffffffffffffffffffffffffffffffffffff16146104a0576040517f08c379a000000000000000000000000000000000000000000000000000000000815260040161049790613bff565b60405180910390fd5b60008060009054906101000a900473ffffffffffffffffffffffffffffffffffffffff16905060008173ffffffffffffffffffffffffffffffffffffffff166370a08231600560009054906101000a900473ffffffffffffffffffffffffffffffffffffffff166040518263ffffffff1660e01b81526004016105239190613aef565b60206040518083038186803b15801561053b57600080fd5b505afa15801561054f573d6000803e3d6000fd5b505050506040513d601f19601f820116820180604052508101906105739190613c34565b90506011548110156105ba576040517f08c379a00000000000000000000000000000000000000000000000000000000081526004016105b190613cd3565b60405180910390fd5b6001600f60016101000a81548160ff021916908315150217905550806012819055507fca509163edfc238d34e4ef84d235590fe07508a67a58fa10a2a30ba245252f6a600560009054906101000a900473ffffffffffffffffffffffffffffffffffffffff16600760009054906101000a900473ffffffffffffffffffffffffffffffffffffffff166010546011546040516106599493929190613cf3565b60405180910390a160008273ffffffffffffffffffffffffffffffffffffffff1663dd62ed3e33306040518363ffffffff1660e01b815260040161069e929190613d38565b60206040518083038186803b1580156106b657600080fd5b505afa1580156106ca573d6000803e3d6000fd5b505050506040513d601f19601f820116820180604052508101906106ee9190613c34565b9050601154811015610735576040517f08c379a000000000000000000000000000000000000000000000000000000000815260040161072c90613df9565b60405180910390fd5b610786600560009054906101000a900473ffffffffffffffffffffffffffffffffffffffff16306011548673ffffffffffffffffffffffffffffffffffffffff166127f3909392919063ffffffff16565b505050565b601560009054906101000a900473ffffffffffffffffffffffffffffffffffffffff1673ffffffffffffffffffffffffffffffffffffffff163373ffffffffffffffffffffffffffffffffffffffff161461081b576040517f08c379a000000000000000000000000000000000000000000000000000000000815260040161081290613e65565b60405180910390fd5b80601860006101000a81548173ffffffffffffffffffffffffffffffffffffffff021916908373ffffffffffffffffffffffffffffffffffffffff16021790555050565b600560009054906101000a900473ffffffffffffffffffffffffffffffffffffffff1673ffffffffffffffffffffffffffffffffffffffff163373ffffffffffffffffffffffffffffffffffffffff16146108ef576040517f08c379a00000000000000000000000000000000000000000000000000000000081526004016108e690613bff565b60405180910390fd5b60006019600083600281111561090857610907613e85565b5b600281111561091a57610919613e85565b5b8152602001908152602001600020549050600081141561093a5750610adf565b60008060009054906101000a900473ffffffffffffffffffffffffffffffffffffffff16905060008173ffffffffffffffffffffffffffffffffffffffff166370a08231306040518263ffffffff1660e01b815260040161099b9190613aef565b60206040518083038186803b1580156109b357600080fd5b505afa1580156109c7573d6000803e3d6000fd5b505050506040513d601f19601f820116820180604052508101906109eb9190613c34565b9050600061271060105485610a009190613ee3565b610a0a9190613f6c565b9050818110610a4e576040517f08c379a0000000000000000000000000000000000000000000000000000000008152600401610a4590613fe9565b60405180910390fd5b3073ffffffffffffffffffffffffffffffffffffffff16632278f36b826040518263ffffffff1660e01b8152600401610a879190614009565b602060405180830381600087803b158015610aa157600080fd5b505af1158015610ab5573d6000803e3d6000fd5b505050506040513d601f19601f82011682018060405250810190610ad99190614050565b50505050505b50565b6000600560009054906101000a900473ffffffffffffffffffffffffffffffffffffffff1673ffffffffffffffffffffffffffffffffffffffff163373ffffffffffffffffffffffffffffffffffffffff1614610b74576040517f08c379a0000000000000000000000000000000000000000000000000000000008152600401610b6b90613bff565b60405180910390fd5b600f60009054906101000a900460ff168015610b9c5750600f60019054906101000a900460ff165b8015610bb45750600f60029054906101000a900460ff165b610bf3576040517f08c379a0000000000000000000000000000000000000000000000000000000008152600401610bea906140c9565b60405180910390fd5b610bfc8261287c565b9050919050565b601560009054906101000a900473ffffffffffffffffffffffffffffffffffffffff1673ffffffffffffffffffffffffffffffffffffffff163373ffffffffffffffffffffffffffffffffffffffff1614610c93576040517f08c379a0000000000000000000000000000000000000000000000000000000008152600401610c8a90613e65565b60405180910390fd5b6000601860009054906101000a900473ffffffffffffffffffffffffffffffffffffffff1690508073ffffffffffffffffffffffffffffffffffffffff166329a19edb8585856040518463ffffffff1660e01b8152600401610cf7939291906140e9565b600060405180830381600087803b158015610d1157600080fd5b505af1158015610d25573d6000803e3d6000fd5b5050505050505050565b6000600760009054906101000a900473ffffffffffffffffffffffffffffffffffffffff1673ffffffffffffffffffffffffffffffffffffffff163373ffffffffffffffffffffffffffffffffffffffff1614610dc1576040517f08c379a0000000000000000000000000000000000000000000000000000000008152600401610db890614173565b60405180910390fd5b600f60009054906101000a900460ff168015610de95750600f60019054906101000a900460ff165b8015610e015750600f60029054906101000a900460ff165b610e40576040517f08c379a0000000000000000000000000000000000000000000000000000000008152600401610e37906140c9565b60405180910390fd5b60008060009054906101000a900473ffffffffffffffffffffffffffffffffffffffff16905060008173ffffffffffffffffffffffffffffffffffffffff166370a08231306040518263ffffffff1660e01b8152600401610ea19190613aef565b60206040518083038186803b158015610eb957600080fd5b505afa158015610ecd573d6000803e3d6000fd5b505050506040513d601f19601f82011682018060405250810190610ef19190613c34565b9050806012541115610f38576040517f08c379a0000000000000000000000000000000000000000000000000000000008152600401610f2f90614205565b60405180910390fd5b600060125482610f489190614225565b905060008111610f8d576040517f08c379a0000000000000000000000000000000000000000000000000000000008152600401610f8490613fe9565b60405180910390fd5b610fda600760009054906101000a900473ffffffffffffffffffffffffffffffffffffffff16828573ffffffffffffffffffffffffffffffffffffffff16612ac29092919063ffffffff16565b7f9b1bfa7fa9ee420a16e124f794c35ac9f90472acc99140eb2f6447c714cad8eb600560009054906101000a900473ffffffffffffffffffffffffffffffffffffffff16600760009054906101000a900473ffffffffffffffffffffffffffffffffffffffff168360405161105193929190614259565b60405180910390a16001935050505090565b60606000806000806004600954600a54600c54600d54848054611085906142bf565b80601f01602080910402602001604051908101604052809291908181526020018280546110b1906142bf565b80156110fe5780601f106110d3576101008083540402835291602001916110fe565b820191906000526020600020905b8154815290600101906020018083116110e157829003601f168201915b50505050509450945094509450945094509091929394565b6000600360009054906101000a900473ffffffffffffffffffffffffffffffffffffffff1673ffffffffffffffffffffffffffffffffffffffff163373ffffffffffffffffffffffffffffffffffffffff16146111a8576040517f08c379a000000000000000000000000000000000000000000000000000000000815260040161119f9061433d565b60405180910390fd5b600f60009054906101000a900460ff1680156111d05750600f60019054906101000a900460ff165b80156111e85750600f60029054906101000a900460ff165b611227576040517f08c379a000000000000000000000000000000000000000000000000000000000815260040161121e906140c9565b60405180910390fd5b60135482111561126c576040517f08c379a0000000000000000000000000000000000000000000000000000000008152600401611263906143cf565b60405180910390fd5b8160125461127a9190614225565b6012819055508160135461128e9190614225565b6013819055507fc1c90b8e0705b212262c0dbd7580efe1862c2f185bf96899226f7596beb2db09600560009054906101000a900473ffffffffffffffffffffffffffffffffffffffff16600760009054906101000a900473ffffffffffffffffffffffffffffffffffffffff168460405161130b93929190614259565b60405180910390a160019050919050565b60008060008060008060008060008054906101000a900473ffffffffffffffffffffffffffffffffffffffff16905060008173ffffffffffffffffffffffffffffffffffffffff166370a08231306040518263ffffffff1660e01b81526004016113869190613aef565b60206040518083038186803b15801561139e57600080fd5b505afa1580156113b2573d6000803e3d6000fd5b505050506040513d601f19601f820116820180604052508101906113d69190613c34565b9050600560009054906101000a900473ffffffffffffffffffffffffffffffffffffffff16600760009054906101000a900473ffffffffffffffffffffffffffffffffffffffff16601054601154846013546012549850985098509850985098509850505090919293949596565b6000600560009054906101000a900473ffffffffffffffffffffffffffffffffffffffff1673ffffffffffffffffffffffffffffffffffffffff163373ffffffffffffffffffffffffffffffffffffffff16146114d6576040517f08c379a00000000000000000000000000000000000000000000000000000000081526004016114cd90613bff565b60405180910390fd5b600f60009054906101000a900460ff1680156114fe5750600f60019054906101000a900460ff165b80156115165750600f60029054906101000a900460ff165b611555576040517f08c379a000000000000000000000000000000000000000000000000000000000815260040161154c906140c9565b60405180910390fd5b61155d612b48565b905090565b606060006006600560009054906101000a900473ffffffffffffffffffffffffffffffffffffffff16818054611597906142bf565b80601f01602080910402602001604051908101604052809291908181526020018280546115c3906142bf565b80156116105780601f106115e557610100808354040283529160200191611610565b820191906000526020600020905b8154815290600101906020018083116115f357829003601f168201915b50505050509150915091509091565b600760009054906101000a900473ffffffffffffffffffffffffffffffffffffffff1673ffffffffffffffffffffffffffffffffffffffff163373ffffffffffffffffffffffffffffffffffffffff16146116af576040517f08c379a00000000000000000000000000000000000000000000000000000000081526004016116a69061443b565b60405180910390fd5b6000601760008573ffffffffffffffffffffffffffffffffffffffff1673ffffffffffffffffffffffffffffffffffffffff16815260200190815260200160002060009054906101000a900473ffffffffffffffffffffffffffffffffffffffff16905060008190506000808273ffffffffffffffffffffffffffffffffffffffff1663dc82697c6040518163ffffffff1660e01b8152600401604080518083038186803b15801561176057600080fd5b505afa158015611774573d6000803e3d6000fd5b505050506040513d601f19601f82011682018060405250810190611798919061445b565b9150915060008060008060008060008973ffffffffffffffffffffffffffffffffffffffff1663565974d36040518163ffffffff1660e01b815260040160e06040518083038186803b1580156117ed57600080fd5b505afa158015611801573d6000803e3d6000fd5b505050506040513d601f19601f8201168201806040525081019061182591906144b0565b965096509650965096509650965060008c8e6118419190613ee3565b9050838110611885576040517f08c379a000000000000000000000000000000000000000000000000000000000815260040161187c906145c4565b60405180910390fd5b8a73ffffffffffffffffffffffffffffffffffffffff16632278f36b826040518263ffffffff1660e01b81526004016118be9190614009565b602060405180830381600087803b1580156118d857600080fd5b505af11580156118ec573d6000803e3d6000fd5b505050506040513d601f19601f820116820180604052508101906119109190614050565b50505050505050505050505050505050565b600160009054906101000a900473ffffffffffffffffffffffffffffffffffffffff1673ffffffffffffffffffffffffffffffffffffffff163373ffffffffffffffffffffffffffffffffffffffff16146119b2576040517f08c379a00000000000000000000000000000000000000000000000000000000081526004016119a990614656565b60405180910390fd5b6001600f60006101000a81548160ff0219169083151502179055507f2d02a8006c04b9bb35fcf84fbe0c3a2eebc574698ed7716c9f67b0f67244b6f5600160009054906101000a900473ffffffffffffffffffffffffffffffffffffffff16600560009054906101000a900473ffffffffffffffffffffffffffffffffffffffff16600760009054906101000a900473ffffffffffffffffffffffffffffffffffffffff16601054601154604051611a6e959493929190614676565b60405180910390a1565b611a806132a6565b611a88612cfb565b905090565b600760009054906101000a900473ffffffffffffffffffffffffffffffffffffffff1673ffffffffffffffffffffffffffffffffffffffff163373ffffffffffffffffffffffffffffffffffffffff1614611b1d576040517f08c379a0000000000000000000000000000000000000000000000000000000008152600401611b1490614173565b60405180910390fd5b6001600f60026101000a81548160ff0219169083151502179055507f2e4ddfb651f821a25a38775d9a40cd48df71699988424942de2b58a490463f0f600560009054906101000a900473ffffffffffffffffffffffffffffffffffffffff16600760009054906101000a900473ffffffffffffffffffffffffffffffffffffffff16601054601154604051611bb59493929190613cf3565b60405180910390a1565b6000601560009054906101000a900473ffffffffffffffffffffffffffffffffffffffff1673ffffffffffffffffffffffffffffffffffffffff163373ffffffffffffffffffffffffffffffffffffffff1614611c51576040517f08c379a0000000000000000000000000000000000000000000000000000000008152600401611c4890613e65565b60405180910390fd5b601760008373ffffffffffffffffffffffffffffffffffffffff1673ffffffffffffffffffffffffffffffffffffffff16815260200190815260200160002060009054906101000a900473ffffffffffffffffffffffffffffffffffffffff169050919050565b80600360006101000a81548173ffffffffffffffffffffffffffffffffffffffff021916908373ffffffffffffffffffffffffffffffffffffffff16021790555050565b6000600560009054906101000a900473ffffffffffffffffffffffffffffffffffffffff1673ffffffffffffffffffffffffffffffffffffffff163373ffffffffffffffffffffffffffffffffffffffff1614611d8e576040517f08c379a0000000000000000000000000000000000000000000000000000000008152600401611d8590613bff565b60405180910390fd5b600f60009054906101000a900460ff168015611db65750600f60019054906101000a900460ff165b8015611dce5750600f60029054906101000a900460ff165b611e0d576040517f08c379a0000000000000000000000000000000000000000000000000000000008152600401611e04906140c9565b60405180910390fd5b60008060009054906101000a900473ffffffffffffffffffffffffffffffffffffffff16905060008173ffffffffffffffffffffffffffffffffffffffff166370a08231306040518263ffffffff1660e01b8152600401611e6e9190613aef565b60206040518083038186803b158015611e8657600080fd5b505afa158015611e9a573d6000803e3d6000fd5b505050506040513d601f19601f82011682018060405250810190611ebe9190613c34565b9050806013819055507fcb54aad3bd772fcfe1bc124e01bd1a91a91c9d80126d8b3014c4d9e687d5ca48600560009054906101000a900473ffffffffffffffffffffffffffffffffffffffff16600760009054906101000a900473ffffffffffffffffffffffffffffffffffffffff1683604051611f3e93929190614259565b60405180910390a160019250505090565b606060006008600760009054906101000a900473ffffffffffffffffffffffffffffffffffffffff16818054611f84906142bf565b80601f0160208091040260200160405190810160405280929190818152602001828054611fb0906142bf565b8015611ffd5780601f10611fd257610100808354040283529160200191611ffd565b820191906000526020600020905b815481529060010190602001808311611fe057829003601f168201915b50505050509150915091509091565b600080601054601154915091509091565b601560009054906101000a900473ffffffffffffffffffffffffffffffffffffffff1673ffffffffffffffffffffffffffffffffffffffff163373ffffffffffffffffffffffffffffffffffffffff16146120ad576040517f08c379a00000000000000000000000000000000000000000000000000000000081526004016120a490613e65565b60405180910390fd5b60008190503073ffffffffffffffffffffffffffffffffffffffff168173ffffffffffffffffffffffffffffffffffffffff1663f11777126040518163ffffffff1660e01b815260040160206040518083038186803b15801561210f57600080fd5b505afa158015612123573d6000803e3d6000fd5b505050506040513d601f19601f8201168201806040525081019061214791906146c9565b73ffffffffffffffffffffffffffffffffffffffff161461219d576040517f08c379a000000000000000000000000000000000000000000000000000000000815260040161219490614768565b60405180910390fd5b6016839080600181540180825580915050600190039060005260206000200160009091909190916101000a81548173ffffffffffffffffffffffffffffffffffffffff021916908373ffffffffffffffffffffffffffffffffffffffff16021790555081601760008573ffffffffffffffffffffffffffffffffffffffff1673ffffffffffffffffffffffffffffffffffffffff16815260200190815260200160002060006101000a81548173ffffffffffffffffffffffffffffffffffffffff021916908373ffffffffffffffffffffffffffffffffffffffff160217905550505050565b600160009054906101000a900473ffffffffffffffffffffffffffffffffffffffff1673ffffffffffffffffffffffffffffffffffffffff163373ffffffffffffffffffffffffffffffffffffffff1614612313576040517f08c379a000000000000000000000000000000000000000000000000000000000815260040161230a90614656565b60405180910390fd5b600f60009054906101000a900460ff16801561233b5750600f60019054906101000a900460ff165b80156123535750600f60029054906101000a900460ff165b612392576040517f08c379a0000000000000000000000000000000000000000000000000000000008152600401612389906140c9565b60405180910390fd5b60008060009054906101000a900473ffffffffffffffffffffffffffffffffffffffff16905060008173ffffffffffffffffffffffffffffffffffffffff166370a08231306040518263ffffffff1660e01b81526004016123f39190613aef565b60206040518083038186803b15801561240b57600080fd5b505afa15801561241f573d6000803e3d6000fd5b505050506040513d601f19601f820116820180604052508101906124439190613c34565b9050612492600560009054906101000a900473ffffffffffffffffffffffffffffffffffffffff16828473ffffffffffffffffffffffffffffffffffffffff16612ac29092919063ffffffff16565b600060128190555060006013819055507f50d9aca76814f78d884b23d6acf60b8e4a0404b5bfd5fe15fae3cc9d874eb949600560009054906101000a900473ffffffffffffffffffffffffffffffffffffffff16600760009054906101000a900473ffffffffffffffffffffffffffffffffffffffff16604051612517929190613d38565b60405180910390a15050565b600160009054906101000a900473ffffffffffffffffffffffffffffffffffffffff1673ffffffffffffffffffffffffffffffffffffffff163373ffffffffffffffffffffffffffffffffffffffff16146125b3576040517f08c379a00000000000000000000000000000000000000000000000000000000081526004016125aa90614656565b60405180910390fd5b80600260006101000a81548173ffffffffffffffffffffffffffffffffffffffff021916908373ffffffffffffffffffffffffffffffffffffffff16021790555050565b600560009054906101000a900473ffffffffffffffffffffffffffffffffffffffff1673ffffffffffffffffffffffffffffffffffffffff163373ffffffffffffffffffffffffffffffffffffffff1614612687576040517f08c379a000000000000000000000000000000000000000000000000000000000815260040161267e90613bff565b60405180910390fd5b6000670de0b6b3a7640000828461269e9190613ee3565b6126a89190613ee3565b905060008060009054906101000a900473ffffffffffffffffffffffffffffffffffffffff16905060008173ffffffffffffffffffffffffffffffffffffffff166370a08231306040518263ffffffff1660e01b815260040161270b9190613aef565b60206040518083038186803b15801561272357600080fd5b505afa158015612737573d6000803e3d6000fd5b505050506040513d601f19601f8201168201806040525081019061275b9190613c34565b905080831061279f576040517f08c379a0000000000000000000000000000000000000000000000000000000008152600401612796906147fa565b60405180910390fd5b6127ec600760009054906101000a900473ffffffffffffffffffffffffffffffffffffffff16848473ffffffffffffffffffffffffffffffffffffffff16612ac29092919063ffffffff16565b5050505050565b612876846323b872dd60e01b85858560405160240161281493929190614259565b604051602081830303815290604052907bffffffffffffffffffffffffffffffffffffffffffffffffffffffff19166020820180517bffffffffffffffffffffffffffffffffffffffffffffffffffffffff8381831617835250505050613011565b50505050565b60008060008054906101000a900473ffffffffffffffffffffffffffffffffffffffff16905060008173ffffffffffffffffffffffffffffffffffffffff166370a08231306040518263ffffffff1660e01b81526004016128dd9190613aef565b60206040518083038186803b1580156128f557600080fd5b505afa158015612909573d6000803e3d6000fd5b505050506040513d601f19601f8201168201806040525081019061292d9190613c34565b90508360135461293d919061481a565b6013819055506000601254826129539190614225565b9050808510612997576040517f08c379a000000000000000000000000000000000000000000000000000000000815260040161298e90613fe9565b60405180910390fd5b846012546129a59190614225565b6012819055507fcb54aad3bd772fcfe1bc124e01bd1a91a91c9d80126d8b3014c4d9e687d5ca48600560009054906101000a900473ffffffffffffffffffffffffffffffffffffffff16600760009054906101000a900473ffffffffffffffffffffffffffffffffffffffff1687604051612a2293929190614259565b60405180910390a13073ffffffffffffffffffffffffffffffffffffffff16634cd2c09a866040518263ffffffff1660e01b8152600401612a639190614009565b602060405180830381600087803b158015612a7d57600080fd5b505af1158015612a91573d6000803e3d6000fd5b505050506040513d601f19601f82011682018060405250810190612ab59190614050565b5060019350505050919050565b612b438363a9059cbb60e01b8484604051602401612ae1929190614870565b604051602081830303815290604052907bffffffffffffffffffffffffffffffffffffffffffffffffffffffff19166020820180517bffffffffffffffffffffffffffffffffffffffffffffffffffffffff8381831617835250505050613011565b505050565b60008060008054906101000a900473ffffffffffffffffffffffffffffffffffffffff16905060008173ffffffffffffffffffffffffffffffffffffffff166370a08231306040518263ffffffff1660e01b8152600401612ba99190613aef565b60206040518083038186803b158015612bc157600080fd5b505afa158015612bd5573d6000803e3d6000fd5b505050506040513d601f19601f82011682018060405250810190612bf99190613c34565b90506000612710601054601454612c109190613ee3565b612c1a9190613f6c565b9050818110612c5e576040517f08c379a0000000000000000000000000000000000000000000000000000000008152600401612c5590613fe9565b60405180910390fd5b80601354612c6c919061481a565b6013819055507fcb54aad3bd772fcfe1bc124e01bd1a91a91c9d80126d8b3014c4d9e687d5ca48600560009054906101000a900473ffffffffffffffffffffffffffffffffffffffff16600760009054906101000a900473ffffffffffffffffffffffffffffffffffffffff1683604051612ce993929190614259565b60405180910390a16001935050505090565b612d036132a6565b60405180610260016040528060048054612d1c906142bf565b80601f0160208091040260200160405190810160405280929190818152602001828054612d48906142bf565b8015612d955780601f10612d6a57610100808354040283529160200191612d95565b820191906000526020600020905b815481529060010190602001808311612d7857829003601f168201915b50505050508152602001600560009054906101000a900473ffffffffffffffffffffffffffffffffffffffff1673ffffffffffffffffffffffffffffffffffffffff16815260200160068054612dea906142bf565b80601f0160208091040260200160405190810160405280929190818152602001828054612e16906142bf565b8015612e635780601f10612e3857610100808354040283529160200191612e63565b820191906000526020600020905b815481529060010190602001808311612e4657829003601f168201915b50505050508152602001600760009054906101000a900473ffffffffffffffffffffffffffffffffffffffff1673ffffffffffffffffffffffffffffffffffffffff16815260200160088054612eb8906142bf565b80601f0160208091040260200160405190810160405280929190818152602001828054612ee4906142bf565b8015612f315780601f10612f0657610100808354040283529160200191612f31565b820191906000526020600020905b815481529060010190602001808311612f1457829003601f168201915b505050505081526020016009548152602001600a548152602001600b548152602001600c548152602001600d548152602001600e54815260200160135481526020016012548152602001600260009054906101000a900473ffffffffffffffffffffffffffffffffffffffff1673ffffffffffffffffffffffffffffffffffffffff16815260200160105481526020016011548152602001600f60009054906101000a900460ff1615158152602001600f60019054906101000a900460ff1615158152602001600f60029054906101000a900460ff161515815250905090565b6000613073826040518060400160405280602081526020017f5361666545524332303a206c6f772d6c6576656c2063616c6c206661696c65648152508573ffffffffffffffffffffffffffffffffffffffff166130d89092919063ffffffff16565b90506000815111156130d357808060200190518101906130939190614050565b6130d2576040517f08c379a00000000000000000000000000000000000000000000000000000000081526004016130c99061490b565b60405180910390fd5b5b505050565b60606130e784846000856130f0565b90509392505050565b606082471015613135576040517f08c379a000000000000000000000000000000000000000000000000000000000815260040161312c9061499d565b60405180910390fd5b6000808673ffffffffffffffffffffffffffffffffffffffff16858760405161315e9190614a04565b60006040518083038185875af1925050503d806000811461319b576040519150601f19603f3d011682016040523d82523d6000602084013e6131a0565b606091505b50915091506131b1878383876131bd565b92505050949350505050565b6060831561322057600083511415613218576131d885613233565b613217576040517f08c379a000000000000000000000000000000000000000000000000000000000815260040161320e90614a67565b60405180910390fd5b5b82905061322b565b61322a8383613256565b5b949350505050565b6000808273ffffffffffffffffffffffffffffffffffffffff163b119050919050565b6000825111156132695781518083602001fd5b806040517f08c379a000000000000000000000000000000000000000000000000000000000815260040161329d9190614a87565b60405180910390fd5b60405180610260016040528060608152602001600073ffffffffffffffffffffffffffffffffffffffff16815260200160608152602001600073ffffffffffffffffffffffffffffffffffffffff168152602001606081526020016000815260200160008152602001600081526020016000815260200160008152602001600081526020016000815260200160008152602001600073ffffffffffffffffffffffffffffffffffffffff16815260200160008152602001600081526020016000151581526020016000151581526020016000151581525090565b6000604051905090565b600080fd5b600080fd5b600073ffffffffffffffffffffffffffffffffffffffff82169050919050565b60006133bf82613394565b9050919050565b6133cf816133b4565b81146133da57600080fd5b50565b6000813590506133ec816133c6565b92915050565b6000602082840312156134085761340761338a565b5b6000613416848285016133dd565b91505092915050565b6003811061342c57600080fd5b50565b60008135905061343e8161341f565b92915050565b60006020828403121561345a5761345961338a565b5b60006134688482850161342f565b91505092915050565b6000819050919050565b61348481613471565b811461348f57600080fd5b50565b6000813590506134a18161347b565b92915050565b6000602082840312156134bd576134bc61338a565b5b60006134cb84828501613492565b91505092915050565b60008115159050919050565b6134e9816134d4565b82525050565b600060208201905061350460008301846134e0565b92915050565b600080fd5b600080fd5b6000601f19601f8301169050919050565b7f4e487b7100000000000000000000000000000000000000000000000000000000600052604160045260246000fd5b61355d82613514565b810181811067ffffffffffffffff8211171561357c5761357b613525565b5b80604052505050565b600061358f613380565b905061359b8282613554565b919050565b600067ffffffffffffffff8211156135bb576135ba613525565b5b6135c482613514565b9050602081019050919050565b82818337600083830152505050565b60006135f36135ee846135a0565b613585565b90508281526020810184848401111561360f5761360e61350f565b5b61361a8482856135d1565b509392505050565b600082601f8301126136375761363661350a565b5b81356136478482602086016135e0565b91505092915050565b6000806000606084860312156136695761366861338a565b5b600084013567ffffffffffffffff8111156136875761368661338f565b5b61369386828701613622565b93505060206136a4868287016133dd565b92505060406136b586828701613492565b9150509250925092565b600081519050919050565b600082825260208201905092915050565b60005b838110156136f95780820151818401526020810190506136de565b83811115613708576000848401525b50505050565b6000613719826136bf565b61372381856136ca565b93506137338185602086016136db565b61373c81613514565b840191505092915050565b61375081613471565b82525050565b600060a0820190508181036000830152613770818861370e565b905061377f6020830187613747565b61378c6040830186613747565b6137996060830185613747565b6137a66080830184613747565b9695505050505050565b6137b9816133b4565b82525050565b600060e0820190506137d4600083018a6137b0565b6137e160208301896137b0565b6137ee6040830188613747565b6137fb6060830187613747565b6138086080830186613747565b61381560a0830185613747565b61382260c0830184613747565b98975050505050505050565b60006040820190508181036000830152613848818561370e565b905061385760208301846137b0565b9392505050565b6000806000606084860312156138775761387661338a565b5b6000613885868287016133dd565b935050602061389686828701613492565b92505060406138a786828701613492565b9150509250925092565b600082825260208201905092915050565b60006138cd826136bf565b6138d781856138b1565b93506138e78185602086016136db565b6138f081613514565b840191505092915050565b613904816133b4565b82525050565b61391381613471565b82525050565b613922816134d4565b82525050565b600061026083016000830151848203600086015261394682826138c2565b915050602083015161395b60208601826138fb565b506040830151848203604086015261397382826138c2565b915050606083015161398860608601826138fb565b50608083015184820360808601526139a082826138c2565b91505060a08301516139b560a086018261390a565b5060c08301516139c860c086018261390a565b5060e08301516139db60e086018261390a565b506101008301516139f061010086018261390a565b50610120830151613a0561012086018261390a565b50610140830151613a1a61014086018261390a565b50610160830151613a2f61016086018261390a565b50610180830151613a4461018086018261390a565b506101a0830151613a596101a08601826138fb565b506101c0830151613a6e6101c086018261390a565b506101e0830151613a836101e086018261390a565b50610200830151613a98610200860182613919565b50610220830151613aad610220860182613919565b50610240830151613ac2610240860182613919565b508091505092915050565b60006020820190508181036000830152613ae78184613928565b905092915050565b6000602082019050613b0460008301846137b0565b92915050565b6000604082019050613b1f6000830185613747565b613b2c6020830184613747565b9392505050565b60008060408385031215613b4a57613b4961338a565b5b6000613b58858286016133dd565b9250506020613b69858286016133dd565b9150509250929050565b60008060408385031215613b8a57613b8961338a565b5b6000613b9885828601613492565b9250506020613ba985828601613492565b9150509250929050565b7f4f6e6c792062757965722063616e2072656c656173652066756e64732e000000600082015250565b6000613be9601d836136ca565b9150613bf482613bb3565b602082019050919050565b60006020820190508181036000830152613c1881613bdc565b9050919050565b600081519050613c2e8161347b565b92915050565b600060208284031215613c4a57613c4961338a565b5b6000613c5884828501613c1f565b91505092915050565b7f496e73756666696369656e7420746f6b656e7320666f72207369676e696e672060008201527f636f6e7472616374000000000000000000000000000000000000000000000000602082015250565b6000613cbd6028836136ca565b9150613cc882613c61565b604082019050919050565b60006020820190508181036000830152613cec81613cb0565b9050919050565b6000608082019050613d0860008301876137b0565b613d1560208301866137b0565b613d226040830185613747565b613d2f6060830184613747565b95945050505050565b6000604082019050613d4d60008301856137b0565b613d5a60208301846137b0565b9392505050565b7f43616e206e6f74207472616e7366657220746f6b656e7320696e746f20636f6e60008201527f74726163742e20496e73756666696369656e7420746f6b656e20616c6c6f776160208201527f6e63650000000000000000000000000000000000000000000000000000000000604082015250565b6000613de36043836136ca565b9150613dee82613d61565b606082019050919050565b60006020820190508181036000830152613e1281613dd6565b9050919050565b7f4f6e6c79206f776e65727320616c6c6f7765642e000000000000000000000000600082015250565b6000613e4f6014836136ca565b9150613e5a82613e19565b602082019050919050565b60006020820190508181036000830152613e7e81613e42565b9050919050565b7f4e487b7100000000000000000000000000000000000000000000000000000000600052602160045260246000fd5b7f4e487b7100000000000000000000000000000000000000000000000000000000600052601160045260246000fd5b6000613eee82613471565b9150613ef983613471565b9250817fffffffffffffffffffffffffffffffffffffffffffffffffffffffffffffffff0483118215151615613f3257613f31613eb4565b5b828202905092915050565b7f4e487b7100000000000000000000000000000000000000000000000000000000600052601260045260246000fd5b6000613f7782613471565b9150613f8283613471565b925082613f9257613f91613f3d565b5b828204905092915050565b7f496e73756666696369656e742066756e64730000000000000000000000000000600082015250565b6000613fd36012836136ca565b9150613fde82613f9d565b602082019050919050565b6000602082019050818103600083015261400281613fc6565b9050919050565b600060208201905061401e6000830184613747565b92915050565b61402d816134d4565b811461403857600080fd5b50565b60008151905061404a81614024565b92915050565b6000602082840312156140665761406561338a565b5b60006140748482850161403b565b91505092915050565b7f436f6e7472616374206e6f74207965742066696e616c00000000000000000000600082015250565b60006140b36016836136ca565b91506140be8261407d565b602082019050919050565b600060208201905081810360008301526140e2816140a6565b9050919050565b60006060820190508181036000830152614103818661370e565b905061411260208301856137b0565b61411f6040830184613747565b949350505050565b7f4f6e6c792073656c6c65722063616e2077697468647261772e00000000000000600082015250565b600061415d6019836136ca565b915061416882614127565b602082019050919050565b6000602082019050818103600083015261418c81614150565b9050919050565b7f496e76616c69642073746174652e204c6f636b6564203e2042616c616e63652160008201527f2100000000000000000000000000000000000000000000000000000000000000602082015250565b60006141ef6021836136ca565b91506141fa82614193565b604082019050919050565b6000602082019050818103600083015261421e816141e2565b9050919050565b600061423082613471565b915061423b83613471565b92508282101561424e5761424d613eb4565b5b828203905092915050565b600060608201905061426e60008301866137b0565b61427b60208301856137b0565b6142886040830184613747565b949350505050565b7f4e487b7100000000000000000000000000000000000000000000000000000000600052602260045260246000fd5b600060028204905060018216806142d757607f821691505b602082108114156142eb576142ea614290565b5b50919050565b7f4f6e6c7920756e6c6f636b65722063616e20756e6c6f636b2066756e64732e00600082015250565b6000614327601f836136ca565b9150614332826142f1565b602082019050919050565b600060208201905081810360008301526143568161431a565b9050919050565b7f43616e6e6f7420756e6c6f636b206d6f7265207468616e2066756e647320726560008201527f6c65617365642062792062757965722e00000000000000000000000000000000602082015250565b60006143b96030836136ca565b91506143c48261435d565b604082019050919050565b600060208201905081810360008301526143e8816143ac565b9050919050565b7f4f6e6c792049435320616c6c6f7765642e000000000000000000000000000000600082015250565b60006144256011836136ca565b9150614430826143ef565b602082019050919050565b6000602082019050818103600083015261445481614418565b9050919050565b600080604083850312156144725761447161338a565b5b600061448085828601613c1f565b925050602061449185828601613c1f565b9150509250929050565b6000815190506144aa816133c6565b92915050565b600080600080600080600060e0888a0312156144cf576144ce61338a565b5b60006144dd8a828b0161449b565b97505060206144ee8a828b0161449b565b96505060406144ff8a828b01613c1f565b95505060606145108a828b01613c1f565b94505060806145218a828b01613c1f565b93505060a06145328a828b01613c1f565b92505060c06145438a828b01613c1f565b91505092959891949750929550565b7f496e73756666696369656e742066756e647320696e206661726d657220636f6e60008201527f7472616374000000000000000000000000000000000000000000000000000000602082015250565b60006145ae6025836136ca565b91506145b982614552565b604082019050919050565b600060208201905081810360008301526145dd816145a1565b9050919050565b7f4f6e6c792061646d696e2063616e20706572666f726d2074686973206f70657260008201527f6174696f6e2e0000000000000000000000000000000000000000000000000000602082015250565b60006146406026836136ca565b915061464b826145e4565b604082019050919050565b6000602082019050818103600083015261466f81614633565b9050919050565b600060a08201905061468b60008301886137b0565b61469860208301876137b0565b6146a560408301866137b0565b6146b26060830185613747565b6146bf6080830184613747565b9695505050505050565b6000602082840312156146df576146de61338a565b5b60006146ed8482850161449b565b91505092915050565b7f496e76616c6964206661726d657220636f6e74726163742e2043616e206e6f7460008201527f2061646420746f207468697320636f6e74726163740000000000000000000000602082015250565b60006147526035836136ca565b915061475d826146f6565b604082019050919050565b6000602082019050818103600083015261478181614745565b9050919050565b7f43616e27742072656c656173652066696e616c2066756e64732e20496e73756660008201527f66696369656e742066756e647300000000000000000000000000000000000000602082015250565b60006147e4602d836136ca565b91506147ef82614788565b604082019050919050565b60006020820190508181036000830152614813816147d7565b9050919050565b600061482582613471565b915061483083613471565b9250827fffffffffffffffffffffffffffffffffffffffffffffffffffffffffffffffff0382111561486557614864613eb4565b5b828201905092915050565b600060408201905061488560008301856137b0565b6148926020830184613747565b9392505050565b7f5361666545524332303a204552433230206f7065726174696f6e20646964206e60008201527f6f74207375636365656400000000000000000000000000000000000000000000602082015250565b60006148f5602a836136ca565b915061490082614899565b604082019050919050565b60006020820190508181036000830152614924816148e8565b9050919050565b7f416464726573733a20696e73756666696369656e742062616c616e636520666f60008201527f722063616c6c0000000000000000000000000000000000000000000000000000602082015250565b60006149876026836136ca565b91506149928261492b565b604082019050919050565b600060208201905081810360008301526149b68161497a565b9050919050565b600081519050919050565b600081905092915050565b60006149de826149bd565b6149e881856149c8565b93506149f88185602086016136db565b80840191505092915050565b6000614a1082846149d3565b915081905092915050565b7f416464726573733a2063616c6c20746f206e6f6e2d636f6e7472616374000000600082015250565b6000614a51601d836136ca565b9150614a5c82614a1b565b602082019050919050565b60006020820190508181036000830152614a8081614a44565b9050919050565b60006020820190508181036000830152614aa1818461370e565b90509291505056fea2646970667358221220b5e300b04bf967d9a56d482d81989bf579c42e2b8bba646078f5742bc8bb993364736f6c63430008090033",
  "linkReferences": {},
  "deployedLinkReferences": {}
}