{
  "_format": "hh-sol-artifact-1",
  "contractName": "IcsBuyerContract",
  "sourceName": "contracts/IcsBuyerContract.sol",
  "abi": [
    {
      "inputs": [
        {
          "internalType": "address",
          "name": "_tokenAddress",
          "type": "address"
        },
        {
          "internalType": "string",
          "name": "_productName",
          "type": "string"
        },
        {
          "internalType": "string",
          "name": "_wholesalerName",
          "type": "string"
        },
        {
          "internalType": "string",
          "name": "_icsName",
          "type": "string"
        },
        {
          "internalType": "address",
          "name": "_wholesaler",
          "type": "address"
        },
        {
          "internalType": "address",
          "name": "_ics",
          "type": "address"
        },
        {
          "internalType": "uint256",
          "name": "_estimatedYieldMin",
          "type": "uint256"
        },
        {
          "internalType": "uint256",
          "name": "_estimatedYieldMax",
          "type": "uint256"
        },
        {
          "internalType": "uint256",
          "name": "_estimatedPriceMin",
          "type": "uint256"
        },
        {
          "internalType": "uint256",
          "name": "_estimatedPriceMax",
          "type": "uint256"
        },
        {
          "internalType": "uint256",
          "name": "_downPaymentBps",
          "type": "uint256"
        }
      ],
      "stateMutability": "nonpayable",
      "type": "constructor"
    },
    {
      "anonymous": false,
      "inputs": [
        {
          "indexed": false,
          "internalType": "address",
          "name": "admin",
          "type": "address"
        },
        {
          "indexed": false,
          "internalType": "address",
          "name": "buyer",
          "type": "address"
        },
        {
          "indexed": false,
          "internalType": "address",
          "name": "seller",
          "type": "address"
        },
        {
          "indexed": false,
          "internalType": "uint256",
          "name": "contractValueMin",
          "type": "uint256"
        },
        {
          "indexed": false,
          "internalType": "uint256",
          "name": "contractValueMax",
          "type": "uint256"
        }
      ],
      "name": "AdminSigned",
      "type": "event"
    },
    {
      "anonymous": false,
      "inputs": [
        {
          "indexed": false,
          "internalType": "address",
          "name": "buyer",
          "type": "address"
        },
        {
          "indexed": false,
          "internalType": "address",
          "name": "seller",
          "type": "address"
        },
        {
          "indexed": false,
          "internalType": "uint256",
          "name": "contractValueMin",
          "type": "uint256"
        },
        {
          "indexed": false,
          "internalType": "uint256",
          "name": "contractValueMax",
          "type": "uint256"
        }
      ],
      "name": "BuyerSigned",
      "type": "event"
    },
    {
      "anonymous": false,
      "inputs": [
        {
          "indexed": false,
          "internalType": "address",
          "name": "buyer",
          "type": "address"
        },
        {
          "indexed": false,
          "internalType": "address",
          "name": "seller",
          "type": "address"
        }
      ],
      "name": "Cancel",
      "type": "event"
    },
    {
      "anonymous": false,
      "inputs": [
        {
          "indexed": false,
          "internalType": "address",
          "name": "buyer",
          "type": "address"
        },
        {
          "indexed": false,
          "internalType": "address",
          "name": "seller",
          "type": "address"
        },
        {
          "indexed": false,
          "internalType": "uint256",
          "name": "qty",
          "type": "uint256"
        }
      ],
      "name": "Deposit",
      "type": "event"
    },
    {
      "anonymous": false,
      "inputs": [
        {
          "indexed": false,
          "internalType": "address",
          "name": "buyer",
          "type": "address"
        },
        {
          "indexed": false,
          "internalType": "address",
          "name": "seller",
          "type": "address"
        },
        {
          "indexed": false,
          "internalType": "uint256",
          "name": "qty",
          "type": "uint256"
        }
      ],
      "name": "Release",
      "type": "event"
    },
    {
      "anonymous": false,
      "inputs": [
        {
          "indexed": false,
          "internalType": "address",
          "name": "buyer",
          "type": "address"
        },
        {
          "indexed": false,
          "internalType": "address",
          "name": "seller",
          "type": "address"
        },
        {
          "indexed": false,
          "internalType": "uint256",
          "name": "contractValueMin",
          "type": "uint256"
        },
        {
          "indexed": false,
          "internalType": "uint256",
          "name": "contractValueMax",
          "type": "uint256"
        }
      ],
      "name": "SellerSigned",
      "type": "event"
    },
    {
      "anonymous": false,
      "inputs": [
        {
          "indexed": false,
          "internalType": "address",
          "name": "buyer",
          "type": "address"
        },
        {
          "indexed": false,
          "internalType": "address",
          "name": "seller",
          "type": "address"
        },
        {
          "indexed": false,
          "internalType": "uint256",
          "name": "qty",
          "type": "uint256"
        }
      ],
      "name": "Unlock",
      "type": "event"
    },
    {
      "anonymous": false,
      "inputs": [
        {
          "indexed": false,
          "internalType": "address",
          "name": "buyer",
          "type": "address"
        },
        {
          "indexed": false,
          "internalType": "address",
          "name": "seller",
          "type": "address"
        },
        {
          "indexed": false,
          "internalType": "uint256",
          "name": "qty",
          "type": "uint256"
        }
      ],
      "name": "Withdraw",
      "type": "event"
    },
    {
      "inputs": [
        {
          "internalType": "string",
          "name": "_uri",
          "type": "string"
        },
        {
          "internalType": "address",
          "name": "_recipient",
          "type": "address"
        },
        {
          "internalType": "uint256",
          "name": "_eventId",
          "type": "uint256"
        }
      ],
      "name": "addEvent",
      "outputs": [],
      "stateMutability": "nonpayable",
      "type": "function"
    },
    {
      "inputs": [
        {
          "internalType": "address",
          "name": "_farmer",
          "type": "address"
        },
        {
          "internalType": "address",
          "name": "_farmerContract",
          "type": "address"
        }
      ],
      "name": "addFarmer",
      "outputs": [],
      "stateMutability": "nonpayable",
      "type": "function"
    },
    {
      "inputs": [],
      "name": "adminSign",
      "outputs": [],
      "stateMutability": "nonpayable",
      "type": "function"
    },
    {
      "inputs": [
        {
          "internalType": "address",
          "name": "_unlocker",
          "type": "address"
        }
      ],
      "name": "assignUnlocker",
      "outputs": [],
      "stateMutability": "nonpayable",
      "type": "function"
    },
    {
      "inputs": [],
      "name": "buyerSign",
      "outputs": [],
      "stateMutability": "nonpayable",
      "type": "function"
    },
    {
      "inputs": [],
      "name": "cancel",
      "outputs": [],
      "stateMutability": "nonpayable",
      "type": "function"
    },
    {
      "inputs": [],
      "name": "details",
      "outputs": [
        {
          "internalType": "address",
          "name": "",
          "type": "address"
        },
        {
          "internalType": "address",
          "name": "",
          "type": "address"
        },
        {
          "internalType": "uint256",
          "name": "",
          "type": "uint256"
        },
        {
          "internalType": "uint256",
          "name": "",
          "type": "uint256"
        },
        {
          "internalType": "uint256",
          "name": "",
          "type": "uint256"
        },
        {
          "internalType": "uint256",
          "name": "",
          "type": "uint256"
        },
        {
          "internalType": "uint256",
          "name": "",
          "type": "uint256"
        }
      ],
      "stateMutability": "view",
      "type": "function"
    },
    {
      "inputs": [],
      "name": "finalPayment",
      "outputs": [
        {
          "internalType": "bool",
          "name": "",
          "type": "bool"
        }
      ],
      "stateMutability": "nonpayable",
      "type": "function"
    },
    {
      "inputs": [],
      "name": "getBuyer",
      "outputs": [
        {
          "internalType": "string",
          "name": "",
          "type": "string"
        },
        {
          "internalType": "address",
          "name": "",
          "type": "address"
        }
      ],
      "stateMutability": "view",
      "type": "function"
    },
    {
      "inputs": [],
      "name": "getContractValue",
      "outputs": [
        {
          "internalType": "uint256",
          "name": "",
          "type": "uint256"
        },
        {
          "internalType": "uint256",
          "name": "",
          "type": "uint256"
        }
      ],
      "stateMutability": "view",
      "type": "function"
    },
    {
      "inputs": [],
      "name": "getDetails2",
      "outputs": [
        {
          "components": [
            {
              "internalType": "string",
              "name": "productName",
              "type": "string"
            },
            {
              "internalType": "address",
              "name": "buyer",
              "type": "address"
            },
            {
              "internalType": "string",
              "name": "buyerName",
              "type": "string"
            },
            {
              "internalType": "address",
              "name": "seller",
              "type": "address"
            },
            {
              "internalType": "string",
              "name": "sellerName",
              "type": "string"
            },
            {
              "internalType": "uint256",
              "name": "estimatedYieldMin",
              "type": "uint256"
            },
            {
              "internalType": "uint256",
              "name": "estimatedYieldMax",
              "type": "uint256"
            },
            {
              "internalType": "uint256",
              "name": "tentativeYield",
              "type": "uint256"
            },
            {
              "internalType": "uint256",
              "name": "estimatedPriceMin",
              "type": "uint256"
            },
            {
              "internalType": "uint256",
              "name": "estimatedPriceMax",
              "type": "uint256"
            },
            {
              "internalType": "uint256",
              "name": "tentativePrice",
              "type": "uint256"
            }
          ],
          "internalType": "struct ContractDetails",
          "name": "",
          "type": "tuple"
        }
      ],
      "stateMutability": "view",
      "type": "function"
    },
    {
      "inputs": [],
      "name": "getProduct",
      "outputs": [
        {
          "internalType": "string",
          "name": "",
          "type": "string"
        },
        {
          "internalType": "uint256",
          "name": "",
          "type": "uint256"
        },
        {
          "internalType": "uint256",
          "name": "",
          "type": "uint256"
        },
        {
          "internalType": "uint256",
          "name": "",
          "type": "uint256"
        },
        {
          "internalType": "uint256",
          "name": "",
          "type": "uint256"
        }
      ],
      "stateMutability": "view",
      "type": "function"
    },
    {
      "inputs": [],
      "name": "getSeller",
      "outputs": [
        {
          "internalType": "string",
          "name": "",
          "type": "string"
        },
        {
          "internalType": "address",
          "name": "",
          "type": "address"
        }
      ],
      "stateMutability": "view",
      "type": "function"
    },
    {
      "inputs": [
        {
          "internalType": "address",
          "name": "_farmer",
          "type": "address"
        }
      ],
      "name": "lookupFarmerContract",
      "outputs": [
        {
          "internalType": "address",
          "name": "",
          "type": "address"
        }
      ],
      "stateMutability": "view",
      "type": "function"
    },
    {
      "inputs": [],
      "name": "makeDownpayment",
      "outputs": [
        {
          "internalType": "bool",
          "name": "",
          "type": "bool"
        }
      ],
      "stateMutability": "nonpayable",
      "type": "function"
    },
    {
      "inputs": [
        {
          "internalType": "uint256",
          "name": "_amount",
          "type": "uint256"
        }
      ],
      "name": "releaseAmount",
      "outputs": [
        {
          "internalType": "bool",
          "name": "",
          "type": "bool"
        }
      ],
      "stateMutability": "nonpayable",
      "type": "function"
    },
    {
      "inputs": [],
      "name": "sellerSign",
      "outputs": [],
      "stateMutability": "nonpayable",
      "type": "function"
    },
    {
      "inputs": [
        {
          "internalType": "address",
          "name": "_incentiveContract",
          "type": "address"
        }
      ],
      "name": "setIncentiveContract",
      "outputs": [],
      "stateMutability": "nonpayable",
      "type": "function"
    },
    {
      "inputs": [
        {
          "internalType": "address",
          "name": "_farmer",
          "type": "address"
        },
        {
          "internalType": "uint256",
          "name": "quantity",
          "type": "uint256"
        },
        {
          "internalType": "uint256",
          "name": "price",
          "type": "uint256"
        }
      ],
      "name": "settleFarmer",
      "outputs": [],
      "stateMutability": "nonpayable",
      "type": "function"
    },
    {
      "inputs": [
        {
          "internalType": "uint256",
          "name": "_amount",
          "type": "uint256"
        }
      ],
      "name": "unlockAmount",
      "outputs": [
        {
          "internalType": "bool",
          "name": "",
          "type": "bool"
        }
      ],
      "stateMutability": "nonpayable",
      "type": "function"
    },
    {
      "inputs": [],
      "name": "withdraw",
      "outputs": [
        {
          "internalType": "bool",
          "name": "",
          "type": "bool"
        }
      ],
      "stateMutability": "nonpayable",
      "type": "function"
    }
  ],
  "bytecode": "0x60806040526101f467ffffffffffffffff81111562000023576200002262000506565b5b604051908082528060200260200182016040528015620000525781602001602082028036833780820191505090505b50601590805190602001906200006a929190620003c7565b503480156200007857600080fd5b506040516200492a3803806200492a83398181016040528101906200009e919062000743565b8a8a8a8a8a8a8a8a8a8a8a60008110158015620000bc575061271081105b620000fe576040517f08c379a0000000000000000000000000000000000000000000000000000000008152600401620000f59062000934565b60405180910390fd5b89600390805190602001906200011692919062000456565b5033600160006101000a81548173ffffffffffffffffffffffffffffffffffffffff021916908373ffffffffffffffffffffffffffffffffffffffff160217905550600160009054906101000a900473ffffffffffffffffffffffffffffffffffffffff16600260006101000a81548173ffffffffffffffffffffffffffffffffffffffff021916908373ffffffffffffffffffffffffffffffffffffffff1602179055508a6000806101000a81548173ffffffffffffffffffffffffffffffffffffffff021916908373ffffffffffffffffffffffffffffffffffffffff16021790555086600460006101000a81548173ffffffffffffffffffffffffffffffffffffffff021916908373ffffffffffffffffffffffffffffffffffffffff16021790555088600590805190602001906200025492919062000456565b5087600790805190602001906200026d92919062000456565b5085600660006101000a81548173ffffffffffffffffffffffffffffffffffffffff021916908373ffffffffffffffffffffffffffffffffffffffff1602179055506000601181905550600060128190555080601381905550846008819055508360098190555082600b8190555081600c81905550670de0b6b3a76400008386620002f9919062000985565b62000305919062000985565b600f81905550670de0b6b3a7640000828562000322919062000985565b6200032e919062000985565b6010819055506000600e60016101000a81548160ff0219169083151502179055506000600e60026101000a81548160ff021916908315150217905550505050505050505050505033601460006101000a81548173ffffffffffffffffffffffffffffffffffffffff021916908373ffffffffffffffffffffffffffffffffffffffff160217905550505050505050505050505062000a4b565b82805482825590600052602060002090810192821562000443579160200282015b82811115620004425782518260006101000a81548173ffffffffffffffffffffffffffffffffffffffff021916908373ffffffffffffffffffffffffffffffffffffffff16021790555091602001919060010190620003e8565b5b509050620004529190620004e7565b5090565b828054620004649062000a15565b90600052602060002090601f016020900481019282620004885760008555620004d4565b82601f10620004a357805160ff1916838001178555620004d4565b82800160010185558215620004d4579182015b82811115620004d3578251825591602001919060010190620004b6565b5b509050620004e39190620004e7565b5090565b5b8082111562000502576000816000905550600101620004e8565b5090565b7f4e487b7100000000000000000000000000000000000000000000000000000000600052604160045260246000fd5b6000604051905090565b600080fd5b600080fd5b600073ffffffffffffffffffffffffffffffffffffffff82169050919050565b6000620005768262000549565b9050919050565b620005888162000569565b81146200059457600080fd5b50565b600081519050620005a8816200057d565b92915050565b600080fd5b600080fd5b6000601f19601f8301169050919050565b620005d482620005b8565b810181811067ffffffffffffffff82111715620005f657620005f562000506565b5b80604052505050565b60006200060b62000535565b9050620006198282620005c9565b919050565b600067ffffffffffffffff8211156200063c576200063b62000506565b5b6200064782620005b8565b9050602081019050919050565b60005b838110156200067457808201518184015260208101905062000657565b8381111562000684576000848401525b50505050565b6000620006a16200069b846200061e565b620005ff565b905082815260208101848484011115620006c057620006bf620005b3565b5b620006cd84828562000654565b509392505050565b600082601f830112620006ed57620006ec620005ae565b5b8151620006ff8482602086016200068a565b91505092915050565b6000819050919050565b6200071d8162000708565b81146200072957600080fd5b50565b6000815190506200073d8162000712565b92915050565b60008060008060008060008060008060006101608c8e0312156200076c576200076b6200053f565b5b60006200077c8e828f0162000597565b9b505060208c015167ffffffffffffffff811115620007a0576200079f62000544565b5b620007ae8e828f01620006d5565b9a505060408c015167ffffffffffffffff811115620007d257620007d162000544565b5b620007e08e828f01620006d5565b99505060608c015167ffffffffffffffff81111562000804576200080362000544565b5b620008128e828f01620006d5565b9850506080620008258e828f0162000597565b97505060a0620008388e828f0162000597565b96505060c06200084b8e828f016200072c565b95505060e06200085e8e828f016200072c565b945050610100620008728e828f016200072c565b935050610120620008868e828f016200072c565b9250506101406200089a8e828f016200072c565b9150509295989b509295989b9093969950565b600082825260208201905092915050565b7f496e76616c696420646f776e5061796d656e744270732c20706c65617365207060008201527f6173732070657263656e7461676520626173697320706f696e74730000000000602082015250565b60006200091c603b83620008ad565b91506200092982620008be565b604082019050919050565b600060208201905081810360008301526200094f816200090d565b9050919050565b7f4e487b7100000000000000000000000000000000000000000000000000000000600052601160045260246000fd5b6000620009928262000708565b91506200099f8362000708565b9250817fffffffffffffffffffffffffffffffffffffffffffffffffffffffffffffffff0483118215151615620009db57620009da62000956565b5b828202905092915050565b7f4e487b7100000000000000000000000000000000000000000000000000000000600052602260045260246000fd5b6000600282049050600182168062000a2e57607f821691505b6020821081141562000a455762000a44620009e6565b5b50919050565b613ecf8062000a5b6000396000f3fe608060405234801561001057600080fd5b50600436106101375760003560e01c80636061e6b7116100b8578063c011bf161161007c578063c011bf16146102fd578063da38575614610319578063dbd0e1b614610337578063dc82697c14610356578063e1cbf4b114610375578063ea8a1af01461039157610137565b80636061e6b71461027f578063807b5d291461029b57806396a69f43146102a5578063a513de69146102c3578063b6a5c5b5146102cd57610137565b80634ba20050116100ff5780634ba20050146101cc5780634cd2c09a146101ee578063565974d31461021e5780635ebe251414610242578063603daf9a1461026057610137565b8063046a2fdd1461013c57806307818200146101465780632278f36b1461016257806329a19edb146101925780633ccfd60b146101ae575b600080fd5b61014461039b565b005b610160600480360381019061015b9190612aa4565b6105ce565b005b61017c60048036038101906101779190612b07565b6106a2565b6040516101899190612b4f565b60405180910390f35b6101ac60048036038101906101a79190612cb0565b61096d565b005b6101b6610a99565b6040516101c39190612b4f565b60405180910390f35b6101d4610dcd565b6040516101e5959493929190612db6565b60405180910390f35b61020860048036038101906102039190612b07565b610e80565b6040516102159190612b4f565b60405180910390f35b610226611086565b6040516102399796959493929190612e1f565b60405180910390f35b61024a6111ae565b6040516102579190612b4f565b60405180910390f35b610268611472565b604051610276929190612e8e565b60405180910390f35b61029960048036038101906102949190612ebe565b61152f565b005b6102a3611832565b005b6102ad611988565b6040516102ba9190613076565b60405180910390f35b6102cb611bfb565b005b6102e760048036038101906102e29190612aa4565b611d2d565b6040516102f49190613098565b60405180910390f35b61031760048036038101906103129190612aa4565b611e26565b005b610321611e6a565b60405161032e9190612b4f565b60405180910390f35b61033f6120bd565b60405161034d929190612e8e565b60405180910390f35b61035e61217a565b60405161036c9291906130b3565b60405180910390f35b61038f600480360381019061038a91906130dc565b61218b565b005b6103996123f1565b005b600460009054906101000a900473ffffffffffffffffffffffffffffffffffffffff1673ffffffffffffffffffffffffffffffffffffffff163373ffffffffffffffffffffffffffffffffffffffff161461042b576040517f08c379a000000000000000000000000000000000000000000000000000000000815260040161042290613168565b60405180910390fd5b60008060009054906101000a900473ffffffffffffffffffffffffffffffffffffffff16905060008173ffffffffffffffffffffffffffffffffffffffff166370a08231306040518263ffffffff1660e01b815260040161048c9190613098565b60206040518083038186803b1580156104a457600080fd5b505afa1580156104b8573d6000803e3d6000fd5b505050506040513d601f19601f820116820180604052508101906104dc919061319d565b9050601054811015610523576040517f08c379a000000000000000000000000000000000000000000000000000000000815260040161051a9061323c565b60405180910390fd5b6001600e60016101000a81548160ff021916908315150217905550806011819055507fca509163edfc238d34e4ef84d235590fe07508a67a58fa10a2a30ba245252f6a600460009054906101000a900473ffffffffffffffffffffffffffffffffffffffff16600660009054906101000a900473ffffffffffffffffffffffffffffffffffffffff16600f546010546040516105c2949392919061325c565b60405180910390a15050565b601460009054906101000a900473ffffffffffffffffffffffffffffffffffffffff1673ffffffffffffffffffffffffffffffffffffffff163373ffffffffffffffffffffffffffffffffffffffff161461065e576040517f08c379a0000000000000000000000000000000000000000000000000000000008152600401610655906132ed565b60405180910390fd5b80601760006101000a81548173ffffffffffffffffffffffffffffffffffffffff021916908373ffffffffffffffffffffffffffffffffffffffff16021790555050565b6000600460009054906101000a900473ffffffffffffffffffffffffffffffffffffffff1673ffffffffffffffffffffffffffffffffffffffff163373ffffffffffffffffffffffffffffffffffffffff1614610734576040517f08c379a000000000000000000000000000000000000000000000000000000000815260040161072b90613168565b60405180910390fd5b600e60009054906101000a900460ff16801561075c5750600e60019054906101000a900460ff165b80156107745750600e60029054906101000a900460ff165b6107b3576040517f08c379a00000000000000000000000000000000000000000000000000000000081526004016107aa90613359565b60405180910390fd5b60008060009054906101000a900473ffffffffffffffffffffffffffffffffffffffff16905060008173ffffffffffffffffffffffffffffffffffffffff166370a08231306040518263ffffffff1660e01b81526004016108149190613098565b60206040518083038186803b15801561082c57600080fd5b505afa158015610840573d6000803e3d6000fd5b505050506040513d601f19601f82011682018060405250810190610864919061319d565b90508360125461087491906133a8565b60128190555060006011548261088a91906133fe565b90508085106108ce576040517f08c379a00000000000000000000000000000000000000000000000000000000081526004016108c59061347e565b60405180910390fd5b846011546108dc91906133fe565b6011819055507fcb54aad3bd772fcfe1bc124e01bd1a91a91c9d80126d8b3014c4d9e687d5ca48600460009054906101000a900473ffffffffffffffffffffffffffffffffffffffff16600660009054906101000a900473ffffffffffffffffffffffffffffffffffffffff16876040516109599392919061349e565b60405180910390a160019350505050919050565b601460009054906101000a900473ffffffffffffffffffffffffffffffffffffffff1673ffffffffffffffffffffffffffffffffffffffff163373ffffffffffffffffffffffffffffffffffffffff16146109fd576040517f08c379a00000000000000000000000000000000000000000000000000000000081526004016109f4906132ed565b60405180910390fd5b6000601760009054906101000a900473ffffffffffffffffffffffffffffffffffffffff1690508073ffffffffffffffffffffffffffffffffffffffff166329a19edb8585856040518463ffffffff1660e01b8152600401610a61939291906134d5565b600060405180830381600087803b158015610a7b57600080fd5b505af1158015610a8f573d6000803e3d6000fd5b5050505050505050565b6000600660009054906101000a900473ffffffffffffffffffffffffffffffffffffffff1673ffffffffffffffffffffffffffffffffffffffff163373ffffffffffffffffffffffffffffffffffffffff1614610b2b576040517f08c379a0000000000000000000000000000000000000000000000000000000008152600401610b229061355f565b60405180910390fd5b600e60009054906101000a900460ff168015610b535750600e60019054906101000a900460ff165b8015610b6b5750600e60029054906101000a900460ff165b610baa576040517f08c379a0000000000000000000000000000000000000000000000000000000008152600401610ba190613359565b60405180910390fd5b60008060009054906101000a900473ffffffffffffffffffffffffffffffffffffffff16905060008173ffffffffffffffffffffffffffffffffffffffff166370a08231306040518263ffffffff1660e01b8152600401610c0b9190613098565b60206040518083038186803b158015610c2357600080fd5b505afa158015610c37573d6000803e3d6000fd5b505050506040513d601f19601f82011682018060405250810190610c5b919061319d565b9050806011541115610ca2576040517f08c379a0000000000000000000000000000000000000000000000000000000008152600401610c99906135f1565b60405180910390fd5b600060115482610cb291906133fe565b905060008111610cf7576040517f08c379a0000000000000000000000000000000000000000000000000000000008152600401610cee9061347e565b60405180910390fd5b610d44600660009054906101000a900473ffffffffffffffffffffffffffffffffffffffff16828573ffffffffffffffffffffffffffffffffffffffff166126919092919063ffffffff16565b7f9b1bfa7fa9ee420a16e124f794c35ac9f90472acc99140eb2f6447c714cad8eb600460009054906101000a900473ffffffffffffffffffffffffffffffffffffffff16600660009054906101000a900473ffffffffffffffffffffffffffffffffffffffff1683604051610dbb9392919061349e565b60405180910390a16001935050505090565b60606000806000806003600854600954600b54600c54848054610def90613640565b80601f0160208091040260200160405190810160405280929190818152602001828054610e1b90613640565b8015610e685780601f10610e3d57610100808354040283529160200191610e68565b820191906000526020600020905b815481529060010190602001808311610e4b57829003601f168201915b50505050509450945094509450945094509091929394565b6000600260009054906101000a900473ffffffffffffffffffffffffffffffffffffffff1673ffffffffffffffffffffffffffffffffffffffff163373ffffffffffffffffffffffffffffffffffffffff1614610f12576040517f08c379a0000000000000000000000000000000000000000000000000000000008152600401610f09906136be565b60405180910390fd5b600e60009054906101000a900460ff168015610f3a5750600e60019054906101000a900460ff165b8015610f525750600e60029054906101000a900460ff165b610f91576040517f08c379a0000000000000000000000000000000000000000000000000000000008152600401610f8890613359565b60405180910390fd5b601254821115610fd6576040517f08c379a0000000000000000000000000000000000000000000000000000000008152600401610fcd90613750565b60405180910390fd5b81601154610fe491906133fe565b60118190555081601254610ff891906133fe565b6012819055507fc1c90b8e0705b212262c0dbd7580efe1862c2f185bf96899226f7596beb2db09600460009054906101000a900473ffffffffffffffffffffffffffffffffffffffff16600660009054906101000a900473ffffffffffffffffffffffffffffffffffffffff16846040516110759392919061349e565b60405180910390a160019050919050565b60008060008060008060008060008054906101000a900473ffffffffffffffffffffffffffffffffffffffff16905060008173ffffffffffffffffffffffffffffffffffffffff166370a08231306040518263ffffffff1660e01b81526004016110f09190613098565b60206040518083038186803b15801561110857600080fd5b505afa15801561111c573d6000803e3d6000fd5b505050506040513d601f19601f82011682018060405250810190611140919061319d565b9050600460009054906101000a900473ffffffffffffffffffffffffffffffffffffffff16600660009054906101000a900473ffffffffffffffffffffffffffffffffffffffff16600f54601054846012546011549850985098509850985098509850505090919293949596565b6000600460009054906101000a900473ffffffffffffffffffffffffffffffffffffffff1673ffffffffffffffffffffffffffffffffffffffff163373ffffffffffffffffffffffffffffffffffffffff1614611240576040517f08c379a000000000000000000000000000000000000000000000000000000000815260040161123790613168565b60405180910390fd5b600e60009054906101000a900460ff1680156112685750600e60019054906101000a900460ff165b80156112805750600e60029054906101000a900460ff165b6112bf576040517f08c379a00000000000000000000000000000000000000000000000000000000081526004016112b690613359565b60405180910390fd5b60008060009054906101000a900473ffffffffffffffffffffffffffffffffffffffff16905060008173ffffffffffffffffffffffffffffffffffffffff166370a08231306040518263ffffffff1660e01b81526004016113209190613098565b60206040518083038186803b15801561133857600080fd5b505afa15801561134c573d6000803e3d6000fd5b505050506040513d601f19601f82011682018060405250810190611370919061319d565b90506000612710600f546013546113879190613770565b61139191906137f9565b90508181106113d5576040517f08c379a00000000000000000000000000000000000000000000000000000000081526004016113cc9061347e565b60405180910390fd5b806012546113e391906133a8565b6012819055507fcb54aad3bd772fcfe1bc124e01bd1a91a91c9d80126d8b3014c4d9e687d5ca48600460009054906101000a900473ffffffffffffffffffffffffffffffffffffffff16600660009054906101000a900473ffffffffffffffffffffffffffffffffffffffff16836040516114609392919061349e565b60405180910390a16001935050505090565b606060006005600460009054906101000a900473ffffffffffffffffffffffffffffffffffffffff168180546114a790613640565b80601f01602080910402602001604051908101604052809291908181526020018280546114d390613640565b80156115205780601f106114f557610100808354040283529160200191611520565b820191906000526020600020905b81548152906001019060200180831161150357829003601f168201915b50505050509150915091509091565b600660009054906101000a900473ffffffffffffffffffffffffffffffffffffffff1673ffffffffffffffffffffffffffffffffffffffff163373ffffffffffffffffffffffffffffffffffffffff16146115bf576040517f08c379a00000000000000000000000000000000000000000000000000000000081526004016115b690613876565b60405180910390fd5b6000601660008573ffffffffffffffffffffffffffffffffffffffff1673ffffffffffffffffffffffffffffffffffffffff16815260200190815260200160002060009054906101000a900473ffffffffffffffffffffffffffffffffffffffff16905060008190506000808273ffffffffffffffffffffffffffffffffffffffff1663dc82697c6040518163ffffffff1660e01b8152600401604080518083038186803b15801561167057600080fd5b505afa158015611684573d6000803e3d6000fd5b505050506040513d601f19601f820116820180604052508101906116a89190613896565b9150915060008060008060008060008973ffffffffffffffffffffffffffffffffffffffff1663565974d36040518163ffffffff1660e01b815260040160e06040518083038186803b1580156116fd57600080fd5b505afa158015611711573d6000803e3d6000fd5b505050506040513d601f19601f8201168201806040525081019061173591906138eb565b965096509650965096509650965060008c8e6117519190613770565b9050838110611795576040517f08c379a000000000000000000000000000000000000000000000000000000000815260040161178c906139ff565b60405180910390fd5b8a73ffffffffffffffffffffffffffffffffffffffff16632278f36b826040518263ffffffff1660e01b81526004016117ce9190613a1f565b602060405180830381600087803b1580156117e857600080fd5b505af11580156117fc573d6000803e3d6000fd5b505050506040513d601f19601f820116820180604052508101906118209190613a66565b50505050505050505050505050505050565b600160009054906101000a900473ffffffffffffffffffffffffffffffffffffffff1673ffffffffffffffffffffffffffffffffffffffff163373ffffffffffffffffffffffffffffffffffffffff16146118c2576040517f08c379a00000000000000000000000000000000000000000000000000000000081526004016118b990613b05565b60405180910390fd5b6001600e60006101000a81548160ff0219169083151502179055507f2d02a8006c04b9bb35fcf84fbe0c3a2eebc574698ed7716c9f67b0f67244b6f5600160009054906101000a900473ffffffffffffffffffffffffffffffffffffffff16600460009054906101000a900473ffffffffffffffffffffffffffffffffffffffff16600660009054906101000a900473ffffffffffffffffffffffffffffffffffffffff16600f5460105460405161197e959493929190613b25565b60405180910390a1565b6119906129ac565b604051806101600160405280600380546119a990613640565b80601f01602080910402602001604051908101604052809291908181526020018280546119d590613640565b8015611a225780601f106119f757610100808354040283529160200191611a22565b820191906000526020600020905b815481529060010190602001808311611a0557829003601f168201915b50505050508152602001600460009054906101000a900473ffffffffffffffffffffffffffffffffffffffff1673ffffffffffffffffffffffffffffffffffffffff16815260200160058054611a7790613640565b80601f0160208091040260200160405190810160405280929190818152602001828054611aa390613640565b8015611af05780601f10611ac557610100808354040283529160200191611af0565b820191906000526020600020905b815481529060010190602001808311611ad357829003601f168201915b50505050508152602001600660009054906101000a900473ffffffffffffffffffffffffffffffffffffffff1673ffffffffffffffffffffffffffffffffffffffff16815260200160078054611b4590613640565b80601f0160208091040260200160405190810160405280929190818152602001828054611b7190613640565b8015611bbe5780601f10611b9357610100808354040283529160200191611bbe565b820191906000526020600020905b815481529060010190602001808311611ba157829003601f168201915b5050505050815260200160085481526020016009548152602001600a548152602001600b548152602001600c548152602001600d54815250905090565b600660009054906101000a900473ffffffffffffffffffffffffffffffffffffffff1673ffffffffffffffffffffffffffffffffffffffff163373ffffffffffffffffffffffffffffffffffffffff1614611c8b576040517f08c379a0000000000000000000000000000000000000000000000000000000008152600401611c829061355f565b60405180910390fd5b6001600e60026101000a81548160ff0219169083151502179055507f2e4ddfb651f821a25a38775d9a40cd48df71699988424942de2b58a490463f0f600460009054906101000a900473ffffffffffffffffffffffffffffffffffffffff16600660009054906101000a900473ffffffffffffffffffffffffffffffffffffffff16600f54601054604051611d23949392919061325c565b60405180910390a1565b6000601460009054906101000a900473ffffffffffffffffffffffffffffffffffffffff1673ffffffffffffffffffffffffffffffffffffffff163373ffffffffffffffffffffffffffffffffffffffff1614611dbf576040517f08c379a0000000000000000000000000000000000000000000000000000000008152600401611db6906132ed565b60405180910390fd5b601660008373ffffffffffffffffffffffffffffffffffffffff1673ffffffffffffffffffffffffffffffffffffffff16815260200190815260200160002060009054906101000a900473ffffffffffffffffffffffffffffffffffffffff169050919050565b80600260006101000a81548173ffffffffffffffffffffffffffffffffffffffff021916908373ffffffffffffffffffffffffffffffffffffffff16021790555050565b6000600460009054906101000a900473ffffffffffffffffffffffffffffffffffffffff1673ffffffffffffffffffffffffffffffffffffffff163373ffffffffffffffffffffffffffffffffffffffff1614611efc576040517f08c379a0000000000000000000000000000000000000000000000000000000008152600401611ef390613168565b60405180910390fd5b600e60009054906101000a900460ff168015611f245750600e60019054906101000a900460ff165b8015611f3c5750600e60029054906101000a900460ff165b611f7b576040517f08c379a0000000000000000000000000000000000000000000000000000000008152600401611f7290613359565b60405180910390fd5b60008060009054906101000a900473ffffffffffffffffffffffffffffffffffffffff16905060008173ffffffffffffffffffffffffffffffffffffffff166370a08231306040518263ffffffff1660e01b8152600401611fdc9190613098565b60206040518083038186803b158015611ff457600080fd5b505afa158015612008573d6000803e3d6000fd5b505050506040513d601f19601f8201168201806040525081019061202c919061319d565b9050806012819055507fcb54aad3bd772fcfe1bc124e01bd1a91a91c9d80126d8b3014c4d9e687d5ca48600460009054906101000a900473ffffffffffffffffffffffffffffffffffffffff16600660009054906101000a900473ffffffffffffffffffffffffffffffffffffffff16836040516120ac9392919061349e565b60405180910390a160019250505090565b606060006007600660009054906101000a900473ffffffffffffffffffffffffffffffffffffffff168180546120f290613640565b80601f016020809104026020016040519081016040528092919081815260200182805461211e90613640565b801561216b5780601f106121405761010080835404028352916020019161216b565b820191906000526020600020905b81548152906001019060200180831161214e57829003601f168201915b50505050509150915091509091565b600080600f54601054915091509091565b601460009054906101000a900473ffffffffffffffffffffffffffffffffffffffff1673ffffffffffffffffffffffffffffffffffffffff163373ffffffffffffffffffffffffffffffffffffffff161461221b576040517f08c379a0000000000000000000000000000000000000000000000000000000008152600401612212906132ed565b60405180910390fd5b60008190503073ffffffffffffffffffffffffffffffffffffffff168173ffffffffffffffffffffffffffffffffffffffff1663f11777126040518163ffffffff1660e01b815260040160206040518083038186803b15801561227d57600080fd5b505afa158015612291573d6000803e3d6000fd5b505050506040513d601f19601f820116820180604052508101906122b59190613b78565b73ffffffffffffffffffffffffffffffffffffffff161461230b576040517f08c379a000000000000000000000000000000000000000000000000000000000815260040161230290613c17565b60405180910390fd5b6015839080600181540180825580915050600190039060005260206000200160009091909190916101000a81548173ffffffffffffffffffffffffffffffffffffffff021916908373ffffffffffffffffffffffffffffffffffffffff16021790555081601660008573ffffffffffffffffffffffffffffffffffffffff1673ffffffffffffffffffffffffffffffffffffffff16815260200190815260200160002060006101000a81548173ffffffffffffffffffffffffffffffffffffffff021916908373ffffffffffffffffffffffffffffffffffffffff160217905550505050565b600160009054906101000a900473ffffffffffffffffffffffffffffffffffffffff1673ffffffffffffffffffffffffffffffffffffffff163373ffffffffffffffffffffffffffffffffffffffff1614612481576040517f08c379a000000000000000000000000000000000000000000000000000000000815260040161247890613b05565b60405180910390fd5b600e60009054906101000a900460ff1680156124a95750600e60019054906101000a900460ff165b80156124c15750600e60029054906101000a900460ff165b612500576040517f08c379a00000000000000000000000000000000000000000000000000000000081526004016124f790613359565b60405180910390fd5b60008060009054906101000a900473ffffffffffffffffffffffffffffffffffffffff16905060008173ffffffffffffffffffffffffffffffffffffffff166370a08231306040518263ffffffff1660e01b81526004016125619190613098565b60206040518083038186803b15801561257957600080fd5b505afa15801561258d573d6000803e3d6000fd5b505050506040513d601f19601f820116820180604052508101906125b1919061319d565b9050612600600460009054906101000a900473ffffffffffffffffffffffffffffffffffffffff16828473ffffffffffffffffffffffffffffffffffffffff166126919092919063ffffffff16565b600060118190555060006012819055507f50d9aca76814f78d884b23d6acf60b8e4a0404b5bfd5fe15fae3cc9d874eb949600460009054906101000a900473ffffffffffffffffffffffffffffffffffffffff16600660009054906101000a900473ffffffffffffffffffffffffffffffffffffffff16604051612685929190613c37565b60405180910390a15050565b6127128363a9059cbb60e01b84846040516024016126b0929190613c60565b604051602081830303815290604052907bffffffffffffffffffffffffffffffffffffffffffffffffffffffff19166020820180517bffffffffffffffffffffffffffffffffffffffffffffffffffffffff8381831617835250505050612717565b505050565b6000612779826040518060400160405280602081526020017f5361666545524332303a206c6f772d6c6576656c2063616c6c206661696c65648152508573ffffffffffffffffffffffffffffffffffffffff166127de9092919063ffffffff16565b90506000815111156127d957808060200190518101906127999190613a66565b6127d8576040517f08c379a00000000000000000000000000000000000000000000000000000000081526004016127cf90613cfb565b60405180910390fd5b5b505050565b60606127ed84846000856127f6565b90509392505050565b60608247101561283b576040517f08c379a000000000000000000000000000000000000000000000000000000000815260040161283290613d8d565b60405180910390fd5b6000808673ffffffffffffffffffffffffffffffffffffffff1685876040516128649190613df4565b60006040518083038185875af1925050503d80600081146128a1576040519150601f19603f3d011682016040523d82523d6000602084013e6128a6565b606091505b50915091506128b7878383876128c3565b92505050949350505050565b606083156129265760008351141561291e576128de85612939565b61291d576040517f08c379a000000000000000000000000000000000000000000000000000000000815260040161291490613e57565b60405180910390fd5b5b829050612931565b612930838361295c565b5b949350505050565b6000808273ffffffffffffffffffffffffffffffffffffffff163b119050919050565b60008251111561296f5781518083602001fd5b806040517f08c379a00000000000000000000000000000000000000000000000000000000081526004016129a39190613e77565b60405180910390fd5b60405180610160016040528060608152602001600073ffffffffffffffffffffffffffffffffffffffff16815260200160608152602001600073ffffffffffffffffffffffffffffffffffffffff168152602001606081526020016000815260200160008152602001600081526020016000815260200160008152602001600081525090565b6000604051905090565b600080fd5b600080fd5b600073ffffffffffffffffffffffffffffffffffffffff82169050919050565b6000612a7182612a46565b9050919050565b612a8181612a66565b8114612a8c57600080fd5b50565b600081359050612a9e81612a78565b92915050565b600060208284031215612aba57612ab9612a3c565b5b6000612ac884828501612a8f565b91505092915050565b6000819050919050565b612ae481612ad1565b8114612aef57600080fd5b50565b600081359050612b0181612adb565b92915050565b600060208284031215612b1d57612b1c612a3c565b5b6000612b2b84828501612af2565b91505092915050565b60008115159050919050565b612b4981612b34565b82525050565b6000602082019050612b646000830184612b40565b92915050565b600080fd5b600080fd5b6000601f19601f8301169050919050565b7f4e487b7100000000000000000000000000000000000000000000000000000000600052604160045260246000fd5b612bbd82612b74565b810181811067ffffffffffffffff82111715612bdc57612bdb612b85565b5b80604052505050565b6000612bef612a32565b9050612bfb8282612bb4565b919050565b600067ffffffffffffffff821115612c1b57612c1a612b85565b5b612c2482612b74565b9050602081019050919050565b82818337600083830152505050565b6000612c53612c4e84612c00565b612be5565b905082815260208101848484011115612c6f57612c6e612b6f565b5b612c7a848285612c31565b509392505050565b600082601f830112612c9757612c96612b6a565b5b8135612ca7848260208601612c40565b91505092915050565b600080600060608486031215612cc957612cc8612a3c565b5b600084013567ffffffffffffffff811115612ce757612ce6612a41565b5b612cf386828701612c82565b9350506020612d0486828701612a8f565b9250506040612d1586828701612af2565b9150509250925092565b600081519050919050565b600082825260208201905092915050565b60005b83811015612d59578082015181840152602081019050612d3e565b83811115612d68576000848401525b50505050565b6000612d7982612d1f565b612d838185612d2a565b9350612d93818560208601612d3b565b612d9c81612b74565b840191505092915050565b612db081612ad1565b82525050565b600060a0820190508181036000830152612dd08188612d6e565b9050612ddf6020830187612da7565b612dec6040830186612da7565b612df96060830185612da7565b612e066080830184612da7565b9695505050505050565b612e1981612a66565b82525050565b600060e082019050612e34600083018a612e10565b612e416020830189612e10565b612e4e6040830188612da7565b612e5b6060830187612da7565b612e686080830186612da7565b612e7560a0830185612da7565b612e8260c0830184612da7565b98975050505050505050565b60006040820190508181036000830152612ea88185612d6e565b9050612eb76020830184612e10565b9392505050565b600080600060608486031215612ed757612ed6612a3c565b5b6000612ee586828701612a8f565b9350506020612ef686828701612af2565b9250506040612f0786828701612af2565b9150509250925092565b600082825260208201905092915050565b6000612f2d82612d1f565b612f378185612f11565b9350612f47818560208601612d3b565b612f5081612b74565b840191505092915050565b612f6481612a66565b82525050565b612f7381612ad1565b82525050565b6000610160830160008301518482036000860152612f978282612f22565b9150506020830151612fac6020860182612f5b565b5060408301518482036040860152612fc48282612f22565b9150506060830151612fd96060860182612f5b565b5060808301518482036080860152612ff18282612f22565b91505060a083015161300660a0860182612f6a565b5060c083015161301960c0860182612f6a565b5060e083015161302c60e0860182612f6a565b50610100830151613041610100860182612f6a565b50610120830151613056610120860182612f6a565b5061014083015161306b610140860182612f6a565b508091505092915050565b600060208201905081810360008301526130908184612f79565b905092915050565b60006020820190506130ad6000830184612e10565b92915050565b60006040820190506130c86000830185612da7565b6130d56020830184612da7565b9392505050565b600080604083850312156130f3576130f2612a3c565b5b600061310185828601612a8f565b925050602061311285828601612a8f565b9150509250929050565b7f4f6e6c792062757965722063616e2072656c656173652066756e64732e000000600082015250565b6000613152601d83612d2a565b915061315d8261311c565b602082019050919050565b6000602082019050818103600083015261318181613145565b9050919050565b60008151905061319781612adb565b92915050565b6000602082840312156131b3576131b2612a3c565b5b60006131c184828501613188565b91505092915050565b7f506c65617365206465706f73697420746f6b656e73206265666f72652073696760008201527f6e696e6720636f6e747261637400000000000000000000000000000000000000602082015250565b6000613226602d83612d2a565b9150613231826131ca565b604082019050919050565b6000602082019050818103600083015261325581613219565b9050919050565b60006080820190506132716000830187612e10565b61327e6020830186612e10565b61328b6040830185612da7565b6132986060830184612da7565b95945050505050565b7f4f6e6c79206f776e65727320616c6c6f7765642e000000000000000000000000600082015250565b60006132d7601483612d2a565b91506132e2826132a1565b602082019050919050565b60006020820190508181036000830152613306816132ca565b9050919050565b7f436f6e7472616374206e6f74207965742066696e616c00000000000000000000600082015250565b6000613343601683612d2a565b915061334e8261330d565b602082019050919050565b6000602082019050818103600083015261337281613336565b9050919050565b7f4e487b7100000000000000000000000000000000000000000000000000000000600052601160045260246000fd5b60006133b382612ad1565b91506133be83612ad1565b9250827fffffffffffffffffffffffffffffffffffffffffffffffffffffffffffffffff038211156133f3576133f2613379565b5b828201905092915050565b600061340982612ad1565b915061341483612ad1565b92508282101561342757613426613379565b5b828203905092915050565b7f496e73756666696369656e742066756e64730000000000000000000000000000600082015250565b6000613468601283612d2a565b915061347382613432565b602082019050919050565b600060208201905081810360008301526134978161345b565b9050919050565b60006060820190506134b36000830186612e10565b6134c06020830185612e10565b6134cd6040830184612da7565b949350505050565b600060608201905081810360008301526134ef8186612d6e565b90506134fe6020830185612e10565b61350b6040830184612da7565b949350505050565b7f4f6e6c792073656c6c65722063616e2077697468647261772e00000000000000600082015250565b6000613549601983612d2a565b915061355482613513565b602082019050919050565b600060208201905081810360008301526135788161353c565b9050919050565b7f496e76616c69642073746174652e204c6f636b6564203e2042616c616e63652160008201527f2100000000000000000000000000000000000000000000000000000000000000602082015250565b60006135db602183612d2a565b91506135e68261357f565b604082019050919050565b6000602082019050818103600083015261360a816135ce565b9050919050565b7f4e487b7100000000000000000000000000000000000000000000000000000000600052602260045260246000fd5b6000600282049050600182168061365857607f821691505b6020821081141561366c5761366b613611565b5b50919050565b7f4f6e6c7920756e6c6f636b65722063616e20756e6c6f636b2066756e64732e00600082015250565b60006136a8601f83612d2a565b91506136b382613672565b602082019050919050565b600060208201905081810360008301526136d78161369b565b9050919050565b7f43616e6e6f7420756e6c6f636b206d6f7265207468616e2066756e647320726560008201527f6c65617365642062792062757965722e00000000000000000000000000000000602082015250565b600061373a603083612d2a565b9150613745826136de565b604082019050919050565b600060208201905081810360008301526137698161372d565b9050919050565b600061377b82612ad1565b915061378683612ad1565b9250817fffffffffffffffffffffffffffffffffffffffffffffffffffffffffffffffff04831182151516156137bf576137be613379565b5b828202905092915050565b7f4e487b7100000000000000000000000000000000000000000000000000000000600052601260045260246000fd5b600061380482612ad1565b915061380f83612ad1565b92508261381f5761381e6137ca565b5b828204905092915050565b7f4f6e6c792049435320616c6c6f7765642e000000000000000000000000000000600082015250565b6000613860601183612d2a565b915061386b8261382a565b602082019050919050565b6000602082019050818103600083015261388f81613853565b9050919050565b600080604083850312156138ad576138ac612a3c565b5b60006138bb85828601613188565b92505060206138cc85828601613188565b9150509250929050565b6000815190506138e581612a78565b92915050565b600080600080600080600060e0888a03121561390a57613909612a3c565b5b60006139188a828b016138d6565b97505060206139298a828b016138d6565b965050604061393a8a828b01613188565b955050606061394b8a828b01613188565b945050608061395c8a828b01613188565b93505060a061396d8a828b01613188565b92505060c061397e8a828b01613188565b91505092959891949750929550565b7f496e73756666696369656e742066756e647320696e206661726d657220636f6e60008201527f7472616374000000000000000000000000000000000000000000000000000000602082015250565b60006139e9602583612d2a565b91506139f48261398d565b604082019050919050565b60006020820190508181036000830152613a18816139dc565b9050919050565b6000602082019050613a346000830184612da7565b92915050565b613a4381612b34565b8114613a4e57600080fd5b50565b600081519050613a6081613a3a565b92915050565b600060208284031215613a7c57613a7b612a3c565b5b6000613a8a84828501613a51565b91505092915050565b7f4f6e6c792061646d696e2063616e20706572666f726d2074686973206f70657260008201527f6174696f6e2e0000000000000000000000000000000000000000000000000000602082015250565b6000613aef602683612d2a565b9150613afa82613a93565b604082019050919050565b60006020820190508181036000830152613b1e81613ae2565b9050919050565b600060a082019050613b3a6000830188612e10565b613b476020830187612e10565b613b546040830186612e10565b613b616060830185612da7565b613b6e6080830184612da7565b9695505050505050565b600060208284031215613b8e57613b8d612a3c565b5b6000613b9c848285016138d6565b91505092915050565b7f496e76616c6964206661726d657220636f6e74726163742e2043616e206e6f7460008201527f2061646420746f207468697320636f6e74726163740000000000000000000000602082015250565b6000613c01603583612d2a565b9150613c0c82613ba5565b604082019050919050565b60006020820190508181036000830152613c3081613bf4565b9050919050565b6000604082019050613c4c6000830185612e10565b613c596020830184612e10565b9392505050565b6000604082019050613c756000830185612e10565b613c826020830184612da7565b9392505050565b7f5361666545524332303a204552433230206f7065726174696f6e20646964206e60008201527f6f74207375636365656400000000000000000000000000000000000000000000602082015250565b6000613ce5602a83612d2a565b9150613cf082613c89565b604082019050919050565b60006020820190508181036000830152613d1481613cd8565b9050919050565b7f416464726573733a20696e73756666696369656e742062616c616e636520666f60008201527f722063616c6c0000000000000000000000000000000000000000000000000000602082015250565b6000613d77602683612d2a565b9150613d8282613d1b565b604082019050919050565b60006020820190508181036000830152613da681613d6a565b9050919050565b600081519050919050565b600081905092915050565b6000613dce82613dad565b613dd88185613db8565b9350613de8818560208601612d3b565b80840191505092915050565b6000613e008284613dc3565b915081905092915050565b7f416464726573733a2063616c6c20746f206e6f6e2d636f6e7472616374000000600082015250565b6000613e41601d83612d2a565b9150613e4c82613e0b565b602082019050919050565b60006020820190508181036000830152613e7081613e34565b9050919050565b60006020820190508181036000830152613e918184612d6e565b90509291505056fea26469706673582212202d7cfa8762d146fd90e05ccc60f196bf04b6cfcb97dbdb39385d20d4d941c3e964736f6c63430008090033",
  "linkReferences": {},
  "deployedLinkReferences": {}
}