{
  "_format": "hh-sol-artifact-1",
  "contractName": "Incentives",
  "sourceName": "contracts/Incentives.sol",
  "abi": [
    {
      "inputs": [
        {
          "internalType": "address",
          "name": "_issueAuthority",
          "type": "address"
        },
        {
          "internalType": "address",
          "name": "_tokenContract",
          "type": "address"
        }
      ],
      "stateMutability": "nonpayable",
      "type": "constructor"
    },
    {
      "anonymous": false,
      "inputs": [
        {
          "indexed": false,
          "internalType": "address",
          "name": "farmer",
          "type": "address"
        },
        {
          "indexed": false,
          "internalType": "uint256",
          "name": "eventId",
          "type": "uint256"
        },
        {
          "indexed": false,
          "internalType": "string",
          "name": "uri",
          "type": "string"
        },
        {
          "indexed": false,
          "internalType": "uint256",
          "name": "incentive",
          "type": "uint256"
        }
      ],
      "name": "IncentiveEvent",
      "type": "event"
    },
    {
      "inputs": [
        {
          "internalType": "address",
          "name": "_issueAuthority",
          "type": "address"
        }
      ],
      "name": "addAuthority",
      "outputs": [],
      "stateMutability": "nonpayable",
      "type": "function"
    },
    {
      "inputs": [
        {
          "internalType": "string",
          "name": "_uri",
          "type": "string"
        },
        {
          "internalType": "address",
          "name": "recipient",
          "type": "address"
        },
        {
          "internalType": "uint256",
          "name": "_eventId",
          "type": "uint256"
        }
      ],
      "name": "addEvent",
      "outputs": [],
      "stateMutability": "nonpayable",
      "type": "function"
    },
    {
      "inputs": [
        {
          "internalType": "uint256",
          "name": "_amount",
          "type": "uint256"
        }
      ],
      "name": "deposit",
      "outputs": [],
      "stateMutability": "nonpayable",
      "type": "function"
    },
    {
      "inputs": [
        {
          "internalType": "uint256",
          "name": "_eventId",
          "type": "uint256"
        },
        {
          "internalType": "uint256",
          "name": "_incentive",
          "type": "uint256"
        }
      ],
      "name": "setIncentive",
      "outputs": [],
      "stateMutability": "nonpayable",
      "type": "function"
    }
  ],
  "bytecode": "0x60806040523480156200001157600080fd5b506040516200140f3803806200140f833981810160405281019062000037919062000173565b336000806101000a81548173ffffffffffffffffffffffffffffffffffffffff021916908373ffffffffffffffffffffffffffffffffffffffff16021790555081600160006101000a81548173ffffffffffffffffffffffffffffffffffffffff021916908373ffffffffffffffffffffffffffffffffffffffff16021790555080600260006101000a81548173ffffffffffffffffffffffffffffffffffffffff021916908373ffffffffffffffffffffffffffffffffffffffff16021790555060006003819055505050620001ba565b600080fd5b600073ffffffffffffffffffffffffffffffffffffffff82169050919050565b60006200013b826200010e565b9050919050565b6200014d816200012e565b81146200015957600080fd5b50565b6000815190506200016d8162000142565b92915050565b600080604083850312156200018d576200018c62000109565b5b60006200019d858286016200015c565b9250506020620001b0858286016200015c565b9150509250929050565b61124580620001ca6000396000f3fe608060405234801561001057600080fd5b506004361061004c5760003560e01c806326defa731461005157806329a19edb1461006d578063b6b55f2514610089578063c0a03dec146100a5575b600080fd5b61006b600480360381019061006691906108f1565b6100c1565b005b61008760048036038101906100829190610a9a565b610193565b005b6100a3600480360381019061009e9190610b09565b610373565b005b6100bf60048036038101906100ba9190610b36565b6104b7565b005b60008054906101000a900473ffffffffffffffffffffffffffffffffffffffff1673ffffffffffffffffffffffffffffffffffffffff163373ffffffffffffffffffffffffffffffffffffffff161461014f576040517f08c379a000000000000000000000000000000000000000000000000000000000815260040161014690610bd3565b60405180910390fd5b80600160006101000a81548173ffffffffffffffffffffffffffffffffffffffff021916908373ffffffffffffffffffffffffffffffffffffffff16021790555050565b600160009054906101000a900473ffffffffffffffffffffffffffffffffffffffff1673ffffffffffffffffffffffffffffffffffffffff163373ffffffffffffffffffffffffffffffffffffffff1614610223576040517f08c379a000000000000000000000000000000000000000000000000000000000815260040161021a90610c3f565b60405180910390fd5b6000600460008381526020019081526020016000205490506000811161027e576040517f08c379a000000000000000000000000000000000000000000000000000000000815260040161027590610cd1565b60405180910390fd5b60035481106102c2576040517f08c379a00000000000000000000000000000000000000000000000000000000081526004016102b990610d3d565b60405180910390fd5b80600360008282546102d49190610d8c565b925050819055506000600260009054906101000a900473ffffffffffffffffffffffffffffffffffffffff16905061032f3085848473ffffffffffffffffffffffffffffffffffffffff16610561909392919063ffffffff16565b7f72beacc1fe521d8d713b8c0d9ecb64c616d0534c2159a79d7dbbf2378d8e65a5848487856040516103649493929190610e55565b60405180910390a15050505050565b600160009054906101000a900473ffffffffffffffffffffffffffffffffffffffff1673ffffffffffffffffffffffffffffffffffffffff163373ffffffffffffffffffffffffffffffffffffffff1614610403576040517f08c379a00000000000000000000000000000000000000000000000000000000081526004016103fa90610c3f565b60405180910390fd5b60008111610446576040517f08c379a000000000000000000000000000000000000000000000000000000000815260040161043d90610eed565b60405180910390fd5b6000600260009054906101000a900473ffffffffffffffffffffffffffffffffffffffff16905061049a3330848473ffffffffffffffffffffffffffffffffffffffff16610561909392919063ffffffff16565b81600360008282546104ac9190610f0d565b925050819055505050565b60008054906101000a900473ffffffffffffffffffffffffffffffffffffffff1673ffffffffffffffffffffffffffffffffffffffff163373ffffffffffffffffffffffffffffffffffffffff1614610545576040517f08c379a000000000000000000000000000000000000000000000000000000000815260040161053c90610bd3565b60405180910390fd5b8060046000848152602001908152602001600020819055505050565b6105e4846323b872dd60e01b85858560405160240161058293929190610f63565b604051602081830303815290604052907bffffffffffffffffffffffffffffffffffffffffffffffffffffffff19166020820180517bffffffffffffffffffffffffffffffffffffffffffffffffffffffff83818316178352505050506105ea565b50505050565b600061064c826040518060400160405280602081526020017f5361666545524332303a206c6f772d6c6576656c2063616c6c206661696c65648152508573ffffffffffffffffffffffffffffffffffffffff166106b19092919063ffffffff16565b90506000815111156106ac578080602001905181019061066c9190610fd2565b6106ab576040517f08c379a00000000000000000000000000000000000000000000000000000000081526004016106a290611071565b60405180910390fd5b5b505050565b60606106c084846000856106c9565b90509392505050565b60608247101561070e576040517f08c379a000000000000000000000000000000000000000000000000000000000815260040161070590611103565b60405180910390fd5b6000808673ffffffffffffffffffffffffffffffffffffffff168587604051610737919061116a565b60006040518083038185875af1925050503d8060008114610774576040519150601f19603f3d011682016040523d82523d6000602084013e610779565b606091505b509150915061078a87838387610796565b92505050949350505050565b606083156107f9576000835114156107f1576107b18561080c565b6107f0576040517f08c379a00000000000000000000000000000000000000000000000000000000081526004016107e7906111cd565b60405180910390fd5b5b829050610804565b610803838361082f565b5b949350505050565b6000808273ffffffffffffffffffffffffffffffffffffffff163b119050919050565b6000825111156108425781518083602001fd5b806040517f08c379a000000000000000000000000000000000000000000000000000000000815260040161087691906111ed565b60405180910390fd5b6000604051905090565b600080fd5b600080fd5b600073ffffffffffffffffffffffffffffffffffffffff82169050919050565b60006108be82610893565b9050919050565b6108ce816108b3565b81146108d957600080fd5b50565b6000813590506108eb816108c5565b92915050565b60006020828403121561090757610906610889565b5b6000610915848285016108dc565b91505092915050565b600080fd5b600080fd5b6000601f19601f8301169050919050565b7f4e487b7100000000000000000000000000000000000000000000000000000000600052604160045260246000fd5b61097182610928565b810181811067ffffffffffffffff821117156109905761098f610939565b5b80604052505050565b60006109a361087f565b90506109af8282610968565b919050565b600067ffffffffffffffff8211156109cf576109ce610939565b5b6109d882610928565b9050602081019050919050565b82818337600083830152505050565b6000610a07610a02846109b4565b610999565b905082815260208101848484011115610a2357610a22610923565b5b610a2e8482856109e5565b509392505050565b600082601f830112610a4b57610a4a61091e565b5b8135610a5b8482602086016109f4565b91505092915050565b6000819050919050565b610a7781610a64565b8114610a8257600080fd5b50565b600081359050610a9481610a6e565b92915050565b600080600060608486031215610ab357610ab2610889565b5b600084013567ffffffffffffffff811115610ad157610ad061088e565b5b610add86828701610a36565b9350506020610aee868287016108dc565b9250506040610aff86828701610a85565b9150509250925092565b600060208284031215610b1f57610b1e610889565b5b6000610b2d84828501610a85565b91505092915050565b60008060408385031215610b4d57610b4c610889565b5b6000610b5b85828601610a85565b9250506020610b6c85828601610a85565b9150509250929050565b600082825260208201905092915050565b7f4f6e6c79206f776e65727320616c6c6f7765642e000000000000000000000000600082015250565b6000610bbd601483610b76565b9150610bc882610b87565b602082019050919050565b60006020820190508181036000830152610bec81610bb0565b9050919050565b7f5065726d697373696f6e2064656e696564000000000000000000000000000000600082015250565b6000610c29601183610b76565b9150610c3482610bf3565b602082019050919050565b60006020820190508181036000830152610c5881610c1c565b9050919050565b7f496e63656e74697665206e6f7420636f6e6669677572656420666f722065766560008201527f6e74000000000000000000000000000000000000000000000000000000000000602082015250565b6000610cbb602283610b76565b9150610cc682610c5f565b604082019050919050565b60006020820190508181036000830152610cea81610cae565b9050919050565b7f496e73756666696369656e742066756e64730000000000000000000000000000600082015250565b6000610d27601283610b76565b9150610d3282610cf1565b602082019050919050565b60006020820190508181036000830152610d5681610d1a565b9050919050565b7f4e487b7100000000000000000000000000000000000000000000000000000000600052601160045260246000fd5b6000610d9782610a64565b9150610da283610a64565b925082821015610db557610db4610d5d565b5b828203905092915050565b610dc9816108b3565b82525050565b610dd881610a64565b82525050565b600081519050919050565b60005b83811015610e07578082015181840152602081019050610dec565b83811115610e16576000848401525b50505050565b6000610e2782610dde565b610e318185610b76565b9350610e41818560208601610de9565b610e4a81610928565b840191505092915050565b6000608082019050610e6a6000830187610dc0565b610e776020830186610dcf565b8181036040830152610e898185610e1c565b9050610e986060830184610dcf565b95945050505050565b7f496e76616c696420616d6f756e74000000000000000000000000000000000000600082015250565b6000610ed7600e83610b76565b9150610ee282610ea1565b602082019050919050565b60006020820190508181036000830152610f0681610eca565b9050919050565b6000610f1882610a64565b9150610f2383610a64565b9250827fffffffffffffffffffffffffffffffffffffffffffffffffffffffffffffffff03821115610f5857610f57610d5d565b5b828201905092915050565b6000606082019050610f786000830186610dc0565b610f856020830185610dc0565b610f926040830184610dcf565b949350505050565b60008115159050919050565b610faf81610f9a565b8114610fba57600080fd5b50565b600081519050610fcc81610fa6565b92915050565b600060208284031215610fe857610fe7610889565b5b6000610ff684828501610fbd565b91505092915050565b7f5361666545524332303a204552433230206f7065726174696f6e20646964206e60008201527f6f74207375636365656400000000000000000000000000000000000000000000602082015250565b600061105b602a83610b76565b915061106682610fff565b604082019050919050565b6000602082019050818103600083015261108a8161104e565b9050919050565b7f416464726573733a20696e73756666696369656e742062616c616e636520666f60008201527f722063616c6c0000000000000000000000000000000000000000000000000000602082015250565b60006110ed602683610b76565b91506110f882611091565b604082019050919050565b6000602082019050818103600083015261111c816110e0565b9050919050565b600081519050919050565b600081905092915050565b600061114482611123565b61114e818561112e565b935061115e818560208601610de9565b80840191505092915050565b60006111768284611139565b915081905092915050565b7f416464726573733a2063616c6c20746f206e6f6e2d636f6e7472616374000000600082015250565b60006111b7601d83610b76565b91506111c282611181565b602082019050919050565b600060208201905081810360008301526111e6816111aa565b9050919050565b600060208201905081810360008301526112078184610e1c565b90509291505056fea26469706673582212208aa5cc8a62fdc08bb53e513824b10d12d761d733652f1b04c61b483685c1f15064736f6c63430008090033",
  "linkReferences": {},
  "deployedLinkReferences": {}
}