{
  "_format": "hh-sol-artifact-1",
  "contractName": "FarmerIcsContract",
  "sourceName": "contracts/FarmerIcsContract.sol",
  "abi": [
    {
      "inputs": [
        {
          "internalType": "address",
          "name": "_tokenAddress",
          "type": "address"
        },
        {
          "internalType": "string",
          "name": "_productName",
          "type": "string"
        },
        {
          "internalType": "string",
          "name": "_icsName",
          "type": "string"
        },
        {
          "internalType": "string",
          "name": "_farmerName",
          "type": "string"
        },
        {
          "internalType": "address",
          "name": "_ics",
          "type": "address"
        },
        {
          "internalType": "address",
          "name": "_farmer",
          "type": "address"
        },
        {
          "internalType": "uint256",
          "name": "_estimatedYieldMin",
          "type": "uint256"
        },
        {
          "internalType": "uint256",
          "name": "_estimatedYieldMax",
          "type": "uint256"
        },
        {
          "internalType": "uint256",
          "name": "_estimatedPriceMin",
          "type": "uint256"
        },
        {
          "internalType": "uint256",
          "name": "_estimatedPriceMax",
          "type": "uint256"
        },
        {
          "internalType": "uint256",
          "name": "_downPaymentBps",
          "type": "uint256"
        }
      ],
      "stateMutability": "nonpayable",
      "type": "constructor"
    },
    {
      "anonymous": false,
      "inputs": [
        {
          "indexed": false,
          "internalType": "address",
          "name": "admin",
          "type": "address"
        },
        {
          "indexed": false,
          "internalType": "address",
          "name": "buyer",
          "type": "address"
        },
        {
          "indexed": false,
          "internalType": "address",
          "name": "seller",
          "type": "address"
        },
        {
          "indexed": false,
          "internalType": "uint256",
          "name": "contractValueMin",
          "type": "uint256"
        },
        {
          "indexed": false,
          "internalType": "uint256",
          "name": "contractValueMax",
          "type": "uint256"
        }
      ],
      "name": "AdminSigned",
      "type": "event"
    },
    {
      "anonymous": false,
      "inputs": [
        {
          "indexed": false,
          "internalType": "address",
          "name": "buyer",
          "type": "address"
        },
        {
          "indexed": false,
          "internalType": "address",
          "name": "seller",
          "type": "address"
        },
        {
          "indexed": false,
          "internalType": "uint256",
          "name": "contractValueMin",
          "type": "uint256"
        },
        {
          "indexed": false,
          "internalType": "uint256",
          "name": "contractValueMax",
          "type": "uint256"
        }
      ],
      "name": "BuyerSigned",
      "type": "event"
    },
    {
      "anonymous": false,
      "inputs": [
        {
          "indexed": false,
          "internalType": "address",
          "name": "buyer",
          "type": "address"
        },
        {
          "indexed": false,
          "internalType": "address",
          "name": "seller",
          "type": "address"
        }
      ],
      "name": "Cancel",
      "type": "event"
    },
    {
      "anonymous": false,
      "inputs": [
        {
          "indexed": false,
          "internalType": "address",
          "name": "buyer",
          "type": "address"
        },
        {
          "indexed": false,
          "internalType": "address",
          "name": "seller",
          "type": "address"
        },
        {
          "indexed": false,
          "internalType": "uint256",
          "name": "qty",
          "type": "uint256"
        }
      ],
      "name": "Deposit",
      "type": "event"
    },
    {
      "anonymous": false,
      "inputs": [
        {
          "indexed": false,
          "internalType": "address",
          "name": "buyer",
          "type": "address"
        },
        {
          "indexed": false,
          "internalType": "address",
          "name": "seller",
          "type": "address"
        },
        {
          "indexed": false,
          "internalType": "uint256",
          "name": "qty",
          "type": "uint256"
        }
      ],
      "name": "Release",
      "type": "event"
    },
    {
      "anonymous": false,
      "inputs": [
        {
          "indexed": false,
          "internalType": "address",
          "name": "buyer",
          "type": "address"
        },
        {
          "indexed": false,
          "internalType": "address",
          "name": "seller",
          "type": "address"
        },
        {
          "indexed": false,
          "internalType": "uint256",
          "name": "contractValueMin",
          "type": "uint256"
        },
        {
          "indexed": false,
          "internalType": "uint256",
          "name": "contractValueMax",
          "type": "uint256"
        }
      ],
      "name": "SellerSigned",
      "type": "event"
    },
    {
      "anonymous": false,
      "inputs": [
        {
          "indexed": false,
          "internalType": "address",
          "name": "buyer",
          "type": "address"
        },
        {
          "indexed": false,
          "internalType": "address",
          "name": "seller",
          "type": "address"
        },
        {
          "indexed": false,
          "internalType": "uint256",
          "name": "qty",
          "type": "uint256"
        }
      ],
      "name": "Unlock",
      "type": "event"
    },
    {
      "anonymous": false,
      "inputs": [
        {
          "indexed": false,
          "internalType": "address",
          "name": "buyer",
          "type": "address"
        },
        {
          "indexed": false,
          "internalType": "address",
          "name": "seller",
          "type": "address"
        },
        {
          "indexed": false,
          "internalType": "uint256",
          "name": "qty",
          "type": "uint256"
        }
      ],
      "name": "Withdraw",
      "type": "event"
    },
    {
      "inputs": [
        {
          "internalType": "string",
          "name": "_uri",
          "type": "string"
        },
        {
          "internalType": "uint256",
          "name": "_eventId",
          "type": "uint256"
        }
      ],
      "name": "addEvent",
      "outputs": [],
      "stateMutability": "nonpayable",
      "type": "function"
    },
    {
      "inputs": [],
      "name": "adminSign",
      "outputs": [],
      "stateMutability": "nonpayable",
      "type": "function"
    },
    {
      "inputs": [
        {
          "internalType": "address",
          "name": "_unlocker",
          "type": "address"
        }
      ],
      "name": "assignUnlocker",
      "outputs": [],
      "stateMutability": "nonpayable",
      "type": "function"
    },
    {
      "inputs": [],
      "name": "buyerSign",
      "outputs": [],
      "stateMutability": "nonpayable",
      "type": "function"
    },
    {
      "inputs": [],
      "name": "cancel",
      "outputs": [],
      "stateMutability": "nonpayable",
      "type": "function"
    },
    {
      "inputs": [],
      "name": "details",
      "outputs": [
        {
          "internalType": "address",
          "name": "",
          "type": "address"
        },
        {
          "internalType": "address",
          "name": "",
          "type": "address"
        },
        {
          "internalType": "uint256",
          "name": "",
          "type": "uint256"
        },
        {
          "internalType": "uint256",
          "name": "",
          "type": "uint256"
        },
        {
          "internalType": "uint256",
          "name": "",
          "type": "uint256"
        },
        {
          "internalType": "uint256",
          "name": "",
          "type": "uint256"
        },
        {
          "internalType": "uint256",
          "name": "",
          "type": "uint256"
        }
      ],
      "stateMutability": "view",
      "type": "function"
    },
    {
      "inputs": [],
      "name": "finalPayment",
      "outputs": [
        {
          "internalType": "bool",
          "name": "",
          "type": "bool"
        }
      ],
      "stateMutability": "nonpayable",
      "type": "function"
    },
    {
      "inputs": [],
      "name": "getBuyer",
      "outputs": [
        {
          "internalType": "string",
          "name": "",
          "type": "string"
        },
        {
          "internalType": "address",
          "name": "",
          "type": "address"
        }
      ],
      "stateMutability": "view",
      "type": "function"
    },
    {
      "inputs": [],
      "name": "getContractValue",
      "outputs": [
        {
          "internalType": "uint256",
          "name": "",
          "type": "uint256"
        },
        {
          "internalType": "uint256",
          "name": "",
          "type": "uint256"
        }
      ],
      "stateMutability": "view",
      "type": "function"
    },
    {
      "inputs": [],
      "name": "getDetails2",
      "outputs": [
        {
          "components": [
            {
              "internalType": "string",
              "name": "productName",
              "type": "string"
            },
            {
              "internalType": "address",
              "name": "buyer",
              "type": "address"
            },
            {
              "internalType": "string",
              "name": "buyerName",
              "type": "string"
            },
            {
              "internalType": "address",
              "name": "seller",
              "type": "address"
            },
            {
              "internalType": "string",
              "name": "sellerName",
              "type": "string"
            },
            {
              "internalType": "uint256",
              "name": "estimatedYieldMin",
              "type": "uint256"
            },
            {
              "internalType": "uint256",
              "name": "estimatedYieldMax",
              "type": "uint256"
            },
            {
              "internalType": "uint256",
              "name": "tentativeYield",
              "type": "uint256"
            },
            {
              "internalType": "uint256",
              "name": "estimatedPriceMin",
              "type": "uint256"
            },
            {
              "internalType": "uint256",
              "name": "estimatedPriceMax",
              "type": "uint256"
            },
            {
              "internalType": "uint256",
              "name": "tentativePrice",
              "type": "uint256"
            }
          ],
          "internalType": "struct ContractDetails",
          "name": "",
          "type": "tuple"
        }
      ],
      "stateMutability": "view",
      "type": "function"
    },
    {
      "inputs": [],
      "name": "getParentContract",
      "outputs": [
        {
          "internalType": "address",
          "name": "",
          "type": "address"
        }
      ],
      "stateMutability": "view",
      "type": "function"
    },
    {
      "inputs": [],
      "name": "getProduct",
      "outputs": [
        {
          "internalType": "string",
          "name": "",
          "type": "string"
        },
        {
          "internalType": "uint256",
          "name": "",
          "type": "uint256"
        },
        {
          "internalType": "uint256",
          "name": "",
          "type": "uint256"
        },
        {
          "internalType": "uint256",
          "name": "",
          "type": "uint256"
        },
        {
          "internalType": "uint256",
          "name": "",
          "type": "uint256"
        }
      ],
      "stateMutability": "view",
      "type": "function"
    },
    {
      "inputs": [],
      "name": "getSeller",
      "outputs": [
        {
          "internalType": "string",
          "name": "",
          "type": "string"
        },
        {
          "internalType": "address",
          "name": "",
          "type": "address"
        }
      ],
      "stateMutability": "view",
      "type": "function"
    },
    {
      "inputs": [],
      "name": "makeDownpayment",
      "outputs": [
        {
          "internalType": "bool",
          "name": "",
          "type": "bool"
        }
      ],
      "stateMutability": "nonpayable",
      "type": "function"
    },
    {
      "inputs": [
        {
          "internalType": "uint256",
          "name": "_amount",
          "type": "uint256"
        }
      ],
      "name": "releaseAmount",
      "outputs": [
        {
          "internalType": "bool",
          "name": "",
          "type": "bool"
        }
      ],
      "stateMutability": "nonpayable",
      "type": "function"
    },
    {
      "inputs": [],
      "name": "sellerSign",
      "outputs": [],
      "stateMutability": "nonpayable",
      "type": "function"
    },
    {
      "inputs": [
        {
          "internalType": "address",
          "name": "_incentiveContract",
          "type": "address"
        }
      ],
      "name": "setIncentiveContract",
      "outputs": [],
      "stateMutability": "nonpayable",
      "type": "function"
    },
    {
      "inputs": [
        {
          "internalType": "address",
          "name": "_parentContract",
          "type": "address"
        }
      ],
      "name": "setParentContract",
      "outputs": [],
      "stateMutability": "nonpayable",
      "type": "function"
    },
    {
      "inputs": [
        {
          "internalType": "uint256",
          "name": "_amount",
          "type": "uint256"
        }
      ],
      "name": "unlockAmount",
      "outputs": [
        {
          "internalType": "bool",
          "name": "",
          "type": "bool"
        }
      ],
      "stateMutability": "nonpayable",
      "type": "function"
    },
    {
      "inputs": [],
      "name": "withdraw",
      "outputs": [
        {
          "internalType": "bool",
          "name": "",
          "type": "bool"
        }
      ],
      "stateMutability": "nonpayable",
      "type": "function"
    }
  ],
  "bytecode": "0x60806040523480156200001157600080fd5b5060405162003ea438038062003ea483398181016040528101906200003791906200060c565b8a8a8a8a8a8a8a8a8a8a8a6000811015801562000055575061271081105b62000097576040517f08c379a00000000000000000000000000000000000000000000000000000000081526004016200008e90620007fd565b60405180910390fd5b8960039080519060200190620000af9291906200031f565b5033600160006101000a81548173ffffffffffffffffffffffffffffffffffffffff021916908373ffffffffffffffffffffffffffffffffffffffff160217905550600160009054906101000a900473ffffffffffffffffffffffffffffffffffffffff16600260006101000a81548173ffffffffffffffffffffffffffffffffffffffff021916908373ffffffffffffffffffffffffffffffffffffffff1602179055508a6000806101000a81548173ffffffffffffffffffffffffffffffffffffffff021916908373ffffffffffffffffffffffffffffffffffffffff16021790555086600460006101000a81548173ffffffffffffffffffffffffffffffffffffffff021916908373ffffffffffffffffffffffffffffffffffffffff1602179055508860059080519060200190620001ed9291906200031f565b508760079080519060200190620002069291906200031f565b5085600660006101000a81548173ffffffffffffffffffffffffffffffffffffffff021916908373ffffffffffffffffffffffffffffffffffffffff1602179055506000601181905550600060128190555080601381905550846008819055508360098190555082600b8190555081600c81905550670de0b6b3a764000083866200029291906200084e565b6200029e91906200084e565b600f81905550670de0b6b3a76400008285620002bb91906200084e565b620002c791906200084e565b6010819055506000600e60016101000a81548160ff0219169083151502179055506000600e60026101000a81548160ff0219169083151502179055505050505050505050505050505050505050505050505062000914565b8280546200032d90620008de565b90600052602060002090601f0160209004810192826200035157600085556200039d565b82601f106200036c57805160ff19168380011785556200039d565b828001600101855582156200039d579182015b828111156200039c5782518255916020019190600101906200037f565b5b509050620003ac9190620003b0565b5090565b5b80821115620003cb576000816000905550600101620003b1565b5090565b6000604051905090565b600080fd5b600080fd5b600073ffffffffffffffffffffffffffffffffffffffff82169050919050565b60006200041082620003e3565b9050919050565b620004228162000403565b81146200042e57600080fd5b50565b600081519050620004428162000417565b92915050565b600080fd5b600080fd5b6000601f19601f8301169050919050565b7f4e487b7100000000000000000000000000000000000000000000000000000000600052604160045260246000fd5b6200049d8262000452565b810181811067ffffffffffffffff82111715620004bf57620004be62000463565b5b80604052505050565b6000620004d4620003cf565b9050620004e2828262000492565b919050565b600067ffffffffffffffff82111562000505576200050462000463565b5b620005108262000452565b9050602081019050919050565b60005b838110156200053d57808201518184015260208101905062000520565b838111156200054d576000848401525b50505050565b60006200056a6200056484620004e7565b620004c8565b9050828152602081018484840111156200058957620005886200044d565b5b620005968482856200051d565b509392505050565b600082601f830112620005b657620005b562000448565b5b8151620005c884826020860162000553565b91505092915050565b6000819050919050565b620005e681620005d1565b8114620005f257600080fd5b50565b6000815190506200060681620005db565b92915050565b60008060008060008060008060008060006101608c8e031215620006355762000634620003d9565b5b6000620006458e828f0162000431565b9b505060208c015167ffffffffffffffff811115620006695762000668620003de565b5b620006778e828f016200059e565b9a505060408c015167ffffffffffffffff8111156200069b576200069a620003de565b5b620006a98e828f016200059e565b99505060608c015167ffffffffffffffff811115620006cd57620006cc620003de565b5b620006db8e828f016200059e565b9850506080620006ee8e828f0162000431565b97505060a0620007018e828f0162000431565b96505060c0620007148e828f01620005f5565b95505060e0620007278e828f01620005f5565b9450506101006200073b8e828f01620005f5565b9350506101206200074f8e828f01620005f5565b925050610140620007638e828f01620005f5565b9150509295989b509295989b9093969950565b600082825260208201905092915050565b7f496e76616c696420646f776e5061796d656e744270732c20706c65617365207060008201527f6173732070657263656e7461676520626173697320706f696e74730000000000602082015250565b6000620007e5603b8362000776565b9150620007f28262000787565b604082019050919050565b600060208201905081810360008301526200081881620007d6565b9050919050565b7f4e487b7100000000000000000000000000000000000000000000000000000000600052601160045260246000fd5b60006200085b82620005d1565b91506200086883620005d1565b9250817fffffffffffffffffffffffffffffffffffffffffffffffffffffffffffffffff0483118215151615620008a457620008a36200081f565b5b828202905092915050565b7f4e487b7100000000000000000000000000000000000000000000000000000000600052602260045260246000fd5b60006002820490506001821680620008f757607f821691505b602082108114156200090e576200090d620008af565b5b50919050565b61358080620009246000396000f3fe608060405234801561001057600080fd5b506004361061012c5760003560e01c8063807b5d29116100ad578063dbd0e1b611610071578063dbd0e1b6146102e0578063dc82697c146102ff578063ea8a1af01461031e578063f0e1691a14610328578063f1177712146103445761012c565b8063807b5d291461027457806396a69f431461027e578063a513de691461029c578063c011bf16146102a6578063da385756146102c25761012c565b80634cd2c09a116100f45780634cd2c09a146101c7578063565974d3146101f75780635ebe25141461021b578063603daf9a14610239578063765ccb6b146102585761012c565b8063046a2fdd14610131578063078182001461013b5780632278f36b146101575780633ccfd60b146101875780634ba20050146101a5575b600080fd5b610139610362565b005b610155600480360381019061015091906124a4565b610595565b005b610171600480360381019061016c9190612507565b610669565b60405161017e919061254f565b60405180910390f35b61018f610934565b60405161019c919061254f565b60405180910390f35b6101ad610c68565b6040516101be959493929190612612565b60405180910390f35b6101e160048036038101906101dc9190612507565b610d1b565b6040516101ee919061254f565b60405180910390f35b6101ff610f21565b604051610212979695949392919061267b565b60405180910390f35b610223611049565b604051610230919061254f565b60405180910390f35b61024161130d565b60405161024f9291906126ea565b60405180910390f35b610272600480360381019061026d91906124a4565b6113ca565b005b61027c61140e565b005b610286611564565b604051610293919061287f565b60405180910390f35b6102a46117d7565b005b6102c060048036038101906102bb91906124a4565b611909565b005b6102ca61194d565b6040516102d7919061254f565b60405180910390f35b6102e8611ba0565b6040516102f69291906126ea565b60405180910390f35b610307611c5d565b6040516103159291906128a1565b60405180910390f35b610326611c6e565b005b610342600480360381019061033d91906129ff565b611f0e565b005b61034c612067565b6040516103599190612a5b565b60405180910390f35b600460009054906101000a900473ffffffffffffffffffffffffffffffffffffffff1673ffffffffffffffffffffffffffffffffffffffff163373ffffffffffffffffffffffffffffffffffffffff16146103f2576040517f08c379a00000000000000000000000000000000000000000000000000000000081526004016103e990612ac2565b60405180910390fd5b60008060009054906101000a900473ffffffffffffffffffffffffffffffffffffffff16905060008173ffffffffffffffffffffffffffffffffffffffff166370a08231306040518263ffffffff1660e01b81526004016104539190612a5b565b60206040518083038186803b15801561046b57600080fd5b505afa15801561047f573d6000803e3d6000fd5b505050506040513d601f19601f820116820180604052508101906104a39190612af7565b90506010548110156104ea576040517f08c379a00000000000000000000000000000000000000000000000000000000081526004016104e190612b96565b60405180910390fd5b6001600e60016101000a81548160ff021916908315150217905550806011819055507fca509163edfc238d34e4ef84d235590fe07508a67a58fa10a2a30ba245252f6a600460009054906101000a900473ffffffffffffffffffffffffffffffffffffffff16600660009054906101000a900473ffffffffffffffffffffffffffffffffffffffff16600f546010546040516105899493929190612bb6565b60405180910390a15050565b600460009054906101000a900473ffffffffffffffffffffffffffffffffffffffff1673ffffffffffffffffffffffffffffffffffffffff163373ffffffffffffffffffffffffffffffffffffffff1614610625576040517f08c379a000000000000000000000000000000000000000000000000000000000815260040161061c90612ac2565b60405180910390fd5b80601460006101000a81548173ffffffffffffffffffffffffffffffffffffffff021916908373ffffffffffffffffffffffffffffffffffffffff16021790555050565b6000600460009054906101000a900473ffffffffffffffffffffffffffffffffffffffff1673ffffffffffffffffffffffffffffffffffffffff163373ffffffffffffffffffffffffffffffffffffffff16146106fb576040517f08c379a00000000000000000000000000000000000000000000000000000000081526004016106f290612ac2565b60405180910390fd5b600e60009054906101000a900460ff1680156107235750600e60019054906101000a900460ff165b801561073b5750600e60029054906101000a900460ff165b61077a576040517f08c379a000000000000000000000000000000000000000000000000000000000815260040161077190612c47565b60405180910390fd5b60008060009054906101000a900473ffffffffffffffffffffffffffffffffffffffff16905060008173ffffffffffffffffffffffffffffffffffffffff166370a08231306040518263ffffffff1660e01b81526004016107db9190612a5b565b60206040518083038186803b1580156107f357600080fd5b505afa158015610807573d6000803e3d6000fd5b505050506040513d601f19601f8201168201806040525081019061082b9190612af7565b90508360125461083b9190612c96565b6012819055506000601154826108519190612cec565b9050808510610895576040517f08c379a000000000000000000000000000000000000000000000000000000000815260040161088c90612d6c565b60405180910390fd5b846011546108a39190612cec565b6011819055507fcb54aad3bd772fcfe1bc124e01bd1a91a91c9d80126d8b3014c4d9e687d5ca48600460009054906101000a900473ffffffffffffffffffffffffffffffffffffffff16600660009054906101000a900473ffffffffffffffffffffffffffffffffffffffff168760405161092093929190612d8c565b60405180910390a160019350505050919050565b6000600660009054906101000a900473ffffffffffffffffffffffffffffffffffffffff1673ffffffffffffffffffffffffffffffffffffffff163373ffffffffffffffffffffffffffffffffffffffff16146109c6576040517f08c379a00000000000000000000000000000000000000000000000000000000081526004016109bd90612e0f565b60405180910390fd5b600e60009054906101000a900460ff1680156109ee5750600e60019054906101000a900460ff165b8015610a065750600e60029054906101000a900460ff165b610a45576040517f08c379a0000000000000000000000000000000000000000000000000000000008152600401610a3c90612c47565b60405180910390fd5b60008060009054906101000a900473ffffffffffffffffffffffffffffffffffffffff16905060008173ffffffffffffffffffffffffffffffffffffffff166370a08231306040518263ffffffff1660e01b8152600401610aa69190612a5b565b60206040518083038186803b158015610abe57600080fd5b505afa158015610ad2573d6000803e3d6000fd5b505050506040513d601f19601f82011682018060405250810190610af69190612af7565b9050806011541115610b3d576040517f08c379a0000000000000000000000000000000000000000000000000000000008152600401610b3490612ea1565b60405180910390fd5b600060115482610b4d9190612cec565b905060008111610b92576040517f08c379a0000000000000000000000000000000000000000000000000000000008152600401610b8990612d6c565b60405180910390fd5b610bdf600660009054906101000a900473ffffffffffffffffffffffffffffffffffffffff16828573ffffffffffffffffffffffffffffffffffffffff166120919092919063ffffffff16565b7f9b1bfa7fa9ee420a16e124f794c35ac9f90472acc99140eb2f6447c714cad8eb600460009054906101000a900473ffffffffffffffffffffffffffffffffffffffff16600660009054906101000a900473ffffffffffffffffffffffffffffffffffffffff1683604051610c5693929190612d8c565b60405180910390a16001935050505090565b60606000806000806003600854600954600b54600c54848054610c8a90612ef0565b80601f0160208091040260200160405190810160405280929190818152602001828054610cb690612ef0565b8015610d035780601f10610cd857610100808354040283529160200191610d03565b820191906000526020600020905b815481529060010190602001808311610ce657829003601f168201915b50505050509450945094509450945094509091929394565b6000600260009054906101000a900473ffffffffffffffffffffffffffffffffffffffff1673ffffffffffffffffffffffffffffffffffffffff163373ffffffffffffffffffffffffffffffffffffffff1614610dad576040517f08c379a0000000000000000000000000000000000000000000000000000000008152600401610da490612f6e565b60405180910390fd5b600e60009054906101000a900460ff168015610dd55750600e60019054906101000a900460ff165b8015610ded5750600e60029054906101000a900460ff165b610e2c576040517f08c379a0000000000000000000000000000000000000000000000000000000008152600401610e2390612c47565b60405180910390fd5b601254821115610e71576040517f08c379a0000000000000000000000000000000000000000000000000000000008152600401610e6890613000565b60405180910390fd5b81601154610e7f9190612cec565b60118190555081601254610e939190612cec565b6012819055507fc1c90b8e0705b212262c0dbd7580efe1862c2f185bf96899226f7596beb2db09600460009054906101000a900473ffffffffffffffffffffffffffffffffffffffff16600660009054906101000a900473ffffffffffffffffffffffffffffffffffffffff1684604051610f1093929190612d8c565b60405180910390a160019050919050565b60008060008060008060008060008054906101000a900473ffffffffffffffffffffffffffffffffffffffff16905060008173ffffffffffffffffffffffffffffffffffffffff166370a08231306040518263ffffffff1660e01b8152600401610f8b9190612a5b565b60206040518083038186803b158015610fa357600080fd5b505afa158015610fb7573d6000803e3d6000fd5b505050506040513d601f19601f82011682018060405250810190610fdb9190612af7565b9050600460009054906101000a900473ffffffffffffffffffffffffffffffffffffffff16600660009054906101000a900473ffffffffffffffffffffffffffffffffffffffff16600f54601054846012546011549850985098509850985098509850505090919293949596565b6000600460009054906101000a900473ffffffffffffffffffffffffffffffffffffffff1673ffffffffffffffffffffffffffffffffffffffff163373ffffffffffffffffffffffffffffffffffffffff16146110db576040517f08c379a00000000000000000000000000000000000000000000000000000000081526004016110d290612ac2565b60405180910390fd5b600e60009054906101000a900460ff1680156111035750600e60019054906101000a900460ff165b801561111b5750600e60029054906101000a900460ff165b61115a576040517f08c379a000000000000000000000000000000000000000000000000000000000815260040161115190612c47565b60405180910390fd5b60008060009054906101000a900473ffffffffffffffffffffffffffffffffffffffff16905060008173ffffffffffffffffffffffffffffffffffffffff166370a08231306040518263ffffffff1660e01b81526004016111bb9190612a5b565b60206040518083038186803b1580156111d357600080fd5b505afa1580156111e7573d6000803e3d6000fd5b505050506040513d601f19601f8201168201806040525081019061120b9190612af7565b90506000612710600f546013546112229190613020565b61122c91906130a9565b9050818110611270576040517f08c379a000000000000000000000000000000000000000000000000000000000815260040161126790612d6c565b60405180910390fd5b8060125461127e9190612c96565b6012819055507fcb54aad3bd772fcfe1bc124e01bd1a91a91c9d80126d8b3014c4d9e687d5ca48600460009054906101000a900473ffffffffffffffffffffffffffffffffffffffff16600660009054906101000a900473ffffffffffffffffffffffffffffffffffffffff16836040516112fb93929190612d8c565b60405180910390a16001935050505090565b606060006005600460009054906101000a900473ffffffffffffffffffffffffffffffffffffffff1681805461134290612ef0565b80601f016020809104026020016040519081016040528092919081815260200182805461136e90612ef0565b80156113bb5780601f10611390576101008083540402835291602001916113bb565b820191906000526020600020905b81548152906001019060200180831161139e57829003601f168201915b50505050509150915091509091565b80601560006101000a81548173ffffffffffffffffffffffffffffffffffffffff021916908373ffffffffffffffffffffffffffffffffffffffff16021790555050565b600160009054906101000a900473ffffffffffffffffffffffffffffffffffffffff1673ffffffffffffffffffffffffffffffffffffffff163373ffffffffffffffffffffffffffffffffffffffff161461149e576040517f08c379a00000000000000000000000000000000000000000000000000000000081526004016114959061314c565b60405180910390fd5b6001600e60006101000a81548160ff0219169083151502179055507f2d02a8006c04b9bb35fcf84fbe0c3a2eebc574698ed7716c9f67b0f67244b6f5600160009054906101000a900473ffffffffffffffffffffffffffffffffffffffff16600460009054906101000a900473ffffffffffffffffffffffffffffffffffffffff16600660009054906101000a900473ffffffffffffffffffffffffffffffffffffffff16600f5460105460405161155a95949392919061316c565b60405180910390a1565b61156c6123ac565b6040518061016001604052806003805461158590612ef0565b80601f01602080910402602001604051908101604052809291908181526020018280546115b190612ef0565b80156115fe5780601f106115d3576101008083540402835291602001916115fe565b820191906000526020600020905b8154815290600101906020018083116115e157829003601f168201915b50505050508152602001600460009054906101000a900473ffffffffffffffffffffffffffffffffffffffff1673ffffffffffffffffffffffffffffffffffffffff1681526020016005805461165390612ef0565b80601f016020809104026020016040519081016040528092919081815260200182805461167f90612ef0565b80156116cc5780601f106116a1576101008083540402835291602001916116cc565b820191906000526020600020905b8154815290600101906020018083116116af57829003601f168201915b50505050508152602001600660009054906101000a900473ffffffffffffffffffffffffffffffffffffffff1673ffffffffffffffffffffffffffffffffffffffff1681526020016007805461172190612ef0565b80601f016020809104026020016040519081016040528092919081815260200182805461174d90612ef0565b801561179a5780601f1061176f5761010080835404028352916020019161179a565b820191906000526020600020905b81548152906001019060200180831161177d57829003601f168201915b5050505050815260200160085481526020016009548152602001600a548152602001600b548152602001600c548152602001600d54815250905090565b600660009054906101000a900473ffffffffffffffffffffffffffffffffffffffff1673ffffffffffffffffffffffffffffffffffffffff163373ffffffffffffffffffffffffffffffffffffffff1614611867576040517f08c379a000000000000000000000000000000000000000000000000000000000815260040161185e90612e0f565b60405180910390fd5b6001600e60026101000a81548160ff0219169083151502179055507f2e4ddfb651f821a25a38775d9a40cd48df71699988424942de2b58a490463f0f600460009054906101000a900473ffffffffffffffffffffffffffffffffffffffff16600660009054906101000a900473ffffffffffffffffffffffffffffffffffffffff16600f546010546040516118ff9493929190612bb6565b60405180910390a1565b80600260006101000a81548173ffffffffffffffffffffffffffffffffffffffff021916908373ffffffffffffffffffffffffffffffffffffffff16021790555050565b6000600460009054906101000a900473ffffffffffffffffffffffffffffffffffffffff1673ffffffffffffffffffffffffffffffffffffffff163373ffffffffffffffffffffffffffffffffffffffff16146119df576040517f08c379a00000000000000000000000000000000000000000000000000000000081526004016119d690612ac2565b60405180910390fd5b600e60009054906101000a900460ff168015611a075750600e60019054906101000a900460ff165b8015611a1f5750600e60029054906101000a900460ff165b611a5e576040517f08c379a0000000000000000000000000000000000000000000000000000000008152600401611a5590612c47565b60405180910390fd5b60008060009054906101000a900473ffffffffffffffffffffffffffffffffffffffff16905060008173ffffffffffffffffffffffffffffffffffffffff166370a08231306040518263ffffffff1660e01b8152600401611abf9190612a5b565b60206040518083038186803b158015611ad757600080fd5b505afa158015611aeb573d6000803e3d6000fd5b505050506040513d601f19601f82011682018060405250810190611b0f9190612af7565b9050806012819055507fcb54aad3bd772fcfe1bc124e01bd1a91a91c9d80126d8b3014c4d9e687d5ca48600460009054906101000a900473ffffffffffffffffffffffffffffffffffffffff16600660009054906101000a900473ffffffffffffffffffffffffffffffffffffffff1683604051611b8f93929190612d8c565b60405180910390a160019250505090565b606060006007600660009054906101000a900473ffffffffffffffffffffffffffffffffffffffff16818054611bd590612ef0565b80601f0160208091040260200160405190810160405280929190818152602001828054611c0190612ef0565b8015611c4e5780601f10611c2357610100808354040283529160200191611c4e565b820191906000526020600020905b815481529060010190602001808311611c3157829003601f168201915b50505050509150915091509091565b600080600f54601054915091509091565b600160009054906101000a900473ffffffffffffffffffffffffffffffffffffffff1673ffffffffffffffffffffffffffffffffffffffff163373ffffffffffffffffffffffffffffffffffffffff1614611cfe576040517f08c379a0000000000000000000000000000000000000000000000000000000008152600401611cf59061314c565b60405180910390fd5b600e60009054906101000a900460ff168015611d265750600e60019054906101000a900460ff165b8015611d3e5750600e60029054906101000a900460ff165b611d7d576040517f08c379a0000000000000000000000000000000000000000000000000000000008152600401611d7490612c47565b60405180910390fd5b60008060009054906101000a900473ffffffffffffffffffffffffffffffffffffffff16905060008173ffffffffffffffffffffffffffffffffffffffff166370a08231306040518263ffffffff1660e01b8152600401611dde9190612a5b565b60206040518083038186803b158015611df657600080fd5b505afa158015611e0a573d6000803e3d6000fd5b505050506040513d601f19601f82011682018060405250810190611e2e9190612af7565b9050611e7d600460009054906101000a900473ffffffffffffffffffffffffffffffffffffffff16828473ffffffffffffffffffffffffffffffffffffffff166120919092919063ffffffff16565b600060118190555060006012819055507f50d9aca76814f78d884b23d6acf60b8e4a0404b5bfd5fe15fae3cc9d874eb949600460009054906101000a900473ffffffffffffffffffffffffffffffffffffffff16600660009054906101000a900473ffffffffffffffffffffffffffffffffffffffff16604051611f029291906131bf565b60405180910390a15050565b6000600660009054906101000a900473ffffffffffffffffffffffffffffffffffffffff1690508073ffffffffffffffffffffffffffffffffffffffff163373ffffffffffffffffffffffffffffffffffffffff1614611fa3576040517f08c379a0000000000000000000000000000000000000000000000000000000008152600401611f9a9061325a565b60405180910390fd5b6000600660009054906101000a900473ffffffffffffffffffffffffffffffffffffffff1690506000601460009054906101000a900473ffffffffffffffffffffffffffffffffffffffff1690508073ffffffffffffffffffffffffffffffffffffffff166329a19edb8684876040518463ffffffff1660e01b815260040161202e9392919061327a565b600060405180830381600087803b15801561204857600080fd5b505af115801561205c573d6000803e3d6000fd5b505050505050505050565b6000601560009054906101000a900473ffffffffffffffffffffffffffffffffffffffff16905090565b6121128363a9059cbb60e01b84846040516024016120b09291906132b8565b604051602081830303815290604052907bffffffffffffffffffffffffffffffffffffffffffffffffffffffff19166020820180517bffffffffffffffffffffffffffffffffffffffffffffffffffffffff8381831617835250505050612117565b505050565b6000612179826040518060400160405280602081526020017f5361666545524332303a206c6f772d6c6576656c2063616c6c206661696c65648152508573ffffffffffffffffffffffffffffffffffffffff166121de9092919063ffffffff16565b90506000815111156121d95780806020019051810190612199919061330d565b6121d8576040517f08c379a00000000000000000000000000000000000000000000000000000000081526004016121cf906133ac565b60405180910390fd5b5b505050565b60606121ed84846000856121f6565b90509392505050565b60608247101561223b576040517f08c379a00000000000000000000000000000000000000000000000000000000081526004016122329061343e565b60405180910390fd5b6000808673ffffffffffffffffffffffffffffffffffffffff16858760405161226491906134a5565b60006040518083038185875af1925050503d80600081146122a1576040519150601f19603f3d011682016040523d82523d6000602084013e6122a6565b606091505b50915091506122b7878383876122c3565b92505050949350505050565b606083156123265760008351141561231e576122de85612339565b61231d576040517f08c379a000000000000000000000000000000000000000000000000000000000815260040161231490613508565b60405180910390fd5b5b829050612331565b612330838361235c565b5b949350505050565b6000808273ffffffffffffffffffffffffffffffffffffffff163b119050919050565b60008251111561236f5781518083602001fd5b806040517f08c379a00000000000000000000000000000000000000000000000000000000081526004016123a39190613528565b60405180910390fd5b60405180610160016040528060608152602001600073ffffffffffffffffffffffffffffffffffffffff16815260200160608152602001600073ffffffffffffffffffffffffffffffffffffffff168152602001606081526020016000815260200160008152602001600081526020016000815260200160008152602001600081525090565b6000604051905090565b600080fd5b600080fd5b600073ffffffffffffffffffffffffffffffffffffffff82169050919050565b600061247182612446565b9050919050565b61248181612466565b811461248c57600080fd5b50565b60008135905061249e81612478565b92915050565b6000602082840312156124ba576124b961243c565b5b60006124c88482850161248f565b91505092915050565b6000819050919050565b6124e4816124d1565b81146124ef57600080fd5b50565b600081359050612501816124db565b92915050565b60006020828403121561251d5761251c61243c565b5b600061252b848285016124f2565b91505092915050565b60008115159050919050565b61254981612534565b82525050565b60006020820190506125646000830184612540565b92915050565b600081519050919050565b600082825260208201905092915050565b60005b838110156125a4578082015181840152602081019050612589565b838111156125b3576000848401525b50505050565b6000601f19601f8301169050919050565b60006125d58261256a565b6125df8185612575565b93506125ef818560208601612586565b6125f8816125b9565b840191505092915050565b61260c816124d1565b82525050565b600060a082019050818103600083015261262c81886125ca565b905061263b6020830187612603565b6126486040830186612603565b6126556060830185612603565b6126626080830184612603565b9695505050505050565b61267581612466565b82525050565b600060e082019050612690600083018a61266c565b61269d602083018961266c565b6126aa6040830188612603565b6126b76060830187612603565b6126c46080830186612603565b6126d160a0830185612603565b6126de60c0830184612603565b98975050505050505050565b6000604082019050818103600083015261270481856125ca565b9050612713602083018461266c565b9392505050565b600082825260208201905092915050565b60006127368261256a565b612740818561271a565b9350612750818560208601612586565b612759816125b9565b840191505092915050565b61276d81612466565b82525050565b61277c816124d1565b82525050565b60006101608301600083015184820360008601526127a0828261272b565b91505060208301516127b56020860182612764565b50604083015184820360408601526127cd828261272b565b91505060608301516127e26060860182612764565b50608083015184820360808601526127fa828261272b565b91505060a083015161280f60a0860182612773565b5060c083015161282260c0860182612773565b5060e083015161283560e0860182612773565b5061010083015161284a610100860182612773565b5061012083015161285f610120860182612773565b50610140830151612874610140860182612773565b508091505092915050565b600060208201905081810360008301526128998184612782565b905092915050565b60006040820190506128b66000830185612603565b6128c36020830184612603565b9392505050565b600080fd5b600080fd5b7f4e487b7100000000000000000000000000000000000000000000000000000000600052604160045260246000fd5b61290c826125b9565b810181811067ffffffffffffffff8211171561292b5761292a6128d4565b5b80604052505050565b600061293e612432565b905061294a8282612903565b919050565b600067ffffffffffffffff82111561296a576129696128d4565b5b612973826125b9565b9050602081019050919050565b82818337600083830152505050565b60006129a261299d8461294f565b612934565b9050828152602081018484840111156129be576129bd6128cf565b5b6129c9848285612980565b509392505050565b600082601f8301126129e6576129e56128ca565b5b81356129f684826020860161298f565b91505092915050565b60008060408385031215612a1657612a1561243c565b5b600083013567ffffffffffffffff811115612a3457612a33612441565b5b612a40858286016129d1565b9250506020612a51858286016124f2565b9150509250929050565b6000602082019050612a70600083018461266c565b92915050565b7f4f6e6c792062757965722063616e2072656c656173652066756e64732e000000600082015250565b6000612aac601d83612575565b9150612ab782612a76565b602082019050919050565b60006020820190508181036000830152612adb81612a9f565b9050919050565b600081519050612af1816124db565b92915050565b600060208284031215612b0d57612b0c61243c565b5b6000612b1b84828501612ae2565b91505092915050565b7f506c65617365206465706f73697420746f6b656e73206265666f72652073696760008201527f6e696e6720636f6e747261637400000000000000000000000000000000000000602082015250565b6000612b80602d83612575565b9150612b8b82612b24565b604082019050919050565b60006020820190508181036000830152612baf81612b73565b9050919050565b6000608082019050612bcb600083018761266c565b612bd8602083018661266c565b612be56040830185612603565b612bf26060830184612603565b95945050505050565b7f436f6e7472616374206e6f74207965742066696e616c00000000000000000000600082015250565b6000612c31601683612575565b9150612c3c82612bfb565b602082019050919050565b60006020820190508181036000830152612c6081612c24565b9050919050565b7f4e487b7100000000000000000000000000000000000000000000000000000000600052601160045260246000fd5b6000612ca1826124d1565b9150612cac836124d1565b9250827fffffffffffffffffffffffffffffffffffffffffffffffffffffffffffffffff03821115612ce157612ce0612c67565b5b828201905092915050565b6000612cf7826124d1565b9150612d02836124d1565b925082821015612d1557612d14612c67565b5b828203905092915050565b7f496e73756666696369656e742066756e64730000000000000000000000000000600082015250565b6000612d56601283612575565b9150612d6182612d20565b602082019050919050565b60006020820190508181036000830152612d8581612d49565b9050919050565b6000606082019050612da1600083018661266c565b612dae602083018561266c565b612dbb6040830184612603565b949350505050565b7f4f6e6c792073656c6c65722063616e2077697468647261772e00000000000000600082015250565b6000612df9601983612575565b9150612e0482612dc3565b602082019050919050565b60006020820190508181036000830152612e2881612dec565b9050919050565b7f496e76616c69642073746174652e204c6f636b6564203e2042616c616e63652160008201527f2100000000000000000000000000000000000000000000000000000000000000602082015250565b6000612e8b602183612575565b9150612e9682612e2f565b604082019050919050565b60006020820190508181036000830152612eba81612e7e565b9050919050565b7f4e487b7100000000000000000000000000000000000000000000000000000000600052602260045260246000fd5b60006002820490506001821680612f0857607f821691505b60208210811415612f1c57612f1b612ec1565b5b50919050565b7f4f6e6c7920756e6c6f636b65722063616e20756e6c6f636b2066756e64732e00600082015250565b6000612f58601f83612575565b9150612f6382612f22565b602082019050919050565b60006020820190508181036000830152612f8781612f4b565b9050919050565b7f43616e6e6f7420756e6c6f636b206d6f7265207468616e2066756e647320726560008201527f6c65617365642062792062757965722e00000000000000000000000000000000602082015250565b6000612fea603083612575565b9150612ff582612f8e565b604082019050919050565b6000602082019050818103600083015261301981612fdd565b9050919050565b600061302b826124d1565b9150613036836124d1565b9250817fffffffffffffffffffffffffffffffffffffffffffffffffffffffffffffffff048311821515161561306f5761306e612c67565b5b828202905092915050565b7f4e487b7100000000000000000000000000000000000000000000000000000000600052601260045260246000fd5b60006130b4826124d1565b91506130bf836124d1565b9250826130cf576130ce61307a565b5b828204905092915050565b7f4f6e6c792061646d696e2063616e20706572666f726d2074686973206f70657260008201527f6174696f6e2e0000000000000000000000000000000000000000000000000000602082015250565b6000613136602683612575565b9150613141826130da565b604082019050919050565b6000602082019050818103600083015261316581613129565b9050919050565b600060a082019050613181600083018861266c565b61318e602083018761266c565b61319b604083018661266c565b6131a86060830185612603565b6131b56080830184612603565b9695505050505050565b60006040820190506131d4600083018561266c565b6131e1602083018461266c565b9392505050565b7f4f6e6c79206661726d65722063616e20646f2074686973206f7065726174696f60008201527f6e2e000000000000000000000000000000000000000000000000000000000000602082015250565b6000613244602283612575565b915061324f826131e8565b604082019050919050565b6000602082019050818103600083015261327381613237565b9050919050565b6000606082019050818103600083015261329481866125ca565b90506132a3602083018561266c565b6132b06040830184612603565b949350505050565b60006040820190506132cd600083018561266c565b6132da6020830184612603565b9392505050565b6132ea81612534565b81146132f557600080fd5b50565b600081519050613307816132e1565b92915050565b6000602082840312156133235761332261243c565b5b6000613331848285016132f8565b91505092915050565b7f5361666545524332303a204552433230206f7065726174696f6e20646964206e60008201527f6f74207375636365656400000000000000000000000000000000000000000000602082015250565b6000613396602a83612575565b91506133a18261333a565b604082019050919050565b600060208201905081810360008301526133c581613389565b9050919050565b7f416464726573733a20696e73756666696369656e742062616c616e636520666f60008201527f722063616c6c0000000000000000000000000000000000000000000000000000602082015250565b6000613428602683612575565b9150613433826133cc565b604082019050919050565b600060208201905081810360008301526134578161341b565b9050919050565b600081519050919050565b600081905092915050565b600061347f8261345e565b6134898185613469565b9350613499818560208601612586565b80840191505092915050565b60006134b18284613474565b915081905092915050565b7f416464726573733a2063616c6c20746f206e6f6e2d636f6e7472616374000000600082015250565b60006134f2601d83612575565b91506134fd826134bc565b602082019050919050565b60006020820190508181036000830152613521816134e5565b9050919050565b6000602082019050818103600083015261354281846125ca565b90509291505056fea2646970667358221220489720ecbf5d8cf50510a392a055f6fbed73a485b42af0e20eed6aff91fff7ad64736f6c63430008090033",
  "linkReferences": {},
  "deployedLinkReferences": {}
}